:020000040000FA
:10000000B0270020150400001D0400001F0400009C
:10001000210400002304000025040000000000006B
:1000200000000000000000000000000027040000A5
:1000300029040000000000002B0400002D04000033
:10004000790900002F040000B50C0000050A00002B
:100050002F0400002F040000A10700002F0400005F
:100060002F0400002F0400002F040000D10900001D
:100070002F0400002F0400002F0400002F040000B4
:100080002F040000E10900002F0400002F040000ED
:10009000150A00002F0400002F0400002F040000A8
:1000A0002F0400002F0400002F0400002F04000084
:1000B0002F0400002F0400000000000000000000DA
:1000C0002F0400002F0400002F0400002F04000064
:1000D0002F0400002F0400002F0400000000000087
:1000E0000000000000000000000000000000000010
:1000F0000000000000000000000000000000000000
:1001000000000000000000000000000000000000EF
:1001100000000000000000000000000000000000DF
:10040000DFF80CD000F09AF900480047F11D000019
:10041000B02700200648804706480047FEE7FEE771
:10042000FEE7FEE7FEE7FEE7FEE7FEE7FEE7FEE7A4
:10043000190A000001040000004870470040000055
:1004400040EA01039B0703D009E008C9121F08C056
:10045000042AFAD203E011F8013B00F8013B521ED6
:10046000F9D27047421C10F8011B0029FBD1801AF9
:1004700070472DE9FE4F81EA030404F0004421F0A7
:10048000004100944FF0000B23F0004350EA0104B8
:100490005ED052EA03045BD0C3F30A54C1F30A5599
:1004A0002C44A4F2F3340194A0FB0254C1F31301D1
:1004B00041F48011C3F3130343F4801301FB02449E
:1004C00000FB034E840A970A44EA815447EA8357A3
:1004D000A4FB076802958D0A05FB07854FEA932C5C
:1004E00004FB0C542705029D4FEA065847EA1637CD
:1004F000B5EB08056EEB070C870E920E47EA8117E5
:1005000042EA8312A7FB0201B6EB0B0164EB000485
:100510002B0D43EA0C335E1844EB1C50DA4651466F
:10052000E7FB0201C5F313044FEA0B3343EA14530C
:100530004FEA0432019C43EA0603A4F10C0402943E
:10054000009CCDE900B400F0AAF803B0BDE8F08F3C
:1005500000200146F9E70EB5C10F80EAE0700844BB
:10056000CA07002140F233438DE80E000A460B46CD
:1005700000F095F803B000BD01F0004330B421F065
:10058000004150EA010206D00A0DA2F56072C1F3E3
:100590001301002A02DC30BC00207047440F44EAFB
:1005A000C104C100E01830BC00EBC25000F031B80B
:1005B0002DE9F05F0546002092469B468846064698
:1005C000814640241BE0284641464746224600F02B
:1005D000D6F853465A46C01A914110D311461846D0
:1005E000224600F0BDF82D1A67EB01084F4622465F
:1005F0000120002100F0B4F817EB00094E41201E45
:10060000A4F10104DFDC484631462A464346BDE8F2
:10061000F09F0029A8BF7047401C490008BF20F088
:100620000100704710B4B0FA80FC00FA0CF050EAF8
:10063000010404BF10BC704749B1CCF1200421FA79
:1006400004F411FA0CF118BF012121430843A3EB74
:100650000C01CB1D4FEA00614FEA102042BF002081
:1006600010BC704700EBC35010440029A4BF10BC5D
:100670007047401C490008BF20F0010010BC7047C3
:1006800010B5141E73F1000408DA401C41F100019A
:1006900092185B411A4301D120F0010010BD2DE9F1
:1006A000F04D92469B4611B1B1FA81F202E0B0FAE8
:1006B00080F22032904600F053F804460F4640EA9C
:1006C0000A0041EA0B0153465A46084313D011462B
:1006D00053EA010019D0C8F14002504600F04FF82B
:1006E00005460E4650465946424600F039F8084342
:1006F00005D0012004E020463946BDE8F08D0020F9
:10070000054346EAE0762C4337430A986305E40A3A
:10071000A0EB08000022FD0A44EA47540A3002D543
:1007200000200146E9E7010510196941DDE90845A6
:1007300000196941BDE8F04DA2E70000064C074DE5
:1007400006E0E06840F0010394E8070098471034A1
:10075000AC42F6D3FFF758FE1040000030400000D6
:10076000202A04DB203A00FA02F100207047914071
:10077000C2F1200320FA03F3194390407047202A66
:1007800004DB203A21FA02F00021704721FA02F33B
:10079000D040C2F120029140084319467047000042
:1007A0002DE9F04700268CB0DFF86091B0464FF499
:1007B0008075012437460696284602F005F838B1C0
:1007C000D9F80403204203D0284601F0F3FF264362
:1007D0002D1D64007F1CADB2082FEDD34FF4BE7405
:1007E000204601F0F1FF48B1204601F0E3FF46F05A
:1007F000004606AA0121002001F0C8FF444D16F072
:10080000FF0F15D00127002437420DD009EB8401DA
:10081000D1F81005D1F81015C0F3042055F82420A4
:10082000C1F3014102B190477F00641C082CEBD357
:10083000002E67DA4FF0FF30CDE9088000263446FD
:10084000281910F8507F90F9000027F0C008401CCC
:1008500044D009A9404601F059FB58B34FEA971913
:10086000404601F0B3F855F820701FB1B9F1030FFD
:1008700003D00FE0B9F1030F30D108A84FEAD80236
:1008800008F00703815C4FF0010C0CFA03FC41EA0D
:100890000C0181544FF0A04101EB8800D0F8000713
:1008A00006A9C0F3014A404601F030FB18B1BAF185
:1008B000020F03D012E0BAF1030F0FD1B9F1030F09
:1008C00008D1BAF1020F1BD00221404601F03BFFD4
:1008D000761CF6B217B149464046B847641C042C52
:1008E000AED3002E0ED06A460121002001F04EFF4B
:1008F00006990098884205D00690089809909DE7CF
:100900000321E2E70CB0BDE8F08700000060004082
:10091000D801002000F01F02012191404009800011
:1009200000F1E020C0F88012704700F01F020121A2
:1009300091404009800000F1E020C0F800117047AC
:1009400000F01F02012191404009800000F1E020E9
:10095000C0F8001270474907090E002806DA00F0B7
:100960000F0000F1E02080F8141D704700F1E02036
:1009700080F80014704700002DE9F0414FF48077B3
:10098000384601F0CBFA0124104EA50748B138468D
:1009900001F0CBFA0120C5F808037470002001F0C3
:1009A0001DF84FF48277384601F0B8FA00280BD0D2
:1009B000384601F0BAFA0220C5F80803B470BDE861
:1009C000F041012001F00AB8BDE8F081C401002027
:1009D00003220021014801F0EDBC000000B00040FE
:1009E00007480021C0F84011C0F84411C0F8481170
:1009F000C0F84C11C0F80011C0F8041102F06ABE32
:100A0000001001400149024801F0D2B83002002034
:100A10000030004002F0DABDF0B598480023021D16
:100A200001780125101D4FF08056062907D1147852
:100A3000240704D10478C4F30314032C02D006293C
:100A400004D00FE08F4F8E4C7C670EE014782407A3
:100A500008D10478C4F30314032C06D0042C04D06A
:100A6000052C02D0062907D00EE0D6F84442864F66
:100A7000C4F342343C6002E01478240704D10478C3
:100A8000C4F30314032C02D0062906D011E07F4CD6
:100A9000276827F0807727600EE01478240708D1B4
:100AA0000478C4F30314032C06D0042C04D0052CC2
:100AB00002D006290AD011E04FF08044C4F80C316E
:100AC000C4F81031704C241F236002E0147824070E
:100AD00004D10478C4F30314032C02D0062905D0F2
:100AE0000CE0694F032464373C600AE01478240763
:100AF00004D10478C4F30314032C02D006290DD0CA
:100B000014E0634F05243C60614C78342560604CF0
:100B1000083423603F243F1D3C6002E01478240722
:100B200004D10478C4F30314052C02D0062957D04D
:100B300068E058490968584A11605649091D096812
:100B4000121D1160534908310968121D1160514985
:100B50000C310968121D11604E4910310968121DCF
:100B600011604C4914310968121D1160494918314E
:100B70000968494A2032116046491C310968121D32
:100B80001160444920310968121D11604149243126
:100B90000968121D11603F4928310968121D116052
:100BA0003C492C310968121D11603A4930310968FD
:100BB000394A40321160374934310968121D1160D9
:100BC000344938310968121D116032493C310968D5
:100BD000121D11602F4940310968121D116002E099
:100BE000117809070ED10078C0F30310032803D051
:100BF000042801D0052805D1D6F85802274900F06D
:100C00004F00086021487438016841F470010160A8
:100C1000BFF34F8FBFF36F8F4FF01021D1F8000259
:100C2000002803DBD1F80402002822DA1C4A1560F0
:100C30001C480468002CFCD01524C1F8004205684B
:100C4000002DFCD0C1F8044201680029FCD01360DB
:100C500001680029FCD0BFF34F8F0C48F0380168C1
:100C6000114A01F4E06111430160BFF34F8F00BFEF
:100C7000FDE70F490D480860F0BD0000E00F00F0EF
:100C80000DF0ADBA00C007403C050040FCED00E0AF
:100C9000105600400404001020C50040E40E00403F
:100CA00004E5014000E401400400FA050090D0038F
:100CB000880000200448017F04480029024901D02F
:100CC00003F014B802F083BF580200200020004057
:100CD0000FB41CB50246002007AC00290BD0491EFA
:100CE000CDE90021054B6A462146069800F018F828
:100CF000009A002111701CBC5DF814FB83110000E8
:100D000002E008C8121F08C1002AFAD170477047D4
:100D1000002001E001C1121F002AFBD17047000032
:100D20002DE9FF4F8DB00F460546002606E0252829
:100D30000BD0DDE90F1290476D1C761C2878002837
:100D4000F5D111B03046BDE8F08F0024A246A1468F
:100D50000122EC4900E0044315F8013F203B02FA70
:100D600003F00842F7D128782A2810D06FF02F021C
:100D70002878A0F13001092914D80AEB8A0102EB86
:100D8000410144F0020400EB010A6D1CF0E701CFC1
:100D90005FEA000A03D544F40054CAF1000A44F0A3
:100DA00002046D1C28782E2817D115F8010F44F085
:100DB00004042A280ED06FF02F022878A0F1300109
:100DC00009290AD809EB890102EB410100EB01096D
:100DD0006D1CF2E757F8049B6D1C28786C280FD027
:100DE00006DC4C2817D068280DD06A2814D104E0FE
:100DF000742810D07A280FD10DE044F400140AE0D2
:100E000044F4801401E044F440146978814202D132
:100E100004F580146D1C6D1C2A786E2A1FD00CDC22
:100E2000632A31D004DC002A8BD0582A11D1A3E0E8
:100E3000642A68D0692A0CD165E0732A2ED004DCBC
:100E40006F2A73D0702A04D19BE0752A6FD0782A5C
:100E50006ED01046DDE90F129047761C50E1C4F3C6
:100E60000250022806D0032809D0042801CF09D057
:100E7000066045E101CFF117C0E9006140E101CF13
:100E800006803DE106703BE117F8040B8DF8000089
:100E900000208DF80100EB46012003E057F804BB69
:100EA0004FF0FF3061074FF0000102D40DE008F170
:100EB0000101884649450FDA8045F8DB1BF8081028
:100EC0000029F4D108E008F1010188468142FADBEB
:100ED0001BF808100029F6D1DDE90F23AAEB080062
:100EE0008146214600F036F9304400EB080604E064
:100EF000DDE90F121BF8010B9047B8F10108F7D29A
:100F000021464846F7E00A21C4F302534FF0000B94
:100F10000891022B04D001CFC117032B09D00AE09E
:100F2000FF1D27F00707F7E8020108E032E01FE0A5
:100F300020E000B2C117042B01D140B2C117031E3B
:100F400071F1000307DA4FF0000CD0EB0C006CEBF2
:100F500001012D2302E0230504D52B238DF8243035
:100F6000012303E0E30701D02023F7E7984658E088
:100F70000A2110E010210EE010204FF0000B089025
:100F80000CE010214FF0000B44F004044FF008096E
:100F9000089103E008214FF0000B0891C4F30253BD
:100FA000022B04D001CF0021032B06D006E0FF1D49
:100FB00027F00707F7E8020103E080B2042B00D115
:100FC000C0B24FF0000823072BD5702A07D0DDF8F8
:100FD00020C08CF0100C5CEA0B0C05D00EE0402316
:100FE0008DF82430012308E050EA010306D03023B5
:100FF0008DF824308DF8252002239846DDF820C096
:101000008CF0080C5CEA0B0C0BD150EA010301D107
:10101000630706D530238DF824304FF00108A9F17D
:101020000109582A04D038A20B9208AA0A920BE0B0
:101030003AA2F9E75B46089AFFF7BAFA0B9B9B5C6A
:101040000A9A521E0A92137050EA0102F2D10A98CB
:10105000ADEB000000F1200B600702D524F48034D2
:1010600001E04FF00109D94502DDA9EB0B0000E0DA
:10107000002000EB0B0141440890AAEB010AE003B9
:1010800006D4DDE90F232146504600F063F80644FC
:101090004FF0000908E009A911F80900DDE90F1275
:1010A000904709F10109761CC145F4DBE0030CD53A
:1010B000DDE90F232146504600F04CF8064404E0D9
:1010C000DDE90F1230209047761C0899481E0890E1
:1010D0000029F5DC08E00A980A990078491C0A9171
:1010E000DDE90F129047761CBBF10001ABF1010B5B
:1010F000F1DC21465046DDE90F2300F019F80644E3
:101100006D1C1BE609280100303132333435363787
:101110003839616263646566000000003031323343
:1011200034353637383941424344454600000000E3
:101130002DE9F041044600251E461746880404D4D4
:1011400005E039462020B0476D1C641EF9D52846BD
:10115000BDE8F0812DE9F041044600251E46904689
:10116000C80301D5302700E02027880404D505E016
:1011700041463846B0476D1C641EF9D52846BDE887
:10118000F0814A68002A06D00A68531C0B60107070
:101190004868401E48607047022000F0A7B9000070
:1011A00070B50024064D06E06868012110F834008F
:1011B00000F0CCFF641C28788442F5D3002070BD79
:1011C00040000020F8B515460C460646052A01D217
:1011D0000720F8BD01F0A0F818B901F06FF8002859
:1011E000F7D1104900204E600C70C1E902500E4D3D
:1011F00008610DE006EBC4006968009181788DF804
:1012000001100078094A694600F0F2FF0028E0D199
:10121000641EE4B2EED2BDE8F840054A002102485F
:1012200000F03CB840000020203F0000511B0000AF
:10123000B11A00000BA1012001F014FD01F024FC03
:1012400001F026FC0028FBD1BFF34F8F0B4801684B
:101250000B4A01F4E06111430160BFF34F8F00BFFF
:10126000FDE700004150505F4552524F523A4552FF
:10127000524F523A466174616C0D0A000CED00E069
:101280000400FA050EB500210091CDE901106A466F
:1012900044F20100FFF7CEFF0EBD0000084B5B6873
:1012A00023B12AB120B10068037C1BB1082070472C
:1012B0000720704700230374417442611846704749
:1012C000640000202DE9F0470746984614468946F9
:1012D00090074FF0000526D12CB302F06DF8134EA5
:1012E00006F11000C6F80C800570457080F8029079
:1012F00044607560357075701420FFF70BFB072193
:101300001420FFF728FB1420FFF70FFB08480760A5
:1013100007211120FFF71FFB0548001F0068B06080
:101320000020BDE8F0870720FBE700005400002004
:10133000081501402DE9F843DFF87090D9F8043022
:101340005BB350B3052902D20720BDE8F883436997
:101350001BB3437C012B22D000270446002588467E
:101360001646284600F0ABF8684602F037FDC0B1DB
:10137000012101700E4944600968C0E90218C0E902
:1013800004769DF8000089F80100002000F099F82B
:101390001420FFF7D5FA2846D7E70820D5E70F46EF
:1013A000DBE70425002000F08CF8F4E7640000205F
:1013B000041501400649496839B130B1416921B18C
:1013C00000210174022102F065B908207047000075
:1013D000640000202DE9F0411D46044603461646F0
:1013E0001030094A074601F057F8002809D138465D
:1013F00001F042F82560267100206071A0716072D2
:10140000E060BDE8F0810000373800002DE9FF41C1
:1014100004461D4616460F46002000F050F8607A3C
:1014200030B1002000F04DF8112004B0BDE8F0818B
:1014300001206072002000F044F80B480168C06889
:10144000CDE90014CDE902708DF80C6069462046A4
:1014500000F00CF80028E8D101E005B1A847607A57
:101460000028FAD1A07AE0E7283F000070B50446D2
:1014700000260D46304600F022F8A07921798142FD
:1014800001D1617919B16179491E814204D11126D6
:10149000002000F016F810E0216841F82050401CB0
:1014A0002179C0B2814200D20020A071002000F05A
:1014B00008F80021204602F001F8304670BD00F027
:1014C00003B800F009B8000072B602480168491C70
:1014D000016070477400002003490868401E0860DE
:1014E00000D162B6704700007400002007490B5C11
:1014F0004FF0A041D1F804250120984020EA0203D2
:10150000C1F808351040C1F80C057047E83E0000EE
:101510000249085C012101F02EB90000E83E0000FC
:101520000249085C002101F026B90000E83E0000F5
:101530000649095C4FF0A040D0F80405C84010F0FF
:10154000010000D0012080F001007047E83E00005B
:101550007CB50024084E25460122305D009500230D
:101560001146019501F0B0F8641C042CF4D3BDE8D9
:101570007C4000F003B80000E83E000010B50024F5
:101580002046FFF7C5FF641C042CF9D310BD10B52D
:1015900000242046FFF7C4FF641C042CF9D310BDBF
:1015A00010B50246064B4FF0FF3000215C5C9442C0
:1015B00001D1084610BD491C0429F7D310BD000015
:1015C000EC3E00002DE9F0470D468146FFF7E8FFAD
:1015D0000446042838D2DFF878801C481D4EA8F154
:1015E000100735B3012D0ED0022D2DD104EB440090
:1015F00030444578002D27D0F968002924D02846AA
:10160000BDE8F047084704EB4401755C0E4471786F
:1016100059B179680E4A01EB810149000E3A8068A0
:10162000FFF788FE08B987F80290B17808F804102F
:10163000E0E78068FFF7BEFE04EB4401314418F890
:1016400004008D78A842D5D0BDE8F087F03E0000B8
:10165000340000209801002010B50E280BD011286E
:101660000CD107490748FFF701FF002806D0BDE865
:101670001040FFF707BE02491039F3E710BD000024
:101680004C3E00000C00002070B50023042810D24E
:101690000D4D00EB4004012A02D101290CD000229B
:1016A000094E00EB4000304461B1012906D0022907
:1016B00006D00723184670BD0E30C2B22A55F9E78E
:1016C0004270F7E78270F5E7980100202DE9F041BC
:1016D00006461F4800240F464160C0E90262B00779
:1016E0001FD50025012211462846FFF7CDFF6D1CAE
:1016F0000446042D02D2002CF4D012E08CB97A08F2
:1017000004211448FFF75EFD04000AD1FFF748FDED
:10171000040006D10F48104A0021001FFFF7BEFD4C
:101720000446F00701D0FFF713FF74B909480B4ACC
:1017300000210C38FFF7B2FD040006D10548084A25
:1017400001210838FFF7AAFD04462046BDE8F081D4
:1017500024000020FC3E0000611900007D1C0000F8
:10176000991100002DE9F047594C05460026607894
:1017700018B100206070FFF701FF0120554F4FF4B2
:101780007A694FF4C87A4FF06408182D2CD2DFE83C
:1017900005F0890C0C2C3A4751565A615A619B69E5
:1017A00069696969898C8F929B9B0020FFF7C0FE55
:1017B00000284FF0000008D0FFF7AAFE022D02D14A
:1017C0004FF4E16006E0484604E0FFF7A9FE022D71
:1017D0002ED05046B0FBF8F12570606841430022DE
:1017E0003868FFF7A7FD064659E00020FFF7A0FE86
:1017F00028B10020FFF78CFE4FF44870EAE7002084
:10180000FFF78EFE14E00020FFF792FE00284FF055
:10181000000002D0FFF77CFED5E7FFF781FED8E796
:101820000020FFF785FE0028E9D00020FFF770FEBA
:10183000C820CFE70020FFF759FE257007E0002001
:101840003FE025702BE060700120FFF74FFE002283
:101850006168C5E760700120FFF748FE606800EB33
:101860008001BCE77868FFF7A5FD0646D5F11100B9
:1018700000D01EB10220FFF74BFE10E001280BD96B
:10188000C82110FB01F1B1FBF8F16068002241436F
:101890007868FFF74FFD06460220FFF741FE30460D
:1018A000BDE8F087FFF76AFECBE7FFF767FEC6E704
:1018B000FFF764FE04E0FFF761FE0020FFF730FE53
:1018C0000120FFF72DFEBCE7FFF761FEB9E700003E
:1018D00024000020F03E0000002901DA00207047BB
:1018E00002681144016001207047000070B5461C79
:1018F0000D4601240020FFF7E2FD114A1068286020
:10190000D2E900109568081A2B1A701C5B1C9842CB
:101910000FD963B10B480C4B294000681B6802EBE0
:10192000810163F39F20C8601068401C1060002490
:1019300001E0881910600020FFF7C3FD204670BD4C
:1019400098030020583F000084000020034803C88B
:10195000814201D101207047002070479803002088
:1019600000780221FFF72EBE05494FF0FF3208280C
:1019700041F8202002D3084480F848207047000036
:10198000D8010020F0B54FF0FF3512B10023082632
:1019900001E008230C260C4C05E000BF54F823702E
:1019A0007F1C04D05B1CB342F8D32846F0BD261838
:1019B0005DB286F8305044F82310002AF5D1E118C2
:1019C00081F84800F1E70000D801002002490844EE
:1019D00090F9300070470000D801002070B5084C25
:1019E000050009D010342168002907D0086820605C
:1019F000496828468847F6E70834F4E770BD0000D8
:101A0000C40100202DE9F05F26484168F1B3DFF8FA
:101A100098B00E688146DBF8004087688078E11B4B
:101A200021F07F45ED1CB0B9DFF880804FF48030A5
:101A3000C8F84403C8F804031120FEF76BFF112017
:101A4000FEF773FF4FF0010AC8F800A02F2000F046
:101A5000BBFA89F802A0B54200D23546124BE8190C
:101A60003C3320F07F401860DBF800105A46091B19
:101A700021F07F41001B20F07F40C91C81420FD91B
:101A8000106818602F2000F09FFA00E004E0BDE825
:101A9000F05F1120FEF754BFBDE8F05F01F08CBC91
:101AA000BDE8F09F540000200415014000100140E3
:101AB0002DE9F04100260125144C22E060682269DE
:101AC00000EBC607387805FA00F1114217D08A43B7
:101AD000226100F0E9FB02463878E36805FA00F17C
:101AE000194002FA00F3994209D17978012901D00D
:101AF000012100E0002151407A6802B19047761C34
:101B0000F6B220788642D9D3BDE8F08140000020AB
:101B10000E4910B50A784C780023A24212D0521C0C
:101B2000D2B20A70022A00D10B70084A0B78183220
:101B300052F8232002608868104420F07F408860BB
:101B4000012010BD0360002010BD000054000020E3
:101B50002DE9F041124E07460125BD403068FFF7E0
:101B600029FC00280DD10F4C2069284207D13846A6
:101B700000F09AFB0028E06805D0284304E0A84361
:101B80002061BDE8F081A843E0602069284320611E
:101B9000A1683068BDE8F0410022FFF7CBBB000030
:101BA000203F0000400000208872002048727047EB
:101BB0007FB50C46054691F8211094F82000CDE938
:101BC000000104F12602D11E2846E36901F0C3FE9C
:101BD000002823D194F8230008BB207B022801D0E1
:101BE00003281CD12269E169914218D16269E2613E
:101BF000E37B84F82030217E0328C1F3401184F870
:101C0000211006D004B029462046BDE8704001F0FE
:101C10003EBE00912946204601F022FF7FBD04F11F
:101C20000C0001AB07C883E8070094F823000021EB
:101C300068B1D5F8C404C5F8C404820701D50120F1
:101C400002E0400705D502208DF8000001E08DF884
:101C5000001084F82410207E4007DFD4D4E900214E
:101C6000684690477FBD0268134602E08A4204D06E
:101C70001268002AFAD10B60016070470348017AAC
:101C8000C90702D00078FFF76DBD7047240000201F
:101C90002DE9F043264CA4F110092278D9F80480EC
:101CA00099F80350404694F801C0D9F8086031E033
:101CB00002EB42036168521C01EBC301A378D2B26C
:101CC000934200D100220B78022B02D0032B21D1AA
:101CD0001DE003464F68194603E0B94203D00B46A6
:101CE000C969B9B1F9E7A9B18B4205D1C06918B981
:101CF000104E0125B56000260F68C969D96149B148
:101D00000B683B440B6005E00174C06900E00021F2
:101D10000028F9D19445CBD1C9E9010689F80350CF
:101D2000404502D00120BDE8F0830020FBE7000021
:101D300064000020001001402DE9F0412A4F0446C4
:101D4000002607F11005D7F804803EE002D02046B7
:101D5000E4691DE02878696800EB4002401CC0B2CD
:101D600001EBC2012870AA78904200D12E700A7847
:101D70004868012A2BD1027C4ABB8A684260CA6843
:101D800082600A69C26049698161F97801B146607F
:101D90004368BA68DFF854C0991A21F07F41614561
:101DA00002D28268114406E0D11A826821F07F4194
:101DB0008A4202D9511A016000E0066046600121A2
:101DC00086600174C66101F047FC002CBED1287802
:101DD00069788842BED17968414502D00120BDE8CA
:101DE000F0810020FBE7000054000020FFFF7F008F
:101DF0001FB5FFF7ADFB00F02DF908B1FFF742FA70
:101E0000002000F049F90023314A03211846FFF76A
:101E100059FA08B1FFF736FA2E4A40F6CD410220B2
:101E2000FFF754FC08B1FFF72DFA002000F0FEFF89
:101E300008B1FFF727FA28A1032000F013FF00BF25
:101E400000F026FE0028FBD12B4C04F140000FC807
:101E50008DE80F001E4B0522483369462748FFF7DF
:101E6000B9FA08B1FFF70EFA0023012224492348EA
:101E7000FFF7CCFA08B1FFF705FA00230122214948
:101E80001E48FFF7C3FA08B1FFF7FCF9D4E90001D7
:101E9000CDE9000140F2FF30ADF8000016481A4AC3
:101EA0006946083000F056FA08B1FFF7EBF912481E
:101EB0000121083000F0CEFA0F48083000F03EFA59
:101EC000AFF3038000F0E4FD0028FBD1F8E7000049
:101ED000EC000020591600004150503A494E464F40
:101EE0003A545749206D6173746572206578616D4D
:101EF000706C650D0A0000001C3E00000C00002004
:101F0000143E0000E03E0000F5330000C20800F07F
:101F100007030120895C98400840704700F1804029
:101F20000068002800D00120704708B500F180400B
:101F3000002101600068009008BD000000283ED02C
:101F40001F49204A096800BF00BF00BF00BF00BF93
:101F500000BF00BF00BF91422FD000BF00BF00BF35
:101F600000BF00BF00BF00BF00BF00BF00BF00BF79
:101F700000BF00BF00BF00BF00BF00BF00BF00BF69
:101F800000BF00BF00BF00BF00BF00BF00BF00BF59
:101F900000BF00BF00BF00BF00BF00BF00BF00BF49
:101FA00000BF00BF00BF00BF00BF00BF00BF00BF39
:101FB00000BF00BF00BF00BF00BF0138C3D17047E2
:101FC000880000200024F40000283ED01F49204A49
:101FD000096800BF00BF00BF00BF00BF00BF00BF57
:101FE00000BF91422FD000BF00BF00BF00BF00BFA5
:101FF00000BF00BF00BF00BF00BF00BF00BF00BFE9
:1020000000BF00BF00BF00BF00BF00BF00BF00BFD8
:1020100000BF00BF00BF00BF00BF00BF00BF00BFC8
:1020200000BF00BF00BF00BF00BF00BF00BF00BFB8
:1020300000BF00BF00BF00BF00BF00BF00BF00BFA8
:1020400000BF00BF00BF0138C3D170478800002027
:102050000024F40070B50E4C0025207808B18525C9
:1020600013E00021A16061602161E1604FF0E02098
:10207000D0F80001012610F0010F03D10721002044
:1020800000F045F8034806602670284670BD000041
:10209000C40100201805004070B5154D0446A8780D
:1020A00038B114B16168012088470020FFF707FAB2
:1020B00015E00020FFF703FA24B10D482146103047
:1020C000FFF7D1FDE86850B94FF48270FFF72DFF9C
:1020D00002204107C1F80403064901200860E868AE
:1020E000401CE860BDE870400020FFF7EAB900003E
:1020F000C40100200800004000F01F0201219140AF
:102100004009800000F1E020C0F8801170474907C5
:10211000090E002806DA00F00F0202F1E02282F830
:10212000141D03E000F1E02282F8001400F01F0209
:10213000012191404009800000F1E020C0F88012A8
:10214000C0F800117047000B40B270472DE9F04114
:102150008846054600F0AAFE234E002828461AD0DD
:10216000FFF734FC304490F848008009032802D07F
:1021700001280ED007E04FF0A040D0F81005E8404D
:1021800010F0010F05D003212846BDE8F04100F012
:10219000DABA0221F8E700F095FE002822D028469E
:1021A000FFF714FC04464FF4807000EB84000F4FDF
:1021B00081B207EB8400D0F8102542F00102C0F88C
:1021C0001025084600F0F6FAB8F1000F0AD02846AC
:1021D000FFF7FCFB56F82000002803D00120A040A8
:1021E000C7F80403BDE8F081D8010020006000407A
:1021F0002DE9FC41DFF8A480044608EB0400002729
:1022000090F930001346C0170E46401C01D0082735
:1022100041E0F27819462046FFF7B4FB0546401C22
:1022200038D0B07850B14FF0A04000EB8400D0F827
:10223000001721F00201C0F8001707E000217378B1
:10224000204600910A46019100F050FAF078C0B1A2
:102250001348317800EB8500D0F81025114B1A4057
:10226000C0F810254FF4F8524FF4403302EA04222C
:1022700003EA01410A43D0F810150A43C0F81025BB
:1022800009E008EB0500327810F8481F41EA821196
:10229000017000E004273846BDE8FC81D801002029
:1022A00000600040FFE0FCFF4FF0A041D1F81015A6
:1022B000C14011F0010000D00120704770B5144DED
:1022C00095F8540008B1082070BD0020411E2A185E
:1022D000401CC0B282F830102028F8D300242046D9
:1022E000FFF742FB641CE4B20C2CF8D30721062054
:1022F000FFF70DFF4FF4BE7000F05CFA05494FF098
:102300000040C1F80403012085F85400002070BD8E
:10231000D801002000600040034890F854000028D5
:1023200000D0012070470000D80100200121B1EB4E
:10233000507F01D1012070470020704701680122C1
:102340000A604079024A00EB4000022111547047B4
:102350003800002070B50D4604465AB16079144922
:102360000E1F41F82020607900EB4000305C18B16E
:10237000082070BD072070BDA97894F90400FFF70C
:10238000C6FE20682988C0F808156179287901EB14
:102390004101314448706179E87801EB41013144F1
:1023A00088706179012001EB41017054002070BDFB
:1023B0003C0000202DE9F0479146884604464FF442
:1023C00080354FF4A0760027DFF884A016E000BF28
:1023D000D4F8040328420DD0A05958B1C4F848538A
:1023E000C4F808533146204600F032FD5AF8281050
:1023F000F8B28847361D6D00B6B27F1C4F45E7D353
:10240000D4F804034FF4807110F0010F09D0D4F810
:10241000000130B1204600F01BFD5AF828100420BE
:102420008847D4F804034FF4827110F0020F0CD0E7
:10243000D4F80401002808D0204600F009FD5AF81D
:102440002810BDE8F04705200847BDE8F0870000E8
:102450003C00002070B50E4605464FF48071012403
:10246000006800F0F5FC2868C0F84443002E02D054
:102470002868C0F8044370BD0179064A01EB810168
:10248000006802EBC1010522C0F80025022081F896
:10249000220070473002002070B506460D460079D4
:1024A0001F4900EB800001EBC00494F8220008B142
:1024B000082070BD0020C4E90023A06084F8250036
:1024C00084F82400A87B84F82700687B10B1284694
:1024D00001F05CF9296840F20C60890001F1A0412B
:1024E000C1F800076968890001F1A041C1F800073F
:1024F000D5E900123068C0F80815C0F80C25A968A5
:10250000C0F82415206828B13068297B000B40B240
:10251000FFF7FDFD012084F82200002070BD0000BF
:102520003002002030B40379084C03EB830304EB42
:10253000C304930702D030BC0620704700681346DE
:102540000A460146204630BC01F0DDBA30020020C8
:102550002DE9F047054600793F4E904606EB4014C2
:102560000F46207F18B10846FFF7E0FE30B128463D
:1025700000F074F820B11120BDE8F0871020FBE7CF
:1025800084F81680A7600027A78228794FF00108F9
:1025900006EB40143E46207F0028286825D04FF4E3
:1025A0009079494600F07BFC4FF4AC7A514628689C
:1025B00000F075FC2868A17DA268C0F84425C0F829
:1025C00048152868C0F808806068F0B9494628684E
:1025D00000F060FC80465146286800F05BFC58EA39
:1025E0000001F3D058BBA7750FE04FF48E7A514627
:1025F00000F044FC2868C0F808802146286801F0F3
:10260000C8FA61684FF4807089B13046B4E751462A
:10261000286800F02EFC10B9A08A4845F7D1A08A9E
:10262000484505D02146286801F0B3FA00E081460C
:10263000A08AA17D8842EAD3A08A484501D10F260D
:10264000D1E75146286800F014FC0028F9D028682A
:10265000C0F80C80C7E70000580200200079044948
:1026600001EB4010807D002800D001207047000061
:102670005802002070B5044600791149002601EB8C
:10268000401520682A7FC0F80065686888B1207905
:1026900001EB4010007F0028206801D0094901E0CB
:1026A00008498C39C0F808132068FFF74CFDFFF784
:1026B00023FD204600F012FCEE766E6070BD000037
:1026C000580200201003020070B541EA4201DDE922
:1026D00004564FF0A04441EA830141EA052104EB8E
:1026E000800041EA0641C0F8001770BD70B541EAAC
:1026F0004201DDE904564FF0A04441EA830141EA7A
:10270000052104EB800041EA0641C0F8001770BDC6
:1027100070B541EA4201DDE904564FF0A04441EAB8
:10272000830141EA052104EB800041EA0641C0F83B
:10273000001770BD1CB5002100910B4601220191CC
:10274000FFF7E6FF1CBD4FF0A04202EB8000D0F87F
:10275000002722F44032C0F80027D0F8002742EAD0
:102760000141C0F8001770474FF0A042012181409D
:10277000C2F80815704701224FF0A043824011B102
:10278000C3F808257047C3F80C25704718B5084BE7
:102790006C4601441B68009306E000BF54F82030EB
:1027A000D3F81035401C08C28142F7D818BD00008C
:1027B0001C3F0000034908B508440021016000687F
:1027C000009008BD0060004002494058012800D038
:1027D0000020704700600040004870473D2800001E
:1027E00030B5144D044689B0287828B16878844201
:1027F00002D1002009B030BD20220F496846FDF704
:102800001FFE00208DF81400062000900820019083
:1028100005200390072002904FF0EB7006900548CA
:10282000001DFFF727FF0EB13046E3E701202870B7
:102830006C70DEE778000020383F00002DE9F04F93
:10284000C1B00D004FF0000140914D984B991C46CE
:10285000174601EB000B01D00A2000E00020804663
:1028600000F004FE00287CD16E46BCB9409840AA16
:102870003118284600F070FF002872D03846FDF766
:10288000F1FDC22800D9C220054640982A463044AE
:102890003946FDF7D5FD4098284440904FF0200A76
:1028A000409901EB080231320DEB01050DEB0206F8
:1028B000002002E005F801AB401C4045FAD3002798
:1028C0005C4508D305F801AB05F801AB05F801AB91
:1028D00006F801AB2DE04B98844202D24A98005D85
:1028E00002E0211A4C98405C2B46814602460121A9
:1028F000880022FA00F000F00F00092801D93730D3
:1029000000E03030C1F1010C491E03F80C00EFD299
:102910009D1C05F801ABFDF78FFD016811F809005A
:1029200010F03E0F01D0484600E02E2006F8010BC3
:10293000641C7F1C102FC3D30D2030700A207070D0
:1029400085F800A04099684641444331409100F029
:1029500093FD30B100F08AFD18B9002040905C452D
:102960009ED341B02046BDE8F08F2DE9F043C7B0BB
:1029700000251C46904689464E9F459500F076FD01
:1029800000287AD1459805AE311845AA484600F08E
:10299000E3FE002835D0072F27D2DFE807F0041226
:1029A0001B35424F5D004046FDF75CFD05464598EE
:1029B0002918FF2919D830442A464146FDF740FD21
:1029C00013E045982368C0F5807130444246FEF715
:1029D0007FF909E06068009045982368C0F5807130
:1029E00030444246FEF774F90546294645A8FEF7ED
:1029F00073FF459978B3B1F5807F3ED805A800F004
:102A00003BFD47B0BDE8F083D4E90101CDE9000109
:102A100045982368C0F5807130444246FEF758F966
:102A2000E2E7201D07C88DE8070045982368C0F538
:102A3000807130444246FEF74BF9D5E7201D0FC8A0
:102A40008DE80F0045982368C0F5807130444246F8
:102A5000FEF73EF9C8E710E004F1080001AD0FC829
:102A600085E80F006068009045982368C0F5807184
:102A700030444246FEF72CF9B6E70020C1E70000DB
:102A8000004870476B2900000120FFF7A9BE000035
:102A90002DE9F04F87B0FEF759FF18B1002007B0BD
:102AA000BDE8F08F454ED6E9014704EA070006EB82
:102AB0008000A146641CC5680CE000BFC5F3891006
:102AC00000EB9550044404EA070006EB8000A146A1
:102AD000C568641CA807F1D005F003004FF0000B97
:102AE000022805D0AA0A01A8C5F38313002153E0E8
:102AF00004EA070006EB800004F1010A0AEA070471
:102B0000C268381B80004FEA9558001DC5F3891331
:102B1000804521D929490C3138B106EB840400F0F5
:102B2000FF0CA8EB00000C3404E00C46002108F078
:102B3000FF0C0846C0B2CDE90210CDE9004CD6F832
:102B40001444C5F3C2005946A047404511D108F1CD
:102B500003080AEB98042AE0002106EB84000C30FD
:102B60000090CDE901810391C5F3C200D6F8144469
:102B7000EAE760F38F1509EA070006EB8000C560FD
:102B800016E000BF04EA070C06EB8C0C491CDCF8CD
:102B90000CC040F804CB641C9942F3D3C5F3C200C7
:102BA0000093D6F8105401AB5946A84700B17460A1
:102BB000FEF7CCFE80F0010071E7000098030020D2
:102BC0002DE9F843894607461F4CD81C012101EB2B
:102BD00090001D4690466946A668FEF787FE0028CD
:102BE00030D01A48016A002060F38201009867F330
:102BF000C50100EA060204EB820265F39F51401C06
:102C0000D16000EA060204EB8202401CC2F80C907C
:102C10000090A1683040091A8E00361DB54204EBC1
:102C2000800002D82A46414609E0324641460C302F
:102C3000FDF706FCA81B82B2034808EB06010C3026
:102C4000FDF7FEFBBDE8F88398030020583F000025
:102C5000034AFF23936000231360536000F0DEB843
:102C6000980300202DE9F8430F4F884604460025BD
:102C700069462846BE68FEF739FE002812D00B4888
:102C80000021406861F38200009964F3C50001EA05
:102C9000060265F3891007EB820268F39F20491C46
:102CA000D0600091BDE8F88398030020583F0000F1
:102CB0002DE9F843124D884604460127914669469E
:102CC0003846AE68FEF712FE002817D00D480021E6
:102CD000806861F38200009964F3C50001EA06028E
:102CE00067F3891005EB820268F39F20491CD060CE
:102CF0000091314005EB8101C1F80C90BDE8F883EB
:102D000098030020583F00002DE9F84F1B4C8846DF
:102D1000064603279A469146DDF828B069463846AC
:102D2000A568FEF7E3FD002825D0154800210069BD
:102D300061F38200009966F3C50001EA050267F3BA
:102D4000891004EB820268F39F20491CD06001EADD
:102D5000050204EB8202491CC2F80C9001EA05024C
:102D600004EB8202491CC2F80CA00091294004EB3C
:102D70008101C1F80CB0BDE8F88F00009803002075
:102D8000583F00002DE9F84F224C8846064605279B
:102D90009A469146DDF828B069463846A568FEF7A0
:102DA000A5FD002833D01C488169002060F3820112
:102DB000009866F3C50100EA050267F3891104EB88
:102DC000820268F39F21401CD16000EA050204EBF7
:102DD0008202401CC2F80C9000EA050204EB820259
:102DE000401CC2F80CA000EA050204EB8202401C61
:102DF000C2F80CB000EA050204EB82020B99401CF9
:102E0000D1600090284004EB80000C99C160BDE8BF
:102E1000F88F000098030020583F0000024A02F596
:102E2000826203C2704700009803002070B5064616
:102E30000020FFF7D5FC040008D1FFF7CDFC0546C4
:102E4000FFF71EFE32462946FFF702FF204670BDFF
:102E500008B5002242504058009008BD4058002854
:102E600000D00120704708B5002242504058009021
:102E700008BD4058002800D00120704708B5002246
:102E800042504058009008BDD0F80403084000D0DC
:102E9000012070474058002800D00120704708B535
:102EA000002242504058009008BD000004490844E8
:102EB00090F93000082801DB01207047002070479E
:102EC000D80100200449084490F93000082801D2B4
:102ED0000120704700207047D801002070B50346DC
:102EE00000791B4901EB40101968027F4FF0FF3059
:102EF000002AD1F80C25D1F81465D1F80855D1F87D
:102F0000104504D0C1F80C05C1F8140503E0C1F860
:102F10001405C1F80C051968C1F80805C1F81005B9
:102F2000501C02D01046FFF705FC701C02D0304642
:102F3000FFF700FC601C02D02046FFF7FBFB681C7B
:102F400004D02846BDE87040FFF7F4BB70BD000018
:102F5000580200202DE9F04F2DED068B83B048B1CB
:102F600003B00246BDEC068BA6A10320BDE8F04FDE
:102F7000FFF79EBEAC4CAD4904F1020E2278BEF8BC
:102F8000003002EB420001EB400170460D8845F332
:102F90000A055B1B0FFA83F8AEF800808D78BEF847
:102FA000023045F305055B1B1BB2AEF802309946B3
:102FB000CD78BEF8043045F305055B1B1BB283805A
:102FC0009A460D79C38845F305055B1B974D1BB2E7
:102FD000C035AEF8063095F800C06F789B46AE78E5
:102FE000EB78287947EA0C276D797F090F807706FF
:102FF00006D4B60076B2F71706EB9776B6108E7049
:103000005E0606D49B005BB2DE1703EB96739B1043
:10301000CB70430606D4800040B2C31700EB937018
:1030200080100871680600D565780888521C40F346
:103030000A00404400B2AEF800008F7847F305075D
:1030400009EB070636B2AEF80260CF78B14647F317
:1030500005070AEB070636B2AEF804600979B046F8
:1030600041F3050159440EB2D1B2AEF806602170A9
:10307000102902D30021217005E021B161780029D7
:103080007ED0A9427CD005F01C01042946D0082935
:1030900046D0142946D0182946D065A7FDF75BFA1B
:1030A00083469FED648B009153EC182BFDF7E1F9FB
:1030B0009FED629B53EC192BFDF7DBF9FDF75CFAF2
:1030C00000EE100A009953EC182BB5EEC00AF1EE91
:1030D00010FA41EC10BB51EC100B27DDFDF7C9F9DC
:1030E00053EC192BFDF7C5F9FDF746FA00990AEEE6
:1030F000100A41EC10BB53EC182B51EC100BFDF7F0
:10310000B8F953EC192BFDF7B4F9FDF735FA00EED9
:10311000100ABDEEC00AB8EEC00A26E049A7BDE716
:103120004AA7BBE74BA7B9E74CA7B7E7FDF7A1F95B
:1031300053EC192BFDF79DF9FDF71EFA00EE100A6E
:10314000009953EC182BBDEEC00AB8EEC0AA41ECB2
:1031500010BB51EC100BFDF78CF953EC192BFDF75C
:1031600088F9FDF709FA00EE100ADFED3D0A3AEEA4
:10317000400A20EE200ABDEEC00A10EE10AA00E0C0
:103180003BE0009953EC182B41EC10BB51EC100BB9
:10319000FDF76FF953EC192BFDF76BF9FDF7ECF91F
:1031A000F31700EE100A06EB13734FEAE87608EB0C
:1031B00016704FEAE97609EB1671091100911B119F
:1031C0000011CDE90103BDEEC00A534625A110EE62
:1031D000102A0320FFF7D6FD280601D52EA000E017
:1031E00019A00090A80601D52DA300E016A33A4629
:1031F0002DA11320FFF788FD657003B0BDEC068B91
:10320000BDE8F08F4150503A494E464F3A726561E1
:10321000645F616C6C5F6362202D206572726F72F7
:103220003A2025640D0A0000000000208C000020D8
:103230003F000000000000000000C03F0000000050
:103240000000B03F4C45465400000000524947483A
:1032500054000000444F574E00000000555000003D
:103260000000C8424150503A494E464F3A54656DAD
:10327000703A2025642E25303264207C20583A2074
:103280002533642C20593A202533642C205A3A20C7
:103290002533642000000000205348414B450000C6
:1032A00020544150000000007C20257325732573B5
:1032B0000D0A000010B530B10246BDE8104008A16B
:1032C0000320FFF7F5BC12A10320FFF7CBFC072377
:1032D000BDE81040134A14A10320FFF771BC0000A1
:1032E0004150503A494E464F3A726561645F6C6D89
:1032F0003735625F7265676973746572735F6362A5
:10330000202D206572726F723A2025640D0A00002C
:103310004150503A494E464F3A4C4D3735423A0D9E
:103320000A0000004C0100204150503A494E464FDF
:103330003A0D0A0010B530B10246BDE8104008A1B0
:103340000320FFF7B5BC13A10320FFF78BFC0B2371
:10335000BDE81040144A15A10320FFF731BC00005E
:103360004150503A494E464F3A726561645F6D6D07
:1033700061373636305F7265676973746572735F83
:103380006362202D206572726F723A2025640D0AE7
:10339000000000004150503A494E464F3A4D4D41D1
:1033A000373636303A0D0A004C0100204150503A71
:1033B000494E464F3A0D0A0070B5012670044FF091
:1033C000E0210025C1F88001084C4010C4F84803F2
:1033D000C4F8080366602F20FEF7F6FDA660044CD3
:1033E0002F20A560FEF7F0FDA57070BD0010014014
:1033F0005400002010B504280CD10320FEF776F805
:1034000005490648FEF732F8002803D0BDE8104011
:10341000FDF738BF10BD00002C3E00000C0000205E
:1034200070B50546C87D0C4600284FF484712846C7
:103430000AD0FFF723FDD5F81805627EE1688854AD
:10344000607E401C607670BDFFF718FDD5F818054A
:1034500070BD1FB501238DF800308DF80810019262
:10346000D0E90012684690471FBD00000148FFF7F1
:10347000F5B800007C00002070B50D460A460146F4
:1034800001240648FCF7DCFFEAB204490448FFF7D0
:103490005FF800B10024204670BD000098020020B3
:1034A0007C0000200B46C1680968002905D0C1686E
:1034B000C0684968026818461047704770B50446EE
:1034C0000E460020FDF7FBFF00250EB9E06810BB9B
:1034D0006079A179814201D1294609E0216851F83A
:1034E0002010401C2279C0B2824200D200206071BC
:1034F000E160E06878B10020FDF7E3FF2572204627
:1035000000F00FF801000BD02046FFF7CBFF0020A2
:10351000FDF7D5FFDCE7BDE870400020FDF7D1BF27
:1035200070BD3EB5027AC168896801EBC2014B7972
:103530005B088DF801300B6801930B798DF8023030
:103540008B79DB072ED04B79DC072BD1C468257B28
:10355000541CA54226D9C4680D2505EBC205A468F4
:10356000645D6408B4EB530F1CD1C168082303EBFE
:10357000C202896811440A6802920A798DF8032010
:103580004A79D20701D0022200E003228DF8002000
:103590008979C90701D0202200E00022017A491C64
:1035A00001720EE04A7902F001028DF8002000223B
:1035B00002928DF803208979C90701D0202200E00A
:1035C000002269461030FEF7ADFF3EBD2DE9F84FF1
:1035D000204C00256846D4E901B6FEF799FA8046EA
:1035E000FEF756FB0746A946B8F1000F25D0002389
:1035F000009ACC46606819E007680146974202D9F4
:10360000BA1A026014E0C1F800C0D1F80C80D21BD5
:10361000C8693B448A46B8F1000F07D0F71827F075
:103620007F47C1E90178CAF81C500D460028E3D154
:1036300060602846FEF780FB04E02846FEF77CFB2E
:1036400000B917B15846FEF7DDF984F80390BDE8DC
:10365000F88F0000540000200D4B10B5596831B1AF
:1036600002680C68A24204D8A21A0A60C1615860BC
:1036700010BD0B4603E00B46C969121B21B10C6853
:103680009442F8D3A41A0C600260C161D86110BDE5
:1036900054000020F8B5064600240D462046FDF7EC
:1036A0000EFF684600F09AFB68B105700849466055
:1036B0009DF8000048700020FDF703FF1420FDF77F
:1036C0003FF92046F8BD04240020FDF7FAFEF8E794
:1036D000640000202DE9F0411D4D6C68002C35D0B0
:1036E0001C4800270068A968B846401A20F07F46A9
:1036F0002068B04215D82246361A0744E469107C87
:1037000068B182F81080EB6833B1D2E905019847BF
:1037100028B1FDF7B7FD02E0D2E905108847002C7B
:10372000E6D129786878814206D1401CC0B2687021
:10373000022801D185F8018005486978183040F8E1
:103740002170BDE8F0411420FDF7FAB8BDE8F08122
:10375000540000200415014010B5144602004FF03B
:1037600001000CD00846136806A24FF48071FDF7E3
:10377000AFFA01462046BDE81040FEF7ADB8002183
:10378000216010BD5B253038645D00002DE9F041FB
:10379000044640F20C602168890001F1A041C1F8A3
:1037A00000076168890001F1A041C1F800072068A5
:1037B000FEF7DAFF6068FEF7D7FF216840F20D6080
:1037C000890001F1A041C1F800076168890001F199
:1037D000A041C1F800070420FEF7B0FB00274FF01E
:1037E000A04601252179D6F81005C84010F0010F38
:1037F00002D0002F1DD010E0217805FA01F0C6F8A4
:103800000C050420FEF79AFB2068FEF7ADFF0420AC
:10381000FEF794FB7F1C092FE4DB20798540C6F876
:103820000C550420FEF78AFB6068BDE8F041FEF706
:103830009BBFBDE8F08110B500780C4648B103216C
:103840002046FFF72FFE2046BDE810400121FFF77C
:1038500035BE207A0021401CE268C0B2127B824251
:10386000EED920722046FFF75CFE0100E8D110BDC2
:1038700001460320CA0701D04FF402408A0701D550
:1038800048F20120490701D548F2022070472DE98E
:10389000FC5F0C4605461F4693464FF0000A4FF466
:1038A00082712046FFF7DFFA4FF492712046FFF74E
:1038B000DAFA4FF48E712046FFF7D5FA4FF484718F
:1038C0002046FFF7D0FA002685F8266085F82360A9
:1038D000012F0ED00120C4F80002012020622060D8
:1038E000286840B140F28620A860A868C4F80403A4
:1038F0001AE00220EFE705F1260905F12308CDE9DA
:1039000000765B464A464146204600F024F80028EF
:10391000F5D195F8230038B1D4F8C404C4F8C40430
:1039200010B1FFF7A5FF82465046BDE8FC9F30B5B9
:103930001C78039D944206D2095DC0F81C151878C6
:10394000401C187005E0012115B1C161002030BD97
:103950004161012030BD2DE9FF4F81B00446087858
:103960000E9E90460F4618B998F80010B14201D14A
:10397000012100E0002189464FF48E7B4FF49271C3
:1039800060B12046FFF76FFA59462046FFF76BFA01
:103990004FF484712046FFF766FA4DE08A462046D0
:1039A000FFF75CFA012540BB59462046FFF756FA5F
:1039B00098B159462046FFF756FA51462046FFF780
:1039C0004DFAD0B90F9800904346324620460499EC
:1039D000FFF7ADFF00283ED02EE04FF4847B594620
:1039E0002046FFF73BFA38B359462046FFF73BFA2B
:1039F00051462046FFF732FA30B151462046FFF7D4
:103A000032FA65613D7017E098F80020049940464D
:103A1000B24211D2D4F818358B540178701E491C6B
:103A2000C9B288F80010814203D10220C4F8000214
:103A300001E0B14200D02562B9F1000F0ED04FF481
:103A4000827529462046FFF709FA38B129462046F3
:103A5000FFF709FA002005B0BDE8F08F0120FAE772
:103A60002DE9FC5F0C4605461E4692464FF00009C4
:103A70004FF4827120460C9FFFF7F5F94FF49271D5
:103A80002046FFF7F0F94FF48E712046FFF7EBF96F
:103A90004FF484712046FFF7E6F90020C4F80002D5
:103AA00085F8260085F8230001202062A06005F13A
:103AB00026039B463246514620460097FFF737FFC4
:103AC000286830B140F28620A860A868C4F80403D2
:103AD00016E005F1230853465A4641462046CDE9F3
:103AE0000067FFF738FF0028F5D195F8230038B1BB
:103AF000D4F8C404C4F8C40410B1FFF7B9FE814679
:103B00004846BDE8FC9FF8B504464FF0FF30C1F8C9
:103B1000080394F8240020B1A068C1F80403112020
:103B2000F8BD43F38000401C84F82400180701D539
:103B30000620F8BDA36192E8610004F10C0787E854
:103B40006100907884F820005068E0615078C1F8F6
:103B500088051078002501280ED008B9980601D5EF
:103B6000012000E0002084F8210000909378526842
:103B70002046FFF775FF06E084F8215093785268DD
:103B80002046FFF784FE21680029D2D184F8245012
:103B9000F8BD70B50C4605464FF48E71FFF76EF90F
:103BA000A18AA068415CA08A401CA082C5F81C15AF
:103BB00070BD1FB500228DF800208DF808108168B7
:103BC00001918275D0E90012684690471FBD2DE92A
:103BD000FF470C4605464FF40071FFF755F90127E2
:103BE0004FF40178002618B34FF4927949462846DD
:103BF000FFF73FF9E0B149462846FFF73FF9C5F81E
:103C00000883A07E00B96F6002208DF80000D5F80F
:103C10008004C5F880040390E07D8DF80800E0681A
:103C20000190E6752676D4E900126846904727E0B1
:103C300004212846FFF728F910B34FF48471284671
:103C4000FFF717F9E0B121462846FFF7E9FBE07DD1
:103C5000617E884214D1207E38B1617EE268E075D1
:103C60002069E0602676667607E0A07E00B96F6086
:103C7000C5F80883E675617EE2682046FFF7E9FB38
:103C80004FF48E7841462846FFF7F3F888B1A08AB2
:103C9000A17D884204D221462846FFF77AFF08E03A
:103CA00041462846FFF7EAF8A17D11B12046FFF70B
:103CB00080FF4FF4A27841462846FFF7DAF8002843
:103CC00012D041462846FFF7D9F8A07E00B12F60F8
:103CD000E07D002808D0E675617EE26804B02046E9
:103CE000BDE8F047FFF7B5BBBDE8FF872DE9FF4111
:103CF0000C464FF4927705463946FFF7CBF800267D
:103D0000C0B139462846FFF7CAF802208DF80000F6
:103D1000D5F88004C5F880040390D5F83C058DF8EB
:103D20000800E0680190E6752676D4E9001268463E
:103D3000904724E04FF4887739462846FFF7AAF8E1
:103D4000E8B139462846FFF7AAF8D5F83C05C1B2D4
:103D5000E07D884213D1207E60B1E268D5F8000290
:103D600020F02000C5F80002207EE0752069E060A8
:103D7000267601E0E675E2682046FFF76AFB4FF41D
:103D8000A27739462846FFF785F868B139462846B4
:103D9000FFF785F8E07D38B1E675D5F83C05E268B7
:103DA000C1B22046FFF755FB4FF4907631462846C6
:103DB000FFF770F800280FD031462846FFF76FF85C
:103DC000A07D002808D0D5F84C0504B0C1B220462B
:103DD000BDE8F041FFF7EDBEBDE8FF810A4A10B52E
:103DE00053789478591CC9B28C4200D100211478C0
:103DF0008C4201D1002010BD0170506803EB4301DB
:103E000000EBC10010BD00006400002001000302AF
:103E100001000000103E0000029000000000074179
:103E20000000000000B000400B000300552F000010
:103E3000000000006C3E000004000000B5320000ED
:103E4000000000008C3E0000080000003533000038
:103E500000000000CC3E0000020000001B0000003B
:103E60001A00000000009801070000000D3E00004D
:103E7000019001004C01002002910000DC3E000096
:103E8000019801004E010020049900000C3E000042
:103E9000019001004C010020019100000D3E000046
:103EA000019001004D010020029100000E3E000033
:103EB000019001004F010020029100000F3E000020
:103EC000019001005101002002910000DC3E000041
:103ED000019801004C0100200B990000000701002F
:103EE000DD3E000002980000111213140D0E0F1099
:103EF0005801002078010020A40100200D000300DB
:103F0000C51500000E000300C51500000F000300DA
:103F1000C515000010000300C5150000000000508A
:103F20007802002003000000A91B00000000000030
:103F30000000000000000000FFFFFFFFFFFFFFFF89
:103F4000FFFFFFFFFFFFFFFF000000000000000079
:103F50000000D60107010000290000000100000058
:103F6000010000000100000001000000010000004D
:103F7000010000000100000002000000004040407D
:103F8000404040404040414141414140404040402C
:103F900040404040404040404040404040050202D8
:103FA0000202020202020202020202020220202097
:103FB00020202020202020020202020202029090F3
:103FC00090909090101010101010101010101010F1
:103FD0001010101010101010020202020202888845
:103FE0008888888808080808080808080808080851
:103FF0000808080808080808020202024000000039
:104000007D3F00004F766572666C6F770D0A000089
:1040100030400000000000208C000000000D000077
:10402000BC4000008C00002024270000100D000080
:104030000000000000000000000000000000000080
:104040000000000000000000000000000030004000
:104050000000000000000000000000000000000060
:104060000000000000000000000000000000000050
:104070000000000000000000000000000000000040
:104080000000000000000000000000000000000030
:104090000000000000000000000000000000000020
:1040A00000000000000000000000000000200040B0
:0C40B00000000000044000000090D0035D
:0400000500000401F2
:00000001FF
