:020000040000FA
:10000000D0200020150400001D0400001F04000083
:10001000210400002304000025040000000000006B
:1000200000000000000000000000000027040000A5
:1000300029040000000000002B0400002D04000033
:100040002F0400002F0400002109000039060000E1
:100050002F0400002F0400005D0400002F040000A6
:100060002F0400002F0400002F0400002F040000C4
:100070002F0400002F0400002F0400002F040000B4
:100080002F040000150600002F0400002F040000BC
:10009000810600002F0400002F0400002F04000040
:1000A0002F0400002F0400002F0400002F04000084
:1000B0002F0400002F0400000000000000000000DA
:1000C0002F0400002F0400002F0400002F04000064
:1000D0002F0400002F0400002F0400000000000087
:1000E0000000000000000000000000000000000010
:1000F0000000000000000000000000000000000000
:1001000000000000000000000000000000000000EF
:1001100000000000000000000000000000000000DF
:10040000DFF80CD000F018F800480047F50B0000AA
:10041000D02000200648804706480047FEE7FEE758
:10042000FEE7FEE7FEE7FEE7FEE7FEE7FEE7FEE7A4
:100430008506000001040000064C074D06E0E06858
:1004400040F0010394E8070098471034AC42F6D31B
:10045000FFF7DAFF64150000841500002DE9F0476E
:1004600000268CB0DFF86091B0464FF4807501240F
:1004700037460696284600F0CDFD38B1D9F804037A
:10048000204203D0284600F0BBFD26432D1D64000A
:100490007F1CADB2082FEDD34FF4BE74204600F0A0
:1004A000B9FD48B1204600F0ABFD46F0004606AA73
:1004B0000121002000F090FD444D16F0FF0F15D0F3
:1004C0000127002437420DD009EB8401D1F8100533
:1004D000D1F81015C0F3042055F82420C1F30141D0
:1004E00002B190477F00641C082CEBD3002E67DA22
:1004F0004FF0FF30CDE9088000263446281910F867
:10050000507F90F9000027F0C008401C44D009A992
:10051000404600F0ABFB58B34FEA9719404600F055
:100520003BFA55F820701FB1B9F1030F03D00FE06B
:10053000B9F1030F30D108A84FEAD80208F0070339
:10054000815C4FF0010C0CFA03FC41EA0C01815470
:100550004FF0A04101EB8800D0F8000706A9C0F3D6
:10056000014A404600F082FB18B1BAF1020F03D0F5
:1005700012E0BAF1030F0FD1B9F1030F08D1BAF1AC
:10058000020F1BD00221404600F00EFD761CF6B291
:1005900017B149464046B847641C042CAED3002E20
:1005A0000ED06A460121002000F016FD0699009841
:1005B000884205D00690089809909DE70321E2E75C
:1005C0000CB0BDE8F087000000600040340000205F
:1005D00000F01F02012191404009800000F1E0205D
:1005E000C0F88012704700F01F02012191404009BD
:1005F000800000F1E020C0F80011704700F01F02F9
:10060000012191404009800000F1E020C0F8001273
:100610007047000007480021C0F84011C0F844119D
:10062000C0F84811C0F84C11C0F80011C0F804110E
:1006300000F022BE00100140F8B510480E4D0446EF
:100640004FF48C7100F0EEFC002813D00026C4F8A3
:100650001861D4F818010090A87E2C46FF2801D01C
:1006600000F0B3FC66762671216801B0201DBDE85C
:10067000F0400847F8BD00008C000020003000402A
:1006800000F096BDF0B598480023021D01780125C1
:10069000101D4FF08056062907D11478240704D185
:1006A0000478C4F30314032C02D0062904D00FE00D
:1006B0008F4F8E4C7C670EE01478240708D10478A5
:1006C000C4F30314032C06D0042C04D0052C02D050
:1006D000062907D00EE0D6F84442864FC4F34234D0
:1006E0003C6002E01478240704D10478C4F30314B6
:1006F000032C02D0062906D011E07F4C276827F092
:10070000807727600EE01478240708D10478C4F3BA
:100710000314032C06D0042C04D0052C02D0062987
:100720000AD011E04FF08044C4F80C31C4F8103105
:10073000704C241F236002E01478240704D104784D
:10074000C4F30314032C02D0062905D00CE0694F32
:10075000032464373C600AE01478240704D1047849
:10076000C4F30314032C02D006290DD014E0634F08
:1007700005243C60614C78342560604C083423606B
:100780003F243F1D3C6002E01478240704D1047824
:10079000C4F30314052C02D0062957D068E0584949
:1007A0000968584A11605649091D0968121D1160EF
:1007B000534908310968121D116051490C3109680B
:1007C000121D11604E4910310968121D11604C490B
:1007D00014310968121D1160494918310968494AE4
:1007E0002032116046491C310968121D11604449CC
:1007F00020310968121D1160414924310968121D18
:1008000011603F4928310968121D11603C492C31A3
:100810000968121D11603A4930310968394A40327D
:100820001160374934310968121D1160344938317B
:100830000968121D116032493C310968121D1160AE
:100840002F4940310968121D116002E01178090733
:100850000ED10078C0F30310032803D0042801D080
:10086000052805D1D6F85802274900F04F00086046
:1008700021487438016841F470010160BFF34F8F63
:10088000BFF36F8F4FF01021D1F80002002803DB77
:10089000D1F80402002822DA1C4A15601C480468BA
:1008A000002CFCD01524C1F800420568002DFCD0B6
:1008B000C1F8044201680029FCD0136001680029D6
:1008C000FCD0BFF34F8F0C48F0380168114A01F497
:1008D000E06111430160BFF34F8F00BFFDE70F4997
:1008E0000D480860F0BD0000E00F00F00DF0ADBA5B
:1008F00000C007403C050040FCED00E01056004001
:100900000404001020C50040E40E004004E501404E
:1009100000E401400400FA050090D00330000020FC
:100920000448017F04480029024901D000F093BD2A
:1009300000F002BDAC0000200020004002E008C82A
:10094000121F08C1002AFAD170477047002001E049
:1009500001C1121F002AFBD170470000BFF34F8F67
:1009600005480168054A01F4E06111430160BFF3E5
:100970004F8F00BFFDE700000CED00E00400FA051A
:100980000EB500210091CDE901106A4644F2010044
:10099000FFF7E4FF0EBD00000249084490F9300063
:1009A00070470000340000202DE9F05F26484168C0
:1009B000F1B3DFF898B00E688146DBF80040876835
:1009C0008078E11B21F07F45ED1CB0B9DFF8808015
:1009D0004FF48030C8F84403C8F804031120FFF72F
:1009E000F7FD1120FFF7FFFD4FF0010AC8F800A046
:1009F0002F2000F089F989F802A0B54200D23546CF
:100A0000124BE8193C3320F07F401860DBF80010EF
:100A10005A46091B21F07F41001B20F07F40C91C72
:100A200081420FD9106818602F2000F06DF900E0A6
:100A300004E0BDE8F05F1120FFF7E0BDBDE8F05F26
:100A400000F012BBBDE8F09F10000020041501402B
:100A5000001001400E4910B50A784C780023A242DC
:100A600012D0521CD2B20A70022A00D10B70084A6E
:100A70000B78183252F8232002608868104420F066
:100A80007F408860012010BD0360002010BD000081
:100A9000100000202DE9F043264CA4F11009227823
:100AA000D9F8048099F80350404694F801C0D9F869
:100AB000086031E002EB42036168521C01EBC301A4
:100AC000A378D2B2934200D100220B78022B02D03D
:100AD000032B21D11DE003464F68194603E0B942BC
:100AE00003D00B46C969B9B1F9E7A9B18B4205D169
:100AF000C06918B9104E0125B56000260F68C96994
:100B0000D96149B10B683B440B6005E00174C069D1
:100B100000E000210028F9D19445CBD1C9E90106B4
:100B200089F80350404502D00120BDE8F083002041
:100B3000FBE7000020000020001001402DE9F041FB
:100B40002A4F0446002607F11005D7F804803EE03E
:100B500002D02046E4691DE02878696800EB400275
:100B6000401CC0B201EBC2012870AA78904200D1AB
:100B70002E700A784868012A2BD1027C4ABB8A6809
:100B80004260CA6882600A69C26049698161F97815
:100B900001B146604368BA68DFF854C0991A21F081
:100BA0007F41614502D28268114406E0D11A826811
:100BB00021F07F418A4202D9511A016000E00660AB
:100BC0004660012186600174C66100F037FB002C8D
:100BD000BED1287869788842BED17968414502D073
:100BE0000120BDE8F0810020FBE70000100000209C
:100BF000FFFF7F00194B86B00DF1040C0FCB8CE882
:100C00000F0007248DF8074008208DF80600092002
:100C10008DF805000A208DF804001048104A01A93B
:100C2000083800F0DBF808B1FFF7AAFE0D480021F4
:100C3000816081818173017000F10803411C0748C4
:100C400007220838009400F057F908B1FFF798FE22
:100C5000054C204600F012F8FBE70000501500009C
:100C6000F110000000000020400D0300C20800F059
:100C700007030120895C98400840704700283ED057
:100C80001F49204A096800BF00BF00BF00BF00BF66
:100C900000BF00BF00BF91422FD000BF00BF00BF08
:100CA00000BF00BF00BF00BF00BF00BF00BF00BF4C
:100CB00000BF00BF00BF00BF00BF00BF00BF00BF3C
:100CC00000BF00BF00BF00BF00BF00BF00BF00BF2C
:100CD00000BF00BF00BF00BF00BF00BF00BF00BF1C
:100CE00000BF00BF00BF00BF00BF00BF00BF00BF0C
:100CF00000BF00BF00BF00BF00BF0138C3D17047B5
:100D0000300000200024F40000283ED01F49204A73
:100D1000096800BF00BF00BF00BF00BF00BF00BF29
:100D200000BF91422FD000BF00BF00BF00BF00BF77
:100D300000BF00BF00BF00BF00BF00BF00BF00BFBB
:100D400000BF00BF00BF00BF00BF00BF00BF00BFAB
:100D500000BF00BF00BF00BF00BF00BF00BF00BF9B
:100D600000BF00BF00BF00BF00BF00BF00BF00BF8B
:100D700000BF00BF00BF00BF00BF00BF00BF00BF7B
:100D800000BF00BF00BF0138C3D170473000002052
:100D90000024F4004907090E002806DA00F00F02CB
:100DA00002F1E02282F8141D03E000F1E02282F853
:100DB000001400F01F02012191404009800000F161
:100DC000E020C0F88012C0F8001170470121B1EB9B
:100DD000507F01D101207047002070472DE9FC5F52
:100DE0000C464179DFF80CA180460AEB4117387EAA
:100DF00010B10820BDE8FC9F3A60207B01254FF030
:100E0000A046012805D8217805FA01F0C6F80C059E
:100E100002E0207800F0D9F82178A946890001F194
:100E2000A041C1F800576578FF2D07D009FA05F0F9
:100E3000C6F80C05284600F0ADF801E04FF0FF358C
:100E4000A0784FF0000BFF280AD0002206465B4630
:100E5000CDF800B01146CDF804B000F089F801E0FB
:100E60004FF0FF36E078FF2804D000F0AEF8E078CD
:100E700000F090F898F80520E1780AEB42108176AE
:100E8000D8F800002178C0F80815C0F80C55C0F853
:100E90001065A168C0F82415227B617B01B1012196
:100EA000012A04D0022A05D0032A08D105E041F026
:100EB000020104E041F0040101E041F00601C0F844
:100EC00054156179C0F8C015396811B14021C0F8D6
:100ED00004130721C0F80015386820B1217998F96A
:100EE0000400FFF757FF584687F819B087F81890A5
:100EF00080E700008C0000201FB5069C00918DF853
:100F0000042002938DF80C400022694600F002F89C
:100F100004B010BDF0B413460D464179134A02EBFC
:100F200041114A7E12B1F0BC112070470C680122B9
:100F30001CB113F0140F00D14A7695E8D010083197
:100F400081E8D01011F8154F24F0030401F81D4971
:100F50008C7EFF2C04D04FF0A046A240C6F80C2592
:100F600000682A46F0BC00F0C9B800008C000020E0
:100F700070B541EA4201DDE904564FF0A04441EA70
:100F8000830141EA052104EB800041EA0641C0F8F3
:100F9000001770BD1CB5002100910B460122019184
:100FA0001146FFF7E5FF1CBD4FF0A04202EB8000A9
:100FB000D0F8002722F44032C0F80027D0F80027EC
:100FC00042EA0141C0F8001770474FF0A0420121EA
:100FD0008140C2F80815704718B5084B6C460144AB
:100FE0001B68009306E000BF54F82030D3F810359A
:100FF000401C08C28142F7D818BD000060150000EF
:10100000034908B50844002101600068009008BD4C
:101010000060004002494058012800D0002070477D
:10102000006000404058002800D001207047405820
:10103000002800D00120704708B5002242504058D7
:10104000009008BDD0F80403084000D0012070478C
:101050004058002800D00120704708B500224250B7
:101060004058009008BD000070B5012670044FF094
:10107000E0210025C1F88001084C4010C4F8480365
:10108000C4F8080366602F20FFF73EFEA660044CFC
:101090002F20A560FFF738FEA57070BD001001403D
:1010A0001000002070B50546C87D0C4600284FF49E
:1010B000847128460AD0FFF7BFFFD5F81805627E75
:1010C000E1688854607E401C607670BDFFF7B4FF15
:1010D000D5F8180570BD1FB501238DF800308DF8C7
:1010E00008100192D0E90012684690471FBD000029
:1010F0000149012008707047000000202DE9F843E5
:10110000044610681E4615460F464FF0000810B101
:10111000FFF75CFEF8B1A86810B1FFF757FED0B139
:1011200028792968C4F84415C4F84805287BA968BB
:10113000C4F83415C4F838054FF48C754046C4F82B
:101140001881D4F818110091F2074FF0010107D06F
:10115000C4F8501506E087F819801020BDE8F88320
:10116000C4F85005B20702D5C4F8401501E0C4F830
:101170004005300700D42161386848B146F380004B
:10118000401C4FF040000FD0C4F804030020E5E7F6
:1011900029462046FFF746FF0028F9D0B87EFF28F1
:1011A000F4D0FFF712FFF1E7C4F80803EEE7000000
:1011B0002DE9F84F204C00256846D4E901B6FFF729
:1011C00049FC8046FFF766FC0746A946B8F1000FC8
:1011D00025D00023009ACC46606819E007680146D4
:1011E000974202D9BA1A026014E0C1F800C0D1F8DF
:1011F0000C80D21BC8693B448A46B8F1000F07D067
:10120000F71827F07F47C1E90178CAF81C500D464E
:101210000028E3D160602846FFF790FC04E02846F0
:10122000FFF78CFC00B917B15846FFF7BDFB84F8F7
:101230000390BDE8F88F0000100000200D4B10B5A2
:10124000596831B102680C68A24204D8A21A0A6037
:10125000C161586010BD0B4603E00B46C969121B03
:1012600021B10C689442F8D3A41A0C600260C161E9
:10127000D86110BD100000202DE9F0411D4D6C68B3
:10128000002C35D01C4800270068A968B846401AD1
:1012900020F07F462068B04215D82246361A07440F
:1012A000E469107C68B182F81080EB6833B1D2E950
:1012B0000501984728B1FFF763FB02E0D2E905106A
:1012C0008847002CE6D129786878814206D1401CF5
:1012D000C0B26870022801D185F80180054869789C
:1012E000183040F82170BDE8F0411420FFF786B9AE
:1012F000BDE8F081100000200415014070B50C46D7
:1013000005464FF48E71FFF797FEA18AA068415CF5
:10131000A08A401CA082C5F81C1570BD1FB5002214
:101320008DF800208DF80810816801918275D0E950
:101330000012684690471FBD2DE9FF470C46054641
:101340004FF40071FFF77EFE01274FF4017800266D
:1013500018B34FF4927949462846FFF768FEE0B18A
:1013600049462846FFF768FEC5F80883A07E00B905
:101370006F6002208DF80000D5F88004C5F8800465
:101380000390E07D8DF80800E0680190E675267610
:10139000D4E900126846904727E004212846FFF769
:1013A00051FE10B34FF484712846FFF740FEE0B1C0
:1013B00021462846FFF776FEE07D617E884214D103
:1013C000207E38B1617EE268E0752069E0602676B3
:1013D000667607E0A07E00B96F60C5F80883E67501
:1013E000617EE2682046FFF776FE4FF48E78414634
:1013F0002846FFF71CFE88B1A08AA17D884204D24E
:1014000021462846FFF77AFF08E041462846FFF7C5
:1014100013FEA17D11B12046FFF780FF4FF4A278A3
:1014200041462846FFF703FE002812D041462846D1
:10143000FFF702FEA07E00B12F60E07D002808D0FB
:10144000E675617EE26804B02046BDE8F047FFF72C
:1014500042BEBDE8FF872DE9FF410C464FF492776D
:1014600005463946FFF7F4FD0026C0B13946284647
:10147000FFF7F3FD02208DF80000D5F88004C5F8D1
:1014800080040390D5F83C058DF80800E0680190D1
:10149000E6752676D4E900126846904724E04FF4BA
:1014A000887739462846FFF7D3FDE8B13946284604
:1014B000FFF7D3FDD5F83C05C1B2E07D884213D1DA
:1014C000207E60B1E268D5F8000220F02000C5F867
:1014D0000002207EE0752069E060267601E0E67576
:1014E000E2682046FFF7F7FD4FF4A2773946284619
:1014F000FFF7AEFD68B139462846FFF7AEFDE07D47
:1015000038B1E675D5F83C05E268C1B22046FFF770
:10151000E2FD4FF4907631462846FFF799FD00280A
:101520000FD031462846FFF798FDA07D002808D04F
:10153000D5F84C0504B0C1B22046BDE8F041FFF734
:10154000EDBEBDE8FF810000003000400300010057
:10155000FFFFFFFF07FF0000000000400000000049
:10156000000000508415000000000020340000003E
:101570003C090000B8150000340000209C20000049
:101580004C090000004E6F726469630000000000A7
:10159000000000000000000000000000000000004B
:1015A000000000000000000000000000000000003B
:0815B000000000000090D003D0
:0400000500000401F2
:00000001FF
