:020000040000FA
:10000000800D0020D5000000EF000000F10000008E
:1000100000000000000000000000000000000000E0
:10002000000000000000000000000000F3000000DD
:100030000000000000000000F5000000F7000000D4
:10004000F9000000F9000000F9020000F9000000CA
:10005000F900000000000000F9000000F9000000B5
:10006000B1020000C9020000E1020000F900000036
:10007000F9000000F9000000F9000000F90000009C
:10008000F9000000F9000000F9000000F90000008C
:10009000F9000000F9000000F9000000F90000007C
:1000A000F9000000F900000000000000000000005E
:1000B0000000000000000000000000000000000040
:1000C0000348854600F070F800480047E909000041
:1000D000800D00200321094802680A430260084895
:1000E00002680A4302600748804707480047FEE766
:1000F000FEE7FEE7FEE7FEE7FEE70000240500401E
:100100005405004011020000C10000000048704783
:100110000418000003460B439B0703D009E008C9FD
:10012000121F08C0042AFAD203E00B780370401CA7
:10013000491C521EF9D27047421C0178401C00290C
:10014000FBD1801A7047F0B51FB40646002082B07C
:1001500005464024019100901BE0019922460F467C
:10016000304600F043F8049A059B801A994110D359
:1001700010461946224600F029F8361A8F41019799
:10018000224601200021009F00F020F838184D4140
:1001900000902046641E0028DFDC019B0098294661
:1001A000324607B0F0BD0000064C0125064E05E0C2
:1001B000E36807CC2B430C3C98471034B442F7D388
:1001C000FFF782FF141800003418000010B5202A31
:1001D00004DB0146203A9140002010BD91402023CD
:1001E0009C1A0346E3401943904010BD10B5202AE5
:1001F00004DB0846203AD040002110BD0B46D34016
:10020000D0402024A21A91400843194610BD000096
:1002100010B500F0BDFB002805D01F491D484860FF
:10022000C8131E4988611E48018CC9B201290BD12F
:10023000828C120708D1028D1206120F042A03D1F4
:10024000828D1206120F0AD0012921D1818C090753
:100250001ED1018D0906090F0A2904D007E0114AB1
:1002600001219160F5E7828D1206120F05D00D294C
:100270000ED1808D0006000F0AD10B4801680129BC
:1002800004D00A49016001680129FCD1C021416103
:1002900010BD0000DFFF07C000050040006C0040FB
:1002A000C00F00F00006004000EC0640759300000F
:1002B00010B504220249034800F036FB10BD0000CF
:1002C000240000200080004010B5042202490348A9
:1002D00000F02AFB10BD000030000020009000401C
:1002E00010B504220249034800F01EFB10BD0000B7
:1002F0003C00002000A0004010B50249024801F077
:1003000070F910BD48000020002000400FB41CB55B
:100310000A46521E0192009007A9064B6A460698AB
:1003200000F026F8009A002111701CBC08BC04B033
:1003300018470000E507000030B47446641E2578B5
:10034000641CAB4200D21D46635D5B00E31830BC09
:10035000184702E008C8121F08C1002AFAD17047E6
:100360007047002001E001C1121F002AFBD1704735
:10037000FFB591B00F460546002606E025280AD0B5
:10038000149A139990476D1C761C28780028F5D193
:10039000304615B0F0BD002400940121F34A0294C8
:1003A00000E004436D1C2B780846203B9840104227
:1003B000F7D128782A280ED0022128780246303A30
:1003C000092A15D8009A0A235A43303A80180C4358
:1003D0006D1C0090F1E701CF0090002805DA0120A4
:1003E00040030443009840420090022004436D1CE7
:1003F00028782E2815D10420044368786D1C2A28FB
:100400000AD101CF6D1C02900BE002990A225143E0
:10041000303940186D1C029028780146303909297E
:10042000F3D928786C2810D006DC4C281AD068281C
:100430000ED06A2817D104E0742813D07A2812D17C
:1004400010E00120400504430CE00121090501E012
:10045000032109050C436978814203D1012000057D
:1004600024186D1C6D1C287803906E281ED00CDC9F
:10047000632831D004DC00288AD0582811D1B2E09A
:1004800064287BD069280CD178E073282DD004DC57
:100490006F2870D0702804D1A7E075286CD0782818
:1004A0006BD0149A13999047761C62E06002400F5B
:1004B000022807D003280AD0042838680AD006602A
:1004C0003F1D56E03868F11706604160F8E738686C
:1004D0000680F5E70670F3E738786946087400206F
:1004E000487404A80390012003E0386803900020BA
:1004F000C0433F1D61070FD5002101E00199491C50
:10050000029A0191914213DA8142F7DB019A039931
:10051000895C0029F2D10BE0002101E00199491C1E
:1005200001918142FADB019A0399895C0029F5D196
:1005300001990098139A401A00902146149B00F0EC
:100540003BF901998019461807E003980399007850
:10055000491C0391149A139990470198401E0190E9
:10056000401CF2D12146149B139A009800F014F914
:1005700086196D1C09E741E033E034E00A200021D0
:10058000049005916002410F022905D001CFC217E6
:100590009446032905D007E0FF1DFF08FF0003CFA5
:1005A00006E000B2C2179446042902D140B2C11736
:1005B0008C4600226146944506DA0A4600214042F4
:1005C00091418C462D2102E0210504D52B216A465C
:1005D0001176012103E0E10701D02021F7E7019125
:1005E00054E00A200BE0102009E0102004900021C4
:1005F0000420044308200591029003E00820002114
:10060000059104906002410F022905D001CF00221C
:100610009446032906D006E0FF1DFF08FF0003CF24
:100620008C4603E080B2042900D1C0B200210191C0
:1006300021072BD50399702906D0049A1021059B18
:100640004A401A4305D00EE040216A461176012146
:1006500008E06146014306D030216A4611760399CD
:10066000517602210191049A0821059B4A401A43C0
:100670000CD16146014301D1610707D530216A469B
:100680001176012101910299491E0291039958297D
:1006900004D037A103910FA90F910DE039A1F9E71B
:1006A0006146059B049AFFF74EFD039B8C469B5CBD
:1006B0000F9A521E0F92137061460143F0D10F98AA
:1006C00007A9081A20300390600704D50120000410
:1006D0008443029801E0012002900399884201DDE1
:1006E000401A00E000204118029001980918009873
:1006F000401A0090E00306D42146149B139A0098F8
:1007000000F05AF886190020049008E006A9085C59
:10071000149A139990470498401C761C04900199F0
:100720008842F3DBE0030CD52146149B139A009812
:1007300000F042F8861904E0149A3020139990478B
:10074000761C0299481E02900029F5DC08E00F98FB
:100750000F990078491C0F91149A13999047761CB1
:100760000399481E03900029F1DCFBE609280100EB
:100770003031323334353637383961626364656617
:1007800000000000303132333435363738394142D9
:100790004344454600000000F8B5044600251E46C7
:1007A0001746880404D405E039462020B0476D1C64
:1007B000641EF9D52846F8BDFFB50446002581B072
:1007C0001E46C80301D5302700E02027880404D541
:1007D00005E038460399B0476D1C641EF9D52846DC
:1007E00005B0F0BD4A68002A06D00A68531C0B60A9
:1007F00010704868401E48607047000008A1012042
:1008000000F0BAFD00F000FD00F004FD0028FBD16F
:10081000BFF34F8F09490848C860BFF34F8FFEE709
:100820004150505F4552524F523A4552524F523A00
:10083000466174616C0D0A000400FA0500ED00E0E9
:100840000EB50021029000916A4601910148FFF720
:10085000D5FF0EBD0140000000B500F005F800BD59
:1008600000B500F009F800BD72B602480168491CE5
:10087000016070471000002003490868401E0860AE
:1008800000D162B670470000100000200003000F86
:1008900001D00020704701207047002901DA0020B4
:1008A00070470268511801600120704770B5461CFE
:1008B0000D4601240020FFF7CFFF134A106828607F
:1008C000116850689368081A1D1A701C6D1CA842A4
:1008D00012D9002D0ED00D480D4C008824688005DB
:1008E0001940800DA402890020438918C86010684F
:1008F000401C1060002401E0881910600020FFF700
:10090000AFFF204670BD0000640100205C170000AE
:1009100020000020034803C8814201D10120704714
:100920000020704764010020F7B5002516460446F4
:100930002F4616E0A80001210904A940FF304130EC
:100940002258002A0BD003221202A21852680A422F
:1009500005D02750019A01991268496890476D1C8B
:10096000EDB2B542E6D3FEBD0121814003484068A7
:10097000014201D00120704700207047080000208C
:10098000014610B501208840FFF780FF10BD000030
:100990001048018CC9B2012917D1818C090714D1E3
:1009A000018D09060A0F03D1828D1206120F0ED097
:1009B000090F012903D1828D1206120F07D00329D6
:1009C00003D1808D0006000F01D000207047012068
:1009D00070470000C00F00F0012181400804000CA6
:1009E00000D00120704700000EB53F4901248869FE
:1009F000C96901910090684644703C4A69463A488A
:100A000000F088F9002801D0FFF71AFF36490925C0
:100A1000086A496A01900291684605713248334A72
:100A200001A9083000F076F9002801D0FFF708FF8F
:100A300000262D4801232E4A31460830009600F04A
:100A40004DF92949294A886AC96A01900291684684
:100A50000571254801A9103000F05CF9002801D08B
:100A6000FFF7EEFE20480123224A002110300096B5
:100A700000F034F900F0FCFC002000F0D9FC002864
:100A800001D0FFF7DDFE1C488463174800F018F919
:100A90001548083000F014F91348103000F010F930
:100AA000164E174C174D00210F4800F0E5F802468E
:100AB00015A1032000F086FC0B4800F026F9216800
:100AC000304600BF00BF00BF00BF00BF00BF00BF77
:100AD00000BFA94200D000BF0138F2D100F09AFB5C
:100AE0000028FBD1DFE700000C170000751500009F
:100AF000FFFF0000FF7F000040000040A0860100D3
:100B0000040000200024F4004150503A494E464F62
:100B10003A43757272656E7420636F756E743A2015
:100B200025640D0A000000008207D30EFF229A40C0
:100B30008907090E10B5994000280BDA03071B0F2F
:100B4000083B9C080C4BA400E318DC6994430C435D
:100B5000DC6107E08408094BA400E4182368934390
:100B60000B432360C106C90E012088400449086078
:100B70000449086010BD000000ED00E000E400E062
:100B800080E200E000E100E0F1B50427134E00240C
:100B90000020FFF761FE0125A540354204D0204624
:100BA000FFF7E2FE00280BD00020FFF759FE002FD0
:100BB00004D0641CAE43E4B2002EE9D13846F8BD3F
:100BC000074901204A68A040104348600098002768
:100BD00004703846FFF744FEF0E70000FFFF000016
:100BE00008000020F8B514460D00074612D0002C6E
:100BF00010D00026FFF7F0FE00280DD03846FFF792
:100C0000B3FE00280AD00648F900081805614461BF
:100C10003046F8BD0E20F8BD0726F9E70826F7E7AD
:100C200000F5014070B505460024FFF7A9FE002835
:100C30000FD02846FFF7D0FE002804D02846FFF743
:100C400093FE002807D001200449A84048602046B0
:100C500070BD0724FBE70824F9E7000000F5014018
:100C600004480178002901D08520704701210170D6
:100C70000020704708000020890010B50A46403265
:100C80000368D2B201249C50152200689201891891
:100C9000405810BD70B5012424048C40032605681B
:100CA0003602AD19002B01D06C6000E0AC6000682A
:100CB00089000818052109024018026470BD00006F
:100CC000016801220A6000790C225043024A022185
:100CD000801801727047000024000020F0B5FF2545
:100CE000023504688D40FF34FF340234059E2768C6
:100CF000AF4327600468FF34FF34023425681D4386
:100D000025603346FFF7C6FFF0BD00680121816012
:100D10007047000070B504460D4600790C21484329
:100D200022494618307A002801D0082070BD002AD8
:100D300005D03260686870600020034608E0072034
:100D400070BD8100FF31226841315350401CC0B258
:100D500061798142F5D82068E978000B40B2FFF74D
:100D6000E3FE05202168000209186A784B68D20763
:100D70005B085B00D20F13434B602168AA78091807
:100D80008B6892079B089B00920F13438B6022682D
:100D9000297810180269090712091201090F0A437C
:100DA000026101203072002070BD0000240000208C
:100DB00070B505460C4600791C2148430849431884
:100DC000284600F055F8002801D0112070BD9A7512
:100DD00000209C609882284600F004F870BD000056
:100DE00048000020F8B5044600791C2148431F49FB
:100DF00000264518FF2720681D37C65120680121AD
:100E000081602946206800F0D1FB6968002913D071
:100E100027E0FF270137FF211D31206800F01AFB72
:100E2000002802D1A88AB842F5D1A88AB84203D0D6
:100E30002946206800F0BAFBA88AA97D8842E8D339
:100E4000A98AC81FF9380ED0FF271D3739462068F8
:100E500000F000FB0028F9D020680121C1600020CB
:100E6000A8753046F8BD0F26F9E7000048000020BD
:100E700000791C21484303494018807D002800D098
:100E80000120704748000020F8B501791C22514329
:100E9000204A00238D1805220168120289180B6070
:100EA000696800290CD00324016824021A4B09192F
:100EB0008B600168C903CB0E01219940174B196063
:100EC0000522016812028A18D36856699768146966
:100ED0000021C9435161D1600068052212028018C7
:100EE00081600161581C02D0184600F02DF8701C7A
:100EF00002D0304600F028F8601C02D0204600F0F6
:100F000023F8781C02D0384600F01EF80020E8765E
:100F10006860F8BD480000208402020080E100E023
:100F200070B552000A439900049D0A432902059EA8
:100F30000A43310405240A432407800007210019CD
:100F400009024018026070BD1CB5002100910B46DB
:100F500001220191FFF7E4FF1CBD0000004870472B
:100F6000C90F000030B5154D0446287889B0002817
:100F700005D06878844202D1002009B030BD20221B
:100F80000F496846FFF7C6F8002069460875092032
:100F900000900B200190082003900A20029009483D
:100FA00006900648001DFFF76FFF002E01D0304667
:100FB000E3E7012028706C70DEE7000014000020D9
:100FC0003C17000000E0D701F0B5C5B00C46002189
:100FD00000914D984B991E46081817460390002C17
:100FE00001D00A2000E00020019000F0A5FA0028BE
:100FF0007ED104AD002E17D100986A4629182046EC
:1010000000F0BAFA002875D03846FFF795F8C228E4
:1010100000D9C22004460098224628183946FFF716
:1010200079F8009800190090009901980A1804A80E
:10103000441831328518002003E020212170401C23
:10104000641C01998842F8D300270398864207D38D
:10105000202020706070A0702870E41C6D1C2CE0B3
:101060004B98864202D24A98805D02E0311A4C9831
:10107000405C22468446012102908B006046D840A5
:101080000007000F092801D9373000E03030012374
:101090005B1AD054491EF0D220209070D41CFFF768
:1010A00035F801680298085C8006C00E01D00298ED
:1010B00000E02E2028706D1C761C7F1C102FC4D3DE
:1010C0000D2028700A206870202020700099019857
:1010D0000918433104A8009100F036FA002809D01D
:1010E00000F02AFA002805D100900398864200E01B
:1010F00000E099D3304645B0F0BDFFB5C7B000253C
:10110000509F1C46059500F017FA002875D10598E8
:1011100006AE311805AA489800F02EFA002836D0FD
:101120003846FF2701370300FFF706F90705131BB1
:10113000333F4B5725004998FEF7FEFF05990546BA
:101140004018FF2817D870182A464999FEF7E2FF81
:1011500011E005982368391A3018499AFFF7D6F834
:1011600008E06068009005982368391A3018499A99
:10117000FFF7CCF80546294605A8FFF78EFB059931
:1011800000283AD0B94238D806A800F0DDF94BB0B3
:10119000F0BDA16860680090019105982368391A34
:1011A0003018499AFFF7B2F8E4E7201D07C86B46EC
:1011B00007C305982368391A3018499AFFF7A6F82B
:1011C000D8E7201D0FC86D460FC505982368391A4A
:1011D0003018499AFFF79AF8CCE7204608300FC834
:1011E00001AD0FC56068009005982368391A301862
:1011F000499AFFF78BF8BDE7FFE70020C7E700003B
:1012000000487047FB10000010B50120FFF7AAFE50
:1012100010BD0000F0B595B0FFF77CFB002802D0B0
:10122000002015B0F0BD4B48446886682146314027
:10123000890009180C94CD680BE02904A80D890DCC
:101240004018041920463040810042480C94081888
:10125000C568641CA807F0D000200890A807800F7C
:101260003D4B022807D0AA0AA805000F84460EA904
:101270009646002059E02046304081003548641CE5
:101280000818C068049486462804800D84463440BB
:10129000301B8000AF0D001D874222D92D490C3133
:1012A000002807D02B4AA400A21814460C34C2B25E
:1012B000381A03E00C460021FAB20846C0B2039087
:1012C000019202910094A8065C69400F6346724641
:1012D0000899A047B84213D1FF1C0498B9080C180C
:1012E00030E01C48A200101800210C300090029140
:1012F00001970391A8065C69400F63467246E8E7D0
:10130000164980050D40000C05430C9830408100C3
:1013100010480818C56017E027463740BA000D4F3F
:10132000401CD719FF68641C80C167466045F3D331
:10133000A80600971D69400F0EAB72460899A84792
:10134000002801D003484460FFF7E4FA0121484037
:1013500067E7000064010020640500203F00FFFFF4
:1013600000B5044AFF23936000231360536000F02C
:1013700059F800BD64010020F8B5104D0E4607462F
:1013800000206946AC68FFF791FA002815D00C4898
:101390003C21808888437907890E08430F21890101
:1013A00088438105890DB00201430098024622401E
:1013B00092005219401CD1600090F8BD64010020D9
:1013C0005C170000F7B5154C82B00E4607460120A9
:1013D0006946A568FFF76AFA00281CD010483C212E
:1013E000008988437907890E08430F2189018843C2
:1013F000402108438105890DB0020143009802464F
:101400002A4092001219D160401C009028408000B0
:1014100000190499C16005B0F0BD0000640100200E
:101420005C170000014A516110617047640500209B
:1014300070B506460020FFF795FD040008D1FFF7C0
:101440008DFD0546FFF7DCFE32462946FFF788FF93
:10145000204670BD4058002800D00120704703226C
:10146000120280184068084000D001207047000038
:1014700070B5FFF7F5FB002801D0FFF7E1F91D4833
:10148000FFF782FB002801D0FFF7DAF91A4D194C5B
:101490002846083001682A68FF3120784131121D42
:1014A000FFF7A0FB002801D0FFF7CAF91148401C44
:1014B000FFF76AFB002801D0FFF7C2F90E482A683F
:1014C000103001686078FF314131FFF78BFB002855
:1014D00001D0FFF7B5F92078FFF7A4FB002801D071
:1014E000FFF7AEF96078FFF79DFB002801D0FFF70A
:1014F000A7F970BD000000200C17000030B5FF22D6
:101500000523CD7D002409321B02C318002D845011
:10151000986905D04B7ECA68D054487E401C4876F6
:1015200030BD1FB501246B461C701972019206C8AC
:10153000684690471FBD000010B50248FFF798FCB1
:1015400010BD00001800002070B50D460A46014687
:1015500001240648FEF7DEFDEAB204490448FFF71D
:1015600027FC002800D00024204670BD6400002025
:10157000180000207047000010B5144602460120F4
:10158000002A0BD008461368FF2106A20131FEF79E
:10159000BDFE01462046FFF780F910BD0021216005
:1015A00010BD00005B253038645D0000FF221D3255
:1015B000002383508B8A8A68D25C8B8A5B1C8B8267
:1015C000052109024018C26170471FB500226B4611
:1015D0001A70197281680191827506C86846904731
:1015E0001FBDF0B50C46012185B005464902FFF745
:1015F00036FF032109026F180026002826D0FF219C
:1016000025312846FFF726FF00281FD0FF20253070
:101610002E5081208000B860A07E002801D10120DA
:1016200068600221684601700920C0012918086815
:1016300008600390E17D68460172E0680190E675FC
:10164000267606CC6846083C90472DE004212846C3
:10165000FFF705FF002827D0FF2109312846FFF7B3
:10166000F9FE002820D021462846FFF747FFE07DFD
:10167000617E884218D1207E002807D0617EE26812
:10168000E0752069E060267666760AE0A07E002894
:1016900001D10120686081208000B860E675617E1C
:1016A000E2682046FFF73DFFFF271D3739462846F1
:1016B000FFF7D0FE00280FD0A08AA17D884204D277
:1016C00021462846FFF772FF06E0EE51A17D002972
:1016D00002D02046FFF779FFFF27453739462846D5
:1016E000FFF7B8FE00280ED0EE51A07E002801D0F2
:1016F00001202860E07D002805D0E675617EE26863
:101700002046FFF70EFF05B0F0BD0000008000404E
:1017100000040000009000400104000000A0004010
:1017200002040000000000030000000000000003AD
:10173000000000000000000300000000FFFFFFFFAA
:10174000FFFFFFFFFFFFFFFFFFFFFFFF00000000A5
:101750000000000000E0D7010300000029000000A5
:101760000100000001000000010000000100000075
:101770000100000001000000010000000200000064
:101780000040404040404040404041414141414094
:101790004040404040404040404040404040404049
:1017A00040050202020202020202020202020202D8
:1017B00002202020202020202020200202020202DD
:1017C0000202909090909090101010101010101035
:1017D0001010101010101010101010100202020241
:1017E0000202888888888888080808080808080885
:1017F0000808080808080808080808080202020281
:1018000040000000811700004F766572666C6F77AC
:101810000D0A000034180000000000202400000021
:101820005203000058180000240000205C0D000046
:1018300062030000000000000024F400000000002B
:101840000000000000000000000000000020004038
:08185000000000000818000070
:04000005000000C136
:00000001FF
