:020000040001F9
:10B00000B0480020D5B00100EFB00100F1B0010060
:10B010000000000000000000000000000000000030
:10B02000000000000000000000000000F3B001007C
:10B030000000000000000000F5B00100F7B00100C2
:10B04000FDB30100F9B0010039B50100F9B001000C
:10B05000F9B001000000000041B20100F9B00100A8
:10B06000F9B00100F9B00100F9B00100F9B0010038
:10B07000F9B00100F9B00100F9B00100F9B0010028
:10B08000F9B0010051B40100F9B00100F9B00100BC
:10B0900071B40100F9B0010079B40100F9B0010008
:10B0A000F9B00100F9B0010000000000000000004C
:10B0B0000000000000000000000000000000000090
:10B0C0000348854600F07EF800480047A1EE0100E5
:10B0D000B04800200321094802680A43026008487A
:10B0E00002680A4302600748804707480047FEE7B6
:10B0F000FEE7FEE7FEE7FEE7FEE70000240500406E
:10B100005405004099B40100C1B0010030B50B46B0
:10B11000014600202022012409E00D46D5409D4231
:10B1200005D31D469540491B2546954040191546B7
:10B13000521E002DF1DC30BD10B5431A934209D2E6
:10B140008318881803E0401E01785B1E1970521E98
:10B15000F9D210BD03460B439B0703D009E008C991
:10B16000121F08C0042AFAD203E00B780370401CB7
:10B17000491C521EF9D210BDD2B201E00270401C2F
:10B18000491EFBD270470022F6E710B513460A4667
:10B1900004461946FFF7F0FF204610BD421C017817
:10B1A000401C0029FBD1801A704730B504460020AE
:10B1B000034600E05B1C934203D2E05CCD5C401B85
:10B1C000F8D030BD064C0125064E05E0E36807CCFB
:10B1D0002B430C3C98471034B442F7D3FFF774FF6D
:10B1E00090250200B025020070B58C180578401C2F
:10B1F0006B075B0F01D10378401C2A1106D102783E
:10B20000401C03E006780E70401C491C5B1EF9D1FF
:10B210002B0705D40023521E0DD40B70491CFAE7EE
:10B220000378401CCB1A921C03E01D780D70491C5A
:10B230005B1C521EF9D5A142D8D3002070BD00007E
:10B24000F0B50024FF268BB0013601252746069471
:10B25000304604F069F9002807D054484068284275
:10B2600003D0304604F058F92C43361D6D007F1C86
:10B27000B6B2042FECD3FF257D35284604F054F9EF
:10B28000002809D0284604F047F96807044306AAB5
:10B290000121002004F02CF9454D200714D001278E
:10B2A000002627420CD04348B200111808690969EA
:10B2B000C004C00E8903AA58890F002A00D0904705
:10B2C0007F00761C042EECD3002C6DDA0020089051
:10B2D000401E63E0281940300778B906890E0091B6
:10B2E00000214156491C49D009A9009803F02AFFC2
:10B2F000002843D0B8090190009801F003FE8000B7
:10B300002F580198002F02D0032802D00DE0032807
:10B3100034D1009808ABC20841079446985C490FA5
:10B3200001228A401043624698540098052109077B
:10B3300080004018072109024018006806A9800310
:10B34000800F0290009803F0FDFE0028029802D0C2
:10B35000022802D012E0032810D10198032808D156
:10B36000029802281ED00221009804F0A4F8761C4E
:10B37000F6B2002F02D001990098B847641C042C43
:10B38000A8D3002E10D06A460121002004F0B0F8A6
:10B3900006990098884207D00690089800263446FF
:10B3A000099097E70321DFE70BB0F0BD0063004091
:10B3B000A43E0020006500408307FF22DB0E9A4078
:10B3C0008907090E994000280BDA0007000F08389A
:10B3D000830808489B001818C36993430B43C36153
:10B3E0007047830804489B001B1818689043084363
:10B3F0001860704700ED00E000E400E0F8B5FF20C1
:10B40000013003F0AAFE002401250E4E0E4F002845
:10B4100007D00E4804600120B0607D70002001F06C
:10B42000FFFDFF20053003F098FE002808D00748F4
:10B43000001D04600220B060BD70012001F0F0FD2D
:10B44000F8BD000000030040903E002000010040D5
:10B4500010B506490020086048608860C86003494C
:10B4600040390860486006F085FC10BD401101407D
:10B4700010B506F0F1FB10BD10B506484068002875
:10B4800005D08047002801D000F048FA10BD03F035
:10B49000ABF910BD4435002010B503F0F3F90028D6
:10B4A00005D01F491D484860C8131E4988611E48C1
:10B4B000018CC9B201290BD1828C120708D1028DEF
:10B4C0001206120F042A03D1828D1206120F0AD01F
:10B4D000012921D1818C09071ED1018D0906090F8F
:10B4E0000A2904D007E0114A01219160F5E7828D15
:10B4F0001206120F05D00D290ED1808D0006000F07
:10B500000AD10B480168012904D00A490160016889
:10B510000129FCD1C021416110BD0000DFFF07C03F
:10B5200000050040006C0040C00F00F00006004025
:10B5300000EC06407593000010B50249024806F081
:10B54000B4FC10BDEC3E00200020004030B4744636
:10B55000641E2578641CAB4200D21D46635D5B000F
:10B56000E31830BC184702E008C8121F08C1002ABF
:10B57000FAD170477047002001E001C1121F002A74
:10B58000FBD17047202804DA0121814003480142A1
:10B5900001D001207047002070470000FC06FFBC6E
:10B5A00010B500280CD000290AD002780B789A42F6
:10B5B00006D10622401C491CFFF7F7FD002801D0E8
:10B5C000002010BD012010BDF7B584B0064600254F
:10B5D0001788158020300290407B1446002806D042
:10B5E0003A462146059800F081FF050009D1B07860
:10B5F000002823D0059886462088001DB84202D92D
:10B600000C2007B0F0BD684679DF0028F9D1218809
:10B6100003207246505420881921401C80B220809B
:10B62000115420887146401C80B220804118684621
:10B63000008806F0CEFC218840182080F078002891
:10B6400017D0218803230A46F356C91C0598B9422E
:10B65000D6D80221815421880122491C89B2218037
:10B6600042542188491C89B2218043542088401CBF
:10B6700020807068002817D021880023C3560A460E
:10B68000C91C0598B942BBD80221815421880A22DD
:10B69000491C89B2218042542188491C89B22180E9
:10B6A00043542088401C2080308900280AD0009410
:10B6B00030460197062202210830059B06F0E2FC85
:10B6C00005009ED1308A00280AD0009430460197A8
:10B6D000072203211030059B06F0D4FC050090D111
:10B6E000308B00280AD0009430460197152214218F
:10B6F0001830059B06F0C6FC050082D1306A002890
:10B7000006D03B462246059901F0F2FC0500D8D14F
:10B71000706A002806D03B462246059903F046FC95
:10B720000500CED10298007B002807D03B46224678
:10B730003046059905F090FE0500C2D1307800280A
:10B7400007D03B4622463046059903F063FC0500CE
:10B75000B7D1284655E70000174A0021535C002B5B
:10B7600001D0012203E0491C0629F7D30022134926
:10B77000012806D002280BD0032810D0042818D1A5
:10B7800012E04878002803D0002A01D00120704739
:10B790008878002803D0002A01D002207047C8789A
:10B7A000002801D0032070470879002801D0042028
:10B7B00070470020704700001134002048380020F6
:10B7C00010B501220221002001F01EFA002801D04C
:10B7D000072812D107220221012001F015FA0028C2
:10B7E00001D0072809D100210A22084601F00CFAED
:10B7F000002801D0072800D1002010BD10B503207B
:10B8000000F0F2FB002801D000F088F810BDF0B580
:10B810000F468DB0002116466D460F24621A825CD9
:10B820006A54491C1029F9D328460D211030FFF71E
:10B83000AAFC0020221A395C5219401C11740328FA
:10B84000F8D368464DDF0020211A491920310978C4
:10B850003154401C0328F7D30DB0F0BD10B50220C1
:10B8600001F088F810BD000070B50024064D06E018
:10B870006968E000085C012103F004FD641C28787D
:10B880008442F5D3002070BDE8340020F8B5154699
:10B890000C460646052A01D20720F8BD03F0CAFD72
:10B8A000002803D103F098FD0028F6D110490020AC
:10B8B0004E600C70C8608D6008610E4D0DE0E000B8
:10B8C00069688019009181786A46517000780A4A47
:10B8D000694603F023FD0028DFD12046641EE4B250
:10B8E0000028ECD1054A0021024800F023F8F8BDF9
:10B8F000E83400207425020041E0010075D2010007
:10B90000BFF34F8F04490348C860BFF34F8F00BF98
:10B91000FDE700000400FA0500ED00E00EB500218F
:10B92000029000916A4601910148FFF7E9FF0EBDC0
:10B9300001400000094B5B68002B07D0002A07D0AC
:10B94000002805D00068037C002B03D00820704736
:10B950000720704741744261002070470C35002079
:10B96000FFB507469007002581B01E461446002803
:10B9700025D1002C23D005F075FA3046114EF06029
:10B9800030461030057045700299817044607560D2
:10B99000357001240C4875702405046003211420BF
:10B9A000FFF70AFD09480460094CA7600321112034
:10B9B000FFF702FD6068B060002005B0F0BD072011
:10B9C000FBE70000FC34002080E200E000E100E042
:10B9D00000150140FEB51F4B5B68002B30D00028DE
:10B9E0002ED0052901D20720FEBD4369002B27D0A8
:10B9F000437C012B26D0002702910446002569468E
:10BA000016460D70684600F03DF801A806F024FBCC
:10BA1000002819D0012101700F49446049688160F4
:10BA2000029907614661C16068460A490079487019
:10BA30006846007800F044F806F050F92846FEBD4C
:10BA40000820FEBD0F46D7E768460425007800F0C1
:10BA500037F8F3E70C3500200015014010B5084910
:10BA6000496800290AD0002808D04169002905D07A
:10BA700000210174022106F059F910BD082010BD03
:10BA80000C35002030B5EFF3108172B6094A5468C6
:10BA90000123002C04D00370002900D162B630BD10
:10BAA0005360054B1D68054C254015601C60002245
:10BAB0000270F1E72035002080E100E0FC06FFBCC9
:10BAC00008494A68002A0CD000280AD1EFF31080F8
:10BAD00072B60A68044B1A6000224A60002800D13E
:10BAE00062B670472035002000E100E010B5144C2C
:10BAF0000121002209042068FFF76CFF002801D013
:10BB0000FFF70CFF01210022C9036068FFF762FF05
:10BB1000002801D0FFF702FF00220A49A068FFF7C2
:10BB200059FF002801D0FFF7F9FE05210022C903C3
:10BB3000E068FFF74FFF002801D0FFF7EFFE10BDD0
:10BB4000A424020066260000F0B504468BB00088ED
:10BB500000F068FC0590208802F0B4FD0646A0685D
:10BB60000090657A684605741E4F20880022397857
:10BB700000F0A8FC0598002831D06079400710D566
:10BB80000721304604F084F8002813D008226946C3
:10BB90000A7422884A828E82069004A801F05AFC18
:10BBA00008E02088B97800F07BFC002802D03046FD
:10BBB00002F072FD0321684601712188C18060791D
:10BBC0004007C10F68460172A0794007C10F68465F
:10BBD000417201788172C57201A801F03BFC0BB083
:10BBE000F0BD000084340020F0B50546007D00243F
:10BBF00093B00E4600280DD0012001466846103152
:10BC000003940173717B4173817BF9200140684685
:10BC1000891C81731C2104A8FFF7B5FA6946087CCA
:10BC200002210843694608742A7DEF21002A02D0C8
:10BC30001022104300E008406A46107405940794EF
:10BC40000894287D002800D003A8099001270A94B1
:10BC500010469771304A82800094B27B0270F27B6A
:10BC600042708078F9221040F722801C1040EF21AA
:10BC700008404108490068468170317B01721421F7
:10BC80000BA8FFF780FA01A80B9068460C908786F6
:10BC9000C486078702A80F90A888AB1D0BAA04A929
:10BCA000A2DF002835D1B068002830D068468771FF
:10BCB0001A4981800094317C017000200146684659
:10BCC00041708078F9210840F721801C0840EF215D
:10BCD0000840410849006846817011A8B16800F029
:10BCE000B1FD064614210BA8FFF74DFA01A80B90F1
:10BCF00068460C908686C486068711A80F902A464F
:10BD0000E8880E320BA9A3DF002802D100E0EC8105
:10BD1000002013B0F0BD0000192A0000082900001F
:10BD200010B50B490B4805F0EFFAC1B20848783856
:10BD300000F0DEF9002809D0082807D0064988421B
:10BD400004D00649884201D0FFF7E8FD10BD00008D
:10BD5000AC370020B833002004300000013400006C
:10BD6000F0B50C4693B01F216A46118007260027C4
:10BD70009180002809D0C17849070DD502A9FFF7A5
:10BD800023FC002809D102AD01E000251780002C1A
:10BD90000ED0E078002802D0304613B0F0BD01AAE2
:10BDA0000AA92046FFF710FC0028F6D10AAA02E0F3
:10BDB00068460022878068468088C3B2684600884B
:10BDC000C1B2284672DFE8E7FFB581B01E460A9F80
:10BDD0001346040047D0002B45D0504D0120287059
:10BDE0000020E870202219464D48FFF7A5F90020F1
:10BDF0006F61C0432E612881284607211830FFF764
:10BE0000C2F947483C212030FFF7BDF9444821786A
:10BE100020300170A1788170E178C1706178417043
:10BE20003F4A656923695563114613632031E3680E
:10BE3000A268CB608A603A49E369A269CB638A63EE
:10BE4000616A00291AD001463C31024648324162FB
:10BE50008A60636A1B880B80616A436A898899805B
:10BE60000021436A07E00E2005B0F0BD656AAD68A9
:10BE70006D5C5554491C9D888D42F7D8A16A0029F4
:10BE80001CD0274A943211460C398A608162A36A19
:10BE90009B888B80A16A836A098819800021836A44
:10BEA00004E0A56AAD686D5C5554491C9D888D42BF
:10BEB000F7D82C210A5D1A4940310A73216A0029FA
:10BEC00009D016490A310162226A52884A80216AE1
:10BED000026A098811806168002900D04160104A17
:10BEE0000E490020B3322031C3001B1A85009B1875
:10BEF0000C68401C63510828F6DB094A0020EB322D
:10BF0000030185009B188C68401C63510828F7DBEF
:10BF1000034802992030FFF723FFA5E7F8330020FC
:10BF20004838002010B50188134C102915D011296C
:10BF300019D01B2910D1007A00280DD1E0780521F5
:10BF4000401CFFF7E3F8084600F04EF8002803D045
:10BF50006169002900D0884710BD817D0129FBD18E
:10BF60008088208110BD00216171808821898842EC
:10BF7000F8D10120E8E70000F833002010B50228CE
:10BF800001D003280ED1084C607800280AD0002088
:10BF90006070E07800F028F8002803D0616900297B
:10BFA00000D0884710BD0000F833002010B574DFC2
:10BFB0000B4C012060710B490620C8700021094814
:10BFC000FFF7CEFE002809D1E07800F00DF8002838
:10BFD00003D06169002900D08847002010BD00000F
:10BFE000F833002068380020F1B53F4C88B0207845
:10BFF00000280AD00898E07006A801F027FD0698EE
:10C000000125002804D065706AE0082009B0F0BD61
:10C010003548002707211830FFF7B5F8334E707800
:10C02000002802D0E078012807D0B07800280CD092
:10C03000E078012801D0022807D12169002903D026
:10C0400025710820884700E027710898FFF784FBD6
:10C05000E0702169002909D0032801D0042805D106
:10C060003078002802D06079002811D0A7711821FB
:10C070006846FFF788F8684607700772E1781A4843
:10C080000B001830FFF762FA052E080F191D20006B
:10C09000A57107208847EAE7A570019068460570FA
:10C0A0004782078213E00221A17001906846057063
:10C0B000B18941823189018209E0684605F08CFA34
:10C0C00002E0684605F0B4FAE078002803D068463C
:10C0D00073DF00289AD12169002901D0A078884710
:10C0E000002093E7A770F6E7F833002048380020D7
:10C0F00073B586B004002FD06A46217C127F0020E1
:10C10000914227D00025012668460095068045808B
:10C1100007A80190E188608A6A46A4DF002819D147
:10C120006846007F2074608A0D49884216D0207DC1
:10C13000002813D00295039504950595E18868467B
:10C140000181867241888181049001980590608AFE
:10C1500002A9A6DF08B070BD0E20FBE70820F9E7B2
:10C16000FFFF000038B50D4604001AD0002D18D08E
:10C17000286820600020C043608228792075FF2055
:10C18000207401216846817007490180221D69469B
:10C190000120A0DF002803D129462046FFF724FD17
:10C1A00038BD0E2038BD00000F18000038B500283B
:10C1B00024D0002922D00A88102A1AD0112A1AD095
:10C1C000502A1BD10446007D002817D0C8886289F8
:10C1D000891D904212D1488902280FD12068002879
:10C1E0000CD008460C3000F026FB002807D00020B9
:10C1F00006E0898801E00021C943418238BD012061
:10C200006946087022682046904738BD70B50546DB
:10C2100001461C220E48FEF78FFF0E4C00262670AA
:10C220002968002906D00822201DFEF785FF201D61
:10C230007ADF02E00748001D7BDF002807D1401E9F
:10C2400060806670044A00210448FFF773FB70BDEC
:10C25000143A002028340020DD1F0200EC240200E4
:10C26000F8B5214C0146028800261E48E589102AAF
:10C2700013D01E4F112A1FD0122A2BD0502A1AD1A8
:10C28000881DC988A94216D14189022913D10C30D1
:10C2900000F0D1FA00280CD112E08A8804464280CE
:10C2A000104808220C301831FEF746FF6670002D4A
:10C2B00001D100F065FFF8BD0021C94341804670FF
:10C2C0003868FFF7CBFB0028F5D0A1690029F2D030
:10C2D0008847F8BD034808220C300831FEF72CFFD0
:10C2E000E7E7000028340020143A0020EC24020084
:10C2F00010B503490A7D091D04F089FE10BD000038
:10C30000303A0020034B10B50246D97D181D04F0C9
:10C310006BFE10BD303A0020034B10B50246197E6B
:10C32000181D04F061FE10BD303A0020F0B504463F
:10C3300002883A488DB0014615310191102A09D082
:10C34000112A50D01A2A4AD1217A090901294ED935
:10C3500001234DE0027D417D05468A43011D07A86A
:10C3600004F055FE142207A902A8FEF7E5FE0026F8
:10C370002A483746143008900AE0710002A80818CD
:10C3800083881D220097281D089904F0EDFD761C76
:10C390000298B042F1D8287DA688C043C0B204F00C
:10C3A00007FE1F49884217D04000401986800123AC
:10C3B0003246281D019904F04DFE01233246281D06
:10C3C000089904F047FEA07D02280AD000231349F3
:10C3D000A2881631281D1DE00420FFF79FFA0DB03A
:10C3E000F0BD0123F3E70023A288001D12E0002323
:10C3F0000A490546A2881731001D04F02BFE207A59
:10C400000009022801D9012300E000230349A28882
:10C410001831281D04F01EFEE1E70000303A00202C
:10C42000FFFF000070B50B4E05460024317D2A4603
:10C43000301D04F0D9FD002809D0B17D2A46301DF9
:10C4400004F0D2FD002801D0022400E0012420469F
:10C4500070BD0000303A002010B50024204605F0E1
:10C46000EFFD002805D0641CE4B2182CF6D3182088
:10C4700010BD044801220168A2401143016020461A
:10C4800010BD0000303A002010B5044605F0D8FD7C
:10C49000002802D001480019407E10BD303A00202B
:10C4A00070B505460C46084605F0CAFD002806D0C2
:10C4B00003482A460119497E001D04F095FD70BD10
:10C4C000303A002070B5064615460C46084605F081
:10C4D000B7FD002807D004482B4601193246001D3D
:10C4E000193104F0B7FD70BD303A00207CB5054627
:10C4F00008880C460930904201D90C207CBD684662
:10C5000071DF0028FAD121880820685420881B2177
:10C51000401C80B220802954208800A9401C80B291
:10C520002080401906220131FEF706FE2088694668
:10C53000801D80B220800978002900D00121295473
:10C540002088401C208000207CBD00007FB5044670
:10C550000121684681714A4981804A4A01A9012026
:10C56000A0DF00287ED1228825463C35002A09D04C
:10C5700044482B46801C00904348616800F0CAFC88
:10C5800000287BD12289002A0AD03E482B460A3057
:10C5900000903D48E168401F00F0BCFC00286DD1D0
:10C5A000228A002A0AD037482B461230009036489B
:10C5B0006169001F00F0AEFC00285FD1228B002AC9
:10C5C0000AD030482B461A3000902F48E169801E6F
:10C5D00000F0A0FC002851D1228C002A0AD0294862
:10C5E0002B46223000902848616AC01E00F092FC61
:10C5F000002843D1228D002A0AD022482B462A3017
:10C6000000902148E16A401E00F084FC002835D1EA
:10C61000216B00290ED002A805F0F6FA19482B4626
:10C62000323000901848082202A9801F00F072FCE6
:10C63000002823D1606B00280BD012492B463A31D9
:10C640000091027901681048401C00F063FC00284A
:10C6500014D1A16B002910D002A804F09FF9094859
:10C66000423000E00AE0009007482B46072202A96A
:10C67000273000F04FFC002800D1002004B070BD2E
:10C680000A1800009E340020292A000010B5044634
:10C69000FFF74CFE204603F0DDFF21460C4800F07A
:10C6A00075F80B4821461838FFF780FD2046FFF744
:10C6B000D7FD204600F0EAF9204602F05DFF204653
:10C6C000FFF730FC02482146503002F045FD10BD16
:10C6D0004C37002030B50446008C134AADB0904270
:10C6E0001FD006AA204601F051FE69460546088083
:10C6F0000020019002900390049022898A800122F8
:10C700008A71088106A803910490208C01A9A6DFF4
:10C71000002804D169460988A94200D00C202DB018
:10C7200030BD0820FBE70000FFFF000038B50446DD
:10C7300008682060087960710020C0430D4620849D
:10C74000002122200155204640308181142181732F
:10C750000121684681700C490180A21D69460120B3
:10C76000A0DF00280FD12946204601F0B7FD0028A0
:10C7700009D1A868002805D02946204600F0A0F875
:10C78000002800D1002038BD0D18000038B5024641
:10C790000888102816D0112816D0502817D1881DC7
:10C7A000C9889389994212D14189144602290ED130
:10C7B000216800290BD00C3000F03DF8002807D08C
:10C7C000002006E0888801E00020C043108438BDC6
:10C7D00001206946087022682046904738BD028CC7
:10C7E0000B889A4203D189784030C91E8173704703
:10C7F00070B5054604464035A8890E46142807D171
:10C800002622A118881EFEF797FCA889401EA88141
:10C8100080B241000919401CA8818E8470BD20306F
:10C820008170704770B504460D460846FEF7B6FCA9
:10C830002080656070BD4178027808021043C0070F
:10C84000C00F70470A780270497841700220704723
:10C8500000B5174887B0006905900023D02215491C
:10C8600005A805F08DF9002801D0FFF757F86A46B2
:10C870000121002005F06CF9002801D0FFF74EF8E7
:10C88000684605F05BF9002801D0FFF747F80A4831
:10C8900005F04AF9002801D0FFF740F8074805F0F5
:10C8A000A1F9002801D0FFF739F807B000BD00005A
:10C8B000A4240200643600208DC60100F91B02008A
:10C8C000F0B58FB00D4606461C216846FEF75BFCAE
:10C8D00068460178022001436846017000240194F3
:10C8E000039404940594012708A8069487701549B9
:10C8F000684601840794E97B0177297C4177807F32
:10C90000F9210840F721801C0840EF210840410828
:10C91000490068468177142109A8FEF734FC08A86D
:10C92000099007A80A9068468785C4850786A86885
:10C930000D903346F088103309AA6946A2DF0FB084
:10C94000F0BD0000382A00000149085C7047000073
:10C95000BC2402000549095C05480069C840C007BD
:10C96000C00F00D00120012148407047BC240200C4
:10C970000005005005490B5C05494A6801209840B4
:10C98000034693438B601040C8607047B824020090
:10C990000005005010B50349085C012102F09CFD20
:10C9A00010BD0000B824020010B50349085C002146
:10C9B00002F092FD10BD0000B82402000549095C98
:10C9C00005484068C840C007C00F00D001200121C1
:10C9D00048407047B8240200000500507CB5002490
:10C9E000074E2546305D0122009500231146019532
:10C9F00002F028FD641C042CF4D300F003F87CBD85
:10CA0000B824020010B500242046FFF7C3FF641CC1
:10CA1000042CF9D310BD10B500242046FFF7C4FF45
:10CA2000641C042CF9D310BD0246002010B5C0438D
:10CA3000054B00215C5C944201D1084610BD491CA5
:10CA40000429F7D310BD0000BC24020070B50E4EBF
:10CA500000250C46306000290DD0012000F0AEF812
:10CA6000002801D0022005E0002000F0A7F80028EF
:10CA700000D00B2020707068002802D1FEF7A0FEC5
:10CA80000546284670BD0000F033002010B51C4C50
:10CA90000188606810290DD011290AD1401E6060FC
:10CAA00007D1FEF78DFE002803D02168002900D0B1
:10CAB000884710BD00281ED100210122084600F041
:10CAC000A3F8002801D0072811D107220221012054
:10CAD00000F09AF8002801D0072808D1042202218A
:10CAE000002000F091F8002805D0072803D0216825
:10CAF000002900D088476068401C606010BD0000BD
:10CB0000F033002010B5002000F0BCF9002801D05F
:10CB1000062807D1012000F0B5F9002801D0062829
:10CB200000D1002010BD0000F3B581B00D46019882
:10CB3000FFF77AFF0446042813D21D481D4F1E4EEE
:10CB4000002D27D0012D0DD0022D0AD16000201814
:10CB5000C0194578002D04D0F168002901D028467D
:10CB60008847FEBD610061187D5CCF197978002986
:10CB70000BD071680A2251430F4A8068921CFEF75D
:10CB800029FF002801D10198B0700B48B978103006
:10CB90000155DFE78068FEF761FF07486100611813
:10CBA0001030C919005D8D78A842D3D0FEBD0000B9
:10CBB000C02402001C380020DC33002010B5FFF731
:10CBC000C9FE10BD014610B50D480429408806D0A5
:10CBD00007290CD00A2901D104F054FD10BD1321FE
:10CBE00076DF09E00028F9D0FEF798FE10BD054970
:10CBF0008842FBD1FFF7DAF90828F3D110BD000015
:10CC0000B0330020FFFF000070B50023042811D2CC
:10CC1000440004190D4D012A02D101290DD0002232
:10CC200046008019094E801900290CD0012906D030
:10CC3000022906D00723184670BD0E30C2B22A550D
:10CC4000F9E74270F7E78270F5E700001C38002032
:10CC500010B5054A0146127A0020D20702D00846D4
:10CC600000F050F810BD0000DC330020F8B5064697
:10CC70001F4800248660C26041600F46B00720D57F
:10CC80000025012211462846FFF7BEFF6D1C044611
:10CC9000042D02D2002CF4D013E0002C11D17A081C
:10CCA00004211448FEF7F2FD04000AD1FEF7DCFD72
:10CCB000040006D10F48104A0021001FFEF73AFE7B
:10CCC0000446F00701D0FFF789FE002C0ED1094879
:10CCD0000A4A00210C38FEF72DFE040006D1054853
:10CCE000074A01210838FEF725FE04462046F8BD14
:10CCF000DC330020CC24020095CE0100F1E80100D5
:10CD00005DB80100F8B55D4C054660780026002846
:10CD100003D000206070FFF775FE0120584F2B00F4
:10CD2000FEF714FC18970D0D2E3D4A5F64686F687E
:10CD30006FA97777777777979A9DA0A9A995002013
:10CD4000FFF73CFE00280AD00020FFF723FE022D4B
:10CD500002D1E120C0000BE07D20400108E000206E
:10CD6000FFF722FE022D01D1C82001E0FF20913003
:10CD700025706421FEF7CAF96168414300222BE067
:10CD80000020FFF71BFE002805D00020FFF702FE61
:10CD900019204001ECE70020FFF706FEE4E7002041
:10CDA000FFF70CFE002803D00020FFF7F3FDD3E7C8
:10CDB0000020FFF7F9FDD9E70020FFF7FFFD00286D
:10CDC00003D00020FFF7E6FD02E00020FFF7ECFDB6
:10CDD00025706068410000223868FEF7FBFD0646BA
:10CDE00035E00020FFF7C6FD257007E000203FE09A
:10CDF00025702CE060700120FFF7BCFD0022616807
:10CE0000EAE760700120FFF7B5FD60688100411816
:10CE1000E1E77868FEF722FE06461120401B01D0AC
:10CE2000002E03D00220FFF7B5FD10E001280BD93A
:10CE3000C82148436421FEF769F961680022414333
:10CE40007868FEF7C7FD06460220FFF7ADFD3046C5
:10CE5000F8BDFFF7D7FDCBE7FFF7D4FDC6E7FFF737
:10CE6000D1FD04E0FFF7CEFD0020FFF79DFD01207E
:10CE7000FFF79AFDBCE7FFF7CEFDB9E7DC330020F2
:10CE8000C024020010B5FFF75FFD032102F002FB92
:10CE9000002010BD10B500780221FFF745FE10BD3F
:10CEA0000022D243830004490428CA5002D3081840
:10CEB0002030027770470000A43E0020F0B5002526
:10CEC000ED43002A02D00023042601E004230826B3
:10CED0000B4C04E09F00E7597F1C04D05B1CB3425D
:10CEE000F8D32846F0BD26185DB2203635709E0076
:10CEF000A151002AF5D1E11820310877F1E70000AF
:10CF0000A43E00200249091820200856704700005E
:10CF1000A43E0020FFB58FB01E4615460F0002D17B
:10CF20000020FEF7FBFC002D02D10020FEF7F6FCEE
:10CF30001C216846FEF727F9684601780220014364
:10CF4000684601700024019403940494059401211F
:10CF500008A80694817068460F9901840794317877
:10CF6000017771784177807FF9210840F721801C93
:10CF70000840EF21084041084900684681771421A4
:10CF800009A8FEF700F908A8099007A80A906846C2
:10CF90008585C485058604480D9709AA69460088D9
:10CFA000189BA2DF13B0F0BD9E340020002807D0EC
:10CFB0000449814204D80449814201D901207047C3
:10CFC000002070475C3500206C350020044A016861
:10CFD000914201D0083101E00149383901607047C0
:10CFE0000440002070B50D4D04460A462846AC4268
:10CFF00008D1FF2401342146104603F0E9FAA0428B
:10D000000AD070BDFF2CFCD82146104603F0D2FA9E
:10D01000002801D0204670BD284670BDFFFF0000EB
:10D0200070B5084C050009D010342168002907D0DC
:10D0300008682060496828468847F6E70834F4E71E
:10D0400070BD0000903E0020F8B5234841680029DB
:10D050003ED00E6821494C6887688078E11B0D023C
:10D060002D0AED1C002814D101201D4A0004506037
:10D070001B4A403A50601B49400008601A4908604A
:10D080001A49012008602F2002F070F8124901208F
:10D090008870B54200D23546E81900020F4B000AED
:10D0A000403318600D4A5168001B091B0902090A28
:10D0B0000002000AC91C814209D9506818602F205B
:10D0C00002F054F801200749400480390860F8BD97
:10D0D00003F0C8FEF8BD0000FC340020001501403C
:10D0E0004013014080E200E000E100E00010014058
:10D0F000F8B50646108814468446801D0D469842B1
:10D1000001D90C20F8BD32880720062AFAD3192746
:10D11000FF01184BBA4201D99A42F3D1718806290E
:10D12000F0D3B94201D99942ECD19A4203D0994245
:10D1300001D08A42E6D80521604629542088122170
:10D14000401C80B2208029542088401C80B220805E
:10D150004119308804F03DFF2188401880B22080BA
:10D160004119708804F035FF218840182080002084
:10D17000F8BD0000FFFF000010B5FEF7CFFB10BDAB
:10D18000F8B5164801F070FB144D00260C3D144C08
:10D19000002807D0616900291CD001206A46107060
:10D1A000684616E02878002805D06169002911D06A
:10D1B000684606700DE0687800280DD0A16809481F
:10D1C00000220068FEF706FC002803D0A1690029B0
:10D1D00000D088472E70F8BD6168F0E73434002035
:10D1E000143A0020EC2402007FB50C46002802D03F
:10D1F000012004B070BD20790026002806D01B4D08
:10D2000001281CD0022828D00F20F2E702960396AE
:10D21000E0680190694601A803F0FEFC00280AD0EE
:10D2200002988188E18000882081694609880298F7
:10D2300003F06CFD00E00A2002212171D9E70C4BBC
:10D240006A460021A01D03F0A5FC002807D008496C
:10D2500008398E60CE600A28CBD12846C9E7044839
:10D260008188019803F052FDF5E700001D1D0000C4
:10D2700030350020F8B500260124154D23E06968FB
:10D28000F0004718387821462A698140114218D0A9
:10D290008A432A6102F096F83A782146EB68914079
:10D2A00019400346934099420BD17978012901D066
:10D2B000012100E000217B684140002B01D0104695
:10D2C0009847761CF6B228788642D8D3F8BD00007D
:10D2D000E834002010B50E4900230A784C78A242A9
:10D2E00012D0521CD2B20A70022A00D10B700A78F6
:10D2F000074B920018339A58026088681018000291
:10D30000000A8860012010BD0360002010BD0000ED
:10D31000FC3400203EB5094D38CD009302950194B0
:10D320006B46588099809A71054900220978FFF769
:10D33000C9F8684600F08EF83EBD00006025020086
:10D340008434002010B5047800222300FEF7FEF894
:10D35000070605070D1D262C06000A7010BD0122C8
:10D360000A7002898A81828814E002220A70028986
:10D370008A818288CA81C2688A60007C062802D0BD
:10D380000020087410BD0120FBE703220A70C28848
:10D390008A810289CA81C068886010BD04230B702D
:10D3A000C0888881CA8110BD0520087010BD0000AA
:10D3B00070B5064D06460024A0002958002901D06A
:10D3C00030468847641C082CF6D370BD343F0020DB
:10D3D0000EB5002910D011290ED000220092029221
:10D3E0006A46508001910D2907D0862907D009206F
:10D3F0001070104600F03CF80EBD0B20F8E70A2034
:10D40000F6E700000149096808470000443400209D
:10D4100070B5054D06460024A000295830468847BF
:10D42000641C022CF8D370BD08250200F8B507462D
:10D430000024064E064D04E0A000315838468847C7
:10D44000641CE8788442F7DBF8BD0000443E00200D
:10D450007434002070B5054D06460024A0002958FC
:10D4600030468847641C022CF8D370BD2825020082
:10D4700001490968084700006C2502007047000058
:10D480007FB50446406800280BD000200390207828
:10D490000026414D0300FEF759F8066D0606304E92
:10D4A0007B6D0120F2E7A08900F0DAF9002804D1B1
:10D4B000E08903F04DFC00285CD0A08900F0CAF997
:10D4C000014668464180E08903F03CFC014668461D
:10D4D000017120780128606807D0002809D0042055
:10D4E000694608706068039020E00028F8D00320A7
:10D4F000F6E70120F4E708463AE0A08900F0B0F929
:10D50000002804D1E08903F023FC002832D0A08950
:10D5100000F0A0F969464880E08903F013FC6946F1
:10D5200008716068002804D005200870A068029087
:10D53000E1E70220F9E7A08900F092F9002819D06C
:10D54000E089002816D1A08900F084F96946488056
:10D55000E08903F0F7FBFF20694608716068002846
:10D560000FD0072008706E70AE7002F06DFD684637
:10D5700002F026FC6878002802D06E7002F064FD8C
:10D580007FBD062168460170408802F0EBFDEAE7A6
:10D59000082069460870AEE76034002000B51049E5
:10D5A00087B00978890702D4022007B000BD0D4971
:10D5B000884201D10420F8E7052269460A70012259
:10D5C0000A71C88000221146684602F05FF8002800
:10D5D00003D003F0C3FA0020E7E70820E5E70000E6
:10D5E00028350020FFFF000000B50F4887B0007805
:10D5F000800702D4022007B000BD062069460870EB
:10D6000000221146684602F041F8002809D0074878
:10D610000178002901D00121017303F09FFA002055
:10D62000E9E70820E7E70000283500203440002023
:10D6300010B58CB014216846FDF7A5FD1D48007893
:10D64000810703D56846FFF7B3FE30E0C0072ED14F
:10D65000012000F02BF900F0A3F9012468460475BD
:10D6600002F0A6F80300FDF771FF0C071107111B6C
:10D67000190A191B1317131B0B200CB010BD022025
:10D6800000F014F9012000F0F7F8DBE7002000E0DB
:10D6900003206946087603E00220FAE7684604762C
:10D6A0000022114605A801F0F1FF03F057FA00200F
:10D6B000E3E700002835002038B5040014D069469F
:10D6C00003F0AAFA002813D068460088010109482F
:10D6D00009188889002809D0A27A002A06D0401E9D
:10D6E00088810020A07238BD052038BD062038BDD5
:10D6F0000A2038BD144000201FB501A9684603F078
:10D7000049FA04B010BD07B513460A466946002021
:10D7100003F040FA0EBD07B513460A4600216846DD
:10D7200003F038FA0EBD002805D0002903D00068A8
:10D7300008600020704705207047000038B50D468E
:10D74000040017D0002D15D0694603F065FA0028B3
:10D7500012D0684600886168020108481218908952
:10D76000401C9081296060680C3068600120A072C4
:10D77000002038BD052038BD0A2038BD14400020E7
:10D7800010B5002804D00323002204F055FD10BD7D
:10D79000052010BD10B50223002204F04DFD10BD80
:10D7A00010B5002A03D0022304F046FD10BD052069
:10D7B00010BD000010B5064A5178082906D08B002C
:10D7C000044C491CE0505170002010BD0C2010BDCD
:10D7D00028350020343F002038B504460A480D465D
:10D7E0000078800701D4022038BD002C0AD0694699
:10D7F000284604F031FE0028F6D1694609882180C8
:10D80000658038BD052038BD2835002010B5044698
:10D810000E480078800701D4022010BD002C10D0E3
:10D82000218802290FD80A4A080180184289608895
:10D83000121A032A07D404F005FE0020208060801D
:10D8400010BD052010BD042010BD000028350020AB
:10D850001440002003218903401A80B27047000061
:10D8600003218903401A0349884201D801207047E7
:10D8700000207047FE3F000002490A7882430A7088
:10D88000704700002835002010B50446007818289D
:10D8900002D1FEF7E1FD207010BD10B504460078FE
:10D8A000182802D1FEF7D8FD207010BD02490A7871
:10D8B00002430A70704700002835002070B5064604
:10D8C00000200546862906D0112902D0002903D060
:10D8D00070BD012500E001200E4C002A02460FD049
:10D8E00061793046FEF7EEFD2A4621793046FEF793
:10D8F000E9FD002261783046FEF7E4FD002204E0F5
:10D9000061783046FEF7DEFD2A4621783046FEF784
:10D91000D9FD70BD88340020F8B506461C481F4666
:10D92000007815460C46C0070AD03046FFF73EFB8C
:10D93000002807D0002C07D0A00507D00620F8BD8E
:10D940000120F8BD0220F8BD0320F8BD3068A042D8
:10D9500004D8A80271680019884201D90520F8BDD1
:10D96000002D10D0684603F04BF800280DD0009829
:10D970000221C0C00170A101090C8180058103F062
:10D98000FBF80020F8BD0420F8BD0720F8BD00001A
:10D990004035002010B5084603F04EF810BD0000D9
:10D9A000F0B52648264C001B030926481946406955
:10D9B000421C03D10120000740698002224A1278EC
:10D9C0009646D2070CD00020F0BD1D4C15012C1935
:10D9D0002568002D03D06468002C00D0491E521C1D
:10D9E0009A42F2D3002420E0E2B2002594462A466F
:10D9F0000FE0134E1701BE193768002F02D0776869
:10DA0000002F05D1767BAE4202D93546D6B2B44658
:10DA1000521C9A42EDD362461501094AAA18506079
:10DA2000157BAD02401B641C10608C42DCD30648A1
:10DA30007146012211430170C5E700006C350020DA
:10DA40005C3500200010001040350020002804D074
:10DA50000349496E016000207047032070470000B1
:10DA600044400020F8B507461E481E46007815467B
:10DA70000C46C0070ED03846FFF798FA00280BD0A6
:10DA8000002D0BD0002C09D028462043800707D05A
:10DA90000620F8BD0120F8BD0220F8BD0320F8BD26
:10DAA0003868A04204D8B10078680919884201D2C8
:10DAB0000520F8BD002E11D0684602F0A1FF002815
:10DAC0000ED0009806990760416001210172C5607F
:10DAD0000461868203F050F80020F8BD0420F8BDF0
:10DAE0000720F8BD4035002070B5174B0446186E6E
:10DAF000182148431549C0180A78950715D5022CF6
:10DB000002D0032C1CD102E001F096FD18E04A7807
:10DB1000521CD2B24A70032A12D900224A7008213C
:10DB200003F06AFB02F056FF0AE0500708D5FB201D
:10DB300002400A70586E002802D0022002430A7088
:10DB400002F0D6FF70BD00004440002040350020A8
:10DB50000EB51120694608720A2211A102A87CDFC5
:10DB6000002801D0FDF7DAFE104878DF002801D048
:10DB7000FDF7D4FE0020FF2200904132694601905B
:10DB80000A804122D2004A808880FF209130C880DC
:10DB900068467ADF002801D0FDF7C0FE0EBD000008
:10DBA0004E6F726469635F48524D0000410300008C
:10DBB00010B50248FEF713FE10BD00004C370020E0
:10DBC00010B50449044801F0C5FA002801D0FDF75A
:10DBD000A5FE10BDB1DB01009C37002070B5002808
:10DBE00001D0012070BD164C0025207B002801D0FB
:10DBF000257301E000F09CF820780300FDF7A6FCF7
:10DC0000081E05080B0E1E111A1E00F01BF870BD31
:10DC100000F07EF870BD00F061F870BD00F038F8DB
:10DC200070BD60880649000120394018406801F045
:10DC30009FFD70BD656001F0A9FD70BD0F2070BD36
:10DC40003440002070B5104900208A1C0D46034660
:10DC5000203D0C18A67A002E08D0A3720401641986
:10DC6000A689002E02D1A47B012C08D0401C80B2D2
:10DC70000228EED30B704B8004484B6070BD1080BF
:10DC800000F046F870BD0000344000201D1D00006B
:10DC900010B50F4C60880101204620380818818992
:10DCA00000290BD0052020700A48022181800168DC
:10DCB000002301220848FFF72FFE10BD4168002312
:10DCC00001220548FFF728FE0421217010BD000045
:10DCD00034400020383500205C35002038B50A4932
:10DCE00008480B68898842688900591853880324BA
:10DCF00004700020DB1C00909BB20448FFF7B2FECA
:10DD000038BD000034400020383500205C3500204C
:10DD100010B506494888091D02F0CEFF002802D040
:10DD2000FFF7DCFF10BDFFF7B3FF10BD344000204C
:10DD3000F0B51D481D4907780246012502268C884A
:10DD4000203A3B00FDF702FC080517171A212C2C7E
:10DD500016170189491C01810021418001730B01C3
:10DD6000D35C002B08D000234418491C89B2A3724D
:10DD70000229F4D30570F0BD0123F5E7426852880B
:10DD8000D21CA2188A800670F0BD45880B682D0150
:10DD9000AA1855680D60536014818E80062100E03A
:10DDA00007210170F0BD000034400020383500200C
:10DDB000F0B504460088384D8DB050281DD052284B
:10DDC00002D0542826D103E0A08800F0D7FF21E03C
:10DDD000062069460870A08800F074FC69464880F7
:10DDE000A2888A8000F054F9A0880022E978FEF722
:10DDF00069FB6846FFF706FB0CE0207B012809D190
:10DE0000A07A012806D120892449884202D1A0881D
:10DE100000F0F0FFA878FEF737FB002819D008A81B
:10DE2000FEF766FA142208A903A8FDF785F9002475
:10DE300003AE0BE060008719B888A978FEF730FBC5
:10DE4000002802D0B88800F099FF641C0398A04213
:10DE5000F0D86878FEF718FB002819D008A8FEF75C
:10DE600047FA142208A903A8FDF766F9002403AEB7
:10DE70000BE060008719B8886978FEF711FB00286D
:10DE800002D0B88800F0B6FF641C0398A042F0D816
:10DE900003F048FA0DB0F0BD3C3400200229000028
:10DEA0003EB504464088694648802078002814D052
:10DEB00001281DD002280FD1207900280CD06088BD
:10DEC00000F034FB0E49884206D00E490122C97881
:10DED000FEF7F8FA03F026FA3EBD00200870084667
:10DEE000FFF790FA608800F021FB00F047FF3EBD8D
:10DEF000012168460170A1888180FFF783FA3EBD49
:10DF0000FFFF00003C34002010B5044600780128D3
:10DF10000DD1608800F032FF608800F07FF90028A2
:10DF200005D0034960880122C978FEF7CBFA10BDFD
:10DF30003C34002010B5104C00202070FEF78CFA05
:10DF40006070FEF789FAA070FEF786FAE070FEF7BF
:10DF500083FA2071617818290BD0A178182908D08C
:10DF6000E178182905D0182803D00120207000205E
:10DF700010BD032010BD00003C340020F0B585B07A
:10DF800000F09EF86846FEF7B3F900246D460C4F8A
:10DF90000EE060004619B08800F094FBB84205D14D
:10DFA0000849B0880122C978FEF78CFA641CA4B233
:10DFB0000098A042EDD803F0B5F905B0F0BD00001F
:10DFC000FFFF00003C34002010B50178072902D182
:10DFD000408800F00FFF10BD10B504460A48417894
:10DFE0002046FEF75DFA00280CD0084800210C22DC
:10DFF0004A4312185288A24201D1C8B210BD491C2E
:10E000000829F4D3FF2010BD54340020643A0020C6
:10E0100070B5094D094E00240C206043401940881A
:10E020007178FEF73DFA002804D0641C082CF3D365
:10E03000FF2070BDE0B270BD643A0020543400206F
:10E04000F8B50746104E0125BD403068FDF706FDC6
:10E0500000280DD10D4C2069284207D1384601F027
:10E06000B1F90028E06804D0284303E0A843206108
:10E07000F8BDA843E0602069002228432061A16820
:10E080003068FDF7A7FCF8BD74250200E8340020D5
:10E090001CB5054A9168D268019200910022694638
:10E0A00001F056FD1CBD0000F424020003480021CD
:10E0B000C94381800121017000207047483400204D
:10E0C00010B5044801F078FC0349888003F056F944
:10E0D00010BD0000FFFF000048340020F1B582B001
:10E0E000029800F0EFFA002416490325012726467E
:10E0F000884209D06A46082101F000FD002803D1BA
:10E10000019886880568841D2B4632462146029870
:10E11000A9DF042804D0082804D00B2807D002E087
:10E12000112000E00020002F00D10B20FEBD0027B1
:10E13000A80701D50125E7E73443F6D00024264699
:10E140000325E1E7FFFF0000F1B582B0029800F07F
:10E15000B9FA07461B48874201D11B48FEBD01257D
:10E160002A466D1C0026ADB26B460821384601F0E8
:10E17000F5FC040002D0072C21D021E001990323F3
:10E180000B600A1D891D0298AADF040004D00C2C24
:10E1900008D0052C08D008E00821384601F078FDA9
:10E1A00004460DE0012600E000240821384601F075
:10E1B00059FD002800D00324002ED1D100E00C240A
:10E1C0002046FEBDFFFF0000023000001FB50446E0
:10E1D0000078012815D12079012812D1608802AA7F
:10E1E000012101F08BFC00280BD10221684601704F
:10E1F0006188418003980178684601710549096882
:10E2000088470448044908388088884201D003F0D0
:10E21000B5F81FBD50340020FFFF00001CB500F012
:10E2200051FA6A46012101F069FC002801D0002062
:10E230001CBD019800781CBDF8B5074E074C084D71
:10E240000746324661883846A7DFA84203D1608876
:10E25000401C6080F5E7F8BDFFFF00004834002057
:10E26000033000008188054A914204D000880028CC
:10E2700001D001207047002070470000FFFF000020
:10E2800010B51249124803F03FF8114C81B2103C0E
:10E290006068401C60600D487038FEF71BFA00286B
:10E2A00009D0082807D00B49884204D00A4988427F
:10E2B00001D0FDF733FB03216068FCF727FF00293D
:10E2C00001D0012000E00020207010BDBC370020EC
:10E2D000C03300200430000001340000F0B50024F9
:10E2E00006460D46601C0107B7B0090F08A810319B
:10E2F0000C940174297B4174817CF9273940891C75
:10E3000081741C2105A8FCF73EFF6846017D1020A2
:10E310000143684601750CA806940A900894099474
:10E3200001220B9408A882761749684601870D944C
:10E33000697B08A80175A97B4175817DF72039406B
:10E34000891C0140EF200140114308A88175142168
:10E350006846FCF718FF0EA800900DA801900FAAC0
:10E360000021304600F012F80146684601819B21E9
:10E37000448181810FA804903346F08808336A46AF
:10E3800005A9A2DF37B0F0BD372A0000F7B5427902
:10E390000025002A00D004252222135C0222002B33
:10E3A00000D01543CBB2FF2907D901221543029AA9
:10E3B000090A53709170032602E0029902264B70FD
:10E3C00004464034A189002901D010210D430027C3
:10E3D00017E0A27BB11C8A4209D2A189C91B4A005D
:10E3E0007900091824302431FCF7A6FE0CE0029BCA
:10E3F0007A0012189B19928C1A70120A5A70CEB2B7
:10E400007F1CA189B942E4DCA089C01BA0810298CD
:10E4100005703046FEBD3EB5044600780D46022824
:10E4200015D10322611C6846FCF786FE0322211DDC
:10E4300002A8FCF781FE01AA02A92846FDF7E7F928
:10E44000032201A96846FCF7B0FE002801D0002095
:10E450003EBD01203EBD000010B50C46FFF7BCFDDF
:10E46000FF280AD00C2148430549072241182046BD
:10E47000091DFCF761FE002010BD052010BD000045
:10E48000643A002070B5018890B0102949D1011D6F
:10E490002C2202A8FCF750FE6846234E007B34462F
:10E4A00002AD03282AD001F0FBFC6846007B00285F
:10E4B0000ED001280CD0022820D118E00E99281D7A
:10E4C0001131FDF76DF8002802D06846048815E088
:10E4D0000DAA6946072001F0B9FC0028EED10DE035
:10E4E0000E99281D491CFFF796FF0028EDD10DAAB3
:10E4F0006946072001F0AAFC0028F1D1684600898E
:10E50000291D00F0D7FDB4420BD068460089214692
:10E5100000F086F868460189418001210170FEF70C
:10E5200077FF10B070BD0000FFFF0000084A002117
:10E530000C234B43D35A834204D10C204143881807
:10E5400040887047491C0829F2D3024870470000F0
:10E55000643A0020FFFF000010B50E4C18206070D8
:10E560000D4A0E4900200C2343435B18401C5A807F
:10E570000828F8D3FDF770FF6070182804D005480C
:10E58000C01C71DF002801D0032010BD01202070C5
:10E59000002010BD54340020FFFF0000643A00202A
:10E5A00070B504460D46401C00F090F9002810D0CC
:10E5B0001022691C601CFCF7F8FD00280AD0002618
:10E5C0002946204611311130FCF7EAFF014630465A
:10E5D000084370BD0126F3E70188002903D14218E2
:10E5E0009278002A01D001207047491C0829F6D3EF
:10E5F0000020704710B50C460346FFF7EDFF0028DA
:10E600000BD018882188884206D10822A11C981CAA
:10E61000FCF7CBFD002801D0002010BD012010BD6B
:10E6200010B501F0FBFD10BD10B50446007888B0B0
:10E63000002826D12079072823D1608801AA072144
:10E6400001F05CFA00281CD101F02AFC1BE06946AD
:10E6500060880988884216D004990298FFF7A0FFC5
:10E66000002810D06088FFF761FF01466846C1822C
:10E6700000210175618801830188418305A8FEF7A7
:10E68000C7FE08B010BD03AA6946072001F0DEFBF3
:10E690000028DCD1F5E7000070B50446FFF746FF1F
:10E6A0000546204601F02FFA054904468D4204D064
:10E6B000002C02D1284601F0B1FD204670BD0000BB
:10E6C000FFFF000010B5FFF787FCFF2804D00C21E6
:10E6D00048430249085A10BD014810BD643A002061
:10E6E000FFFF00003EB5044601F0DAFB10E001999F
:10E6F00020464631FFF77EFF002806D101992046CB
:10E700002A31FFF777FF002802D0684600893EBD16
:10E710006A4602A9072001F099FB0028E7D10148C9
:10E720003EBD0000FFFF0000F8B50F46002804D0F2
:10E730000120FFF7A1F80120F8BD397900290AD09E
:10E740000026254D01290BD0244C022920681FD01A
:10E7500003293BD125E001F019F80121397133E09B
:10E7600000200101695C02290BD0401C80B2022804
:10E77000F7D30220FFF79AF80120FFF77DF8184839
:10E78000F8BD04016019406800F0F2FF2E551BE04F
:10E790000146002301221348FFF7BEF80221A180A1
:10E7A00011E000F0E5FF0C492368203149880A0197
:10E7B000094951184D6825604B60A3880B810221DF
:10E7C000A18005498E543E710028D9D00120FFF761
:10E7D00053F80E20F8BD000014400020383500200A
:10E7E0001D1D00005C350020F8B51E4C2078002867
:10E7F00036D0E068002600280CD00025607800287C
:10E800002ED1684652DF052806D0002806D0FDF735
:10E8100085F80BE00125F1E7012607E0009800F0FC
:10E82000FBFC2169002901D000988847002D13D1F5
:10E830006078002814D1608869460880A06861DF8C
:10E84000052804D0002804D0FDF768F804E001256D
:10E8500002E0E168A0688847002ECFD0002DE5D007
:10E86000F8BD0000443500204188054802889142E7
:10E8700004D34088814201D80120704700207047AE
:10E880002C3400201048018CC9B2012917D1818C89
:10E89000090714D1018D09060A0F03D1828D1206D2
:10E8A000120F0ED0090F012903D1828D1206120F0B
:10E8B00007D0032903D1808D0006000F01D000206E
:10E8C0007047012070470000C00F00F00021425C3B
:10E8D000002A01D001207047491C1029F7D30020DD
:10E8E0007047800701D0002070470120704700006A
:10E8F00010B50448017AC90702D00078FEF702FA81
:10E9000010BD0000DC330020FFB5244D81B0287A13
:10E910001F460E46084304D0039A002E04D000215F
:10E9200004E0052005B0F0BD1C491031019802F04B
:10E93000FDFF0446014600220198FEF7BFFF002FAD
:10E9400003D021460198FEF743FD112C0FD006DCC1
:10E95000002C0AD0082C08D00D2C05D105E0862CFF
:10E9600011D00F48C44200D003242046DAE73246D3
:10E97000E9780198FDF7A6FDA978039A0198FDF7BB
:10E98000A1FD0024F1E73246E9780198FDF79AFDF0
:10E99000A978039A0198FDF795FDE6E788340020F1
:10E9A000FECFFFFFFEB517460C00064604D02078C8
:10E9B000C00704D0012003E000217EDFFEBD02205D
:10E9C000694608713046FFF77DFE174905468842C3
:10E9D00008D001A800902B463A462146304600F068
:10E9E00025F806E020782146C007304603D000F025
:10E9F00081F804460BE07EDF044600200090002CE6
:10EA000008D0002201232946304602F0C1FB002C29
:10EA100002D006E00122F5E768460179304602F0AF
:10EA2000DDFB2046FEBD0000FFFF0000FFB585B006
:10EA300000252E4601AA07210E9F089801F05EF8D6
:10EA4000040008D1029D4420405D1835C607F60F2A
:10EA500001D0029D34350798204312D1002D10D0EB
:10EA6000002E05D128461230FFF7B6FD002808D049
:10EA700029462A461231059885DF04460020387061
:10EA800023E0002C01D0052C1FD106980078C00788
:10EA90000DD003AB01220721089801F05FF80400B4
:10EAA0000AD10721089801F057F9040004D106990A
:10EAB00005987EDF040008D00721089801F0D2F8FD
:10EAC000002802D0052800D00324002000903878C8
:10EAD000002801D0012300E00023002C07D00022F1
:10EAE0000899059802F054FB204609B0F0BD0122B8
:10EAF000F6E70000FEB50F46064600F0FBFF0546B0
:10EB00001848854220D001AB01220721284601F098
:10EB100025F804000AD10721284601F01DF9040058
:10EB200004D1394630467EDF040008D0072128464C
:10EB300001F098F8002802D0052800D00324012015
:10EB40000090002C0BD002E0032400200090002253
:10EB500001232946304602F01BFB2046FEBD012260
:10EB6000F6E70000FFFF0000F7B5114D0F4616460F
:10EB700029780098FDF794FC002812D00098FFF740
:10EB8000A1FD04460B4884420BD069780098FDF73C
:10EB900087FC002806D033463A462146009800F00C
:10EBA0007FFEFEBD324639460098FEF7B3FBFEBD40
:10EBB00084340020FFFF0000F1B586B00698FDF711
:10EBC00063FC002821D06846FDF792FB00246E46C6
:10EBD00018E060008519A8880699FDF761FC0028F7
:10EBE0000FD00B4FA888B978FDF75AFC0590A8887C
:10EBF000F978FDF755FC0146A8880123059AFFF72F
:10EC000083FE641C0098A042E3D807B0F0BD00006A
:10EC100088340020F0B5284C2146103948688B68AC
:10EC2000227886469C46CF78667836E01823534390
:10EC30006168521CC918A378D2B2934200D1002255
:10EC40000B78022B02D0032B27D123E003464D681B
:10EC5000194603E0A94204D00B46C96900291CD01B
:10EC6000F8E7002919D08B4208D1C069002805D1E6
:10EC7000124F0125BD600025AC4601270D68C9690A
:10EC8000D961002909D00B685B190B6005E001749C
:10EC9000C06900E000210028F9D19642C6D106499A
:10ECA000624610398A604860CF70704501D00120FB
:10ECB000F0BD0020F0BD00000C3500200010014028
:10ECC000F8B52C4E044670680025009041E0002CF9
:10ECD00002D02046E46920E026481823103001784D
:10ECE00042684B43491CC9B2D218017083789942DB
:10ECF00000D105701178506801292CD1017C0029C0
:10ED000029D191684160D16881601169C160516900
:10ED10008161F178002900D045604368B268164FE0
:10ED2000991A0902090AB94202D28268891806E0D2
:10ED3000D11A09028268090A8A4202D9511A01606D
:10ED400000E005604560012185600174C56102F045
:10ED5000CDFF002CBBD107481030017840788142AC
:10ED6000BAD171680098814201D00120F8BD00201D
:10ED7000F8BD0000FC340020FFFF7F00FEB5044614
:10ED80001948002684422DD02046FFF7A7F9050038
:10ED900012D00B2D14D0112D10D01448C5421BD009
:10EDA0000921684601702046FFF78CFC0146684641
:10EDB0004180848002950DE0022102E001260BE0F3
:10EDC0000321684601702046FFF77CFC0146684637
:10EDD00041808480FEF716FB054832468178204644
:10EDE000FDF770FBFEBD0000FFFF0000FECFFFFF40
:10EDF0003C340020FEB504460026FFF7A5F9054681
:10EE0000112818D004DC002D13D00C2D05D114E0EE
:10EE1000862D25D01348C5421BD0092168460170B4
:10EE20002046FFF74FFC01466846418084800295EA
:10EE30000DE0012102E001260BE007216846017088
:10EE400084802046FFF73EFC014668464180FEF77D
:10EE5000D9FA0548324641782046FDF733FBFEBD1E
:10EE60000821EBE7FECFFFFF3C340020F8B5054654
:10EE700000780C46002620420FD100206946087019
:10EE80006846FCF7FFFD2878204202D12043287015
:10EE9000012668460078FCF713FE3046F8BD0000F6
:10EEA00098B002F0A7FF3A4A3A490320FDF7DEFE88
:10EEB000002801D0FCF732FD01A90020FDF7C6FDB6
:10EEC000002801D0FCF72AFD6846007902285DD0B1
:10EED000002168460170FDF7BBFC6846007801F030
:10EEE000B1F9FEF735FE3C2101A8FCF74CF90221EF
:10EEF00068460171012585710621C1710324848250
:10EF000025480690202110A8FCF73DF910A8C570EF
:10EF1000FF202D301490B420002515901F4B10AA0F
:10EF20002946009501A8FCF74FFF002801D0FCF707
:10EF3000F5FCFEF745FE02F0D7FA02F08FF91C212E
:10EF40006846FCF720F90520C00301900F2000045B
:10EF50000290009568460473114881896846C18112
:10EF6000057410480590104806906846FDF74EF964
:10EF7000002801D0FCF7D2FCFCF7B8FDFCF73EFC02
:10EF800048DF0028FCD0FCF7C9FCF9E70121A0E725
:10EF9000C5CB0100CD0C0000D033002057F5010097
:10EFA0004C37002019F6010079D1010070B51446E4
:10EFB00082880E4605462088111D4118921C9942F0
:10EFC00001D8FE2A01D90C2070BD521C3254208871
:10EFD000FF21401C80B2208031542088401C80B228
:10EFE00020808119288802F0F4FF2188401880B21F
:10EFF0002080AA88002A09D0A968002908D0801991
:10F00000FCF79AF82088A98840182080002070BD5D
:10F01000072070BDF8B50F46017814460546012952
:10F0200002D16878002806D02088821C9A422DD808
:10F03000012902D006E00720F8BD69784118891C33
:10F04000994223D8181A801E86B268460680218805
:10F05000B81C081869467DDF0028EDD12878022801
:10F0600005D169460988B14201D809210AE0082181
:10F07000012805D16878B04202D86A46108001E0C4
:10F080006846068068460088FE2801D90C20F8BD35
:10F090002288401CB8542088401C80B220803954FB
:10F0A00020886946401C2080098840182080002064
:10F0B000F8BD0000F8B5FF240F46054600291FD013
:10F0C000104EB5421CD01048012241782846FDF769
:10F0D000F9F92846FEF780FF0446FF2804D1FEF721
:10F0E00097FF0446FF280BD00C21484307490246EE
:10F0F000401845808E5207223946001DFCF71CF847
:10F100002046F8BDFFFF000054340020643A002080
:10F1100070B50B4D0E46A84201D1002000E0401C06
:10F1200084B209E02146304601F06CFA002801D093
:10F13000204670BD641CA4B2FF2CF3D9284670BDD4
:10F14000FFFF0000C20843075B0F0120895C984065
:10F150000840704700207047704701218907401818
:10F160000068002800D001207047000000280FD060
:10F170000849094A096800BF00BF00BF00BF00BFBF
:10F1800000BF00BF00BF914200D000BF0138F2D1E4
:10F1900070470000583500200024F40070B50E4C74
:10F1A00000252078002801D0852513E00021A160EA
:10F1B00061602161E160094800680126304002D1A8
:10F1C000032100F02FF802F007FD002801D10448C8
:10F1D00086612670284670BD903E002000E100E068
:10F1E0000005004038B50020694608706846FCF705
:10F1F00049FC084C2078002801D1FFF7CFFFE068D8
:10F20000401CE0600120A07068460078FCF758FCC4
:10F2100038BD0000903E002010B5002801D1FDF758
:10F22000FFFE10BD8207D30EFF229A408907090E08
:10F2300010B5994000280BDA03071B0F083B9C0808
:10F240000C4BA400E318DC6994430C43DC6107E039
:10F250008408094BA400E418236893430B432360FC
:10F26000C106C90E012088400449086004490860AD
:10F2700010BD000000ED00E000E400E080E200E0EE
:10F2800000E100E0F3B581B0054601F01FF81F4F23
:10F290000028284617D0FDF735FEC0192030007F22
:10F2A0008009032802D001280BD005E01848006926
:10F2B000E840C007C00F04D00321284600F0FBF847
:10F2C000FEBD0221F9E701F00DF80028F8D028462C
:10F2D000FDF718FE04468000C11D0E4AF931801862
:10F2E000026989B2012632430261084600F014F92E
:10F2F00002980028E4D02846FDF704FE8000385824
:10F300000028DDD00448A6404660FEBDA43E002093
:10F31000000500500065004000630040FEB5044653
:10F3200025480E460019202141560027C8171346CC
:10F33000401C01D008273CE0F27819462046FDF732
:10F34000BDFD0546401C33D0B07800280BD0052009
:10F350000007A10009180720000209180868022206
:10F360009043086007E000217378204600910A4628
:10F37000019100F07BF8F078002810D00F48AA0027
:10F380001018317802690E4B1A400261E206D20C65
:10F390008907890B0A4301690A43026109E00648AB
:10F3A000327840192030017F92011143017700E04B
:10F3B00004273846FEBD0000A43E00200065004042
:10F3C000FFE0FCFF03490969C140C807C00F00D036
:10F3D000012070470005005070B5144D28790028B1
:10F3E00001D0082070BD114900204039421E0B1881
:10F3F0002033401CC0B21A702028F8D300242046C5
:10F40000FDF74EFD641CE4B2082CF8D3032106205E
:10F41000FFF708FFFF207D3000F07EF8012004494F
:10F42000C007486001202871002070BDE43E002024
:10F430000063004002480079002800D00120704796
:10F44000E43E002070B552000A439900049D0A432F
:10F450002902059E0A43310405240A43240780003B
:10F460000721001909024018026070BD70B55200F2
:10F470000A439900049D0A432902059E0A43310468
:10F4800005240A43240780000721001909024018B7
:10F49000026070BD0522120780008218072000025A
:10F4A0001018026803231B049A43026002680904CF
:10F4B0000A43026070470522120780008218072065
:10F4C00000021018026803231B049A4302600268BA
:10F4D00009040A4302607047012282400348002960
:10F4E00001D082607047C260704700000005005084
:10F4F00038B5084B05241B68009324026B4641185D
:10F5000005E085005D592D192D69401C20C28142FE
:10F51000F7D838BD7025020002494018002101606B
:10F52000704700000060004003494018006801284F
:10F5300000D00020704700000060004040580028C4
:10F5400000D0012070470322120280184068084052
:10F5500000D00120704710B5002809D0032806D13B
:10F560000220FDF775FB002801D0FCF7D7F910BD8C
:10F5700002F088F810BD000030B50446008889B05C
:10F580003A2821D009DC234D022821D0102811D09F
:10F5900011280DD10020C04314E051281CD055285B
:10F5A00006D1A088132176DF002801D0FCF7B6F938
:10F5B00009B030BD0720FDF74BFB002801D0FCF758
:10F5C000ADF9A0886880F3E7A088132176DFEBE728
:10F5D0000021688867DFE7E71022A11D04A8FBF778
:10F5E000ABFD6846017C0029E2D0007E042803D0F0
:10F5F000062801D00528DBD1022908D00120694660
:10F600000870FF2083308880A088A8DFCCE7022024
:10F61000F5E70000B033002010B50078002807D1CE
:10F6200004483B21408876DF002801D0FCF776F9BA
:10F6300010BD0000B033002010B5134A00215170F6
:10F64000017A012911D002290ED18189491C8181B9
:10F65000C189491C89B2C181028A914204D1002129
:10F6600001F0CAFD01F0B6F910BD838AC28A991A69
:10F67000FF2901DC89B201E0FF210131511889B273
:10F68000C1829942EBD010BD40350020F7B51C4D2A
:10F690000E4601466A6F002082B0032A2DD82C4600
:10F6A00078340827636CBF1BBB4226D8286F10181C
:10F6B0008007800F1C2250434019FBF73DFD686F07
:10F6C000401C6867002E17D0216C606C4018400702
:10F6D000800E00190023009009E00498D9000A1850
:10F6E00006CA009806C06846FDF770FC5B1CB34272
:10F6F000F3D3606C80196064012005B0F0BD000098
:10F70000543F00200389CA1C9A1802814289511A69
:10F71000C91E418170470000F7B50D4601218902DD
:10F7200047180446002608340220288012E02046AC
:10F73000FEF798FD002817D00C48A1684268914256
:10F7400000D94160608881000C1929880818C01C04
:10F7500028800C34BC4202D22068401CE7D10298B9
:10F76000002800D00670FEBD0126EBE728350020FA
:10F7700008B50021009101460223024A0248FEF723
:10F7800071F908BD882502005C35002008B500200D
:10F790000090044802230168034A0448FEF762F916
:10F7A00008BD000038350020802502005C350020AF
:10F7B000F8B50025354F2C462E4600953448B10249
:10F7C000006840180168B94205D1324A4168891879
:10F7D00030D001290CD000218A0082580346521CE7
:10F7E00036D003202C4922018854641CA4B21BE0AB
:10F7F000009900290CD0284B022221015A54274A93
:10F800001368254A891802224B60641C0A81A4B23D
:10F81000224900220860091DFFF77EFF1F488088EB
:10F82000022831D008200543761CB6B2032EC5D37A
:10F83000E8B2F8BD1849002322018B5451180A463A
:10F8400048600E320831FFF767FF02200543CCE71E
:10F85000491CFF29C0D911490A68002A0CD00E4A58
:10F8600002212301D1549A1850600B481181203095
:10F870004480641CA4B204E002200B608880012054
:10F88000009001200543CFE70420CCE7DEC0ADDEC9
:10F890005C35002002FEE10E1440002038350020C7
:10F8A00070B5184D0E46044623CD86B002950090E3
:10F8B00001916846448082808371134D2046A97867
:10F8C000FCF7EEFD002803D03046FEF7E5FE0FE022
:10F8D0000721304600F0C6F9002809D0052807D1D5
:10F8E000092269460A73CC81049003A8FDF7B2FD92
:10F8F000002229782046FCF7E5FD6846FDF7AAFDC1
:10F9000006B070BD5425020084340020F0B585B0E7
:10F910000746FCF7B9FD002814D06846FCF7E8FC60
:10F9200000246D460BE060004619B0883946FCF7AC
:10F93000B7FD002802D0B08802F098F8641C009847
:10F94000A042F0D805B0F0BD70B5054D06460024C4
:10F95000A000295830468847641C052CF8D370BD98
:10F96000142502003EB50F4D0024142060434019B9
:10F9700002F03CFC641C082CF7D3082150200191B4
:10F980000A490124C2000290074B0094881800F035
:10F99000E4FC002801D003203EBD03484470002051
:10F9A0003EBD0000643D00206C340020D43A0020AD
:10F9B00010B500F043FA10BD10B500F043FA10BDC9
:10F9C000F0B5002585B00095019502950395044694
:10F9D000418868464180217901712E4621796088ED
:10F9E00002F0DEFB22780421404F1300FBF7AEFD4E
:10F9F0000A0606361C1C383E43484B4D00280DD0E5
:10FA0000417CC9070AD002F003FC684606702078E2
:10FA1000012800D00020694608722AE001206946CA
:10FA20000870A068029024E000280ED08268A368C5
:10FA30009A420AD1427CD30707D07B6852085B1CEC
:10FA400052000A437B6042741FE00220694608703E
:10FA5000E06803900DE0FFF777FF16E0032006E073
:10FA600068460170E06802906846F4E70520694640
:10FA700008700846EFE7062069460870E068D1E79D
:10FA800001250720F3E7E06802907868002824D079
:10FA9000174E0024142027464743B819417C4A07D3
:10FAA00003D48907C90F29421CD08178F05B00F08C
:10FAB000EFF8002816D014214C43325B69464A8087
:10FAC000B9198A7869460A71862808D009216A46D8
:10FAD000117002906846FFF737FF05B0F0BD0820AF
:10FAE0000870F7E7641C082CD4D3F6E76C340020C8
:10FAF000643D002010B500F06BFA10BD10B5002376
:10FB000000F0D6F910BD38B50546002420460AE0BD
:10FB10008178284600F0A6F8002802D0052800D0F9
:10FB200003240098401C00906946284602F04AFBD6
:10FB30000028EDD1002C07D1284600F051FA00280A
:10FB400002D0072802D00324204638BD0724FBE753
:10FB500010B51346002200F0E3F910BDFFB581B0E7
:10FB6000049815460E46002804D0072E05D0082E0E
:10FB700019D102E00E2005B0F0BD002D13D0082DE4
:10FB800011D8019800F037FA00280CD0002000901E
:10FB90003146019802F004FB040026D0E068A84238
:10FBA00012D2002709E00720E5E7207CC019C1B286
:10FBB0002A4800F00AFC7F1CFFB2E068B842F4D883
:10FBC000204602F013FB10E0A84217D9EFB207E07D
:10FBD000207CC019C1B2214800F0F7FB7F1CFFB2A6
:10FBE000E068B842F4D8002C08D1FF211C48019FDE
:10FBF00002F0D6FA040005D00780A670207CFF280A
:10FC000002D00AE01120B6E72946144800F076FB3E
:10FC10002074FF2813D001200090E560217C0F485C
:10FC200000F0BCFB02000ED0ABB23146049800F0ED
:10FC300073FA009800280FD0082E06D00CE020465A
:10FC400002F0D4FADEE7032095E7049804990088CF
:10FC500049688000801F888000208CE7543D002088
:10FC6000FFFF000070B5002402F09AFA05000CD0E6
:10FC70006868002804D000F0DAF9040000D00324FA
:10FC8000284602F0C5FA204670BD052070BD000070
:10FC90007CB50D460646072903D0082D01D0072064
:10FCA0007CBD002000900190684685702946304652
:10FCB00002F076FA040004D0607CC00703D0002074
:10FCC0007CBD05207CBD217C214800F067FB020043
:10FCD00025D029466846E36800F0B1F9684602F08D
:10FCE0004DFA2346083369463046626800F018F939
:10FCF0000246607C1749430704D5830702D54B6849
:10FD00005B1E4B60FB25FD23002A0AD0112A0DD073
:10FD1000862A14D0072A00D0032210467CBD032077
:10FD20007CBD01210843284018400EE04A68521C5F
:10FD30004A6004210843184060740022EDE74B68D4
:10FD400028405B1C4B60022108436074E5E700001B
:10FD5000543D00206C3400207CB50D46072903D0AB
:10FD6000082D01D007207CBD002602F019FA0400FE
:10FD700003D06068002802D01BE005207CBD217CF8
:10FD80000E4800F00BFB02460020009001906846F0
:10FD90008570002A0FD02946E36800F050F96846C4
:10FDA00002F0ECF9211D684600F029F90646092801
:10FDB00001D030467CBD03207CBD0000543D0020B6
:10FDC00001490968084700001025020070B588B095
:10FDD0001748FDF7EFFC002802D0032008B070BDE3
:10FDE000FDF726FC002801D08620F7E700F0EAF9AD
:10FDF0000020104C0290E61F03900DE0694604A815
:10FE0000FDF79CFC00988088801B85B204A8FDF754
:10FE100053FC284600F08AF902AA04A92046FDF7FF
:10FE200072FC0028EAD00449012008700020D5E7C0
:10FE300081D4010007C000006034002010B500F03C
:10FE40009FF910BD10B500F0A3F910BD70B50546BF
:10FE50000320800386B014460E46281880B20F4A4D
:10FE60006946FDF750FC002805D103A96846FDF757
:10FE700065FC002802D0002006B070BDA570039874
:10FE8000408820800498606003988088FDF7E2FC39
:10FE900030806846FDF710FC0120EDE76434002057
:10FEA00002480021416081607047000060340020FA
:10FEB000F0B587B01D46144607460E46FF280CD8FD
:10FEC000084600F019F9002807D003AA3146384641
:10FED00000F0FAF8002809D102E0072007B0F0BDD1
:10FEE00001A903A8FDF72AFC002801D00520F5E7A9
:10FEF000A6700198002D408820800AD082002868D2
:10FF0000904204D802996068FBF716F903E00420D8
:10FF1000E4E70298606003A8FDF7CEFB0020DDE770
:10FF20007FB588B01D460C460646FF2834D8A07819
:10FF300000F0E2F800282FD060680690208869461B
:10FF40008883304600F078F969460880A07803215C
:10FF5000890340186946488006A80190012008815D
:10FF6000A17803AA304600F0AFF805280A9815D00A
:10FF7000002802D00AA8FDF749FC694603A8FDF74E
:10FF8000FFFB002817D007281FD008281BD00E28F9
:10FF900019D003200CB070BD0720FBE7002805D066
:10FFA0000AAA694603A8FDF7FBFBEAE7694603A82E
:10FFB000FDF7F0FBE5E7002D03D0294603A8FDF788
:10FFC000B2FB0020E6E71120E4E78620E2E700002C
:10FFD00010B5024800F0AAF810BD0000FFFF0000B5
:10FFE00010B5FF2801D9072010BD00F0A7F800F0D8
:10FFF0002BF8002010BD10B500F0F8F810BD70B55A
:020000040002F8
:1000000004460D46807800F077F800280BD0218850
:100010002846FDF7E1FB002804D0072805D0092871
:1000200000D0032070BD072070BD862070BD01B5D3
:100030006846FDF7EBFB002800D0032008BD10B593
:100040009BB200F069F810BDF0B589B000261C4FD6
:1000500004963846059603E0204600F083F82046D3
:1000600000F08EF80446B84207D000F0E5F804AA84
:1000700006A9FDF750FB0A28EED0124DA8780028FB
:1000800019D1BC4217D00320800301272018AF707C
:1000900080B2FDF783FA08280FD000280BD0AE708D
:1000A000092269460A704C80FF220A710390029669
:1000B0006846FFF785FE09B0F0BD6F70FBE70000F2
:1000C000FFFF0000603400207CB5054616460C4654
:1000D000084600F011F800200321009089030190E8
:1000E0006818611880B289B26B463246FDF704FB8E
:1000F000002800D005207CBD07280BD0012809D09E
:10010000082807D0052805D0062803D0042801D0E8
:10011000002070470120704710B5502463439BB204
:100120008170DB1C99084260018010BD10B5024946
:10013000FCF758FF10BD0000043E002010B5044637
:100140000648844207D006492046FCF74BFFA042F0
:1001500001D1012010BD002010BD0000FFFF0000F4
:10016000243E002010B50446044900F02BFE03494C
:100170002046203100F026FE10BD0000043E002085
:1001800010B50249FEF7C4FF10BD0000243E002058
:1001900070B50A49FEF7BCFF0446094D08E000F0BF
:1001A00031F8002807D005492046FEF7B1FF044684
:1001B000AC42F4D170BD204670BD0000043E00206A
:1001C000FFFF000010B508484021FAF7DCFFFF24CC
:1001D00001342146044800F0E5F903482146203067
:1001E00000F0E0F910BD0000043E002010B5FF282B
:1001F00004D80146024800F005FA10BD002010BDE9
:10020000043E002010B5FF2804D80146024800F043
:10021000F9F910BD002010BD243E002010B50C4699
:10022000FDF7DAFEFF2803D00C21484301490C52A8
:1002300010BD0000643A002003218903401880B2F9
:10024000704700001CB5044600F06AF9002801D090
:10025000FBF764FB002C05D000F0B8FA002801D0B1
:10026000FBF75CFB002000900190684600780122BB
:1002700010438D21084030304106490E6846017018
:100280000721417010218170C378022113430B4371
:10029000C370037913430B43037100F0CDFA0028B8
:1002A00001D0FBF73BFB074800F0AEFA002801D075
:1002B000FBF734FB0448FDF77DFA002801D0FBF77B
:1002C0002DFB1CBDFD0302007DD40100044908186C
:1002D00020214156042901DB01207047002070478E
:1002E000A43E00200449081820214156042901D2C7
:1002F0000120704700207047A43E0020F8B50F464B
:10030000060028D03068002825D07068002822D048
:10031000FF2400251CE02946706800F04BF90028F6
:1003200008D0FF2C00D12C46281B401CB8420DD110
:100330002046F8BDFF2C06D108E02146304600F0EB
:1003400044F8641CE4B2AC42F7D3FF246D1CEDB258
:10035000B068A842DFD8FF20F8BDF8B50400069EBB
:10036000089D079818D0002916D0002B14D00746F6
:100370006F43974210D8C21DD208B2420CD8002851
:100380000AD0002D08D0E560A0600AC481B21846EA
:1003900000F008F90020F8BD0720F8BD70B5040092
:1003A0000D4610D0206800280DD0606800280AD0C3
:1003B000FF2D08D000F026F9002804D0E06821685D
:1003C0006843081870BD002070BD70B504000D466C
:1003D0000FD0206800280CD06068002809D0FF2DBD
:1003E00007D000F00FF9002803D02946606800F01C
:1003F00015F970BD10B501F063F910BD08B50178AD
:100400000B00FBF7A3F80F0F0F0F0F0910230F219D
:100410000F231B230F1E0F00002100914088694607
:10042000FFF7E8FF08BDFDF7DFF80E28FAD008282F
:10043000F8D00028F6D0FBF771FA08BDFBF7DEF91B
:1004400008BD00F0A5F808BD0069F2E78068F0E794
:1004500070B586B0044614216846FAF794FE6088A9
:1004600069468880FEF762F8694648802678002051
:100470000822072105253300FBF768F80A06060B5A
:100480000D0F1416281A1D256B46197058721A7212
:1004900019E00D2009E00E2007E06A461170507245
:1004A000157210E00F2000E01020694608700AE085
:1004B0006846057007E0062168460170A068029052
:1004C000A188684641806846FCF7B0FF06B070BD61
:1004D00010B50446007886B000281AD0012816D13D
:1004E0000E49608801224979FBF7ECFF1421684628
:1004F000FAF749FE6088694648806088FEF7E2F8AE
:1005000069468880002008706846FCF78FFF06B0B7
:1005100010BDE08800F04EF9F9E7000074340020C7
:1005200070B5FFF753FC00282ED1FFF71BFA002807
:100530002AD101F0D3F8002826D101F0D9F90028FA
:1005400022D1FDF7F7FC00281ED1FDF7AFFD0028F2
:100550001AD1FEF701F8002816D10C4C401EE0809D
:1005600000251820A56020716071FBF775FF2071D0
:10057000182809D0FBF770FF6071182804D0657047
:1005800001202070002070BD032070BD7434002055
:1005900010B503480078002801D0FDF7EFFC10BD2E
:1005A0007434002010B5002803D0C91DC908FAF71B
:1005B000EAFD10BD10B5002809D04B075B0F0122E2
:1005C0009A40C908D2B208181146FEF74FFC10BD78
:1005D000F8B50D46060013D0002401270EE0610790
:1005E000490F38468840C1B2E0088019FEF73EFC4A
:1005F000002801D02046F8BD641CA4B2AC42EED362
:100600002846F8BD002807D0CA08805C4A07520F68
:1006100001219140084000D001207047F8B5044600
:100620004805050E4907490F01208840C6B2002C35
:100630000ED0605D30420BD0002168460170FBF7A0
:1006400021FA605DB043605568460078FBF738FAE0
:10065000F8BD000010B5044606480078002808D010
:100660002046FDF70FFF204601F020F82046FDF759
:100670009FFB10BD74340020F0B58BB004461421EC
:100680006846FAF780FD608869468880FDF74EFF6E
:100690006946488027780120082207210026434D1B
:1006A0003B00FAF753FF0A060E20353B435F807884
:1006B0007A806A461170217911725672039690728F
:1006C0006EE06A461170217911725672A168039129
:1006D0009072A868002863D0A168814260D1AE60A2
:1006E0009088E88012E068460270217901724672B3
:1006F000A0680390E0680490A868002850D0A16822
:1007000081424DD1AE60E868401EE860039647E044
:100710006A461170217911725072F7E769460A70C2
:1007200022790A724872A068049039E0092069466B
:100730000870A878002833D01D4C2046FFF73CF9FC
:10074000A0422DD12046FFF733F9A04228D1AE7048
:10075000142105A8FAF717FD0B21684601750483DB
:10076000C48214E00A2069460870A0680290A87844
:10077000002815D0AE70142105A8FAF704FD0C204E
:10078000694608750A480883C882A068079005A8CA
:10079000FCF74CFE04E0052000E0062069460870E6
:1007A0006846FCF743FE0BB0F0BD00007434002037
:1007B000FFFF000010B504490978002902D0FDF7B9
:1007C0006BFF10BD082010BD7434002070B50C48BC
:1007D0000178002904D001210A4D8170284608E0E3
:1007E000082070BDFFF7E6FF002801D0032070BD90
:1007F0002046FFF7E1F80446A842F3D1002070BD7F
:1008000074340020FFFF000010B5094A1178002958
:1008100004D0D178032903D3042010BD082010BDD3
:100820008B00044C491CE050D170002010BD00002A
:1008300074340020443E002010B504490978002992
:1008400002D000F08DFF10BD082010BD74340020D0
:10085000F0B585B00446012614216846FAF793FCEA
:100860006088694648804B4F2078002539797A792D
:100870000300FAF76BFE0D828D081C30424C515973
:10088000646A6C7E820001206A461070207900281C
:1008900001D0012200E00022012806D00025608856
:1008A000FBF710FE60882A4611E00125F7E70220D9
:1008B0006A4610702079002801D0012000E0022053
:1008C000107260880122FBF7FDFD2279608879793A
:1008D000FBF7F8FD52E00320694608706088114676
:1008E000FBF7DEFD002801D0012100E0022168466F
:1008F0000172A1790173A18839E06088FBF7D0FD0E
:10090000002845D10220694608700D7236E00321A7
:10091000684601700572ECE7072069460870A288F6
:100920008A8008724D7230E0082168460170A18803
:100930008180072101724572A068049025E006209D
:10094000694608706068029018E0052012E00320F4
:100950006946087060881146FBF7A2FD002801D0A7
:10096000012100E00221684601720B4905734181B3
:1009700004E004206946087000E000266088FDF766
:10098000A1FE69468880002E02D06846FCF74EFD25
:1009900005B0F0BD743400200111000070B50D00E9
:1009A000044602D10020FAF7B9FF002C02D1002042
:1009B000FAF7B4FF2878207069886170090AA1707D
:1009C000A988E170090A2171E8886071000AA071A4
:1009D00070BD00000848416E491E416604D10749B8
:1009E000FD230A781A400A70016E491C0166042929
:1009F00001D10021016670474440002040350020AD
:100A000070B50C490446486E042810D00A6E1218BE
:100A1000042A00D3121F401C486618204243551870
:100A200001462846FAF7AFFB0120256070BD002083
:100A300070BD000044400020F0B52B4C1C22216FFB
:100A400085B051430D192978284E00270B00FAF77D
:100A50007DFD07190509090D0D1119002946FDF73E
:100A600063FE09E0294601F073FC05E02946FCF726
:100A7000BBFB01E0FDF7B2F800282FD0B04202D155
:100A8000019710E00F2001902878022801D0032858
:100A900009D11548AA7D7830016C89180164AA7DB6
:100AA000416C891A416469462846FCF74BFC68464C
:100AB000FCF77EFC206F1C2148430019FAF763FB0A
:100AC000606F00280CD0216F491C8907890F2167AE
