:020000040000FA
:1000000040080020D5000000EF000000F1000000D3
:1000100000000000000000000000000000000000E0
:10002000000000000000000000000000F3000000DD
:100030000000000000000000F5000000F7000000D4
:1000400031010000F900000039020000F900000051
:10005000F900000000000000F9000000F9000000B5
:10006000F9000000F9000000F9000000850100001F
:10007000F9000000F9000000F9000000F90000009C
:10008000F9000000F9000000F9000000F90000008C
:10009000F9000000F9000000F9000000F90000007C
:1000A000F9000000F900000000000000000000005E
:1000B0000000000000000000000000000000000040
:1000C0000348854600F022F800480047A9030000D5
:1000D000400800200321094802680A4302600848DA
:1000E00002680A4302600748804707480047FEE766
:1000F000FEE7FEE7FEE7FEE7FEE70000240500401E
:100100005405004099010000C1000000064C012583
:10011000064E05E0E36807CC2B430C3C98471034AF
:10012000B442F7D3FFF7D0FF400900006009000098
:10013000F8B5FF20013000F071F9002401250E4EC2
:100140000E4F002807D00E4804600120B0607D707B
:10015000002000F0E5F8FF20053000F05FF90028EE
:1001600008D00748001D04600220B060BD70012067
:1001700000F0D6F8F8BD0000000300401000002099
:100180000001004010B503220021024800F05CFA93
:1001900010BD000000B0004010B500F0D5F80028F8
:1001A00005D01F491D484860C8131E4988611E4874
:1001B000018CC9B201290BD1828C120708D1028DA2
:1001C0001206120F042A03D1828D1206120F0AD0D2
:1001D000012921D1818C09071ED1018D0906090F42
:1001E0000A2904D007E0114A01219160F5E7828DC8
:1001F0001206120F05D00D290ED1808D0006000FBA
:100200000AD10B480168012904D00A49016001683C
:100210000129FCD1C021416110BD0000DFFF07C0F2
:1002200000050040006C0040C00F00F000060040D8
:1002300000EC06407593000010B50249024800F03A
:10024000DFFA10BD240000200020004002E008C8B2
:10025000121F08C1002AFAD170477047002001E040
:1002600001C1121F002AFBD170470000BFF34F8F5E
:1002700003490248C860BFF34F8FFEE70400FA0548
:1002800000ED00E00EB50021029000916A46019158
:100290000148FFF7EBFF0EBD0140000000B500F084
:1002A00005F800BD00B500F009F800BD72B60248BF
:1002B0000168491C016070470C0000200349086870
:1002C000401E086000D162B6704700000C0000209C
:1002D00010B50349085C012100F036FA10BD00009A
:1002E000380900007CB50024074E2546305D012208
:1002F000009500231146019500F006FA641C042CB9
:10030000F4D300F003F87CBD3809000010B50024D8
:100310002046FFF7DDFF641C042CF9D310BD00005C
:1003200070B5084C050009D010342168002907D0A9
:1003300008682060496828468847F6E70834F4E7EB
:1003400070BD0000100000201048018CC9B20129C6
:1003500017D1818C090714D1018D09060A0F03D129
:10036000828D1206120F0ED0090F012903D1828D42
:100370001206120F07D0032903D1808D0006000F4B
:1003800001D000207047012070470000C00F00F02E
:100390000268134602E08A4204D01268002AFAD1A9
:1003A0000B600160704700001CB5FFF79BFF00F079
:1003B0003DF8002801D0FFF765FF002000F056F857
:1003C0001349154A03C901910090124869460880F3
:1003D0000F48083000F002F9002801D0FFF752FF63
:1003E0000B480121083000F07DF90948012318224B
:1003F0000021083000F09CF8002801D0FFF742FFF0
:100400000348083000F0DEF840BF20BF20BFFBE704
:1004100028090000FF0F00007B0700000121890769
:1004200040180068002800D00120704770B50C4CBF
:1004300000252078002801D085250FE00021A1604B
:1004400061602161E160074800680126304002D107
:10045000032100F03DF8044886612670284670BDEF
:100460001000002000E100E00005004070B5154CD0
:100470000546A078002808D0002D02D06968012028
:1004800088470020FFF70AFF15E00020FFF706FF6E
:10049000002D04D00B4829461030FFF779FFE068A3
:1004A000002808D108490860084902204860064928
:1004B0000120FC390860E068401CE0600020FFF784
:1004C000F1FE70BD10000020040100400003004058
:1004D0008207D30EFF229A408907090E10B5994072
:1004E00000280BDA03071B0F083B9C080C4BA400E9
:1004F000E318DC6994430C43DC6107E08408094B92
:10050000A400E418236893430B432360C106C90E7B
:1005100001208840044908600449086010BD0000BB
:1005200000ED00E000E400E080E200E000E100E037
:10053000F0B5012424048C408E003146FF31413156
:100540008FB2032501682D0249199C468C6401680D
:1005500049198C6011024279090A5300D318174ACD
:100560009A18527805231B02002A026814D0B21888
:10057000D21811640268D2185268531A8A4201D202
:100580000F495B1841794A008A180C49511889783B
:10059000994204DD0D20F0BDB218D21811646146F5
:1005A000002905D001680022CA51016849194C6030
:1005B0000068401944640020F0BD000004000020E1
:1005C000FFFFFF00016801220A604079022142001A
:1005D0008018014A115470470400002070B50D4680
:1005E0000446002A0DD06079164980000A506079CF
:1005F000144E41004018361F305C002803D00820FC
:1006000070BD072070BD0420A9782056FFF760FF59
:100610000522216812022888891888606179287962
:100620004A008918891948706179E8784A00891860
:1006300089198870617901204A0089187054002056
:1006400070BD000008000020F7B5044682B0FF200E
:10065000413000900125032089002D04002700026D
:100660002618019116E0706828420DD00098205895
:10067000002809D0B564B560009800212150184ABF
:100680000199F8B25158884700986D00001D80B25A
:100690007F1C009004988742E5D3FF2071680130E9
:1006A000C907C90F09D02158002906D000212150BF
:1006B0000B490198095804208847FF2005307268CB
:1006C00002210A4209D02158002906D000212150D8
:1006D0000349019809580520884705B0F0BD00007E
:1006E0000800002030B5FF240134012203680025F2
:1006F0001D51032304681B02E4186264002902D020
:100700000068C018426030BD70B552000A439900BD
:10071000049D0A432902059E0A43310405240A4325
:10072000240780000721001909024018026070BDEB
:10073000044A53680121814008469843906019405B
:10074000D160704700050050012282400348002913
:1007500001D082607047C260704700000005005001
:100760004058002800D00120704703221202801850
:100770004068084000D00120704710B5002805D01F
:10078000042802D11220FFF7D3FF10BD1320FAE78F
:1007900030B5FF220523CD7D002409321B02C3188A
:1007A000002D8450986905D04B7ECA68D054487E8D
:1007B000401C487630BD1FB501246B461C70197271
:1007C000019206C8684690471FBDFF221D320023D4
:1007D00083508B8A8A68D25C8B8A5B1C8B82052152
:1007E00009024018C26170471FB500226B461A709B
:1007F000197281680191827506C8684690471FBDCD
:10080000F0B50C46012185B005464902FFF7ADFF62
:10081000032109026F180026002826D0FF21253168
:100820002846FFF79DFF00281FD0FF2025302E50BF
:1008300081208000B860A07E002801D1012068607E
:100840000221684601700920C00129180868086063
:100850000390E17D68460172E0680190E6752676B6
:1008600006CC6846083C90472DE004212846FFF757
:100870007CFF002827D0FF2109312846FFF770FFB1
:10088000002820D021462846FFF782FFE07D617EC8
:10089000884218D1207E002807D0617EE268E0758A
:1008A0002069E060267666760AE0A07E002801D105
:1008B0000120686081208000B860E675617EE26892
:1008C0002046FFF778FFFF271D3739462846FFF7F8
:1008D00047FF00280FD0A08AA17D884204D221467C
:1008E0002846FFF772FF06E0EE51A17D002902D0F5
:1008F0002046FFF779FFFF27453739462846FFF79F
:100900002FFF00280ED0EE51A07E002801D001203C
:100910002860E07D002805D0E675617EE26820460B
:10092000FFF749FF05B0F0BD0000034100000000E3
:1009300000B000400B00030012131418111213141E
:100940006009000000000020100000004C020000C0
:100950007009000010000020300800005C02000058
:100960000024F4000000000000000000000000006F
:04000005000000C136
:00000001FF
