S00E0000752D626F6F742E73726563C0
S31501000040160000EA14F09FE514F09FE514F09FE511
S3150100005014F09FE514F09FE514F09FE514F09FE579
S315010000600002000160020001C0020001200300013C
S3150100007080030001E00300012004000178563412D8
S31501000080400000010C3403000C340300AC78070077
S31501000090ACA00300DEC0AD0BDEC0AD0BDEC0AD0B08
S315010000A0330500EB00000FE11F00C0E3D30080E33E
S315010000B000F029E1100F11EE020AC0E3100F01EE64
S315010000C098039FE5100F0CEE360000EB460000EB9F
S315010000D0DC0500EB0040A0E10150A0E10260A0E1D7
S315010000E0A8004FE2060050E10090A0032200000A9A
S315010000F00610A0E174301FE5032080E00006B0E899
S315010001000006A1E8020050E1FBFFFF3A94001FE55B
S31501000110009046E06CA09FE500A08AE05C209FE588
S31501000120002082E058309FE5003083E0000092E530
S31501000130090080E0041092E5FF7001E2170057E321
S315010001400700000A020057E30000000A060000EA61
S315010001502112A0E101108AE0041091E5091081E065
S31501000160010000EA001090E5091081E0001080E529
S31501000170082082E2030052E1EBFFFF3A1EFF2FE166
S315010001800C3403009C9F03009C9F0300150F07EE90
S315010001909A0F07EE950F07EEC0029FE5100F0CEEC2
S315010001A01EFF2FE11EFF2FE10000A0E3170F08EE4F
S315010001B0150F07EED50F07EE9A0F07EE950F07EE0F
S315010001C0100F11EE020AC0E30700C0E3020080E34C
S315010001D0020B80E3010A80E3100F01EE300F1FEEE0
S315010001E0020680E3300F0FEE0EF0A0E1370100EAC0
S315010001F000F020E300F020E300F020E300F020E32C
S315010002006CD11FE500E08DE500E04FE104E08DE5EE
S3150100021013D0A0E30DF069E10FE0A0E10EF0B0E12B
S3150100022048D04DE2FF1F8DE894211FE50C0092E8AE
S3150100023048008DE234508DE20E10A0E10F0085E8F2
S315010002400D00A0E1D30600FA00F020E300F020E360
S3150100025000F020E300F020E300F020E300F020E3CB
S3150100026004D04DE200008DE5D4011FE500E080E5F4
S3150100027000004FE104E080E500009DE504D08DE239
S3150100028048D04DE2FF1F8DE8F4211FE50C0092E8EE
S3150100029048008DE234508DE20E10A0E10F0085E892
S315010002A00D00A0E1C10600FA00F020E300F020E312
S315010002B000F020E300F020E300F020E300F020E36B
S315010002C02CD21FE500E08DE500E04FE104E08DE56D
S315010002D013D0A0E30DF069E10FE0A0E10EF0B0E16B
S315010002E048D04DE2FF1F8DE854221FE50C0092E82D
S315010002F048008DE234508DE20E10A0E10F0085E832
S315010003000D00A0E1AF0600FA00F020E300F020E3C3
S3150100031000F020E300F020E300F020E300F020E30A
S315010003208CD21FE500E08DE500E04FE104E08DE5AC
S3150100033013D0A0E30DF069E10FE0A0E10EF0B0E10A
S3150100034048D04DE2FF1F8DE8B4221FE50C0092E86C
S3150100035048008DE234508DE20E10A0E10F0085E8D1
S315010003600D00A0E19D0600FA00F020E300F020E375
S3150100037000F020E300F020E300F020E300F020E3AA
S31501000380ECD21FE500E08DE500E04FE104E08DE5EC
S3150100039013D0A0E30DF069E10FE0A0E10EF0B0E1AA
S315010003A048D04DE2FF1F8DE814231FE50C0092E8AB
S315010003B048008DE234508DE20E10A0E10F0085E871
S315010003C00D00A0E18B0600FA00F020E300F020E327
S315010003D000F020E300F020E300F020E300F020E34A
S315010003E054D31FE548D04DE2FF1F8DE83C508DE206
S315010003F0006045E900E085E500604FE1046085E5C0
S31501000400080085E50D00A0E1890200FAFF7FDDE81D
S315010004100000A0E13CE09DE548D08DE204F05EE2FB
S3150100042090D31FE548D04DE2FF1F8DE83C508DE289
S31501000430006045E900E085E500604FE1046085E57F
S31501000440080085E50D00A0E1700600FAFF7FDDE8F2
S315010004500000A0E13CE09DE548D08DE204F05EE2BB
S31501000460400000012DE9F34E009030EE303F0024AC
S315010004704FF0FF350193019A6600331922FA03F30F
S3150100048003F00703023B022B39D840EE106F30EE22
S31501000490100FC0F3C90200F0070102F1010C04318B
S315010004A0C0F34E304FF0FF37E6465FEA5E0E07F1C6
S315010004B001032AD112EA0C0F18BFBB1C009FC3F11E
S315010004C02003012F23D105FA03FC05FA01F902FAEB
S315010004D003F300FA01F146EA030B07468E464BEA9F
S315010004E00E0A07EE56AF013FCE44B7F1FF3FF6D1F4
S315010004F0013A6344571CEED1002307EE9A3F0134BB
S31501000500072CB8D102B0BDE8F08E1F46CDE7009F9B
S31501000510022FF4D105FA03FC05FA01F902FA03F3F5
S3150100052000FA01F146EA030B07468E464EEA0B0A2C
S3150100053007EE5EAF013FCE44B7F1FF3FF6D1013A78
S315010005406344571CEED1D7E7002307EE153F07EEAC
S31501000550D53F07EE9A3F07EE953F704770477047C4
S31501000560704708B50220FFF77DFFBDE80840FFF799
S31501000570F7BF704708B50120FFF774FFBDE80840D3
S31501000580FFF7F7BF08B5FFF7E9FFFFF7F3FF002312
S3150100059008EE173F08EE163F08EE153F07EE9A3FA5
S315010005A007EE953F08BD704730EE103F03F0070395
S315010005B0012204339A4053420340994204D800234E
S315010005C007EE9A3FFFF7EFBF07EE3E3F1344F4E70E
S315010005D008B5FFF7E9FF002308EE173F08EE163FBF
S315010005E008EE153F07EE9A3F07EE953F08BD014419
S315010005F0FFF7DABF70472DE9F04206460F4630EEA7
S31501000600105F05F007052B1D01259D4005F1FF39FA
S3150100061010EA090F1DD0024612491348741E09F04B
S315010006207BF82C446B421C4017EA090F13D03A465B
S315010006300C490E4809F070F86B423B409C420CD3C2
S31501000640002307EE9A3F39463046BDE8F042FFF7F0
S31501000650D1BF0446E8E73B46F0E707EE364F2C44A8
S31501000660ECE700BF1053020130540201635402014A
S31501000670704708B501F011FB01F030FCFFF764FF8C
S3150100068001F076FCFFF76BFFFFF774FFFFF7F0FF52
S31501000690002008BD0138FDD1704710B5012404FAC8
S315010006A002F20468013A8B408A4024EA02021343AB
S315010006B0036010BD30B500240134156805408D4234
S315010006C003D09C42F8D1002030BD012030BD00008E
S315010006D00CD09FE507D0CDE300502DE9010000FACB
S315010006E00090BDE880FEFFFF054A13686FEA1333E9
S315010006F06FEA03331360034B01221A60704700BF90
S3150100070054C0FEFF00FCFEFF054B4FF0FF321A609E
S315010007105A609A6842F0030200209A60704700BF4F
S315010007200000D0FF46F2A81358430B4B10B5A0FBAF
S3150100073003018B0909494A68002B00DC10BD486892
S31501000740824235BFC0F101049B1A12191B1838BF2A
S315010007509B180246F0E700BFD34D62100000D0FFA0
S315010007600D4B5A680D4BD208A2FB0323D8F8302053
S31501000770190A9142D8F83020D8F82000024484BFE3
S3150100078002F5273202F21632521AC8F82020C8F8AA
S315010007903010D8F8200070470000D0FF89B5F81452
S315010007A010B50446FFF7DCFF001B10BD064B5A6867
S315010007B0064BD208A2FB032300221B0AC8F83030DD
S315010007C0C8F82020704700BF0000D0FF89B5F81493
S315010007D00A4B5968D8F830208A42D8F83020D8F820
S315010007E02000A2EB010238BF02F1FF320244C8F831
S315010007F02020C8F83010D8F8200070470000D0FF3C
S3150100080010B50446FFF7E4FF001B10BD034A52680A
S31501000810C8F830200022C8F8202070470000D0FF19
S3150100082008B5FFF79DFF002108BD4FF47A707047A8
S31501000830044B5A6942F040025A615A6922F0400259
S315010008405A6170470050D0FF024B5869C0F38010BF
S31501000850704700BF0050D0FF024A536843F00203BD
S315010008605360FEE70050D0FF014B00225A617047EA
S315010008700050D0FF08B500F071F900B9FEE7034B4F
S315010008800022DA61024B19221A6008BD0050D0FF1E
S31501000890000080FF014B00221A6170470050D0FF13
S315010008A0024A536923F48073536170470050D0FFA5
S315010008B0024A536923F04003536170470050D0FF49
S315010008C0024B4FF0FF325A61704700BF0050D0FF14
S315010008D0024B4FF0FF32DA61704700BF0050D0FF84
S315010008E0024B6FF040025A61704700BF0050D0FFC3
S315010008F0014A024B5A617047BFFFFFDF0050D0FF2C
S31501000900044B5A6918B142F001025A61704722F04C
S315010009100102FAE70050D0FF044B5A6918B142F0C0
S3150100092002025A61704722F00202FAE70050D0FF34
S31501000930064B1A6842F010021A601A6818B142F0A2
S3150100094001021A60704722F00102FAE73C50C2FF29
S315010009501B4B10B51C6862070CD51969194808F0BC
S31501000960DBFE194B1968194B19481A6811441960AD
S3150100097007F038F814F0080416D0164808F0B8FE47
S31501000980124B1548196808F0C7FE144B196814482C
S3150100099008F0C2FE134B1968134808F0BDFE134B4D
S315010009A01968134808F0B8FE124A136843F0100399
S315010009B0136024B10020FFF7BBFF01F021F810BD41
S315010009C03850C2FF955402014050C2FF4C34030116
S315010009D0B3540201C1540201E05402014850C2FF5E
S315010009E0F05402014C50C2FF005502015050C2FFA3
S315010009F0125502013C50C2FF0F4B196803F56323E0
S31501000A0001F01F0064331B685A1EC1F382211F2A9D
S31501000A1038BF1A46094B28BF0F221B68282B08D05E
S31501000A20182B08BF1023DB080844104403FA00F012
S31501000A3070472023F7E700BF2C50C2FF3050C2FF9A
S31501000A4010B5FFF7D9FF0146002044460DF06CFBB7
S31501000A50A063002010BD10B58CB000240294FFF7EE
S31501000A60CBFF40F6C4130A93154B00940B930390E6
S31501000A70144808F03DFEFFF799FE2046FFF790FE69
S31501000A800446684611F034F820B10F4808F030FEEC
S31501000A9000F0B6FF684610F017FF08B10B48F5E7FE
S31501000AA0684610F0E9FF08B10948EFE72046FFF76D
S31501000AB077FE0146074808F02FFE0CB010BD00BFB7
S31501000AC05034030123550201425502015C550201CE
S31501000AD07655020191550201024B1868C0F3800058
S31501000AE0704700BF506870FF024B186800F007009E
S31501000AF0704700BF006070FF044A5368800123F00D
S31501000B00C003C0B218435060704700BF006070FF59
S31501000B10094BDA680AB10122DA604FF080729860F7
S31501000B20D96819B101220020DA607047013AF7D17C
S31501000B304FF0FF30704700BF006070FF08B5FFF748
S31501000B40CBFF08B9002008BDFFF7C6FF0028F9D082
S31501000B50FFF7CAFF031F5842584108BD4FF0807284
S31501000B6008B5FFF7B9FF18B9013AFAD1104608BD21
S31501000B70FFF7B2FF0028F7D0012008BD2C4908B5C0
S31501000B8008684B68C008020700F00B004CBF43F42D
S31501000B90007323F4007308284B6034D10020FFF75B
S31501000BA0ABFF4B684FF0807223F002034B604B683A
S31501000BB043F001034B604B6843F004034B60FFF7BE
S31501000BC093FF012801D0013AF9D1FFF78DFF0128E2
S31501000BD028D14B684FF0807223F004034B60FFF776
S31501000BE083FF022801D0013AF9D1FFF77DFF0228E0
S31501000BF01BD1104B40F6FF7200201A604B6843F47C
S31501000C0080734B6008BD092801D10220C7E70A2875
S31501000C1001D10320C3E70028C0D00128BFD0022894
S31501000C20BFD1F2E74FF0FF3008BD6FF0010008BDFC
S31501000C30006070FF4C6870FF0A46014922F05CB9FA
S31501000C400000B9FF0B494FF080720B6813F00303E4
S31501000C5006D0032B07D0013AF7D16FF00300704796
S31501000C606FF002007047044A0020536823F4807332
S31501000C7053607047506870FF006070FF08B504202C
S31501000C80FFF746FF024678B94FF08071FFF72CFF58
S31501000C90032807D0FFF728FF042803D00139F5D12F
S31501000CA06FF00502104608BD6FF00402FAE708B5B9
S31501000CB04FF4A040FFF72CFF024658B94FF0807160
S31501000CC0FFF712FF042808D00139F9D16FF00702A6
S31501000CD0104608BD6FF00602FAE703494B6823F098
S31501000CE001034B60F4E700BF006070FF38B50446AE
S31501000CF00D460F4A00231360A2F56222A2F6A872DE
S31501000D001360FFF7E5FD0B4B01221A60FFF736FF73
S31501000D1068B929462046FFF78FFFFFF793FF30B9E1
S31501000D20FFF7ACFF18B9BDE83840FFF7C0BF38BDC3
S31501000D302880D0FF000080FF084A4FF0FF33136080
S31501000D4004321360043213600432136004321360F8
S31501000D5004321360043213605360704780D1FEFF82
S31501000D60084A4FF0FF3313600432136004321360F4
S31501000D7004321360043213600432136004321360C8
S31501000D805360704780D2FEFF430900F01F02012025
S31501000D909B009040A3F59733A3F580731968084328
S31501000DA0186070471F2810B511D900F0FC0300F038
S31501000DB00300A3F59433FF24C0001A68844001FAA6
S31501000DC000F022EA04021A601A681043186010BD86
S31501000DD0030900F00F0010B59B00A3F59233400004
S31501000DE0032401291A6804FA00F422EA04021A60AB
S31501000DF005D11968022202FA00F00843186010BDF5
S31501000E00430900F01F0201209B009040A3F5973390
S31501000E101968084318607047430900F01F02012052
S31501000E209B009040A3F59633A3F5C0731968084358
S31501000E301860704738B5084DAC69D32C0AD8074BF2
S31501000E4003EBC40253F8343050689847E0B2FFF719
S31501000E50E3FF2C6138BD00BF00C1FEFF4003030163
S31501000E6010B50A4C236823F001032360FFF764FFE2
S31501000E70FFF776FF064A08235360236843F0010310
S31501000E80236001230020136010BD00BF00D0FEFFC8
S31501000E9000C1FEFF38B50446084D45F8301005EB94
S31501000EA0C00519466A60FFF793FF01212046FFF747
S31501000EB079FF2046FFF768FF002038BD4003030194
S31501000EC0FFF79EBF40001F22030F013A83EAD0734A
S31501000ED04FEA430303F0020343EA4000F4D1C0F3AF
S31501000EE0007383EAD073184370472DE9F7468146AC
S31501000EF00E4615461F461C464FF0000ACA4504DB3E
S31501000F0000244C4519DB012034E02046FFF7DAFFC7
S31501000F10A842014602D9294621F01CEF0C464A4255
S31501000F2001F0030302F003020AF1010A58BF53421A
S31501000F30CB1A995117F07EFEE0E73846FFF7C2FF5C
S31501000F408542034603D2294621F004EF0B46594256
S31501000F5003F0030201F003011F4658BF4A42991AE2
S31501000F608A198959994208D000912146054808F005
S31501000F70D3FB002003B0BDE8F08617F05BFE013419
S31501000F80BFE700BFC1550201012870B50D461646DF
S31501000F9014D00C4B0C4C022808BF1C460B4808F019
S31501000FA0A7FB20460A4B32462946FFF79EFF044619
S31501000FB030B1084808F09CFB204670BD064CEDE7B1
S31501000FC00648F7E700CA9A3B40420F00085602015D
S31501000FD0EFBEADDE30560201809698001ACD0201B1
S31501000FE09C4B2DE9F04E044686B00D461A6822F454
S31501000FF080621A60984A4FF43D7111600193029222
S3150100100005B99D63019A0023DFF890B2DFF890A23B
S315010010101360002D40F0DA800B23CBF80030DAF8AC
S315010010200030D907FBD48D4F8D4B3B608D4EDFF8D9
S3150100103074923360002D00F0D1808B4A1523136022
S315010010408A4B0021196039683168D9F80010216886
S315010010503960E16A31600392049315B9636DC9F889
S315010010600030FFF7A3FB0020FFF79AFB61680346F8
S315010010707F4A1160A1680432116094320121116026
S31501001080E168903A1160943203211160A169883AAE
S315010010901160216B2C321160616B04321160216980
S315010010A0383A1160A16B3C3211606169383A1160BE
S315010010B0E16B3C321160216C04321160616C51604C
S315010010C018460593FFF76CFB059B0628F8D923689C
S315010010D043F002033B60E36A43F00203336025B940
S315010010E0636D43F00203C9F80030E269614B1A608F
S315010010F0226A04331A60626A04331A60A26C3833B6
S315010011001A60E26C5C485A6000230246016801F4E9
S31501001110E071B1F5E07F64D10133092BF6D9A5B9A8
S31501001120A36DC3F30803A1F53F11F8390B60E36D15
S31501001130C3F3080304310B60236EC3F308030431C0
S315010011400B60636EC3F308034B60386840F080732D
S315010011503B60316841F08073336035B9636D43F0AC
S31501001160807343F00203C9F8003020F080703860C4
S3150100117021F080713160002D35D00023CBF800308D
S31501001180DAF80030DB07FBD43C490B6843F0010376
S315010011900B60DAF8000010F00100FAD1236D039913
S315010011A00B60A36A04990B6002994FF0FF330B6041
S315010011B001990B6032490B6038231360314A136879
S315010011C043F00103136006B0BDE8F08E0923CBF8A6
S315010011D00030DAF80030DA07FBD424E7C9F800302A
S315010011E02BE7002392E7636D43F00203C9F8003051
S315010011F0254BA16D254D18461E682E42FCD119605E
S31501001200224B01681942FCD1214BE16D1F4D184655
S315010012101E682E42FCD119601C4B01681942FCD193
S315010012201C4B216E194D18461E682E42FCD11960C1
S31501001230164B01681942FCD1174B616E134D1846C6
S315010012401E682E42FCD11960104B01681942FCD16F
S3150100125093E700BFA040D0FF6040D0FF4040D0FFE1
S315010012600D0001008040D0FFAC40D0FF7040D0FFA0
S315010012704840D0FF6440D0FF0840D0FF0040D0FF77
S31501001280D840D0FF1040D0FFC840D0FF00FE1F005D
S31501001290CC40D0FFD040D0FFD440D0FF0440D0FF97
S315010012A01440D0FFC040D0FF0B4B10B51C68C4F3EF
S315010012B005410A480131C4F3CC0421F0D2EC084BB4
S315010012C0196804FB0000013121F0CAEC054B1968CD
S315010012D0013121F0C6EC10BD4040D0FF40787D01C0
S315010012E0E040D0FF4840D0FF0D4A10B51368C3F364
S315010012F081530C48022B146828BF0020C4F3054112
S31501001300C4F3CC04013121F0ACEC074B196804FBA2
S315010013100000C1F30801013121F0A2EC10BD00BFAC
S31501001320C040D0FF40787D01C840D0FF1A4B10B5B0
S315010013301B689B071BD4194B1C68C4F3054118484D
S315010013400131C4F3CC0421F08CEC164B196804FB73
S315010013500000013121F084EC134B1968013121F0B1
S3150100136080EC124B1B68C3F3C213D84010BD104A60
S315010013701368C3F381530A48022B146828BF00205F
S31501001380C4F30541C4F3CC04013121F06AEC094BE5
S3150100139004FB0000E1E700BF7040D0FF4040D0FFF2
S315010013A040787D01E440D0FF4C40D0FF6440D0FF3F
S315010013B08040D0FF9840D0FF194B10B5186810F047
S315010013C0030012D0012812D153F86C4CC4F3054125
S315010013D014480131C4F3CC0421F042EC124B04FB56
S315010013E000001968013121F03CEC800810BD02288B
S315010013F013D10E4A1368C3F381530A48022B1468AA
S3150100140028BF0020C4F30541C4F3CC04013121F007
S3150100141028EC074B04FB0000E3E70020E5E700BFEB
S31501001420AC40D0FF40787D015840D0FF8040D0FFCE
S315010014309440D0FF184B10B51868C0F3011050B393
S31501001440012811D153F86C4CC4F3054113480131FD
S31501001450C4F3CC0421F004EC114B04FB0000196821
S31501001460013121F0FEEB10BD022813D10D4A13689C
S31501001470C3F381530948022B146828BF0020C4F323
S315010014800541C4F3CC04013121F0EAEB064B04FB20
S315010014900000E4E7002010BDAC40D0FF40787D019C
S315010014A05440D0FF8040D0FF9040D0FF10B546F2A7
S315010014B0A8111E4808F030F946F2A8111C4808F098
S315010014C02BF900211B4808F027F900211A4808F0DA
S315010014D023F91A4CFFF7E8FEA0FB04011848890C12
S315010014E008F01AF9FFF700FFA0FB04011548164C96
S315010014F0890C08F011F9FFF719FFA0FB0401134845
S31501001500890908F009F9FFF757FFA0FB0401104804
S31501001510890908F001F9FFF78DFFA0FB04010D48C9
S31501001520BDE81040890908F0F7B800BF3856020136
S31501001530535602016E5602018F56020183DE1B438A
S31501001540B0560201CA560201D34D6210E456020199
S31501001550FF5602011957020110B5FFF7E7FE044CC9
S315010015602060FFF729FF6060FFF764FFA06010BDF0
S31501001570E00903011EFF2FE1100F11EE020BC0E37C
S31501001580010AC0E3100F01EE4FF07FF56FF07FF512
S3150100159034109FE534209FE5021081E0000091E5BB
S315010015A02C309FE5030080E1000081E54FF07FF5D7
S315010015B06FF07FF5104F11EE024B84E3014A84E38D
S315010015C0104F01EE0000A0E30EF0A0E10000C2FF03
S315010015D05C50000008000000F04F2DE928119FE53E
S315010015E028219FE50230A0E1F00FB1E8F00FA3E852
S315010015F0F00FB1E8F00FA3E8F00FB1E8F00FA3E8A0
S315010016004FF07FF56FF07FF532FF2FE1F08FBDE8E8
S31501001610F04F2DE9200052E30000000A0300009A72
S31501001620F00FB0E8F00F81E8202052E2F8FFFFEA60
S31501001630040052E30000000A0300009A1000B0E81B
S31501001640100081E8042052E2F8FFFFEA000052E3AD
S315010016500100000A003090E5003081E5F08FBDE819
S3150100166094009FE50410A0E31920A0E3013080E077
S31501001670004093E5025084E1005083E54FF07FF589
S315010016806FF07FF55410A0E30320A0E3013080E062
S31501001690002083E55810A0E30320A0E3013080E099
S315010016A0002083E59010A0E30120A0E3013080E053
S315010016B0002083E59410A0E30120A0E3013080E03F
S315010016C0002083E534009FE534109FE50020A0E368
S315010016D0002081E50410A0E3012080E00130A0E3B1
S315010016E08330A0E1004092E5044083E1004082E5B9
S315010016F04FF07FF56FF07FF5FCFFFFEA0040D0FF6A
S315010017000050D0FFE080D0FFA8000000781500014E
S315010017100000FFFF08B510F045FB02200249BDE8B5
S31501001720084010F051BB00BFEC09030108B502489F
S3150100173007F0DEFF002008BD3457020110B588B05E
S31501001740FFF7E8FF2349244806F057F9234B1A68A7
S31501001750234C684621461DF092F96946214806F058
S3150100176077F82149214806F048F9214B1A682146A4
S3150100177068461DF084F969461E4806F069F81E4957
S315010017801E4806F03AF91E491E4806F036F91E4B68
S315010017901A68214668461DF072F969461B4806F02B
S315010017A057F81B491B4806F028F91B4B1A682146B6
S315010017B068461DF064F96946184806F049F8184963
S315010017C0184806F045F81849184806F041F800206F
S315010017D008B010BD2880D0FF555702018880D0FF80
S315010017E05E570201655702018050C2FF765702011A
S315010017F08C80D0FF81570201D81500019457020150
S315010018001C50D0FFA55702018080D0FFAF570201BF
S31501001810000080FFC15702018480D0FFC957020131
S31501001820D95702017B58020191580201EB58020176
S315010018300020704700220421014812F0D9B800BFE8
S31501001840004070FF00F05BBB74D09FE507D0CDE38D
S3150100185080D04DE207D0CDE30D80A0E10000A0E3EA
S315010018606A0000FA44D098E507D0CDE3008098E5F8
S31501001870808048E214E08FE2480098E500E08EE0BF
S31501001880440098E50810A0E1342098E510FAFFEA33
S315010018903DFAFFEB2C009FE52C109FE50020A0E30D
S315010018A0010050E10020803504008032FBFFFF3A41
S315010018B0200000FA1F0000FB0800A0E1341098E5A3
S315010018C008F09FE580FEFFFF000000000000000019
S315010018D0631900010020704708B5064807F008FFA4
S315010018E00221054810F008FD044807F001FF002019
S315010018F008BD00BFFA580201A08601005DCD0201B4
S3150100190008B50349034807F007FF002008BD00BFDB
S31501001910503302010259020110B54FF4E1320A2196
S315010019200348444606F002F9A060002010BD00BF3E
S315010019300959020100207047704770477047704788
S3150100194070477047704770477047D8F800200021EC
S315010019509161D8F80020D8F83830D361704700205B
S31501001960704708B50C46D8F8043043F00103C8F8AF
S3150100197004301D4B1A681D4B1A60FFF763FF21F0F7
S31501001980C4F813F0BDFF4FF48421A4F58420184C4C
S3150100199008F05AF8FFF7E3FF164807F0A9FED8F852
S315010019A0000011F039FE08F0DBFF0CF0C9FF09F069
S315010019B0E0FA07F09FFFFFF7C1FE00F051F900F0D2
S315010019C065F9226810210C4806F0B0F8206021F074
S315010019D0A6F80A4807F08CFED8F800001FF046FA70
S315010019E00CF034FBFCE700BF90000001143E03013C
S315010019F0DC270301125902011A5902012359020176
S31501001A0008B5024807F074FEFEE700BF2B59020134
S31501001A102DE9F0428022002140461CF0BAFA2F4BF4
S31501001A2010212F481B68C8F83C304446D8F854208A
S31501001A3006F07CF860652B4C54F8047F002F47D1E3
S31501001A40D8F838404FF48042C8F8502041F29B0143
S31501001A50D8F85020A41A240C2404C8F84C40D8F80D
S31501001A603C20A41A24F47F6424F00F04A4F58425F1
S31501001A70A4F58526A5F12002C8F80020D8F8002093
S31501001A80A03DB03E5160C8F84050D8F80020D8F8C3
S31501001A9008301360FFF759FF1348D8F80030D3F820
S31501001AA01C9007F025FE3946104A48461BF04AF9B4
S31501001AB00F4B284680221B68C8F834404146C8F8B7
S31501001AC04460E41AC8F84840BDE8F0421CF08FBAF9
S31501001AD0B8470028B0D0FFF793FF00BF8C00000184
S31501001AE055590201000A0301645902011FB102019D
S31501001AF080000001D8F8003037B504465B68056EF2
S31501001B001048019305F0E8FF38B1102101AA1CF035
S31501001B101BFF01990C4807F0FFFD0F200BF040FF5A
S31501001B200A4807F0F9FDFEF7A4FD236F2BB1E26E1B
S31501001B3001990020A84703B030BDD8F800309A6853
S31501001B40F6E700BF6C590201735902019859020167
S31501001B50036F30B5044689B0002B37D000F19005EC
S31501001B60C16E039328460BF029FD616EA26E04F146
S31501001B70780328460093521A04F174030BF0BCFC57
S31501001B8048BB284603AA04F16C010BF045FD054646
S31501001B9008BB0121E06E09F0FBFB04A9E06ED8F851
S31501001BA00030059507959A69DB69049206AA0693A2
S31501001BB0012309F0E0FCE06E09F0AFFD0123A26FFD
S31501001BC0616FE06E09F05AFB09B030BD034807F0BA
S31501001BD0A3FDFFF715FF0248F9E700BFAF59020160
S31501001BE0E0590201D8F80020D8F800306946926918
S31501001BF0A1F58051DB691A44521A1BF0B7BF704731
S31501001C0070B510F030061C4613D110F0400505D012
S31501001C1018463546FFF79CFF284670BD10F0800F29
S31501001C20184602D0FFF766FFF6E7FFF791FF204659
S31501001C30F8E74FF0FF35EFE710B5074B446A9C42D2
S31501001C4004D0064807F054FD012010BD836A0B60DD
S31501001C50C36A0020136010BD18286F01005A0201E3
S31501001C600749D8F84030D8F84020181F08600549C0
S31501001C700832A3F204430A60034A1360FFF7F0B87F
S31501001C80940000019C00000198000001EFF300831D
S31501001C9023F0800383F300817047EFF3008040F067
S31501001CA0C00383F3008180F08000C0F3C010704749
S31501001CB008B501481CF0F0FE1D5A020130B5A3B06B
S31501001CC0044680222A4902A81CF091F9E36A256C90
S31501001CD028480193236B0093636BA26BE16B07F0BA
S31501001CE01BFD236A626AA16A234807F015FD236971
S31501001CF0224800936369A269E16907F00DFD236833
S31501001D001F480093E1686368A26807F005FD002D8E
S31501001D10B4BF4E216E2115F0804F14BF5A227A228C
S31501001D2015F0005F14BF4323632315F0805F14BFD2
S31501001D30562076200090134807F0EEFC236C124AD9
S31501001D4022AC124813F0800F14BF1146014613F05E
S31501001D50400F03F01F0308BF02460D4804EB83033F
S31501001D600C4C009453F8803C07F0D6FC23B030BDF0
S31501001D70082F0201305A0201755A0201995A0201CD
S31501001D80C95A0201F95A02018F5D0201A5FA02013F
S31501001D90095B0201D77C020108B50446034807F036
S31501001DA0BBFC2046FFF78AFFFFF782FF285B020193
S31501001DB008B50446034807F0AFFC2046FFF77EFF4F
S31501001DC0FFF776FF3F5B020108B50446034807F0BB
S31501001DD0A3FC2046FFF772FFFFF76AFF535B020180
S31501001DE008B50446034807F097FC2046FFF766FF4F
S31501001DF0FFF75EFF635B020108B50446034807F07F
S31501001E008BFC2046FFF75AFFFFF752FFAD5B02013D
S31501001E1008B50446034807F07FFC2046FFF74EFF4E
S31501001E20FFF746FFB75B020108B5074807F060FCFC
S31501001E304CF250301CF088F9FFF72FFF0020FEF717
S31501001E400BFD002008BD00BFBB5C020170474FF0CF
S31501001E50FF310020FEF7CBBB014807F049BC00BFAC
S31501001E60CA5C020182B000230193019B632B01DD51
S31501001E7002B070470046019B0133F5E77047D8F879
S31501001E804C3041EA005141F4406143F8201070475B
S31501001E907047F8B500F57F2303F6FF73050D194466
S31501001EA0D8F84C702E460C0DA64207D307EB8401D9
S31501001EB007EB8500BDE8F840FEF78ABB30461146C0
S31501001EC0FFF7DDFF0136EFE708B511EE102FFFF73B
S31501001ED0C9FF42F4805201EE102F08BD08B5FFF785
S31501001EE0C1FF11EE102FFFF7BDFF22F4805201EE64
S31501001EF0102F08BD11EE100FC0F30030704710B55A
S31501001F0011EE104F14F0010429D1FEF73BFB2046D8
S31501001F1012210134FFF7B3FFB4F5805FF7D1D8F88A
S31501001F200040A269120DA369E1690B44B2EB135F8C
S31501001F3005D210461621FFF7A2FF0132F3E7D8F8C2
S31501001F404C3002EE103F4FF0FF3303EE103F11EE1F
S31501001F50102FFFF787FF42F0010201EE102F11EE5D
S31501001F60102FFFF77FFF42F0040201EE102F10BD84
S31501001F7010B5FFF777FF11EE104F630707D5FFF78F
S31501001F8071FF24F00504FEF7ECFA01EE104F10BDC7
S31501001F9011EE100FC0F38000704700000A4601469B
S31501001FA0014807F0B9BB00BFE75C02011FB5D8F8CD
S31501001FB0004027486168FFF7F1FFA1682548FFF750
S31501001FC0EDFF00212448FFF7E9FFA1692348FFF748
S31501001FD0E5FFE1692248FFF7E1FF224901A81BF06D
S31501001FE0DFFE01A805F078FD1F4A01A9002818BFE8
S31501001FF002461E4807F090FB1D4805F06DFD01469F
S315010020001C4807F089FB21681B4807F085FB1B4824
S31501002010D8F84C10FFF7C2FF1948D8F83410FFF76B
S31501002020BDFF1848D8F84810FFF7B8FF1648D8F88A
S315010020304010FFF7B3FF1548D8F84410FFF7AEFF7D
S315010020401348D8F81810FFF7A9FF002004B010BDF7
S31501002050015D02010D5D0201195D0201235D0201AF
S315010020602C5D0201345D0201F75C02013C5D020157
S31501002070475D02014E5D0201605D0201765D02016E
S315010020807F5D0201895D0201935D02019A5D020194
S31501002090A45D02010346084611461847012A70B598
S315010020A0164619DD1C46102254F8040F00211CF0B7
S315010020B013FC014605460A4807F02EFB2246711E0F
S315010020C02846FFF7E7FF041C0146064818BF01240E
S315010020D007F022FB204670BD4FF0FF34FAE700BF40
S315010020E0D05D0201F85D020138B500F19004204689
S315010020F01BF0F4FC0AF0E3FF05460AF0EFFF294660
S31501002100024620461BF0F5FC2046FFF76BFD2046F4
S31501002110BDE838401BF0B3BD38B501460446184842
S3150100212007F0FAFA20460BF01DF90128054622D1DF
S31501002130144807F0DDFA2268134B9A4204D013487B
S3150100214007F0D6FA284638BD20460AF061FF08B9DD
S315010021500F48F5E720460BF04FF80E4807F0C8FA8E
S3150100216020460AF06AFF08B90B48E9E70B48002543
S3150100217007F0BEFAE6E70A48012507F0B9FAE1E7F2
S31501002180BF5E0201E05E020127051956F75E0201F4
S315010021900C5F0201245F02013F5F0201505F0201F1
S315010021A0545F020110B50C46034805F095FC214623
S315010021B00BF02CFFC00F10BD6B5F020130F08002E7
S315010021C010B508D11C6E0548214607F0A5FA0F2067
S315010021D00BF0E6FBA047012010BD00BF735F0201B3
S315010021E030F0800210B50AD11C6E0648214607F070
S315010021F093FA0F200BF0D4FBD8F80000A04701207A
S3150100220010BD00BFAA5F02012DE9FF4E994630F0CD
S3150100221080038A4615463CD199F82230042B3CD0DE
S315010022200027BAF1020F48DD0024022655F82600E0
S3150100223001361BF014FEB24500F101000444F5D14C
S315010022402046043507F0FAFC4FF0020A4FF0000B66
S3150100225020230446696804EB0B0001931BF0A0FDE3
S3150100226055F8040F0AF1010A1BF0F9FD5645019BC9
S3150100227058441ED1D9F860501448294607F04CFA43
S315010022800F200BF08DFB2346114A3946D8F8000082
S31501002290A847012004B0BDE8F08ED9F8007003AB61
S315010022A002AA012138460AF0E2FE039B002BB7D0B1
S315010022B0B7E700F1010B2354CCE7064805F00CFC07
S315010022C0034C002818BF0446D4E700BFEC5F0201A7
S315010022D0D77C0201E35F0201012AF8B516461F46C3
S315010022E004DC0B4B1868BDE8F84015E7002501240E
S315010022F01022002157F8240001341CF0EDFAFFF7F3
S315010023000BFF002818BF0125A642F1D12846F8BDCA
S31501002310DC2703012DE9F34E81469DF830008A46FC
S3150100232093460A9D9DF82C400D9F0E9E01930AF03F
S315010023304FFF01465CB1012C37D02146294807F0F1
S31501002340EBF96FF00204204602B0BDE8F08E4D4570
S3150100235001D05D451ED12448012407F0DDF9019B1A
S3150100236022482B443B6007F0C3F939682846491BCC
S315010023708900FEF73CF91D4807F0BAF907200BF072
S315010023800FFB6CBB5545DED23B684B4588BF6FF0F2
S315010023900104D8E7164807F0BFF94FF48033019AD4
S315010023A0594628460AF0C8FED9E7124807F0B4F99B
S315010023B001AB5A464FF4000128461AF049FE04467D
S315010023C050B10D4807F094F91EB16FF005000BF0FE
S315010023D0E7FA4FF0FF34B6E7019B2B443B60C4E7B5
S315010023E00024B0E7C160020135600201505F0201BD
S315010023F04460020157600201706002012DE9FF4E3F
S315010024009146864C4FF498720291834600219A4672
S3150100241020461BF0BEFD824808F0DCF9C4F88800AE
S315010024202046FFF761FEB9F1010F21DC7D4B1D68E6
S31501002430012000270BF0B4FA28460AF0A3FF6765CE
S315010024402765064605460AF08DFF012872D13146F9
S31501002450754807F061F93268744B9A4210D0744896
S3150100246007F046F94FF0FF300BF09AFA3D4619E0B6
S3150100247010220021DAF804001CF02EFA0546D7E7EF
S315010024800220D4F888700BF08BFA30460AF0C0FDB2
S3150100249098B90390674807F02BF96FF001000BF02C
S315010024A07FFA0025636D002B4CD1634807F020F9B4
S315010024B00127384604B0BDE8F08E03200BF070FA10
S315010024C030460AF099FE87B15C4807F011F93046AB
S315010024D00AF0B3FD074628B9594807F01DF96FF010
S315010024E00200C1E7574807F003F904200BF058FA38
S315010024F0717F02297CD0544807F00EF96FF0030072
S31501002500CDE7524B002130461A1F0AF0B0FD40229A
S3150100251031464F481BF08FFD062001232660636478
S315010025200BF03EFABEE706F140032365F3681BBADA
S315010025306365ECE7DBF80010464807F0EDF86FF04D
S315010025406B0091E728460AF00DFF0128074617D1CF
S31501002550AB7F84F85D30EA7F84F85C20297F84F8BC
S315010025605E10EA6810BA05F140020244E2642A6983
S3150100257012BAA265626C2AB9374807F0B9F898E72A
S31501002580364893E7A2690E2B12BA226613D1236D40
S31501002590A36513442366052924D1314E5146484685
S315010025A0331FA6F168020093022301960AF0EDFE9D
S315010025B030B12C48E1E7022BEDD0042B12D1EAE72A
S315010025C006F10803524601934946331D02980093CA
S315010025D0A6F168030BF0A4F808B12348CDE7E06E35
S315010025E000F048FD0123A564C4F88C30002760E79C
S315010025F005200BF0D5F9B37F022B94D009D8012B16
S3150100260091D0DBF80010194807F086F86FF0040046
S3150100261045E7042B3FF475AF0E2BF1E7403E03016E
S31501002620E4600201DC270301EB600201270519566C
S31501002630FA5E02010F5F020180610201245F02015D
S31501002640425F0201505F02011D610201943E0301D6
S31501002650443E03015D610201C3610201A061020101
S31501002660A83E0301E76102010C6202013C6102011D
S3150100267070472DE9F04E012A90B01E4681464FF073
S3150100268000038A461746069340F3C180102207A924
S3150100269070681CF021F9079B1B78002B00F0B780AE
S315010026A03A2B00F0B480232B00F0B1800822A74911
S315010026B0706806F097FC98B1C468012C07D1331DE8
S315010026C07A1E51464846FFF799FE044655E0DFF863
S315010026D08892D9F88C309C4205DC9D4807F01CF89D
S315010026E04FF0FF3449E0234399F85E20C9F88C3056
S315010026F0082C984B53F822A066D005DC022C21D079
S31501002700042C3ED0002438E0202C6CD00CDC102C9C
S31501002710F8D12046904B32463946D047044660B33D
S315010027208E4806F0F9FF28E0402C66D0802CE9D1CE
S31501002730FFF7B3FAFFF79CFF874B3246394620462F
S31501002740D047DFE70023049308AB039399F85D3084
S3150100275009F14800029399F85C300193D9F8583091
S3150100276000930FC8FFF7D6FD044630B9D9F85810C3
S31501002770089A7B48521A1BF0F9F9204610B0BDE8B9
S31501002780F08E7848D9F86410D9F86820031F0090B4
S315010027901830521A0AF0B0FE04460028EDD1D9F8D5
S315010027A0742008A870491CF06AF908A96F4805F059
S315010027B04FF8D9F878206C4908A81CF060F908A9E7
S315010027C06B4805F045F8D8E7D9F86C1009F1900087
S315010027D00AF0F4FE09F1700209F16C0109F19000A9
S315010027E00AF01AFF71E75C4B324639462020D04782
S315010027F004460028C1D05F4893E72046564B32462F
S315010028003946D04704460028B7D05B4889E73346A6
S315010028103A4651464846FFF7F1FD0446002860D185
S31501002820FFF73BFA4C4D83460CF0EDF80123049378
S3150100283006AB039395F85D3005F14800029395F8D0
S315010028405C300193AB6D00930FC8FFF763FD002861
S3150100285013DA421C06D133463A4651464846FFF73B
S31501002860E3FA0AE0831C31D16B6C3BB395F8223055
S31501002870042B02D1414806F03BFFA96D069A384860
S31501002880521A1BF073F995F85D30012B31D1BBF16A
S31501002890000F01D0FFF7FAF9394805F01DF910B319
S315010028A038491BF0B4FAF0B96A6D08A836491CF02C
S315010028B0E6F808A9354804F0CBFF23E7344806F0CB
S315010028C017FF6FF070000BF06BF8C4E70330D4D13B
S315010028D0BBF1000F01D0FFF7D9F96FF006000BF03D
S315010028E05FF8012449E72B6E311D781E1BBA984704
S315010028F043E708200BF054F895F85E20154B53F882
S3150100290022408CB9BBF1000F01D0FFF7BFF995F852
S315010029105E000AF04AFC95F85E2001461D4806F065
S31501002920FBFE6FF00700DAE7FFF7A2FE32463946F3
S31501002930094B0020A0476FF008000BF031F8334631
S315010029403A4651464846FFF76FFACAE73C0A030181
S3150100295030620201882F0201403E030176620201C4
S31501002960D03E0301B83E03015A6202015E620201D2
S315010029706B62020198620201B6620201D56202012E
S315010029805663020160630201636302016763020128
S315010029900F6302017063020173B505460D480E46C9
S315010029A005F09AF810B9002002B070BD0A491BF073
S315010029B02EFA04460028F6D1084B019008481968FA
S315010029C0009606F0A9FE6B46012221462846FFF72E
S315010029D050FEE9E7566302019E630201DC2703010B
S315010029E0A263020108B5034806F082FE4FF0FF30EC
S315010029F008BD00BFCF6302012DE9F042D0B01446F5
S31501002A0081464FF498720E4604A800211D461BF01C
S31501002A10C0FA04A8FFF768FB012C21DC264B1B68D2
S31501002A201C9303AA02A91C98FFF706F9A0B9029BF9
S31501002A3028A8039A1C99D21A1BF098F81EAB04AA6F
S31501002A40019329461DAB2046009302230AF09DFC03
S31501002A5068B11A4806F04CFE012050B0BDE8F0827C
S31501002A601022002168681BF037FF1C90D9E720ABC4
S31501002A702A46019321461FAB3046009304AB0AF068
S31501002A804FFE074608B10E48E4E71F9800F0F2FA38
S31501002A90FFF703F90BF0B7FFFFF7EAFD04AB2A4690
S31501002AA021463846FFF7ACF82B46224631464846C2
S31501002AB0FFF7BAF9D0E700BFDC270301E76102019E
S31501002AC00C6202012DE9F7460BF0F8FE1C4F064693
S31501002AD01C4806F00DFE3468B44203D1002003B051
S31501002AE0BDE8F08654F8342CA4F13409DFF860A06F
S31501002AF00025002AB4BF53232E2312F0010F14BF61
S31501002B0049212E2112F0020F0091A4F12C0114BFCC
S31501002B104F202E2001900C4806F0FEFD5AF8253074
S31501002B20994504D157F82510084806F0F5FD0135F9
S31501002B30032DF3D10A2006F0CBFD2468CCE700BFB4
S31501002B40E4270301A9650201C5650201F1A8020195
S31501002B50386203012DE9F04E9CB014468A46049072
S31501002B60292003930AF01CFF032C09DD6FF02900CD
S31501002B704FF0FF340AF014FF20461CB0BDE8F08E7A
S31501002B802A200AF00DFF012C1FDD039B10220021D4
S31501002B9058681BF0A1FE05462B200AF001FF032C05
S31501002BA007AA4FF001040CBF039B0021504608BF42
S31501002BB0996808AB00940EF01FF9B0F1000907DA25
S31501002BC06FF02B000AF0ECFED6E74FF40045E3E781
S31501002BD0079B2C205E680AF0E3FE514613AB394889
S31501002BE0019332460BAB00934B4606F095FD079BCE
S31501002BF0224608993046D3F860A02B46D0470128D3
S31501002C00824607D04A4631462F4806F085FD6FF0C9
S31501002C102F00D7E730200AF0C3FE28460AF0A2FBB0
S31501002C20012804463DD131200AF0BAFE28460AF0B1
S31501002C30EFF928B9254806F05BFD6FF03100C1E7D1
S31501002C4032200AF0ADFE28460AF0D6FA0A9BE86859
S31501002C5003F13F0200BA19461044059320F000E83B
S31501002C60079A0899136E01311F46059B2B4400F103
S31501002C70FF3B824630465A46B84783451AD1332030
S31501002C800AF08EFE0A99284601FB0AF1FDF7AFFC10
S31501002C900F4B04981D60039B1968FFF77DFE0446E0
S31501002CA06AE76FF0300054460AF07AFE094806F0EA
S31501002CB01FFD61E74A463146034806F02DFD6FF0D8
S31501002CC032007FE70566020149660201616602017B
S31501002CD0DC2703017D6602012DE9F04E0127DFF8AD
S31501002CE0689092469B463E46564506DB17B10A203A
S31501002CF006F0EEFC0020BDE8F08E012E5BF82640C2
S31501002D0002DD202006F0E4FC494620461BF0C6F908
S31501002D100546A8B1002720462F702C4606F0E8FC90
S31501002D205C23494604F8023B20461BF0B7F90546E9
S31501002D300028F0D120462F4606F0DAFC0136D3E70B
S31501002D40204606F0D5FCF9E794660201012A08B58A
S31501002D500ADD0A22002158681BF0BEFDC0F1FF20E2
S31501002D6000F57F00FE3008BD0020F7E713B5022409
S31501002D70009418F0F1FD02B010BD13B54FF0100E1E
S31501002D8002248DE8104018F04BFD02B010BD000082
S31501002D9013B54FF0100E01248DE8104018F040FDD8
S31501002DA002B010BD13B50124009418F0D5FD02B090
S31501002DB010BD012AF0B51D4699B005DC104806F094
S31501002DC0ABFC002019B0F0BD012404AB009403AAAA
S31501002DD0A96868680EF010F8071E0BDB039804A9B2
S31501002DE0466817F0C3FE38B13B4632466968054866
S31501002DF006F092FC2046E5E718F0B4FAE2E700BFD8
S31501002E0088680201B36802012DE9F046042A99B0E7
S31501002E101D464FF00003039306DC06F021F9044634
S31501002E20204619B0BDE8F086012604AB009603AA38
S31501002E30A96868680DF0E0FFB0F100090CDB0398A2
S31501002E4004A9476817F092FE044638B14B463A4644
S31501002E506968124806F060FC3446E1E70146102233
S31501002E60E8681BF039FD10222146824668691BF08D
S31501002E7033FD51460246286918F0FDFA431C014606
S31501002E8008D1CDF800903B466A682969044806F0E6
S31501002E9043FCE1E7034806F03FFCC1E7DE680201B7
S31501002EA00A69020135690201D9B1431813F8013CD7
S31501002EB00BB10A2B07D10D4A10F8013B63B1D35C64
S31501002EC013F0B7030FD100210BE0012909D00378D4
S31501002ED0002BF8D00139EFE70029F6DC0CBF012100
S31501002EE00021084670470029F4DCECE7FC470201A3
S31501002EF038B5194D2C6824B9184806F00DFC002088
S31501002F0038BD204618F048FD041E22DA19F0C6FC29
S31501002F100146134806F000FC0A3418D12B6859699A
S31501002F2009BA0F2905D810220E4806F0F5FB002331
S31501002F302B602A6893691BBA112BE0D951691122BA
S31501002F40094809BA06F0E8FB0020286038BD0748A1
S31501002F50D3E7012038BD00BF703F0301D86C0201E1
S31501002F60036D0201216D0201396D02011FB10201DA
S31501002F702DE9F84606460C46002963D0FFF794FF73
S31501002F800546F0B13048002506F0B2FB2F4FA542A9
S31501002F9004DB2D48BDE8F84606F0AABB002D02DD8C
S31501002FA0384606F0A5FB3046013506F0A1FB304652
S31501002FB01AF055FF054430461AF051FF0130064418
S31501002FC0E5E7A30727D1402C06DD224631462048F6
S31501002FD0BDE8F84606F0A0BB1E4806F09DFB002C96
S31501002FE0B8BF0334DFF87C90DFF884A0A410671E15
S31501002FF0A54204DB1848BDE8F84606F08DBB56F835
S315010030002510BD42ACBF4A4652461448013509BA9D
S3150100301006F082FBECE7402CD7DC114806F07CFB7E
S31501003020104FDFF84C90AC4201DC0F48E3E7621E1B
S31501003030715D9542ACBF3A464A460C4806F06CFBB8
S315010030400135F0E7BDE8F886546D0201516D0201C4
S31501003050566D0201666D0201D5760201686D0201A7
S31501003060716D0201D77C0201B39F0201736D0201EA
S315010030700AFF02017FB50246064B0749186001A8FF
S315010030801BF0FDFC01A9054804F0E2FB07B05DF861
S3150100309004FB00BF703F03015A6202017A6D02010F
S315010030A0012A2DE9F04E914696B01F4602DC4FF0FB
S315010030B0FF3683E058680378612B37D1022A0AD19B
S315010030C0FFF716FF08B9012678E0A34BA348196854
S315010030D006F022FB0DE010220021B8681BF0FCFB74
S315010030E0FFF7C8FFFFF704FF0028ECD0B9F1030F83
S315010030F001D1002662E010220021F8681BF0ECFBEA
S31501003100954B19684A6812BA904204D2014694480E
S3150100311006F002FBEDE70246084619F02DFB0028F2
S31501003120E7D019F0BBFB01468E48D1E78A4D2B68E3
S315010031302C461BB98C4806F0DBFAC4E702228B4900
S315010031401AF070FE064600283CD1B9F1030FAEDD38
S3150100315001461022B8681BF0BFFB2860FFF7C8FEC6
S315010031600028B0D010223146F8681BF0B5FBB9F142
S31501003170040F824610D12B685B681BBA1A4651466A
S31501003180206819F0F9FA0646B0B119F087FB014635
S31501003190744806F0C1FA96E71022314638691BF0E9
S315010031A09BFB2A68526812BA904201460346E5D251
S315010031B06F4806F0B1FA86E7C4F800A0304616B0AB
S315010031C0BDE8F08E02226B4978681AF02BFED8B959
S315010031D0B9F1030F7FF76BAFB9682868FC6818F07F
S315010031E09BFE011E04DA19F059FB01466248D0E73D
S315010031F02246286819F09AFA0028BFF67AAF19F024
S315010032004DFB01465D48C4E778680378732B40F0AF
S31501003210C180B9F1030F7FF74AAFBB68B9F1040F5B
S315010032200393FB68049300F094803B6907F1100A4D
S31501003230A9F104090A931A783C2A2ED10DF1580BEB
S31501003240013300254BF8303D231D2E460A9F397860
S315010032503E2943D0B14501DC49489AE721B90136F7
S315010032605AF826200A92F1E7002259463846059374
S315010032701BF032FB0A9A059B0435D21B002A00BAC1
S3150100328043F8040B04DC39463E4882E701320A92D0
S315010032900A9A11782029F9D0D8E75B2A42D10DF193
S315010032A0580B0133384F00254BF8303D2E46374B2E
S315010032B00A9A12785D2A02D10CE001300A900A9826
S315010032C00278202AF9D0F2B901365AF826200A9254
S315010032D0B145EDDC0A9B19785D29BDD103992068BA
S315010032E018F01AFE011EFFF67EAF0095264B049AD2
S315010032F0206819F02FF90028BFF6FBAE19F0CEFAB7
S315010033000146234845E79A5C059312F0440FE1D044
S31501003310102259461BF0E0FA01350137059B07F8E3
S31501003320010CD5E7DFF860A000252E460A98013684
S315010033301AF095FD0A9900F1010B50461AF030FD7D
S3150100334007EB8603B145DA441B695D440A93EDDC5C
S31501003350C4E70025C2E700BF703F03019B6D020170
S31501003360B96D0201E86D0201046E0201746E02017B
S31501003370776E02012E720201AA6E0201D06E02015F
S315010033800F6F0201EE6E0201743F0301FC47020159
S315010033902A6F0201672B40F0BA80B9F1040F4FF092
S315010033A0000307937FF783AEB9F1050FBE6803D11A
S315010033B03378732B7FF47BAE39692068FD68D7F8C3
S315010033C014A018F0A9FDB0F1000BFFF60CAF33788D
S315010033D06E2B04D0732B50D1B9F1050F4DD159463F
S315010033E0206818F084FE0DF15809594649F8380D40
S315010033F082464A46206818F082FB33786E2B834654
S3150100340034D11022002178691BF066FA03464FF089
S31501003410FF370AF101020392089A92451CDA0399D1
S315010034208A42327808BF01376E2A0BD19F4209D1F1
S3150100343059460022206818F081FC0146284604F00E
S3150100344007FA56E659464A462068049318F057FB90
S31501003450049BB0F1000BDFDA3378732B09D1A14954
S315010034607A1C0AA81BF00BFB0AA9E7E74FF0FF330A
S31501003470CDE79D4806F050F925E6206807AB524690
S31501003480594618F002FD079C002C814601D1974947
S31501003490D4E736DD3378762B28D12146FFF704FDB4
S315010034A0064608B14946C9E7042C0AD1D9F80020D5
S315010034B00AA88F491BF0E3FA0AA9284604F0C8F9BD
S315010034C07CE6A20710D1142C0EDCDFF870A20746A9
S315010034D00AAB59F8072003EB4700514604371BF0A6
S315010034E0CEFABC42F4DCE7E78248C3E7612B02D19E
S315010034F002468149B5E7732B7FF4D9AD22467C4953
S31501003500AFE7204619F0CAF901467C4841E6702B1F
S3150100351022D06C2B40F0BC800126B9F1020F1DD0E0
S31501003520B9F1030FD7F808A01AD0FD6851462068F3
S3150100353018F0F2FC071EFFF656AE05B320680AAB7B
S315010035402A46394618F0A1FC04460A98002809D1F2
S315010035502A4651466A48DBE52026DEE7DFF8E0A188
S315010035600025E3E7CEDD2946664806F0D5F80A9937
S315010035702046FFF7FDFC644806F0CEF8B9E5DFF812
S31501003580C491DFF8C4A1394608AA206818F03FFAA9
S31501003590431E0146082B76D801A252F823F000BF3C
S315010035A0C5350001FD3500011F36000179360001E0
S315010035B0873600018736000187360001873600010C
S315010035C0C730000100223946206818F0B7FBAE4229
S315010035D00FDB4E4BC5F120014944002808BF1846B0
S315010035E04B4B0278002A14BF02461A46494806F098
S315010035F093F801351F2D0EDD47483BE7013DAE42ED
S3150100360009DBC5F120014548494406F085F8002D3E
S3150100361008BF4FF0FF356B1C089FB4D169E50C223A
S315010036203946206818F0DEF981680746206809BA2C
S3150100363018F005FB7B68024618BA00280A90FFF6C7
S3150100364061AF08D1AE42E6DBC5F1200134484944F9
S3150100365006F062F8DFE7AE42DDDBC5F12001314855
S31501003660494406F059F807F10C000A99FFF780FC66
S315010036702D4806F051F8CEE7C5F1200150464944E0
S3150100368006F04AF8C7E7AE42FFF61DAD274880E5CA
S31501003690022227491AF0C6FB002857D1B9682868C3
S315010036A018F03AFC011EFFF69EADB9F1030F0DDDD0
S315010036B0FA68286818F0CFFF061EBFF61AAD19F092
S315010036C0EDF801461B4806F027F877E5286819F05A
S315010036D03CF8061EBFF60DAD19F0E0F80146164896
S315010036E0F1E700BFABCE0201446F0201D77C0201B4
S315010036F05B6F0201626F02017C6F0201816F020141
S3150100370000A10201CE6F02011FB10201826D020109
S31501003710996D02019B6F0201A36F0201BF6F020146
S31501003720C56F0201CC6F0201C96F0201E16F02018F
S3150100373093B90201F56F020110700201167D0201B3
S315010037407310030175100301D46F020178680378C1
S31501003750682B4AD12B68864819685D6909BA05F054
S31501003760DBFF236883482DBA5A6812BA114605F061
S31501003770D3FF23688048996809BA05F0CDFF23680D
S315010037807E48D96809BA05F0C7FF23687C481969DC
S3150100379009BA05F0C1FF29467A4805F0BDFF23683D
S315010037A07948996909BA05F0B7FF012D15D923683A
S315010037B07648D96909BA05F0AFFF022D0DD0236805
S315010037C07348196A09BA05F0A7FF102D05D92368B0
S315010037D07048596A09BA05F09FFF206818F050FA37
S315010037E001466D4805F098FFC5E603226B491AF0BC
S315010037F019FB064640B901461022B8681BF06CF861
S315010038002B6800BAD861D9E40222654978681AF0B2
S3150100381009FB0546A8B910220146B8681BF0E0F875
S31501003820102282468B46F86829461BF0D9F8524683
S315010038305B46CDE90001206807F064FF00EAE07607
S31501003840BCE40222574978681AF0ECFA05460028CA
S315010038505CD1BB681B78702B27D1206818F010FA51
S31501003860DFF85C910746504805F056FF4F4805F0D2
S3150100387053FFBD42BFF63DAC0AAB08AA29462068F4
S3150100388018F0E2F9061E04DA19F008F8014648486C
S3150100389019E70A9B2946099A4846013501930B9B6C
S315010038A00093089B05F038FFE3E7612B1AD110223C
S315010038B00146F8681BF094F8102282468B46386957
S315010038C029461BF08DF852465B46CDE9000120687A
S315010038D018F0CAFD061EBFF60CAC18F0DFFF014654
S315010038E03448F0E6642B7FF4E2AB01461022F86817
S315010038F01AF0F2FF0146206818F0E2FD061EBFF637
S31501003900F8AB18F0CBFF01462B48DCE67868037864
S31501003910632B21D1B9F1020F1BD0B9F1040F7FF44A
S31501003920C6AB10220021B8681AF0D6FF102200217A
S315010039300646F8681AF0D0FF05460121206807F00F
S3150100394027FD01232A463146206807F097FCFFF739
S31501003950D0BB00252E46F0E7022218491AF062FA7A
S31501003960064600287FF4A3AB206807F03DFF25E457
S315010039702C7002013B700201527002016870020153
S315010039807F70020196700201A4700201BB700201F0
S31501003990D2700201E9700201007102011771020180
S315010039A018FB02011B7102011E710201397102012C
S315010039B06B710201A4710201C371020191760201C8
S315010039C08A7102012DE9F846924658481F4604F0CD
S315010039D083F80546564804F07FF80446554804F036
S315010039E07BF80646DDB12846102200211AF074FF45
S315010039F005462CB12046102200211AF06DFF04461F
S31501003A002EB13046102200211AF066FF0646AAF1B1
S31501003A100203032B43D8DFE803F0237B0B054FF0AA
S31501003A20FF35E6E71022002138691AF055FF0646F0
S31501003A3010220021F8681AF04FFF102200210446D7
S31501003A40B8681AF049FFBAF1030F8146054607D156
S31501003A500EF0B4F94845B6BF4C464D464FF0FF351A
S31501003A607F68354839461AF0D2F9002857D03946C9
S31501003A7032481AF0CCF988B3394631481AF0C7F9F9
S31501003A8098B339462F481AF0C2F990B339462E48F1
S31501003A901AF0BDF958B339462C4805F03DFE0135FB
S31501003AA012D12B4805F024FE0EE0E6B1022B08D018
S31501003AB0032B3246214628460CD0BDE8F8460EF0C7
S31501003AC0B9B9244805F028FE4FF0FF30BDE8F88665
S31501003AD02148E7E7BDE8F8460EF0D8B90223691C8C
S31501003AE0DFD0002CE1D11D48DCE70123F7E70323F2
S31501003AF0F5E76A1CD5D0002CF5D0204609F032FC3A
S31501003B000128E5D1E26804F14001284612BAD4E75A
S31501003B1010220021B8681AF0DFFE814698E76B1C77
S31501003B20BFD02846BDE8F8460EF0DCB9097202019D
S31501003B300E72020117720201998A020124720201B0
S31501003B40FC6602012A720201317202019F720201B0
S31501003B5036720201747202017D660201517202011E
S31501003B6008B5034805F0D8FD4FF0FF3008BD00BF8A
S31501003B707472020137B5074D074C8DE80C000B46F0
S31501003B80641B064902462846A410614305F086FADD
S31501003B9003B030BD0000000000000000B76DDBB6C9
S31501003BA00023C25C2E2A03D118444078303870476E
S31501003BB012B10133082BF4D101207047012A2DE9F6
S31501003BC0F04206460F4611DD541E0A490B2258687B
S31501003BD003F1040905F006FA40B1C5684B462246D1
S31501003BE039463046AC46BDE8F04260474FF0FF30FB
S31501003BF0BDE8F0827016030108B5022102480EF0F5
S31501003C007BFB002008BD00BFA08601002DE9FF4215
S31501003C101D46131F9146012B04D94FF0FF3004B006
S31501003C20BDE8F0821022002168681AF055FE1022C4
S31501003C300021C7B2A8681AF04FFE0446A868FFF72C
S31501003C40AFFF03280646E8D810220021E8681AF0DB
S31501003C5043FEB9F1050F8DF80F000CD1102200219A
S31501003C6028691AF039FE0F4D21460419631A002BF3
S31501003C7003DC0020D3E70120F5E701233246009358
S31501003C8038460DF10F0301F101090EF091FB10B158
S31501003C90284605F02DFD42F6F8201AF055FA494658
S31501003CA0E4E700BFE0740201052A2DE9F3421C4650
S31501003CB004D04FF0FF3002B0BDE8F0825868102200
S31501003CC000211AF009FE10220021C6B2A0681AF0DE
S31501003CD003FE0746A068FFF763FF03280546E8D8F9
S31501003CE010220021E0681AF0F7FD1022002181461A
S31501003CF020691AF0F1FDCDF800902A4639460346AF
S31501003D0030460EF013FB0028D5D0024805F0F0FC32
S31501003D100120D0E7F9740201022AF8B522D1102256
S31501003D20002158681AF031FE06461048002505F0B4
S31501003D30DFFC0F4F2C46002E01DBA64208D1E0B274
S31501003D400EF076FB20B92146384605F0E5FC013533
S31501003D500134802CEFD10A2005F0BAFCB5FA85F0C2
S31501003D604009F8BD4FF0FF36DFE700BF12750201CB
S31501003D70287502012DE9F04E1D46414B16468AB0C3
S31501003D80022ED3F834210493039204DC4FF0FF3062
S31501003D900AB0BDE8F08E11F0010929D0394B93F82C
S31501003DA000B05C689F68DDF80C904E460DF1180A6C
S31501003DB0102E3A4653462146A8BF1026584600966D
S31501003DC00EF0B4FA054678B32F4805F091FCA9EB3D
S31501003DD00609B9F1000FE8DC2A4B002083F800B090
S31501003DE05C609F60049B1A46039BC2F83431CFE79F
S31501003DF01022494668681AF06FFD102249465FFA9B
S31501003E0080FBA8681AF068FD0446A868FFF7C8FE9B
S31501003E1003280746BAD8032EC5D010224946E868BA
S31501003E201AF05AFD0390BEE72146184805F074FCC6
S31501003E302B46B3420BDB1648002EA8BFA41905F08A
S31501003E4057FCB5420CDB0A2005F042FCBFE71AF825
S31501003E5003101048059305F05FFC059B0133E8E765
S31501003E601AF80510A1F120035E2B04D90A4805F0C2
S31501003E703FFC0135E5E7094805F04EFCF9E700BFCF
S31501003E807016030174430301F97402012E750201D0
S31501003E903EF1020134750201E1010301065B0201F3
S31501003EA0032A2DE9F0461C4685B004DC4FF0FF30AD
S31501003EB005B0BDE8F0865868102200211AF00CFD05
S31501003EC0102200215FFA80F9A0681AF005FD054667
S31501003ED0A068FFF765FE03280746E7D810220021F0
S31501003EE0E06800241AF0F8FC6A1E2946A246064636
S31501003EF0024413482E4405F00FFC731B002B05DC0E
S31501003F00C4B1104805F0F4FB0020D1E701233A467D
S31501003F10009329460DF10F0348460EF007FA00B14A
S31501003F200134504601220DF10F01013518F0D0FE82
S31501003F308246E2E75146044805F0EEFB2046B7E724
S31501003F403A7502017D750201F25A0201052A2DE92F
S31501003F50F74681461D4604D003B0BDE8F04605F09C
S31501003F607FB85868102200211AF0B6FC10220021F1
S31501003F708246A8681AF0B0FC102200210646E868BD
S31501003F801AF0AAFC0446E868FFF70AFE032807466A
S31501003F9001D94846E0E7002128691022AAEB040569
S31501003FA01AF09AFCF6B2214604EB0009494505EBE5
S31501003FB0010301D100200CE001243A460094304669
S31501003FC001F1010A0EF0F4F930B1064805F090FB53
S31501003FD0204603B0BDE8F08642F6F8201AF0B4F8A0
S31501003FE05146E3E759750201022A2DE9F0461646C4
S31501003FF087B01C4636DD5868102200211AF06CFC89
S31501004000102200210746A0681AF066FC8146A068C6
S31501004010FFF7C6FD0328054624D810220021E068D3
S315010040201AF05AFC102828BF1020032E824616D0FB
S3150100403020690A2200211AF04FFC04460C4ECDF8E5
S3150100404000A002AB2A464946F8B20EF06FF910B14C
S31501004050304605F04DFB20461AF076F8EFE74FF4AF
S315010040607A74EBE74FF0FF3007B0BDE8F08600BF8A
S31501004070F9740201032A2DE9FF4E82461E4605D038
S315010040804FF0FF36304604B0BDE8F08E11F0010462
S315010040901FD03A4B93F80C901D695F69DFF8FCB0AD
S315010040A02946374805F038FB009402AB3A462946C3
S315010040B048460EF03BF928B3324805F019FB324861
S315010040C009F070FF70BBBAF1000F00D025442646F7
S315010040D047E01868012105F003FA10220021044681
S315010040E070681AF0F9FB102200215FFA80F9B068B6
S315010040F01AF0F2FB0546B068FFF752FD03280746A2
S31501004100CCD9BDE70299012C09BA029104D11F4805
S31501004110090E05F001FBD2E7022C06BF090C1C486B
S315010041205846F6E7102203A91A481AF0D5FB012CC6
S315010041301FD100060290029B039E1BBA0293154BE8
S31501004140F61A10D0009402AB3A46294648460EF0BC
S315010041502FF910B1104805F0CBFABAF1000F00D0D3
S315010041602544002E9CD1054B83F80C901D615F619F
S3150100417088E7022C08BF0004DCE700BF7443030193
S31501004180757502017C750201AB7502019675020116
S315010041909D750201EC600301E0740201A475020140
S315010041A0002067E7012065E770470148704700BFB7
S315010041B0A0860100024BC01A18BF4FF0FF307047AE
S315010041C0A0860100012A10B508D10EF07BF8002463
S315010041D001460D4805F0A0FA204610BD0A2258688E
S315010041E000211AF079FB04460146084805F094FAC5
S315010041F020460EF053F804460028EDD00146044847
S3150100420005F08AFAE8E700BFAF750201C57502013C
S31501004210E175020110B50C46027800212A2A4FF0F9
S3150100422010020ED101301AF057FB022C05D0042CD6
S3150100423005D0012C0DD1007810BD008810BD006895
S3150100424010BD1AF049FBE4000123A340013B1840CD
S3150100425010BD0020F7E72DE9F34E81460D461646BF
S315010042601F4619F0FCFD002482464A4B682C234464
S31501004270009306D14946484805F04EFA4FF0000B27
S3150100428037E0444B52464846E3581946019319F024
S31501004290C9FD019B834600287AD1184619F0DFFD36
S315010042A0824575D1009BD3F80490002F41D12B781C
S315010042B02A2B05D1681C102239461AF00DFB05463A
S315010042C033782A2B05D1701C102200211AF004FB29
S315010042D006463146284619F09AFDB9F1050FCDD8A3
S315010042E0DFE809F0030B11141B22B0FA80FB4FEA39
S315010042F05B1B584602B0BDE8F08E10F1000B18BFEB
S315010043004FF0010BF5E74FEAD07BF2E70028D4BF67
S315010043104FF0000B4FF0010BEBE70028CCBF4FF03D
S31501004320000B4FF0010BE4E76FEA000B4FEADB7B72
S31501004330DFE739462846FFF76DFF39460446304622
S31501004340FFF768FFB9F1050FD3D8DFE809F00309D4
S315010043500F16181A231AD3F1000B4BEB030BC8E700
S31501004360B4EB000B18BF4FF0010BC2E78442ACBFA0
S315010043704FF0000B4FF0010BBBE78442C7E78442C5
S31501004380CCE78442B4BF4FF0000B4FF0010BB0E70E
S3150100439008346AE7E42F020134760201042A10B5D3
S315010043A01C461CD11146186805F09AF8821C034672
S315010043B0062A0FD8DFE802F0040E0E05050E0500E9
S315010043C00023E2686168A068FFF745FFB0FA80F054
S315010043D0400910BD034805F08BF90020F6E74FF0C0
S315010043E0FF3010BD4B760201024B00221A609A681B
S315010043F05A6070478C430301034B1A69DA601A68E5
S315010044005A615A689A6170478C430301034BDA6813
S315010044101A615A691A609A695A6070478C43030196
S3150100442008B505F048F918B1BDE8084005F036B9F8
S315010044304FF0FF3008BD70B5ADF5866D054601A894
S315010044406946022302930CF083F9044660BB0646D3
S315010044506A464FF480610CA80CF032FA021E1CDC8D
S3150100446068460CF007FB154900200CF023FB21469A
S315010044702846FCF7BCF822462146114805F04CF9BE
S315010044802246104904A81AF0FAFA04A90E4803F0C4
S31501004490DFF928460DF5866D70BD70190CA9144417
S315010044A0164419F0A4FDD3E7009800240CF036FB5E
S315010044B00146064805F030F9D2E700BF2144000164
S315010044C0E57602010D7702016763020106A7020183
S315010044D0034B1A681AB95A68511C59601070704713
S315010044E08C430301064A002012F8013F2BB9C0F3A1
S315010044F08113184400F03F0070471844F4E700BFE9
S31501004500A843030138B5094C656B002D04DC084C42
S3150100451014F8010F30B938BD94F83800013D05F0A3
S31501004520D7F8F2E705F0D4F8F2E700BF8C430301B0
S31501004530A74303012DE9F04E0027DFF824A1ADF5CD
S31501004540507D3E464FF0FF3502900DF59C7BCFAC7A
S31501004550D94605F0A3F8DAF80010C2B221B1104627
S31501004560039205F0B5F8039A032A6ED05ADC002AA5
S315010045706BD00BF8012BD8F858205168374A914275
S3150100458066D15C45E5D100232370A4EB090452E012
S315010045900138082818D8DFE800F0050505171717B0
S315010045A026262600059C0EA9029B049A1C44204639
S315010045B019F01DFD0498A54200F1FF30204428BFE3
S315010045C02546864238BF0646254B1B68002BBCD1C3
S315010045D00137642138461EF062EC0029B5D12E2040
S315010045E005F076F8B1E7741C42F21070641B19F0FD
S315010045F0ABFD32462946234600941A4805F08CF84D
S3150100460021462846FBF7F3FF2246174906A81AF06A
S3150100461036FA06A9154803F01BF905980DF5507DE4
S31501004620BDE8F08E0A2A01D00D2AA2D1ABEB09040E
S3150100463000228BF80020002C07DB0EAB05AA04A98B
S3150100464048460AF07CF80028A2DA4FF0FF30E5E789
S3150100465005F089F8002894D0F7E700BF9D96000180
S315010046607C1A030110770201636302016763020189
S3150100467038B515461C481C4603F02EFA1B4930B3C3
S315010046800378312B23D10123022D0B6021D16068E0
S31501004690102200211AF079F90446154805F03CF874
S315010046A02046FFF747FF6424054605F004F808B1E4
S315010046B004F0F4FF4FF47A7019F046FD013CF4D191
S315010046C06B1C08D10B4805F027F8012038BD0023E3
S315010046D0DAE70024E1E72946074805F01DF8074B0C
S315010046E020461D6038BD00BF757702017C1A0301A3
S315010046F080770201A4770201C2770201DC27030158
S315010047002DE9F04E8CB0AD4815461C4603F0E4F990
S3150100471000285AD0102200211AF0DEF80646D8F8F1
S315010047200830012D019353DD1022002160681AF033
S31501004730D3F8032D06464BD10A220021A0681AF0B0
S31501004740CBF80746002843D0019B834213D001468C
S315010047509B4804F0E1FF4CF2503019F0F5FCC8F823
S31501004760087011F04AF94CF2503019F0EDFC04F0E2
S3150100477095FF0D28FBD19349206819F048FB3A466D
S315010047803146044630BB904804F0C6FF3046FFF779
S3150100479052FE019BBB4214D019468C4804F0BCFF63
S315010047A04CF2503019F0D0FC019AC8F8082011F0EB
S315010047B024F94CF2503019F0C7FC04F06FFF1B28A6
S315010047C0FBD120460CB0BDE8F08E4FF40046A6E7BB
S315010047D0019FD0E77E48002404F09EFF7D497E4B71
S315010047E04FF0FF3A8E60CB637C4B4C6381F83840C7
S315010047F00B640D230C6181F84430232381F8453085
S31501004800FFF7F2FDFFF7F8FD8B46754ACBF8482016
S31501004810039204F043FF012807D00328F9D10025AC
S31501004820BDE12246A2461446EFE704F037FF10F039
S31501004830E00F81465ED004F031FF10F0E00F59D051
S31501004840C5B2A5F1200302939DF80840544573D1E2
S31501004850FFF7DCFD04F022FF10F0E00F49D05FFA0C
S3150100486089F95FFA80FA4D44A9F1200955445FFAA6
S3150100487089F2A2F1020932BB04F010FF10F0E00F39
S3150100488037D0C0B2A0F12009054404F007FF5FFA52
S3150100489089F910F0E00FC2B22BD05F21154401FB5C
S315010048A009F9203A59FA82F904F0F8FE10F0E00FFE
S315010048B0C1B21ED0C5F381122A4402F03F02203252
S315010048C0914216D10D44B9F1010F38DC04F0E6FE30
S315010048D010F0E00F0DD0C5F38112C0B2154405F0FA
S315010048E03F052035A84204D104F0D8FEC0B20D28F8
S315010048F07AD0A246FFF78AFD002101228BF820100B
S315010049008BF81C2023228BF81D2004F120028BF842
S315010049101E204E228BF81F20FFF7E4FD9BF8442052
S315010049208BF8212020308BF822108BF82000FFF71E
S31501004930E9FD2246544675E7FFF75EFD8AE704F076
S31501004940ADFE024612F0E00FC0B2D2D0BAF1440F6A
S31501004950054409F1FF3922D1DBF810209AB100F0A4
S315010049606001DBF84020402906D100F0BF009047E6
S315010049700022CBF81020A6E700F07F013F2908BFEF
S3150100498040F04000F3E79BF84520824203D1012322
S31501004990CBF8103097E7DBF84020904793E7BAF160
S315010049A0530F90D1DBF848200E4B511CCBF8481021
S315010049B09942107028BFCBF8482084E71A590201A2
S315010049C0E07702011278020118780201BB78020130
S315010049D0577802018C430301E9430001D1440001E8
S315010049E0D8430301EC430301029DBAF1530F05F1CC
S315010049F0200540F0B08000227F49CBF834208BF8A7
S31501004A00382023228BF84520DBF84820039B8A4275
S31501004A108BF8440004BF02F1FF32CBF84820DBF8E3
S31501004A204820D21A002A40F38280012A4FF07E01E3
S31501004A308BF820107DD0022A4FF021018BF821102E
S31501004A4079D09BF84E10032AA1F12001C9B2CBF807
S31501004A5034104FF020018BF822106ED09BF84F10C6
S31501004A6001F0600040285BD101F0BF01042A8BF8F8
S31501004A7038104FF040018BF8231060D09BF850108E
S31501004A80052AA1F120018BF844104FF02D018BF876
S31501004A90241056D09BF85110062A8BF845104FF07A
S31501004AA023018BF825104ED0072A4FF04E018BF8C3
S31501004AB026104AD0082A4FF031008BF8270046D03D
S31501004AC0092A8BF8281044D0102122228BF829209C
S31501004AD020228BF82A207E228BF82B208BF82C2083
S31501004AE08BF81E504D1C5D4401224FF000098BF8D6
S31501004AF01C2001F120028BF81D2059228BF81F2062
S31501004B0085F81C90FFF7EEFC9BF84420A246594419
S31501004B10203028778A7781F81F90FFF7F3FC08E7A2
S31501004B2001F07F003F2808BF41F040019EE70321C5
S31501004B30D6E70421D4E70521D2E70621D0E70721EC
S31501004B40CEE70821CCE70921CAE70A21C8E70B21EC
S31501004B50C6E70C21C4E7002101228BF820108BF84F
S31501004B601C2023228BF81E508BF81D2059228BF80E
S31501004B701F20FFF7B7FC9BF844208BF8212020303B
S31501004B808BF822108BF82000FFF7BCFCBAF1420F1C
S31501004B907FF447AEDBF80450DBF80830ED1A6424E5
S31501004BA004F089FD08B104F079FD4FF47A7019F02B
S31501004BB0CBFA013CF4D129463046FBF718FD2A46CB
S31501004BC029460E4804F0A8FD2A460D4904A819F005
S31501004BD056FF04A90B4802F03BFE731C0A4D05D192
S31501004BE00A482C6004F098FD0124D2E531460848B4
S31501004BF004F092FD2E60CCE5EB430301E57602015C
S31501004C000D77020167630201DC2703019678020131
S31501004C10C277020173B50E46144601A90022054664
S31501004C2019F0B3FE019B9D420246306003D14FF05D
S31501004C30FF3002B070BD19782D290AD1581C019098
S31501004C405B7833B10022114619F09FFE20600020E7
S31501004C50EFE7019B18780028E9D12260E9E7012AEC
S31501004C602DE9F04E8A4698B017461E4602F1FF34EA
S31501004C7004DC4FF0FF3018B0BDE8F08E5B68DFF85A
S31501004C8030B21B780393DBF800300A93DBF804306B
S31501004C900B93DBF808300E93DBF80C300F93DBF83F
S31501004CA010300C93DBF814300D93BBF818300493D5
S31501004CB009F0AEFB1AF0010F1CBF9BF81C300393E1
S31501004CC00546039B722B2BD0772B53D1012C0ADD82
S31501004CD01022002156F82400023F19F0FDFD012F94
S31501004CE083B204931FDC05F10806304609F064FB24
S31501004CF0039B0A9C722B0B9B05930E9B06930F9BA2
S31501004D0007937BD0039B772B40F09B800C9BDDF8B0
S31501004D1034A00893059BA342C0F29380069E65E0EA
S31501004D20012CE0DD27467C1E56F827702E213846D9
S31501004D3019F09DF88246002833D0A0EB07093946C1
S31501004D4010A84A4619F034F818AB99440FAA0EA9CF
S31501004D5010A8002309F8203CFFF75CFF002888D142
S31501004D600AF101070DAA0CA93846FFF753FF0028DF
S31501004D707FF47FAF012C20DDA31E013C012B3FF602
S31501004D8078AF022CB06811D109F030FA0546002837
S31501004D903FF46FAFF0680BAA0AA9FFF73BFF60B1BA
S31501004DA067E74FF0FF330F930E93DBE709F036FB0E
S31501004DB050B1436B05680B930A93039B6C2B92D1FD
S31501004DC009F0C0FA002056E70BAA0AA9B068E4E781
S31501004DD0049B32462146284600934B462F6BB84723
S31501004DE078BB09F10109CA45F2DA0136079BB342DC
S31501004DF002DBDDF82090F6E701348BE70C9B3146A8
S31501004E00274808930D9B099304F086FC059BA34252
S31501004E1017DB2146234804F07FFCDFF898A0069FA4
S31501004E20079BBB4239DBDDF8209031E0EE6A4B4649
S31501004E303A4621462846B047061E1CDA1A4804F0AF
S31501004E406BFC9DF80C308BF81C300A9BCBF80030BC
S31501004E500B9BCBF804300E9BCBF808300F9BCBF89D
S31501004E600C300C9BCBF810300D9BCBF81430049B07
S31501004E70CBF81830A6E7002F03DB39460B4804F0C0
S31501004E804BFC4946B2B2504609F1010904F044FC13
S31501004E90099B4B45CADA0137C2E70134B6E700BFC1
S31501004EA0187A02012D7A0201E7EE0201417A020126
S31501004EB0EC430301457A0201022A2DE9F74692469F
S31501004EC01C4605DC4FF0FF37384603B0BDE8F086D7
S31501004ED02549586818F09BFF30B304340AF1FF3AAC
S31501004EE0002710220021206819F0F6FC1F4B102222
S31501004EF000211D680544606819F0EEFC4FF48063DB
S31501004F00294602460646002017F0E8FE8146DFB92B
S31501004F10721E03462A442946154804F0FDFBBAF1E0
S31501004F20020F09D10027CFE7AAF1020A0834BAF124
S31501004F30020FC7DD0127D4E710223946A06819F010
S31501004F40CBFCC0F80090BFE710220021A06819F041
S31501004F50C3FC8145E6D0721E00904B462A44294681
S31501004F60044804F0D9FBAFE79A7B02010C44030124
S31501004F709D7B0201C27B0201012A10B5064C05DDAB
S31501004F8010220021586819F0A7FC20602168034807
S31501004F9004F0C2FB002010BD0C440301FC7B02019E
S31501004FA02DE9F0421D46D31E9146012B2DD8042131
S31501004FB0286804F095FA061E2BDD10220021686888
S31501004FC019F08AFC144B102200211C680444A868BD
S31501004FD019F082FCB9F1040F07460AD1102200210B
S31501004FE0E86819F079FC10F1FF3004D20020BDE821
S31501004FF0F0820120F7E7042E02D127603444F2E75C
S31501005000022E0CBF27802770F8E74FF0FF30BDE86E
S31501005010F0820120BDE8F0820C440301022A70B53A
S315010050201E4637DD0421186804F05AFA051E34DBE2
S3150100503010220021706819F04FFC1022002104464D
S31501005040B06819F049FC012809D1042D01D1236862
S31501005050FDE7022D01D12388FDE72378FDE7042D25
S3150100506007D12246034613F1FF33FAD311680432FE
S31501005070F9E7022D07D12246034613F1FF33FAD38E
S3150100508011880232F9E7204423468342FCD01A787C
S315010050900133FAE74FF0FF3070BD012070BD2DE9F5
S315010050A0F34E012A204F92469B46D7F8009035DDF4
S315010050B011F0010618D01D4B5C689D682946102029
S315010050C01DF058EE21464B462A460090204605FB28
S315010050D0094417F0A7FE154B0020C7F800909D6004
S315010050E05C6002B0BDE8F08E0421186804F0F8F99E
S315010050F0051E16DB10223146DBF8040019F0ECFB25
S315010051000A4BBAF1020F1C680444D7D0102231466B
S31501005110DBF8080019F0E0FB8146CFE74FF0FF30DE
S31501005120DFE70120DDE700BF801A03010C4403011C
S31501005130042AF8B51D4637D11146186804F0D0F98E
S31501005140071E1DDB10220021686819F0C5FB184CEB
S315010051501022002126680644A86819F0BDFB2468C0
S31501005160102200210444E86819F0B6FB28B1451E57
S31501005170361B6B1C06D10020F8BD0E4804F0B8FAA8
S315010051800120F8BD042F08D133592360ABB23C444A
S315010051900BB913F04FFD013DEBE7022F0BBF335B5C
S315010051A0335D23802370F1E74FF0FF30F8BD00BF78
S315010051B00C440301137C0201042A2DE9F0469946A9
S315010051C087B059D11146186804F08AF9051E56DBD5
S315010051D0042D25D02B4B2C4E022D18BF1E46102216
S315010051E00021D9F8040019F077FB284C1022002180
S315010051F027680744D9F8080019F06EFB24681022C5
S3150100520000210444D9F80C0019F066FB3F1B4FF04E
S3150100521000098246D14504EB070203D1002412E0BE
S315010052201B4EDCE7042D17D1136821688B421AD077
S3150100523004913146029401248DE848002B460395DA
S31501005240144804F069FA32464946134804F064FAF0
S31501005250204607B0BDE8F086022D07BF13882188D6
S315010052603B5D2178E2E71FFA89F32C440BB913F071
S31501005270E1FC09F10109CDE74FF0FF34E8E701242C
S31501005280E6E700BF247C0201297C02010C440301EC
S315010052902D7C0201327C0201647C0201012A2DE986
S315010052A0F34E16461D462BDD10220021586819F0D3
S315010052B013FB022E019029D010220021A86819F0B3
S315010052C00BFB032E824625D010220021E86819F037
S315010052D003FB042E044617D028691022002119F079
S315010052E0FBFA054601260023B146009304F03BFA7A
S315010052F090B10A2004F0ECF9012002B0BDE8F08E6D
S315010053004FF0007A002401940025EBE700244FF0CA
S31501005310007AF9E70024F7E765B1A9450ADD009AA5
S3150100532009F1FF311D4804F0F7F9009B181C18BF5D
S315010053300120E2E71A4A21461A48A34604F0ECF98D
S31501005340019F574510D31848A34604F0D1F9019F90
S3150100535057450FD3002C09F10109B8BF6442C6F1C4
S315010053600006A8BFE443C1E713F064FC47F804BB99
S31501005370B344E6E713F05EFC3A6893450BD05B460F
S3150100538039460A4804F0C8F9009B0133009304F03A
S31501005390EAF90028ADD1B3440437D9E7867C020186
S315010053A0D77C0201AF7C0201D87C0201E37C0201B9
S315010053B0022A2DE9F74606461F464DD111F0010492
S315010053C020D02D4BDC681D69DFF8C090DFF8C0A046
S315010053D02146484604F0A0F9042D22D12168274828
S315010053E004F09AF9264808F0DDFD00283BD0012893
S315010053F0244F1DD13B782D2B1AD1002EE8D06B42BC
S315010054001C44E5E70421186804F06AF8051E28DB48
S3150100541021461022786819F05FFA174B1C6804447C
S31501005420D2E7022D0BBF2188504617482178D7E7CE
S31501005430102201A9134819F04FFA019BBB4216D05D
S31501005440042D04D12060002EC2D02C44C0E7022DC9
S315010054500CBF20802070F6E74FF0FF3003B0BDE8A7
S31501005460F0860120FAE7002EB2D02B46C8E7024BA0
S315010054700020DC601D61F1E70C440301157D02018A
S31501005480AB750201EC6003011B7D0201757502011A
S315010054903475020101208BE7002089E737B50D46F7
S315010054A0144601A9102219F017FAC3B201982B70FC
S315010054B002782D2A08D1013010220021019019F01D
S315010054C00BFA207003B030BD2370FBE7012A2DE9EA
S315010054D0F04E164698B01D4605DC4FF0FF342046C7
S315010054E018B0BDE8F08EAE4B11F001041A788DF8B4
S315010054F050205A788DF851205A688DF84A209A68BA
S315010055008DF84B20DA688DF84C201A695B698DF8A5
S315010055104D20ADF8523027D1686803788DF85030A8
S3150100552018F09DFC012891BF8DF851406B685B789E
S315010055308DF85130022E17D00DF14B020DF14A01B3
S31501005540A868FFF7ABFF032E0ED00DF14D0213A98C
