:020000040000FA
:1000000078080020D5000000EF000000F10000009B
:1000100000000000000000000000000000000000E0
:10002000000000000000000000000000F3000000DD
:100030000000000000000000F5000000F7000000D4
:10004000F9000000F90000007D030000F900000045
:10005000F90000000000000031010000F90000007C
:1000600039030000F9000000F9000000F900000069
:10007000F9000000F9000000F9000000F90000009C
:10008000F9000000F9000000F9000000F90000008C
:10009000F9000000F9000000F9000000F90000007C
:1000A000F9000000F900000000000000000000005E
:1000B0000000000000000000000000000000000040
:1000C0000348854600F022F80048004791050000EB
:1000D000780800200321094802680A4302600848A2
:1000E00002680A4302600748804707480047FEE766
:1000F000FEE7FEE7FEE7FEE7FEE70000240500401E
:100100005405004099020000C1000000064C012582
:10011000064E05E0E36807CC2B430C3C98471034AF
:10012000B442F7D3FFF7D0FFF00B0000100C000033
:10013000F0B50024FF268BB0013601252746059433
:10014000304600F069FC002807D05048406828423B
:1001500003D0304600F058FC2C43361D6D007F1C48
:10016000B6B2042FECD3FF257D35284600F054FCB1
:10017000002809D0284600F047FC6807044305AA78
:100180000121002000F02CFC414F200714D0012653
:10019000002526420CD03F48AA00111808690969B9
:1001A000C004C00E8903BA58890F002A00D09047B6
:1001B00076006D1C042DECD3002C41DA0020069053
:1001C000401E334D079020352E7D0027B406A40E27
:1001D00070B2401C34D007A9204600F005FA002870
:1001E0002ED0B0090190204600F04CF9810028483B
:1001F00046580198002E02D0032802D00CE00328B4
:100200001ED1E30806A89C466207C15C520F012379
:10021000934019436346C15405200007A100081804
:10022000072109024018006805A98003800F029089
:10023000204600F0D9F90028029803D0022803D004
:100240000BB0F0BD0328FBD10198032807D1029819
:10025000022818D00221204600F0B0FB0127002E12
:1002600002D020460199B047002FE9D06A4601210B
:10027000002000F0B5FB059900988842E0D0059079
:1002800006980790A0E70321E5E70000006300401F
:10029000180000200065004010B500F00FF900289C
:1002A00005D01F491D484860C8131E4988611E4873
:1002B000018CC9B201290BD1828C120708D1028DA1
:1002C0001206120F042A03D1828D1206120F0AD0D1
:1002D000012921D1818C09071ED1018D0906090F41
:1002E0000A2904D007E0114A01219160F5E7828DC7
:1002F0001206120F05D00D290ED1808D0006000FB9
:100300000AD10B480168012904D00A49016001683B
:100310000129FCD1C021416110BD0000DFFF07C0F1
:1003200000050040006C0040C00F00F000060040D7
:1003300000EC064075930000F8B50E4C042700252C
:10034000BE03A8003146A940FF3041302258002AA0
:100350000BD003221202A21852680A4205D00021D3
:100360002150054A5168126890476D1CEDB2BD429C
:10037000E7D3F8BD008000405000002010B50249CE
:10038000024800F099FB10BD5C00002000200040F6
:1003900002E008C8121F08C1002AFAD1704770474E
:1003A000002001E001C1121F002AFBD170470000AC
:1003B000BFF34F8F03490248C860BFF34F8FFEE77A
:1003C0000400FA0500ED00E00EB500210290009156
:1003D0006A4601910148FFF7EBFF0EBD01400000A6
:1003E00000B500F005F800BD00B500F009F800BD4B
:1003F00072B602480168491C016070471400002071
:1004000003490868401E086000D162B670470000CA
:10041000140000200003000F01D0002070470120CD
:10042000704700000022D243830004490428CA50C8
:1004300002D3081820300274704700001800002012
:10044000F0B50025ED43002A02D00023042601E088
:10045000042305260A4C04E09F00E7597F1C04D0C2
:100460005B1CB342F8D32846F0BD5DB22618357543
:100470009E00A151002AF6D1E11820310874F2E75C
:10048000180000200249091814200856704700007F
:10049000180000200121814003484068014201D03A
:1004A00001207047002070470C000020014610B565
:1004B00001208840FFF7AEFF10BD00001048018CFE
:1004C000C9B2012917D1818C090714D1018D090600
:1004D0000A0F03D1828D1206120F0ED0090F0129C7
:1004E00003D1828D1206120F07D0032903D1808D0C
:1004F0000006000F01D00020704701207047000067
:10050000C00F00F0012181400804000C00D0012040
:10051000704700003EB51B4802A9006802901220F7
:1005200000F0C8F8002801D0FFF74EFF0020014678
:1005300000900123144A154800F0C6F901A800F004
:1005400027F9002801D0FFF73FFF10480468122068
:10055000FF34413400F0FAF802466846214600793B
:1005600000F044F9002801D0FFF72EFF684600791B
:1005700000F05CF9002801D0FFF726FF122000F000
:10058000EFF83EBDE00B0000400D0300000000202E
:100590001CB500F069F9002801D0FFF715FF00F045
:1005A0005BF8002801D0FFF70FFF0B490B4A4868A2
:1005B0008968019100906946094800F09DF900287A
:1005C00001D0FFF701FF07490120C860FFF7A2FF34
:1005D000034800F06BF9FEE7E00B0000810A000021
:1005E00000000020008C0040C20843075B0F012080
:1005F000895C9840084070478207D30EFF229A40DA
:100600008907090E10B5994000280BDA03071B0F64
:10061000083B9C080C4BA400E318DC6994430C4392
:10062000DC6107E08408094BA400E41823689343C5
:100630000B432360C106C90E0120884004490860AD
:100640000449086010BD000000ED00E000E400E097
:1006500080E200E000E100E070B5144D687D002804
:1006600001D0082070BD114900202039421E0B180E
:10067000401CC0B21A752028F9D300242046FFF789
:10068000D1FE641CE4B2052CF8D303210620FFF749
:10069000B3FFFF207D3000F0B7F901200449C00707
:1006A000486001206875002070BD000038000020FF
:1006B00000630040FEB5044620480D460019142191
:1006C00041560026491C01D0082633E0A9780029AC
:1006D0001DD0012200212046FFF7B2FE411C14D09C
:1006E000830017482A78181869780369154F3B402A
:1006F00003610369E706FF0C9207920BC907C90A59
:100700003B430A431343036104E0042612E0012142
:10071000C94301756A780120A0400B49012A0BD01A
:10072000C860002100910B4601220191204611462C
:1007300000F030F93046FEBD8860F2E71800002076
:1007400000650040FFE0ECFF0005005010B5FFF72A
:1007500099FE80060149000E401810BD006000405F
:100760000949091814200856810008480918086921
:10077000032210431F22120202430A6100BF00BF7E
:1007800000BF0861704700001800002000650040AD
:10079000F1B50427134E00240020FFF721FE0125A8
:1007A000A540354204D02046FFF774FE00280BD048
:1007B0000020FFF719FE002F04D0641CAE43E4B202
:1007C000002EE9D13846F8BD074901204A68A0400B
:1007D000104348600098002704703846FFF704FE75
:1007E000F0E70000FFFF00000C000020F8B5144601
:1007F0000D00074612D0002C10D00026FFF782FE15
:1008000000280DD03846FFF745FE00280AD00648DC
:10081000F9000818056144613046F8BD0E20F8BDA6
:100820000726F9E70826F7E700F5014070B5054609
:100830000024FFF73BFE00280FD02846FFF762FE9A
:10084000002804D02846FFF725FE002807D0012005
:100850000449A8404860204670BD0724FBE70824EF
:10086000F9E7000000F5014004480178002901D0B3
:100870008520704701210170002070470C00002086
:1008800070B5012424048C40032605683602AD1996
:10089000002B01D06C6000E0AC6000688900081893
:1008A000052109024018026470BD000001680122A0
:1008B0000A6000790C225043024A0221801801721A
:1008C0007047000050000020F0B5FF250235046895
:1008D0008D40FF34FF340234059E2768AF43276004
:1008E0000468FF34FF34023425681D432560334615
:1008F000FFF7C6FFF0BD000070B504460D46007955
:100900000C21484322494618307A002801D008209B
:1009100070BD002A05D03260686870600020034610
:1009200008E0072070BD8100FF312268413153503B
:10093000401CC0B261798142F5D82068E978000B8B
:1009400040B2FFF759FE05202168000209186A78B5
:100950004B68D2075B085B00D20F13434B602168E2
:10096000AA7809188B6892079B089B00920F134383
:100970008B60226829781018026909071209120190
:10098000090F0A43026101203072002070BD00008F
:100990005000002070B552000A439900049D0A439C
:1009A0002902059E0A43310405240A4324078000D6
:1009B0000721001909024018026070BD05221207C4
:1009C00080008218072000021018026803231B040D
:1009D0009A430260026809040A43026070470000FB
:1009E00038B5084B05241B68009324026B46411858
:1009F00005E085005D592D192D69401C20C28142FA
:100A0000F7D838BDEC0B0000024940180021016006
:100A1000704700000060004003494018006801284A
:100A200000D00020704700000060004040580028BF
:100A300000D001207047032212028018406808404D
:100A400000D00120704730B5FF220523CD7D002462
:100A500009321B02C318002D8450986905D04B7EC3
:100A6000CA68D054487E401C487630BD1FB501246A
:100A70006B461C701972019206C8684690471FBDEC
:100A80007047FF221D32002383508B8A8A68D25C14
:100A90008B8A5B1C8B82052109024018C26170475A
:100AA0001FB500226B461A70197281680191827518
:100AB00006C8684690471FBDF0B50C46012185B0B9
:100AC00005464902FFF7B7FF032109026F18002608
:100AD000002826D0FF2125312846FFF7A7FF002850
:100AE0001FD0FF2025302E5081208000B860A07ECE
:100AF000002801D1012068600221684601700920A8
:100B0000C0012918086808600390E17D68460172F9
:100B1000E0680190E675267606CC6846083C90476A
:100B20002DE004212846FFF786FF002827D0FF216B
:100B300009312846FFF77AFF002820D021462846B1
:100B4000FFF781FFE07D617E884218D1207E00287A
:100B500007D0617EE268E0752069E06026766676FF
:100B60000AE0A07E002801D1012068608120800079
:100B7000B860E675617EE2682046FFF777FFFF27E1
:100B80001D3739462846FFF751FF00280FD0A08AAD
:100B9000A17D884204D221462846FFF772FF06E075
:100BA000EE51A17D002902D02046FFF779FFFF27F3
:100BB000453739462846FFF739FF00280ED0EE5159
:100BC000A07E002801D001202860E07D002805D00B
:100BD000E675617EE2682046FFF748FF05B0F0BD8C
:100BE00003000100040003030000000000000050A7
:100BF000100C00000000002018000000900300000E
:100C0000280C00001800002060080000A00300006D
:100C100000800040000400000024F40000000000F8
:080C20000000000000000000CC
:04000005000000C136
:00000001FF
