:020000040000FA
:10000000982A0020D5000000EF000000F100000059
:1000100000000000000000000000000000000000E0
:10002000000000000000000000000000F3000000DD
:100030000000000000000000F5000000F7000000D4
:1000400055010000F90000005D020000F900000009
:10005000F900000000000000F9000000F9000000B5
:10006000F9000000F9000000F9000000A9010000FB
:10007000F9000000F9000000F9000000F90000009C
:10008000F9000000F9000000F9000000F90000008C
:10009000F9000000F9000000F9000000F90000007C
:1000A000F9000000F900000000000000000000005E
:1000B0000000000000000000000000000000000040
:1000C0000348854600F034F80048004795060000D4
:1000D000982A00200321094802680A430260084860
:1000E00002680A4302600748804707480047FEE766
:1000F000FEE7FEE7FEE7FEE7FEE70000240500401E
:1001000054050040BD010000C100000003460B4340
:100110009B0703D009E008C9121F08C0042AFAD2BD
:1001200003E00B780370401C491C521EF9D2704743
:10013000064C0125064E05E0E36807CC2B430C3C3A
:1001400098471034B442F7D3FFF7BEFFE010000029
:1001500000110000F8B5FF20013000F0FDFA002486
:1001600001250E4E0E4F002807D00E4804600120D6
:10017000B0607D70002000F0D5F9FF20053000F060
:10018000EBFA002808D00748001D04600220B06088
:10019000BD70012000F0C6F9F8BD0000000300406A
:1001A000602200200001004010B503220021024817
:1001B00000F09EFB10BD000000B0004010B500F044
:1001C00039FA002805D01F491D484860C8131E4948
:1001D00088611E48018CC9B201290BD1828C12079B
:1001E00008D1028D1206120F042A03D1828D120645
:1001F000120F0AD0012921D1818C09071ED1018D4E
:100200000906090F0A2904D007E0114A012191606B
:10021000F5E7828D1206120F05D00D290ED1808DC3
:100220000006000F0AD10B480168012904D00A49D1
:10023000016001680129FCD1C021416110BD0000AD
:10024000DFFF07C000050040006C0040C00F00F059
:100250000006004000EC06407593000010B502490E
:10026000024800F0C1FD10BD4422002000200040E3
:1002700010B5024A024900F014F810BD2106000032
:100280004000002002E008C8121F08C1002AFAD16D
:1002900070477047002001E001C1121F002AFBD106
:1002A0007047F8B516460F460446002503E0394668
:1002B000B047641C6D1C20780028F8D12846F8BD92
:1002C000BFF34F8F03490248C860BFF34F8FFEE76B
:1002D0000400FA0500ED00E00EB500210290009147
:1002E0006A4601910148FFF7EBFF0EBD0140000097
:1002F00010B58268C368934203D000F027F900204C
:1003000010BD052010BD002906D0002A02D0531EC2
:10031000134203D0092070470E207047016083808C
:1003200000218160C1600846704710B58268C368CB
:100330009A1A83889A4203D800F012F9002010BD5F
:10034000042010BD70B50B4D0146AE780A48FFF78A
:10035000CFFF0446002E0AD00020A870691C01229D
:10036000C81D00F053FB002801D0FFF7B5FF204661
:1003700070BD00002C00002074220020F0B5274E34
:1003800089B01F460D00044672601CD0A8882968F9
:1003900082B22348FFF7B7FF002815D1A889A968C2
:1003A00082B21F481030FFF7AEFF00280CD1202288
:1003B0001C496846FFF7AAFE60690690207C002869
:1003C00004D0012103E0072009B0F0BD00216846F8
:1003D00001750777607C002800D00E2069464875BB
:1003E000E0680290A0680390206801906068009027
:1003F0000A480D4A083000F0C9FA0028E4D1B0706C
:100400002068401CE0D00548083000F02DFB03496F
:100410000122491CC81D00F0F9FAD5E72C00002084
:1004200074220020C0100000410D000010B50146EC
:100430000C48FFF77AFF040012D10B4800F0DEFBF6
:1004400000280DD1084907480839FFF751FF002857
:1004500006D1054901220839034800F06FFB044624
:10046000204610BD842200203400002000B500F09A
:1004700005F800BD00B500F009F800BD72B60248ED
:100480000168491C016070473C000020034908686E
:10049000401E086000D162B6704700003C0000209A
:1004A000F8B5074608680C460526411C01253602AA
:1004B000002906D02946814019488160206800F053
:1004C000C6FB6068411C02D0002100F0B7FB396810
:1004D000A06989194862607D217D3A6808439119B5
:1004E000C866386806CC80194261C160207B083C30
:1004F000012814D1A068411C02D0002100F09EFB0D
:10050000E068411C05D0854005488560E06800F042
:100510009EFB3A68E1689219A06891601061F8BD8D
:100520000005005070B5084C050009D01034216852
:10053000002907D008682060496828468847F6E700
:100540000834F4E770BD00006022002082688388D0
:100550001A4003689A5C0A708168491C8160704780
:10056000C26883881A4003689954C168491CC160F5
:1005700070470000F0B50021012408460F46184AD4
:10058000240303E0002001E0052803D20B031D181B
:1005900057551BE0052809D0851F102D14D2114D89
:1005A0002D18203D2D7F1E1895550FE0002905D0F0
:1005B000012906D0FE265D1D565507E07E255571A2
:1005C00004E06E25084EEFE71D185155401C80B21F
:1005D000A042D9D3491C89B20229D3D3F0BD00006F
:1005E000440100200C00002005100000F0B4144667
:1005F0000022094E094D04E01718F75DAF54521C54
:1006000092B28A42F8D3002C04D0A446F0BC1A4619
:1006100002486047F0BC704744010020442100209C
:1006200010B50446E0B2FFF701FF0028FAD12046DA
:1006300010BD00001048018CC9B2012917D1818C6E
:10064000090714D1018D09060A0F03D1828D120604
:10065000120F0ED0090F012903D1828D1206120F3D
:1006600007D0032903D1808D0006000F01D00020A0
:100670007047012070470000C00F00F00268134669
:1006800002E08A4204D01268002AFAD10B600160AD
:10069000704700008AB000F067F8002801D0FFF72B
:1006A0001BFE002000F080F82149224A03C9009077
:1006B0001F4801916946083000F0E4F8002801D095
:1006C000FFF70AFE1A48083000F0D0F8184918223F
:1006D00010316846FFF71AFD174806900120079071
:1006E00016480890FF20013009900323144A06A9F8
:1006F0006846FFF743FE002801D0FFF7EDFDFFF746
:1007000039FF0D4C0025641E60790028FCD00128BB
:1007100002D0022807D009E000221146104600F05E
:1007200007FC657102E007A0FFF7A2FD6571EBE72A
:10073000981000007D0C0000010000204400002003
:10074000090D00006E616D653A594F47412C69648F
:100750003A310D0A000000000121890740180068A5
:10076000002800D00120704770B50C4C002520787F
:10077000002801D085250FE00021A1606160216182
:10078000E160074800680126304002D1032100F0F3
:100790003DF8044886612670284670BD602200201E
:1007A00000E100E00005004070B5154C0546A0785A
:1007B000002808D0002D02D0696801208847002059
:1007C000FFF754FE15E00020FFF750FE002D04D087
:1007D0000B4829461030FFF751FFE068002808D188
:1007E0000849086008490220486006490120FC3990
:1007F0000860E068401CE0600020FFF73BFE70BD31
:100800006022002004010040000300408207D30E54
:10081000FF229A408907090E10B5994000280BDA8B
:1008200003071B0F083B9C080C4BA400E318DC6972
:1008300094430C43DC6107E08408094BA400E418EE
:10084000236893430B432360C106C90E01208840EF
:10085000044908600449086010BD000000ED00E094
:1008600000E400E080E200E000E100E00168012235
:100870000A604079022142008018014A11547047F1
:100880002400002070B50D460446002A0DD0607982
:10089000164980000A506079144E41004018361FF6
:1008A000305C002803D0082070BD072070BD0420F4
:1008B000A9782056FFF7AAFF05222168120228888E
:1008C00089188860617928794A00891889194870DF
:1008D0006179E8784A00891889198870617901205E
:1008E0004A0089187054002070BD000028000020C4
:1008F000F7B5044682B0FF20413000900125032067
:1009000089002D04002700022618019116E0706866
:1009100028420DD000982058002809D0B564B56051
:10092000009800212150184A0199F8B2515888477F
:1009300000986D00001D80B27F1C009004988742D3
:10094000E5D3FF2071680130C907C90F09D02158CC
:10095000002906D0002121500B4901980958042094
:100960008847FF200530726802210A4209D02158C9
:10097000002906D00021215003490198095805207B
:10098000884705B0F0BD000028000020F8B50646F5
:100990000F4600791C2148431A4915464418E07E49
:1009A000002801D00820F8BD39463046FFF778FD11
:1009B00065603869206028460025002813D0FF2292
:1009C0003068397F1D328550FF22306845328550AE
:1009D000032330681B020C4AC01842603068000BC9
:1009E00040B2FFF713FF052230680421120280187D
:1009F0000160E5752576A5750121E1762846A57685
:100A0000F8BD00004422002080000200F8B5037900
:100A10001C246343134C81251C190327666800239B
:100A2000AD003F02002E02D00668F619B560E67DE3
:100A3000002E0ED0237E002B07D06168002902D043
:100A40000068C01945601120F8BD2161012322769C
:100A500004E0E2750025E1606576257600F01AF87D
:100A6000F8BD00004422002070B5044600791C2126
:100A7000074D48434019807E002808D1204600F0E9
:100A80001BF920791C22012150434019817670BD49
:100A900044220020F8B5044600791C214843264929
:100AA0004518A87E184302D1204600F005F9686871
:100AB000002808D0812103222068890012028018B2
:100AC00041600020F8BDFF204530216800220A5017
:100AD000FF212531206800F0C4F80646FF210931C6
:100AE000206800F0BEF80090FF214531206800F03A
:100AF000B8F80746009838433043E9D030463843C9
:100B000007D12946206800F0BAF8E87D697E88425E
:100B1000DED80020E875002E01D00320F8BD002F9C
:100B200001D00F20F8BDA97E01200029216801D045
:100B30000860C6E74860C4E74422002070B5054657
:100B40000C4600791C21484308494318284600F008
:100B500055F8002801D0112070BD9A7500209C60C6
:100B60009882284600F004F870BD0000442200205E
:100B7000F8B5044600791C2148431F490026451852
:100B8000FF2720681D37C651206801218160294652
:100B9000206800F09EF86968002913D027E0FF273D
:100BA0000137FF211D31206800F05BF8002802D1D9
:100BB000A88AB842F5D1A88AB84203D0294620684D
:100BC00000F087F8A88AA97D8842E8D3A98AC81FBF
:100BD000F9380ED0FF271D373946206800F041F85C
:100BE0000028F9D020680121C1600020A875304696
:100BF000F8BD0F26F9E700004422002000791C21EF
:100C0000484303494018807D002800D001207047E8
:100C10004422002070B552000A439900049D0A4303
:100C20002902059E0A43310405240A432407800053
:100C30000721001909024018026070BD1CB500228E
:100C40000B46009211460192FFF7E4FF1CBD1CB554
:100C5000002100910B46012201911146FFF7DAFFB6
:100C60001CBD4058002800D001207047032212020A
:100C700080184068084000D001207047704730B5A8
:100C8000FF220523CD7D002409321B02C318002D4D
:100C90008450986905D04B7ECA68D054487E401C69
:100CA000487630BD1FB501246B461C701972019245
:100CB00006C8684690471FBDFF2325330268002100
:100CC000D150FF2302680933D1500068012101602F
:100CD0007047FF221D32002383508B8A8A68D25CC2
:100CE0008B8A5B1C8B82052109024018C261704708
:100CF0001FB500226B461A701972816801918275C6
:100D000006C8684690471FBD10B50078002812D16C
:100D10000A48FFF717FB09490878532807D04528E8
:100D200007D0472808D0592805D1032002E0012028
:100D300000E00020487110BD0220FBE70000002009
:100D40007CB50178264D002934D001290CD0022928
:100D50002DD16A461170C068691C01900122C81D1E
:100D6000FFF754FE684630E0406801781D48FFF701
:100D7000DCFA01261B4C002803D069460E70019056
:100D800006E0A068E168814205D00020694608704D
:100D9000084669688847A068E168081AA1888842FF
:100DA00006D80F490122491CC81DFFF72FFE7CBD44
:100DB000AE707CBD0B480A491030FFF799FA002845
:100DC00006D00320694608706846696888477CBD7C
:100DD0000349012208460830FFF7B0FE7CBD000041
:100DE0002C00002074220020F0B50C46012185B0B3
:100DF00005464902FFF73AFF032109026F18002652
:100E0000002826D0FF2125312846FFF72AFF002899
:100E10001FD0FF2025302E5081208000B860A07E9A
:100E2000002801D101206860022168460170092074
:100E3000C0012918086808600390E17D68460172C6
:100E4000E0680190E675267606CC6846083C904737
:100E50002DE004212846FFF709FF002827D0FF21B5
:100E600009312846FFF7FDFE002820D021462846FC
:100E7000FFF705FFE07D617E884218D1207E0028C3
:100E800007D0617EE268E0752069E06026766676CC
:100E90000AE0A07E002801D1012068608120800046
:100EA000B860E675617EE2682046FFF7FBFEFF272B
:100EB0001D3739462846FFF7D4FE00280FD0A08AF8
:100EC000A17D884204D221462846FFF702FF06E0B2
:100ED000EE51A17D002902D02046FFF709FFFF2730
:100EE000453739462846FFF7BCFE00280ED0EE51A4
:100EF000A07E002801D001202860E07D002805D0D8
:100F0000E675617EE2682046FFF7CCFE05B0F0BDD5
:100F100070B50E460546002406E0285DFFF786FA08
:100F20000028FAD1641CA4B2B442F6D370BD00000C
:100F3000F0B50D4603462843002601274F4C87B0E5
:100F4000002803D1A660E7707E20A070A06805216C
:100F50000205120D002A12D0052A22D0002B1ED025
:100F600029461846FFF7D4FFE088401B0004000C18
:100F7000E0804DD0A0684019A060277173E0A2788E
:100F80006E2A05D0084300233D4A1121A0603CE0B1
:100F90003CA00068009001216846FFF7B9FF07B048
:100FA000F0BD1A7BD87A12020243E280364F1878DD
:100FB000A070BA42ECD87E2803D0FE2801D06E285B
:100FC000E6D1E278002A02D0FE2802D1E0E77E28AE
:100FD000DED0002A00D0E670684601702A46194625
:100FE000401CFFF793F86D1CA9B26846FFF790FF0D
:100FF000A068FF21000B00031630A060E2880131D9
:101000008A4200D8114600231D4AFFF7EFFAC6E7CF
:101010001E497D201E4A0968000100BF00BF00BFB5
:1010200000BF00BF00BF00BF00BF914200D000BFA3
:101030000138F2D160790328B1D0A0680121000BFA
:101040000003090340181349A060884208D9A6602C
:1010500026710CA00068009001216846FFF758FF38
:10106000207900289BD0E188FF200130814200D9FF
:1010700001460023024AA068C7E7000000000020E4
:10108000310F0000FF000000EA0F000020000020E8
:101090000024F400FF1F00000000034100000000D6
:1010A00000100140110104000B00000009000000C5
:1010B0000B0000000A0000000000000000D0BE0E7F
:1010C000FFFFFFFFFFFFFFFFFFFFFFFFFFFFFFFF30
:1010D000000000000000000000E0D7010300000055
:1010E0000011000000000020440000008402000005
:1010F0004411000044000020542A00009402000023
:10110000000000000100000000000000057EB0E3C8
:10111000D647650100003201EA0FFFFFFFFF000024
:101120000024F400000000000000000000000000A7
:10113000000000000020004000000000000000004F
:0411400000000000AB
:04000005000000C136
:00000001FF
