:020000040000FA
:10000000E0250020150400001D0400001F0400006E
:10001000210400002304000025040000000000006B
:1000200000000000000000000000000027040000A5
:1000300029040000000000002B0400002D04000033
:100040002F0400002F040000D10900002F0400003D
:100050002F0400002F0400002F0400009D05000065
:10006000850900002F0400002F0400002F04000069
:100070002F0400002F0400002F0400002F040000B4
:100080002F040000790500002F0400002F04000059
:10009000E50600002F0400002F0400002F040000DC
:1000A0002F0400002F0400002F0400002F04000084
:1000B0002F0400002F0400000000000000000000DA
:1000C0002F0400002F0400002F0400002F04000064
:1000D0002F0400002F0400002F0400000000000087
:1000E0000000000000000000000000000000000010
:1000F0000000000000000000000000000000000000
:1001000000000000000000000000000000000000EF
:1001100000000000000000000000000000000000DF
:10040000DFF80CD000F066F8004800474112000009
:10041000E02500200648804706480047FEE7FEE743
:10042000FEE7FEE7FEE7FEE7FEE7FEE7FEE7FEE7A4
:10043000E906000001040000004870478425000020
:1004400040EA01039B0703D009E008C9121F08C056
:10045000042AFAD203E011F8013B00F8013B521ED6
:10046000F9D27047421C10F8011B0029FBD1801AF9
:1004700070472DE9F05F0546002092469B4688466E
:100480000646814640241BE0284641464746224610
:1004900000F041F853465A46C01A914110D3114614
:1004A0001846224600F028F82D1A67EB01084F463F
:1004B00022460120002100F01FF817EB00094E41F1
:1004C000201EA4F10104DFDC484631462A4643469B
:1004D000BDE8F09F064C074D06E0E06840F00103E0
:1004E00094E8070098471034AC42F6D3FFF78CFF2E
:1004F00094250000B4250000202A04DB203A00FAED
:1005000002F1002070479140C2F1200320FA03F36A
:10051000194390407047202A04DB203A21FA02F068
:100520000021704721FA02F3D040C2F1200291402D
:1005300008431946704700F01F020121914040090D
:10054000800000F1E020C0F88012704700F01F0228
:10055000012191404009800000F1E020C0F8001125
:10056000704700F01F02012191404009800000F116
:10057000E020C0F80012704707480021C0F8401181
:10058000C0F84411C0F84811C0F84C11C0F800116F
:10059000C0F8041101F000BE001001402DE9FE4337
:1005A0004FF48278404601F049FC4C4F00254C4CFA
:1005B000012600B3404601F049FC94F82E0010B12A
:1005C00094F82F10D1B18DF8005061680191218904
:1005D000ADF80810E26832B1218B6183626021813D
:1005E000E56010B102E0257400E03E6021686846D5
:1005F000884784F82F5094F82E0060B34FF480772A
:10060000384601F01BFC30B3384601F01FFC628B0A
:1006100094F82D108A420AD9A2EB010080B26083BF
:100620002289A2EB0000626802EB400005E007D1DE
:10063000E06828B184F82F60658301F0B9FB04E01D
:100640008A4202D184F82F606583404601F0FEFBA8
:100650002248001D06604FF48877384601F0EEFB13
:1006600048B1384601F0F2FB257402208DF80000F5
:100670002168684688474FF48A77384601F0DEFBE8
:1006800028B1384601F0E2FB2574BDE8FE834FF047
:1006900000484FF48C7967691DE000BFB7FA87F016
:1006A00028FA00F109EB80058F43284601F0C6FBCC
:1006B00088B1284601F0CAFBA5F58C75E8088DF8CD
:1006C000040045F38000401C8DF800608DF80500A3
:1006D000216868468847002FE0D1D6E700700040C7
:1006E0006800002001F0F4BCF0B598480023021D1A
:1006F00001780125101D4FF08056062907D1147886
:10070000240704D10478C4F30314032C02D006296F
:1007100004D00FE08F4F8E4C7C670EE014782407D6
:1007200008D10478C4F30314032C06D0042C04D09D
:10073000052C02D0062907D00EE0D6F84442864F99
:10074000C4F342343C6002E01478240704D10478F6
:10075000C4F30314032C02D0062906D011E07F4C09
:10076000276827F0807727600EE01478240708D1E7
:100770000478C4F30314032C06D0042C04D0052CF5
:1007800002D006290AD011E04FF08044C4F80C31A1
:10079000C4F81031704C241F236002E01478240741
:1007A00004D10478C4F30314032C02D0062905D025
:1007B0000CE0694F032464373C600AE01478240796
:1007C00004D10478C4F30314032C02D006290DD0FD
:1007D00014E0634F05243C60614C78342560604C24
:1007E000083423603F243F1D3C6002E01478240756
:1007F00004D10478C4F30314052C02D0062957D081
:1008000068E058490968584A11605649091D096845
:10081000121D1160534908310968121D11605149B8
:100820000C310968121D11604E4910310968121D02
:1008300011604C4914310968121D11604949183181
:100840000968494A2032116046491C310968121D65
:100850001160444920310968121D11604149243159
:100860000968121D11603F4928310968121D116085
:100870003C492C310968121D11603A493031096830
:10088000394A40321160374934310968121D11600C
:10089000344938310968121D116032493C31096808
:1008A000121D11602F4940310968121D116002E0CC
:1008B000117809070ED10078C0F30310032803D084
:1008C000042801D0052805D1D6F85802274900F0A0
:1008D0004F00086021487438016841F470010160DC
:1008E000BFF34F8FBFF36F8F4FF01021D1F800028D
:1008F000002803DBD1F80402002822DA1C4A156024
:100900001C480468002CFCD01524C1F8004205687E
:10091000002DFCD0C1F8044201680029FCD013600E
:1009200001680029FCD0BFF34F8F0C48F0380168F4
:10093000114A01F4E06111430160BFF34F8F00BF22
:10094000FDE70F490D480860F0BD0000E00F00F022
:100950000DF0ADBA00C007403C050040FCED00E0E2
:10096000105600400404001020C50040E40E004072
:1009700004E5014000E401400400FA050090D003C2
:10098000500000202DE9F84300250F4C04274FF4B8
:10099000A078BE034FEA050908EB850006FA05F1C9
:1009A00022585AB1D4F804230A4207D044F80090E0
:1009B0002158064A00915168126890476D1CEDB2AB
:1009C000BD42E9D3BDE8F8830080004098000020D4
:1009D0000448017F04480029024901D001F0E5BC28
:1009E00001F054BCA4000020002000400FB41CB54E
:1009F0000246002007AC00290BD0491ECDE900219A
:100A0000054B6A462146069800F018F8009A002126
:100A100011701CBC5DF814FB9F0E000002E008C8BA
:100A2000121F08C1002AFAD170477047002001E068
:100A300001C1121F002AFBD1704700002DE9FF4FB2
:100A40008DB00F460546002606E025280BD0DDE9CF
:100A50000F1290476D1C761C28780028F5D111B034
:100A60003046BDE8F08F0024A246A1460122EC49A1
:100A700000E0044315F8013F203B02FA03F008426E
:100A8000F7D128782A2810D06FF02F022878A0F10B
:100A90003001092914D80AEB8A0102EB410144F024
:100AA000020400EB010A6D1CF0E701CF5FEA000AC7
:100AB00003D544F40054CAF1000A44F002046D1C4A
:100AC00028782E2817D115F8010F44F004042A289D
:100AD0000ED06FF02F022878A0F1300109290AD832
:100AE00009EB890102EB410100EB01096D1CF2E702
:100AF00057F8049B6D1C28786C280FD006DC4C2816
:100B000017D068280DD06A2814D104E0742810D0BA
:100B10007A280FD10DE044F400140AE044F4801464
:100B200001E044F440146978814202D104F5801454
:100B30006D1C6D1C2A786E2A1FD00CDC632A31D004
:100B400004DC002A8BD0582A11D1A3E0642A68D093
:100B5000692A0CD165E0732A2ED004DC6F2A73D089
:100B6000702A04D19BE0752A6FD0782A6ED0104687
:100B7000DDE90F129047761C50E1C4F302500228C1
:100B800006D0032809D0042801CF09D0066045E12A
:100B900001CFF117C0E9006140E101CF06803DE1DE
:100BA00006703BE117F8040B8DF8000000208DF86B
:100BB0000100EB46012003E057F804BB4FF0FF3083
:100BC00061074FF0000102D40DE008F101018846F1
:100BD00049450FDA8045F8DB1BF808100029F4D1ED
:100BE00008E008F1010188468142FADB1BF8081091
:100BF0000029F6D1DDE90F23AAEB08008146214642
:100C000000F036F9304400EB080604E0DDE90F128D
:100C10001BF8010B9047B8F10108F7D2214648466E
:100C2000F7E00A21C4F302534FF0000B0891022BA6
:100C300004D001CFC117032B09D00AE0FF1D27F014
:100C40000707F7E8020108E032E01FE020E000B209
:100C5000C117042B01D140B2C117031E71F100036B
:100C600007DA4FF0000CD0EB0C006CEB01012D23E8
:100C700002E0230504D52B238DF82430012303E063
:100C8000E30701D02023F7E7984658E00A2110E057
:100C900010210EE010204FF0000B08900CE0102106
:100CA0004FF0000B44F004044FF00809089103E0F2
:100CB00008214FF0000B0891C4F30253022B04D01B
:100CC00001CF0021032B06D006E0FF1D27F0070708
:100CD000F7E8020103E080B2042B00D1C0B24FF06C
:100CE000000823072BD5702A07D0DDF820C08CF030
:100CF000100C5CEA0B0C05D00EE040238DF824307C
:100D0000012308E050EA010306D030238DF8243097
:100D10008DF8252002239846DDF820C08CF0080CC1
:100D20005CEA0B0C0BD150EA010301D1630706D535
:100D300030238DF824304FF00108A9F10109582A19
:100D400004D038A20B9208AA0A920BE03AA2F9E763
:100D50005B46089AFFF78DFB0B9B9B5C0A9A521E21
:100D60000A92137050EA0102F2D10A98ADEB00002A
:100D700000F1200B600702D524F4803401E04FF02D
:100D80000109D94502DDA9EB0B0000E0002000EBD2
:100D90000B0141440890AAEB010AE00306D4DDE907
:100DA0000F232146504600F063F806444FF0000937
:100DB00008E009A911F80900DDE90F12904709F1CF
:100DC0000109761CC145F4DBE0030CD5DDE90F23F6
:100DD0002146504600F04CF8064404E0DDE90F12CD
:100DE00030209047761C0899481E08900029F5DCB1
:100DF00008E00A980A990078491C0A91DDE90F1267
:100E00009047761CBBF10001ABF1010BF1DC2146F0
:100E10005046DDE90F2300F019F806446D1C1BE66F
:100E200009280100303132333435363738396162C0
:100E30006364656600000000303132333435363784
:100E40003839414243444546000000002DE9F04155
:100E5000044600251E461746880404D405E039469A
:100E60002020B0476D1C641EF9D52846BDE8F081EE
:100E70002DE9F041044600251E469046C80301D5E1
:100E8000302700E02027880404D505E04146384695
:100E9000B0476D1C641EF9D52846BDE8F0814A684C
:100EA000002A06D00A68531C0B6010704868401E68
:100EB000486070470BA1012000F020FF00F078FE91
:100EC00000F07AFE0028FBD1BFF34F8F0B4801687A
:100ED0000B4A01F4E06111430160BFF34F8F00BF83
:100EE000FDE700004150505F4552524F523A455283
:100EF000524F523A466174616C0D0A000CED00E0ED
:100F00000400FA050EB500210091CDE901106A46F2
:100F100044F20100FFF7CEFF0EBD00F003B800F071
:100F200009B8000072B602480168491C01607047A8
:100F30003800002003490868401E086000D162B6EE
:100F40007047000038000020002901DA00207047B7
:100F500002681144016001207047000070B5461C12
:100F60000D4601240020FFF7D8FF114A10682860C1
:100F7000D2E900109568081A2B1A701C5B1C984265
:100F80000FD963B10B480C4B294000681B6802EB7A
:100F9000810163F39F20C8601068401C106000242A
:100FA00001E0881910600020FFF7B9FF204670BDEE
:100FB000C4010020DC2400004C000020034803C8CA
:100FC000814201D10120704700207047C4010020F8
:100FD0002DE9F05F26484168F1B3DFF898B00E685C
:100FE0008146DBF8004087688078E11B21F07F456F
:100FF000ED1CB0B9DFF880804FF48030C8F84403AE
:10100000C8F804031120FFF796FA1120FFF79EFAA3
:101010004FF0010AC8F800A02F2000F049F989F824
:1010200002A0B54200D23546124BE8193C3320F0FD
:101030007F401860DBF800105A46091B21F07F4101
:10104000001B20F07F40C91C81420FD91068186036
:101050002F2000F02DF900E004E0BDE8F05F112042
:10106000FFF77FBABDE8F05F00F052BFBDE8F09F28
:101070001800002004150140001001400E4910B571
:101080000A784C780023A24212D0521CD2B20A70C5
:10109000022A00D10B70084A0B78183252F823202C
:1010A00002608868104420F07F408860012010BDF5
:1010B0000360002010BD00001800002001218140C5
:1010C00003484068014201D001207047002070476A
:1010D0001000002001218140080300D0012070474A
:1010E0002DE9F043264CA4F110092278D9F80480A8
:1010F00099F80350404694F801C0D9F8086031E0EF
:1011000002EB42036168521C01EBC301A378D2B227
:10111000934200D100220B78022B02D0032B21D165
:101120001DE003464F68194603E0B94203D00B4661
:10113000C969B9B1F9E7A9B18B4205D1C06918B93C
:10114000104E0125B56000260F68C969D96149B103
:101150000B683B440B6005E00174C06900E00021AE
:101160000028F9D19445CBD1C9E9010689F803508B
:10117000404502D00120BDE8F0830020FBE70000DD
:1011800028000020001001402DE9F0412A4F0446BC
:10119000002607F11005D7F804803EE002D0204673
:1011A000E4691DE02878696800EB4002401CC0B289
:1011B00001EBC2012870AA78904200D12E700A7803
:1011C0004868012A2BD1027C4ABB8A684260CA68FF
:1011D00082600A69C26049698161F97801B146603B
:1011E0004368BA68DFF854C0991A21F07F4161451D
:1011F00002D28268114406E0D11A826821F07F4150
:101200008A4202D9511A016000E00660466001215D
:1012100086600174C66100F0A1FF002CBED1287861
:1012200069788842BED17968414502D00120BDE885
:10123000F0810020FBE7000018000020FFFF7F0086
:10124000002000F089FD08B1FFF75CFE002000F0EF
:10125000A7F808B1FFF756FE002000F08FFD08B197
:10126000FFF750FE08A1032000F048FD00F094FEB7
:1012700000F0CAFE00F0BAFE00F088FD00F09CFC11
:101280000028FBD1F8E700004150503A494E464F44
:101290003A53414144432048414C2073696D706C7E
:1012A00065206578616D706C652E0D0A0000000088
:1012B00000283ED01F49204A096800BF00BF00BF78
:1012C00000BF00BF00BF00BF00BF91422FD000BFD2
:1012D00000BF00BF00BF00BF00BF00BF00BF00BF16
:1012E00000BF00BF00BF00BF00BF00BF00BF00BF06
:1012F00000BF00BF00BF00BF00BF00BF00BF00BFF6
:1013000000BF00BF00BF00BF00BF00BF00BF00BFE5
:1013100000BF00BF00BF00BF00BF00BF00BF00BFD5
:1013200000BF00BF00BF00BF00BF00BF00BF01384B
:10133000C3D17047500000200024F40000F01F02C9
:10134000012191404009800000F1E020C0F88011A7
:1013500070474907090E002806DA00F00F0202F173
:10136000E02282F8141D03E000F1E02282F800146C
:1013700000F01F02012191404009800000F1E020AF
:10138000C0F88012C0F800117047000B40B27047DF
:101390000121B1EB507F01D101207047002070473F
:1013A00070B50D4C217809B1852070BD00B90B488E
:1013B0000B49007800F0010008604FF0E020D0F801
:1013C0000001012510F0010F03D107210020FFF7D4
:1013D000C0FF2570002070BD04000020B52400006F
:1013E000780500402DE9F0470427144E814600247B
:1013F0004FF001080020FFF790FD08FA04F5354290
:1014000003D02046FFF75AFE58B10020FFF787FDB2
:1014100027B104F10104AE43E4B2EBD13846BDE894
:10142000F087074908FA04F000274A68104348602B
:1014300089F800403846FFF772FDEFE7FFFF0F0025
:10144000100000202DE9F04114460D00074612D08F
:101450008CB10026FFF73EFE78B13846FFF72EFE2E
:1014600068B1084800EBC700C0F81055C0F8144533
:101470003046BDE8F0810E20FBE70726F8E7082696
:10148000F6E7000000F0014070B504460126002593
:10149000A640FFF71FFE18B12046FFF70FFE18B158
:1014A00002480660284670BD0825FBE704F50140A8
:1014B0000448017809B1852070470121017000209E
:1014C00070470000100000202DE9F041254C064631
:1014D00012200D46C4F808032348017C022918D0C5
:1014E000027C01464FF4807891F82E10012A12D028
:1014F0000222C4F8042301270774466005810022F4
:10150000C26021B3458390F82D10304600F050FCA6
:1015100025E0122002E0C2682AB10220C4F80403C8
:101520001120BDE8F081C660058361B947463846A1
:1015300000F084FC0028FAD0384600F087FC2946E9
:10154000304600F035FC0220C4F8040307E02946C9
:10155000304600F02DFC404600F078FC276000206B
:10156000DFE70000007000406800002070B50F4AFF
:1015700005460C46107C08B1112070BD02EB4501F8
:10158000087F18B912F82D0F401C1070E079087709
:10159000207A48772146284600F012FC227AE17929
:1015A000284600F041FC002070BD000068000020CB
:1015B0002DE9F0411C4C054694F82C0010B1082090
:1015C000BDE8F08109B115B102E00720F8E7174D39
:1015D00044F8101B164928780860091D68780860CF
:1015E000E878A07701272777002020706077606077
:1015F000104EE0776FF00040C6F808034FF4827099
:1016000000F024FCA9780720FFF7A3FE0220C6F80B
:101610000403A07F10B10120C6F804030448F03889
:1016200007600020CCE7000068000020B62400001E
:10163000F075004000700040044890F82E0008B19A
:10164000002000E0042002490844704768000020A0
:101650000070004030B54FF4803405688C4013B101
:10166000C5F8044301E0C5F80843006800EB8100B9
:10167000C0F8402530BD0000016801220A600079F1
:10168000034A00EB400002EB800002210172704728
:1016900098000020F0B40468049E40F20115D4F8CC
:1016A00000728D40AF43C4F800720468D4F8005251
:1016B0001D43C4F800523346F0BCFFF7CBBF000017
:1016C000F8B504460D460079204900EB400001EBD7
:1016D0008006307A08B10820F8BD3AB132606868F7
:1016E0007060002003464FF4A07709E00720F8BDA2
:1016F000226807EB800153505158401CC0B2009142
:1017000061798142F4D82068E978000B40B2FFF794
:1017100020FE20686978D0F8042561F30102C0F842
:1017200004252068A978D0F8082561F30102C0F8E3
:10173000082520682978D0F8102561F30302C0F845
:101740001025012030720020F8BD00009800002014
:101750002DE9F047054600793F4E904606EB4014D0
:101760000F46207F18B10846FFF712FE30B1284619
:1017700000F074F820B11120BDE8F0871020FBE7DD
:1017800084F81680A7600027A78228794FF0010807
:1017900006EB40143E46207F0028286825D04FF4F1
:1017A0009079494600F072FB4FF4AC7A51462868B4
:1017B00000F06CFB2868A17DA268C0F84425C0F841
:1017C00048152868C0F808806068F0B9494628685C
:1017D00000F057FB80465146286800F052FB58EA5B
:1017E0000001F3D058BBA7750FE04FF48E7A514635
:1017F00000F03BFB2868C0F808802146286800F00C
:1018000027FD61684FF4807089B13046B4E75146D6
:10181000286800F025FB10B9A08A4845F7D1A08AB6
:10182000484505D02146286800F012FD00E08146B9
:10183000A08AA17D8842EAD3A08A484501D10F261B
:10184000D1E75146286800F00BFB0028F9D0286842
:10185000C0F80C80C7E70000A4000020007904490C
:1018600001EB4010807D002800D00120704700006F
:10187000A400002070B5044600791149002601EB50
:10188000401520682A7FC0F80065686888B1207913
:1018900001EB4010007F0028206801D0094901E0D9
:1018A00008498C39C0F808132068FFF76EFDFFF770
:1018B00045FD204600F0F0FAEE766E6070BD000047
:1018C000A40000201003020070B541EA4201DDE9E6
:1018D00004564FF0A04441EA830141EA052104EB9C
:1018E000800041EA0641C0F8001770BD1CB5002118
:1018F00000910B4601220191FFF7E6FF1CBD00009D
:10190000004870476519000030B5144D044689B091
:10191000287828B16878844202D1002009B030BD0F
:1019200020220F496846FEF78BFD00208DF8140039
:1019300006200090082001900520039007200290C7
:101940004FF0EB7006900548001DFFF793FF0EB1B6
:101950003046E3E7012028706C70DEE7400000208D
:10196000BC2400002DE9F04FC1B00D004FF0000184
:1019700040914D984B991C46174601EB000B01D046
:101980000A2000E00020804600F084FB00287CD183
:101990006E46BCB9409840AA3118284600F03EFC7B
:1019A000002872D03846FEF75DFDC22800D9C2205B
:1019B000054640982A4630443946FEF741FD409896
:1019C000284440904FF0200A409901EB0802313240
:1019D0000DEB01050DEB0206002002E005F801AB5E
:1019E000401C4045FAD300275C4508D305F801ABFD
:1019F00005F801AB05F801AB06F801AB2DE04B98FB
:101A0000844202D24A98005D02E0211A4C98405C60
:101A10002B46814602460121880022FA00F000F0A0
:101A20000F00092801D9373000E03030C1F1010C36
:101A3000491E03F80C00EFD29D1C05F801ABFEF720
:101A4000FBFC016811F8090010F03E0F01D0484678
:101A500000E02E2006F8010B641C7F1C102FC3D35E
:101A60000D2030700A20707085F800A040996846FB
:101A700041444331409100F013FB30B100F00AFBC8
:101A800018B9002040905C459ED341B02046BDE887
:101A9000F08F2DE9F043C7B000251C4690468946DB
:101AA0004E9F459500F0F6FA00287AD1459805AE8C
:101AB000311845AA484600F0B1FB002835D0072F61
:101AC00027D2DFE807F004121B35424F5D00404685
:101AD000FEF7C8FC054645982918FF2919D8304457
:101AE0002A464146FEF7ACFC13E045982368C0F552
:101AF000807130444246FEF779FF09E0606800904B
:101B000045982368C0F5807130444246FEF76EFF69
:101B10000546294645A8FFF717FA459978B3B1F568
:101B2000807F3ED805A800F0BBFA47B0BDE8F0833F
:101B3000D4E90101CDE9000145982368C0F5807121
:101B400030444246FEF752FFE2E7201D07C88DE809
:101B5000070045982368C0F5807130444246FEF77F
:101B600045FFD5E7201D0FC88DE80F004598236875
:101B7000C0F5807130444246FEF738FFC8E710E0F8
:101B800004F1080001AD0FC885E80F0060680090FF
:101B900045982368C0F5807130444246FEF726FF21
:101BA000B6E70020C1E7000000487047931A000024
:101BB0000120FFF7A9BE00002DE9F04F87B0FFF725
:101BC000FDF918B1002007B0BDE8F08F454ED6E909
:101BD000014704EA070006EB8000A146641CC568C3
:101BE0000CE000BFC5F3891000EB9550044404EAF3
:101BF000070006EB8000A146C568641CA807F1D069
:101C000005F003004FF0000B022805D0AA0A01A836
:101C1000C5F38313002153E004EA070006EB8000BC
:101C200004F1010A0AEA0704C268381B80004FEA7F
:101C30009558001DC5F38913804521D929490C31D8
:101C400038B106EB840400F0FF0CA8EB00000C3464
:101C500004E00C46002108F0FF0C0846C0B2CDE9B4
:101C60000210CDE9004CD6F81444C5F3C200594621
:101C7000A047404511D108F103080AEB98042AE077
:101C8000002106EB84000C300090CDE90181039126
:101C9000C5F3C200D6F81444EAE760F38F1509EAE9
:101CA000070006EB8000C56016E000BF04EA070CE1
:101CB00006EB8C0C491CDCF80CC040F804CB641C0F
:101CC0009942F3D3C5F3C2000093D6F8105401AB88
:101CD0005946A84700B17460FFF770F980F0010021
:101CE00071E70000C4010020034AFF239360002332
:101CF0001360536000F028B8C40100202DE9F843B8
:101D00000F4F88460446002569462846BE68FFF7FF
:101D100025F9002812D00B480021406861F38200A9
:101D2000009964F3C50001EA060265F3891007EB28
:101D3000820268F39F20491CD0600091BDE8F883BF
:101D4000C4010020DC240000024A02F5826203C2C2
:101D500070470000C401002070B506460020FFF760
:101D6000D3FD040008D1FFF7CBFD0546FFF71CFFAC
:101D700032462946FFF7B8FF204670BD02480021D1
:101D800041708170084670473C000020F1EE100A57
:101D900020F09F00E1EE100ABFF35F8F034940205F
:101DA000C1F8800220BF40BF20BF704704E000E0C0
:101DB000024A1060101D0160704700002C76004040
:101DC00010B50A784B78302402F0030204EA0313BA
:101DD0001A438B784FF4E06404EA03231A43CB7868
:101DE0004FF4805404EA03331A430B794FF4E02490
:101DF00004EA03431A434B794FF4801404EA035373
:101E00001A438B79240104EA03631A43030105484A
:101E10001844C0F81825CA79097AC0F81415C0F812
:101E2000102510BD00700040030103481844C0F89D
:101E30001425C0F810157047007000400249405842
:101E4000002800D00120704700700040034908B509
:101E50000844002202600068009008BD0070004045
:101E60004058002800D00120704708B50022425099
:101E70004058009008BDD0F80403084000D001206D
:101E800070474058002800D00120704708B5002254
:101E900042504058009008BD70B5034600791B4978
:101EA00001EB40101968027F4FF0FF30002AD1F893
:101EB0000C25D1F81465D1F80855D1F8104504D097
:101EC000C1F80C05C1F8140503E0C1F81405C1F808
:101ED0000C051968C1F80805C1F81005501C02D09E
:101EE0001046FFF703FD701C02D03046FFF7FEFCE2
:101EF000601C02D02046FFF7F9FC681C04D028467D
:101F0000BDE87040FFF7F2BC70BD0000A4000020E7
:101F100070B5012670044FF0E0210025C1F8800162
:101F2000084C4010C4F84803C4F8080366602F202A
:101F3000FFF7BEF9A660044C2F20A560FFF7B8F9A3
:101F4000A57070BD001001401800002070B5054656
:101F5000C87D0C4600284FF4847128460AD0FFF74C
:101F600084FFD5F81805627EE1688854607E401CC5
:101F7000607670BDFFF779FFD5F8180570BD1FB505
:101F800001238DF800308DF808100192D0E900127D
:101F9000684690471FBD70470EB5114A07CA8DE8C5
:101FA000070010490020FFF703FB08B1FEF7AAFF66
:101FB00069460020FFF7DAFA08B1FEF7A3FF052112
:101FC0000948FFF781FA08B1FEF79CFF0648052192
:101FD0000A30FFF779FA002801D0FEF793FF0EBD13
:101FE000AC240000971F000054000020054810B5E5
:101FF0000078FFF749FA002803D0BDE81040FEF74B
:1020000081BF10BD000000203EB5FFF751FA08B1B6
:10201000FEF778FF1B491C4AD1E90201CDE9010115
:1020200003208DF8060001A91648FFF749FB08B107
:10203000FEF768FF134C2068D0F81005134A0123FF
:10204000C2400020014600902046FFF723FB2046B7
:10205000FFF712FB246804F5A074FFF7EDFA0546BC
:102060000B48FFF7BFF908B1FEF74CFF08482A46B6
:1020700021460078FFF7E6F9002801D0FEF742FF7D
:102080003EBD00009C240000CD20000000A861009F
:10209000000000200148FFF7E1BB000044000020E1
:1020A00070B50D460A46014601240648FEF7C8F9F8
:1020B000EAB204490448FFF74BFB00B10024204674
:1020C00070BD0000C40000204400002070470000E4
:1020D0002DE9F84F204C00256846D4E901B6FEF7FB
:1020E000CDFF8046FEF7FCFF0746A946B8F1000F7A
:1020F00025D00023009ACC46606819E007680146A5
:10210000974202D9BA1A026014E0C1F800C0D1F8AF
:102110000C80D21BC8693B448A46B8F1000F07D037
:10212000F71827F07F47C1E90178CAF81C500D461F
:102130000028E3D160602846FFF726F804E028462F
:10214000FFF722F800B917B15846FEF741FF84F8AF
:102150000390BDE8F88F0000180000200D4B10B56B
:10216000596831B102680C68A24204D8A21A0A6008
:10217000C161586010BD0B4603E00B46C969121BD4
:1021800021B10C689442F8D3A41A0C600260C161BA
:10219000D86110BD180000202DE9F0411D4D6C687C
:1021A000002C35D01C4800270068A968B846401AA2
:1021B00020F07F462068B04215D82246361A0744E0
:1021C000E469107C68B182F81080EB6833B1D2E921
:1021D0000501984728B1FEF795FE02E0D2E9051007
:1021E0008847002CE6D129786878814206D1401CC6
:1021F000C0B26870022801D185F80180054869786D
:10220000183040F82170BDE8F0411420FEF7A9B95C
:10221000BDE8F081180000200415014010B51446F7
:1022200002004FF001000CD00846136806A24FF4DC
:102230008071FEF7DBFB01462046BDE81040FEF74B
:1022400083BE0021216010BD5B253038645D000035
:1022500070B50C4605464FF48E71FFF706FEA18A55
:10226000A068415CA08A401CA082C5F81C1570BD06
:102270001FB500228DF800208DF8081081680191AB
:102280008275D0E90012684690471FBD2DE9FF47CF
:102290000C4605464FF40071FFF7EDFD01274FF4A2
:1022A0000178002618B34FF4927949462846FFF783
:1022B000D7FDE0B149462846FFF7D7FDC5F80883AA
:1022C000A07E00B96F6002208DF80000D5F8800470
:1022D000C5F880040390E07D8DF80800E068019067
:1022E000E6752676D4E900126846904727E0042177
:1022F0002846FFF7C0FD10B34FF484712846FFF75E
:10230000AFFDE0B121462846FFF720FEE07D617E6B
:10231000884214D1207E38B1617EE268E075206980
:10232000E0602676667607E0A07E00B96F60C5F8AB
:102330000883E675617EE2682046FFF720FE4FF4D1
:102340008E7841462846FFF78BFD88B1A08AA17D93
:10235000884204D221462846FFF77AFF08E041462A
:102360002846FFF782FDA17D11B12046FFF780FFCF
:102370004FF4A27841462846FFF772FD002812D09C
:1023800041462846FFF771FDA07E00B12F60E07D39
:10239000002808D0E675617EE26804B02046BDE8FA
:1023A000F047FFF7ECBDBDE8FF872DE9FF410C4684
:1023B0004FF4927705463946FFF763FD0026C0B11A
:1023C00039462846FFF762FD02208DF80000D5F857
:1023D0008004C5F880040390D5F83C058DF808000A
:1023E000E0680190E6752676D4E9001268469047C9
:1023F00024E04FF4887739462846FFF742FDE8B1DC
:1024000039462846FFF742FDD5F83C05C1B2E07DCC
:10241000884213D1207E60B1E268D5F8000220F036
:102420002000C5F80002207EE0752069E060267675
:1024300001E0E675E2682046FFF7A1FD4FF4A277C0
:1024400039462846FFF71DFD68B139462846FFF793
:102450001DFDE07D38B1E675D5F83C05E268C1B2F6
:102460002046FFF78CFD4FF4907631462846FFF763
:1024700008FD00280FD031462846FFF707FDA07D54
:10248000002808D0D5F84C0504B0C1B22046BDE8FC
:10249000F041FFF7EDBEBDE8FF8100000080004085
:1024A0000004000000000007000000000000000021
:1024B000020000010001010007000000FFFFFFFF14
:1024C000FFFFFFFFFFFFFFFFFFFFFFFF0000000018
:1024D000000000000000D6010701000029000000F4
:1024E00001000000010000000100000001000000E8
:1024F00001000000010000000100000002000000D7
:102500000040404040404040404041414141414006
:1025100040404040404040404040404040404040BB
:10252000400502020202020202020202020202024A
:10253000022020202020202020202002020202024F
:1025400002029090909090901010101010101010A7
:1025500010101010101010101010101002020202B3
:1025600002028888888888880808080808080808F7
:1025700008080808080808080808080802020202F3
:1025800040000000012500004F766572666C6F7791
:102590000D0A0000B42500000000002054000000D7
:1025A0001C0A000008260000540000208C250000B2
:1025B0002C0A0000000000000000000000000000E5
:1025C000000000000000000000000000000000000B
:1025D00000000000000000000000000000000000FB
:1025E00000000000000000000000000000000000EB
:1025F000000000000000000000200040000000007B
:08260000882500000090D003C2
:0400000500000401F2
:00000001FF
