:020000040000FA
:10000000580A0020D5000000EF000000F1000000B9
:1000100000000000000000000000000000000000E0
:10002000000000000000000000000000F3000000DD
:100030000000000000000000F5000000F7000000D4
:10004000F9000000F9000000F5010000F9000000CF
:10005000F900000000000000F9000000F9000000B5
:10006000F9000000F9000000F9000000F9000000AC
:10007000F9000000F9000000F9000000F90000009C
:10008000F9000000F9000000F9000000F90000008C
:10009000F9000000F9000000F9000000F90000007C
:1000A000F9000000F900000000000000000000005E
:1000B0000000000000000000000000000000000040
:1000C0000348854600F034F8004800475505000015
:1000D000580A00200321094802680A4302600848C0
:1000E00002680A4302600748804707480047FEE766
:1000F000FEE7FEE7FEE7FEE7FEE70000240500401E
:100100005405004055010000C100000003460B43A8
:100110009B0703D009E008C9121F08C0042AFAD2BD
:1001200003E00B780370401C491C521EF9D2704743
:10013000064C0125064E05E0E36807CC2B430C3C3A
:1001400098471034B442F7D3FFF7BEFF1C0C0000F1
:100150003C0C000010B500F0D9F9002805D01F496B
:100160001D484860C8131E4988611E48018CC9B2E9
:1001700001290BD1828C120708D1028D1206120FB1
:10018000042A03D1828D1206120F0AD0012921D12F
:10019000818C09071ED1018D0906090F0A2904D097
:1001A00007E0114A01219160F5E7828D1206120FD6
:1001B00005D00D290ED1808D0006000F0AD10B4805
:1001C0000168012904D00A49016001680129FCD1B4
:1001D000C021416110BD0000DFFF07C000050040E5
:1001E000006C0040C00F00F00006004000EC06402C
:1001F0007593000010B50249024800F05BFC10BD89
:10020000180200200020004010B5024A024900F008
:1002100014F810BDFD0400001400002002E008C81E
:10022000121F08C1002AFAD170477047002001E070
:1002300001C1121F002AFBD17047F8B516460F46C0
:100240000446002503E03946B047641C6D1C207845
:100250000028F8D12846F8BDBFF34F8F0349024864
:10026000C860BFF34F8FFEE70400FA0500ED00E021
:100270000EB50021029000916A4601910148FFF7F6
:10028000EBFF0EBD0140000010B58268C3689342C9
:1002900003D000F020F9002010BD052010BD00297A
:1002A00006D0002A02D0531E134203D00920704703
:1002B0000E2070470160838000218160C160084684
:1002C000704710B58268C3689A1A83889A4203D827
:1002D00000F00BF9002010BD042010BD70B50B4DCF
:1002E0000146AE780A48FFF7CFFF0446002E0AD039
:1002F0000020A870691C0122C81D00F0DFF9002849
:1003000001D0FFF7B5FF204670BD000004000020BB
:1003100034020020F0B5274E89B01F460D00044678
:1003200072601CD0A888296882B22348FFF7B7FF03
:10033000002815D1A889A96882B21F481030FFF79C
:10034000AEFF00280CD120221C496846FFF7DEFED4
:1003500060690690207C002804D0012103E007207A
:1003600009B0F0BD0021684601750777607C002860
:1003700000D00E2069464875E0680290A06803909E
:1003800020680190606800900A480D4A083000F02B
:1003900055F90028E4D1B0702068401CE0D0054831
:1003A000083000F0B9F903490122491CC81D00F0CA
:1003B00085F9D5E70400002034020020FC0B000082
:1003C0000D0A000010B501460C48FFF77AFF040043
:1003D00012D10B4800F06AFA00280DD108490748ED
:1003E0000839FFF751FF002806D1054901220839D5
:1003F000034800F0FBF90446204610BD44020020EB
:100400000C000020F8B5074608680C460526411C7C
:1004100001253602002906D029468140194881600D
:10042000206800F080FA6068411C02D0002100F0D2
:1004300071FA3968A06989194862607D217D3A683E
:1004400008439119C866386806CC80194261C160BA
:10045000207B083C012814D1A068411C02D0002157
:1004600000F058FAE068411C05D0854005488560D9
:10047000E06800F058FA3A68E1689219A068916063
:100480001061F8BD0005005010B50349085C01215A
:1004900000F054FA10BD0000F40B00007CB50024FD
:1004A000074E2546305D0122009500231146019537
:1004B00000F008FA641C042CF4D300F003F87CBDAF
:1004C000F40B000010B500242046FFF7DDFF641C8C
:1004D000042CF9D310BD826883881A4003689A5CA3
:1004E0000A708168491C81607047C26883881A401D
:1004F00003689954C168491CC160704710B504462F
:10050000C0B2FFF75FFF204610BD00001048018C0D
:10051000C9B2012917D1818C090714D1018D0906AF
:100520000A0F03D1828D1206120F0ED0090F012976
:1005300003D1828D1206120F07D0032903D1808DBB
:100540000006000F01D00020704701207047000016
:10055000C00F00F08AB0FFF7A1FF182216496846C5
:10056000FFF7D4FDFF210131144806904018079190
:10057000099108900323124A06A96846FFF7CAFEAC
:10058000002801D0FFF774FE0EA0FFF73DFE06A87D
:10059000FFF7A4FE0028FAD16846007EFFF712FF9D
:1005A0000028F9D16846007E712801D05128EED18B
:1005B00007A0FFF729FEFEE7DC0B00001800002073
:1005C000F90900000D0A53746172743A200D0A0093
:1005D000200D0A45786974210D0A00008207D30EA8
:1005E000FF229A408907090E10B5994000280BDABE
:1005F00003071B0F083B9C080C4BA400E318DC69A5
:1006000094430C43DC6107E08408094BA400E41820
:10061000236893430B432360C106C90E0120884021
:10062000044908600449086010BD000000ED00E0C6
:1006300000E400E080E200E000E100E0F8B50646FA
:100640000F4600791C2148431A4915464418E07E9C
:10065000002801D00820F8BD39463046FFF7D2FE09
:1006600065603869206028460025002813D0FF22E5
:100670003068397F1D328550FF2230684532855001
:10068000032330681B020C4AC01842603068000B1C
:1006900040B2FFF7A3FF0522306804211202801840
:1006A0000160E5752576A5750121E1762846A576D8
:1006B000F8BD00001802002080000200F8B50379A0
:1006C0001C246343134C81251C19032766680023EF
:1006D000AD003F02002E02D00668F619B560E67D37
:1006E000002E0ED0237E002B07D06168002902D097
:1006F0000068C01945601120F8BD216101232276F0
:1007000004E0E2750025E1606576257600F01AF8D0
:10071000F8BD00001802002070B5044600791C21C5
:10072000074D48434019807E002808D1204600F03C
:100730003BF920791C22012150434019817670BD7C
:1007400018020020F8B5044600791C2148432649C8
:100750004518A87E184302D1204600F025F96868A4
:10076000002808D081210322206889001202801805
:1007700041600020F8BDFF204530216800220A506A
:10078000FF212531206800F0E5F80646FF210931F8
:10079000206800F0DFF80090FF214531206800F06C
:1007A000D9F80746009838433043E9D030463843FB
:1007B00007D12946206800F0DAF8E87D697E884292
:1007C000DED80020E875002E01D00320F8BD002FF0
:1007D00001D00F20F8BDA97E01200029216801D099
:1007E0000860C6E74860C4E71802002070B50546F7
:1007F0000C4600791C21484308494318284600F05C
:1008000055F8002801D0112070BD9A7500209C6019
:100810009882284600F004F870BD000018020020FD
:10082000F8B5044600791C2148431F4900264518A5
:10083000FF2720681D37C6512068012181602946A5
:10084000206800F0BEF86968002913D027E0FF2770
:100850000137FF211D31206800F07CF8002802D10B
:10086000A88AB842F5D1A88AB84203D029462068A0
:1008700000F0A7F8A88AA97D8842E8D3A98AC81FF2
:10088000F9380ED0FF271D373946206800F062F88E
:100890000028F9D020680121C1600020A8753046E9
:1008A000F8BD0F26F9E700001802002000791C218E
:1008B000484303494018807D002800D0012070473C
:1008C0001802002070B552000A439900049D0A43A3
:1008D0002902059E0A43310405240A4324078000A7
:1008E0000721001909024018026070BD70B552005E
:1008F0000A439900049D0A432902059E0A433104D4
:1009000005240A4324078000072100190902401822
:10091000026070BD1CB500220B4600921146019288
:10092000FFF7E4FF1CBD1CB5002100910B4601221E
:1009300001911146FFF7DAFF1CBD00000122824041
:100940000348002901D082607047C26070470000F0
:10095000000500504058002800D0012070470322B5
:10096000120280184068084000D00120704730B55E
:10097000FF220523CD7D002409321B02C318002D60
:100980008450986905D04B7ECA68D054487E401C7C
:10099000487630BD1FB501246B461C701972019258
:1009A00006C8684690471FBDFF2325330268002113
:1009B000D150FF2302680933D15000680121016042
:1009C0007047FF221D32002383508B8A8A68D25CD5
:1009D0008B8A5B1C8B82052109024018C26170471B
:1009E0001FB500226B461A701972816801918275D9
:1009F00006C8684690471FBD10B50178022901D08E
:100A0000012902D14068FFF733FC10BD7CB50178A5
:100A1000264D002934D001290CD002292DD16A4657
:100A20001170C068691C01900122C81DFFF746FEC5
:100A3000684630E0406801781D48FFF742FC012617
:100A40001B4C002803D069460E70019006E0A06898
:100A5000E168814205D0002069460870084669684F
:100A60008847A068E168081AA188884206D80F491B
:100A70000122491CC81DFFF721FE7CBDAE707CBD64
:100A80000B480A491030FFF7FFFB002806D003206F
:100A9000694608706846696888477CBD0349012239
:100AA00008460830FFF7A2FE7CBD000004000020CD
:100AB00034020020F0B50C46012185B005464902FC
:100AC000FFF74DFF032109026F180026002826D0EA
:100AD000FF2125312846FFF73DFF00281FD0FF20CA
:100AE00025302E5081208000B860A07E002801D1E2
:100AF000012068600221684601700920C0012918A0
:100B0000086808600390E17D68460172E068019022
:100B1000E675267606CC6846083C90472DE0042111
:100B20002846FFF71CFF002827D0FF21093128465F
:100B3000FFF710FF002820D021462846FFF717FFB7
:100B4000E07D617E884218D1207E002807D0617E3A
:100B5000E268E0752069E060267666760AE0A07EAD
:100B6000002801D10120686081208000B860E6750E
:100B7000617EE2682046FFF70DFFFF271D373946EB
:100B80002846FFF7E7FE00280FD0A08AA17D884203
:100B900004D221462846FFF714FF06E0EE51A17D5E
:100BA000002902D02046FFF71BFFFF2745373946B3
:100BB0002846FFF7CFFE00280ED0EE51A07E002879
:100BC00001D001202860E07D002805D0E675617E17
:100BD000E2682046FFF7DEFE05B0F0BD0B00000026
:100BE00009000000080000000A00000001000000E9
:100BF00000E0D7011213141811121314FFFFFFFFA6
:100C0000FFFFFFFFFFFFFFFFFFFFFFFF00000000F0
:100C10000000000000E0D701030000003C0C0000D1
:100C200000000020180000001C020000540C00000E
:100C300018000020400A00002C0200000024F400EC
:100C40000000000000000000002000400000000044
:040C500000000000A0
:04000005000000C136
:00000001FF
