:020000040001F9
:10B00000603F0020D5B00100EFB00100F1B00100B9
:10B010000000000000000000000000000000000030
:10B02000000000000000000000000000F3B001007C
:10B030000000000000000000F5B00100F7B00100C2
:10B040009DB30100F9B0010075B70100F9B001002E
:10B05000F9B0010000000000E1B10100F9B0010009
:10B06000F9B0010031B70100F9B00100F9B00100F9
:10B07000F9B00100F9B00100F9B00100F9B0010028
:10B0800089B70100F1B30100F9B00100F9B0010086
:10B0900069B60100F9B0010071B60100F9B0010014
:10B0A000F9B00100F9B0010000000000000000004C
:10B0B0000000000000000000000000000000000090
:10B0C0000348854600F07AF8004800471DD3010088
:10B0D000603F00200321094802680A4302600848D3
:10B0E00002680A4302600748804707480047FEE7B6
:10B0F000FEE7FEE7FEE7FEE7FEE70000240500406E
:10B100005405004091B60100C1B0010030B50B46B6
:10B11000014600202022012409E00D46D5409D4231
:10B1200005D31D469540491B2546954040191546B7
:10B13000521E002DF1DC30BD70B5002425460028DC
:10B1400001DA01244042002901DA01254942FFF7D2
:10B15000DDFFAC4200D04042002C00D0494270BD1F
:10B1600003460B439B0703D009E008C9121F08C020
:10B17000042AFAD203E00B780370401C491C521ECB
:10B18000F9D27047D2B201E00270401C491EFBD2D6
:10B1900070470022F6E710B513460A4604461946E2
:10B1A000FFF7F0FF204610BD03460A780270401CEE
:10B1B000491C002AF9D1184670470000064C0125A9
:10B1C000064E05E0E36807CC2B430C3C984710344F
:10B1D000B442F7D3FFF778FFB8ED0100D8ED0100D6
:10B1E000F0B50024FF268BB00136012527460694D2
:10B1F000304602F0A7FE002807D054484068284295
:10B2000003D0304602F096FE2C43361D6D007F1CA5
:10B21000B6B2042FECD3FF257D35284602F092FE0E
:10B22000002809D0284602F085FE6807044306AAD4
:10B230000121002002F06AFE454D200714D00127AD
:10B24000002627420CD04348B2001118086909694A
:10B25000C004C00E8903AA58890F002A00D0904765
:10B260007F00761C042EECD3002C6DDA00200890B1
:10B27000401E63E0281940300778B906890E009116
:10B2800000214156491C49D009A9009802F009FA49
:10B29000002843D0B8090190009801F03FFD8000DC
:10B2A0002F580198002F02D0032802D00DE0032868
:10B2B00034D1009808ABC20841079446985C490F06
:10B2C00001228A40104362469854009805210907DC
:10B2D00080004018072109024018006806A9800371
:10B2E000800F0290009802F0DCF90028029802D04A
:10B2F000022802D012E0032810D10198032808D1B7
:10B30000029802281ED00221009802F0D5FD761C7A
:10B31000F6B2002F02D001990098B847641C042CA3
:10B32000A8D3002E10D06A460121002002F0EEFDC5
:10B3300006990098884207D006900898002634465F
:10B34000099097E70321DFE70BB0F0BD00630040F1
:10B3500080350020006500408307FF22DB0E9A4005
:10B360008907090E994000280BDA0007000F0838FA
:10B37000830808489B001818C36993430B43C361B3
:10B380007047830804489B001B18186890430843C3
:10B390001860704700ED00E000E400E0F8B5FF2021
:10B3A000013002F086F9002401250E4E0E4F0028D0
:10B3B00007D00E4804600120B0607D70002001F0CD
:10B3C000B5FCFF20053002F074F9002808D00748CA
:10B3D000001D04600220B060BD70012001F0A6FCD9
:10B3E000F8BD0000000300406C3500200001004063
:10B3F00010B506490020086048608860C8600349AD
:10B4000040390860486003F043F910BD4011014025
:10B4100010B503480078002801D100F0C9F910BD2B
:10B42000E8360020F8B506460C48144600780D466C
:10B43000002801D100F0BCF9002368460093037096
:10B4400000F048FE22462946304600F009F804463E
:10B450006846007800F05CFE2046F8BDE836002023
:10B4600070B50E4618214843134914464518E86A3A
:10B470001835002804D001280FD0022805D113E088
:10B48000284600F0C9F9A04201D2002411E022466A
:10B490003146284600F0EBFA0BE0284600F0BCF9F4
:10B4A000A042F4D20446F2E73146284600F0AFFA53
:10B4B0000446204670BD0000E83600200FB408B5F1
:10B4C00004A900916A46039900F004F801B008BC91
:10B4D00004B01847F7B598B007A80290402000259F
:10B4E0000495039018980C46059506902178641CE5
:10B4F000002977D0252907D002A800F069FA05981D
:10B500000028F3DA1BB0F0BD012200210227134608
:10B510000826207823281BD02B2816D02D2802D0CF
:10B52000302806D101E0194300E03943641C002AA9
:10B53000EFD1002220780346303B0A2B0AD20A239F
:10B540005A431218303A641CF4E704200143EDE733
:10B550003143EBE70023C7B22E2F0AD1641C2078B9
:10B560000746303F0A2F04D20A277B431B18303B83
:10B57000F4E76C280DD068280BD0702852D00BDC73
:10B5800025285AD058282ED063280CD0642858D1AA
:10B5900010E02078641CECE7732832D0752817D0AF
:10B5A00078284ED11FE01A981A9A0068011D116080
:10B5B000017843E01A981A9F0068061D3E600068F3
:10B5C0000191009201460A2202A800F030F938E009
:10B5D0001A981A9F0068061D3E600068009201914B
:10B5E0000A2209E02FE01A981A9F0068061D3E60A3
:10B5F0000068009201911022014602A800F07CF937
:10B600001FE01A981A9A0068011D116006683178C7
:10B61000761C002915D002A800F0DAF90598002858
:10B62000F5DA0EE01A981A9A00680823011D1160D5
:10B630000168102200960195DFE7252102A800F09D
:10B64000C7F9641C5BE70598002800DC5AE70498FA
:10B65000002804D0024607A91898FFF7E3FE0499D2
:10B660000598401805904DE710B502F083FF10BD16
:10B6700010B506484068002805D08047002801D052
:10B6800000F0B6FB10BD01F017FD10BDD420002066
:10B6900010B501F05FFD002805D01F491D48486026
:10B6A000C8131E4988611E48018CC9B201290BD1FB
:10B6B000828C120708D1028D1206120F042A03D1C0
:10B6C000828D1206120F0AD0012921D1818C09071F
:10B6D0001ED1018D0906090F0A2904D007E0114A7D
:10B6E00001219160F5E7828D1206120F05D00D2918
:10B6F0000ED1808D0006000F0AD10B480168012988
:10B7000004D00A49016001680129FCD1C0214161CE
:10B7100010BD0000DFFF07C000050040006C0040C6
:10B72000C00F00F00006004000EC064075930000DA
:10B73000F8B50E4C04270025BE03A8003146A940E9
:10B74000FF3041302258002A0BD003221202A218E7
:10B7500052680A4205D000212150054A51681268FA
:10B7600090476D1CEDB2BD42E7D3F8BD009000409C
:10B77000E435002010B50249024803F0ADF810BDD1
:10B78000C83500200020004006484068C107C90FA6
:10B790000020002904D0044908600448406800479C
:10B7A00070470000000301400001014078200020A4
:10B7B00010B5124C02202061606111A0A0612046EA
:10B7C0005038E061402020620020A06260620CA13D
:10B7D000A1642146E0621039E16410212165A06571
:10B7E0006065E06509A1E01DFFF7DEFC08A12046C9
:10B7F000FFF7DAFC2020A07110BD0000E836002021
:10B800005465726D696E616C000000005254540002
:10B8100053454747455200000269C1688A4203D830
:10B820008068401A801800E0501A401E7047FFB52B
:10B8300083B00E4670420D9F0C9C0090002900DBE7
:10B840000846012502E0FFF777FC6D1C0599884248
:10B85000F9DA0698A84200D90546002C04D0002E3B
:10B8600001DB780700D5641EB80702D506980028CA
:10B8700010D0F8070ED1002C0CD0A5420AD22021FE
:10B88000641E039800F0A4F80398C0680028F2DA58
:10B8900007B0F0BD0398C0680028F9DB002E02DA7B
:10B8A0002D21009E02E0780707D52B21039800F098
:10B8B0008FF80398C0680028EADBB807800F0228D9
:10B8C00010D1069800280DD1002C0BD0A54209D22A
:10B8D0003021641E039800F07BF80398C0680028AC
:10B8E000F2DAD5E7019700943146069B059A039852
:10B8F00000F002F8CCE70000FFB581B001261F463A
:10B9000034460A9D029802E0FFF700FC641C03998C
:10B910008842F9D2A74200D93C460B98C00718D1FB
:10B92000002D16D00B98800701D5002F02D02020C3
:10B9300000900CE03020FBE76D1E0099019800F0AC
:10B9400047F80198C06800283DDB002D01D0AC42CB
:10B95000F2D30198C068002835DB012F01D97F1E82
:10B9600006E031460298FFF7D1FB0399884202D3E3
:10B9700003984643F1E7154F31460298FFF7C6FB9F
:10B980000146029A7143511A0291395C019800F004
:10B990001FF80198C068002805DB30460399FFF7BF
:10B9A000B5FB0600E8D10B98C0070CD0002D0AD0DB
:10B9B000AC4208D220216D1E019800F009F80198D0
:10B9C000C0680028F2DA05B0F0BD0000A8ED010063
:10B9D00010B5044680686368421C934205D323680F
:10B9E0001954A260E068401CE060A268606882426E
:10B9F00009D121682069FFF715FDA168884203D0AD
:10BA00000020C043E06010BD0020A06010BDF7B56D
:10BA1000064682B000200090F46817463069A042C4
:10BA200001D9051B02E0B168201A0D1AB0686D1E1D
:10BA3000001BA84200D80546BD4200D33D467068B1
:10BA40002A4600190399FFF78BFB00987F1B4019CA
:10BA500000900398641940190390B068A04200D187
:10BA60000024F460002FD9D1009805B0F0BDF7B5DF
:10BA7000C668174604468068851B6068BD4206D9C3
:10BA800080190199FFF76CFBF019E060FEBD2A46B2
:10BA900080190199FFF764FB01987E1B411932461A
:10BAA0006068FFF75DFBE660FEBD30B47446641E5F
:10BAB0002578641CAB4200D21D46635D5B00E31831
:10BAC00030BC184702E008C8121F08C1002AFAD18A
:10BAD00070477047002001E001C1121F002AFBD10E
:10BAE00070470000202804DA012181400348014208
:10BAF00001D001207047002070470000FC06FFBC09
:10BB0000F7B584B0064600251788158020300290CE
:10BB1000407B1446002806D03A462146059800F09E
:10BB200071FD050009D1B078002823D0059886461C
:10BB30002088001DB84202D90C2007B0F0BD68462D
:10BB400079DF0028F9D121880320724650542088DB
:10BB50001921401C80B22080115420887146401C5D
:10BB600080B2208041186846008802F0F3FF2188E7
:10BB700040182080F078002817D0218803230A4637
:10BB8000F356C91C0598B942D6D8022181542188A0
:10BB90000122491C89B2218042542188491C89B262
:10BBA000218043542088401C20807068002817D0D2
:10BBB00021880023C3560A46C91C0598B942BBD840
:10BBC0000221815421880A22491C89B221804254D1
:10BBD0002188491C89B2218043542088401C208040
:10BBE000308900280AD000943046019706220221AD
:10BBF0000830059B02F0FCFF05009ED1308A00282A
:10BC00000AD0009430460197072203211030059B8B
:10BC100002F0EEFF050090D1308B00280AD000948E
:10BC200030460197152214211830059B02F0E0FFE1
:10BC3000050082D1306A002806D03B46224605998D
:10BC400001F0DCF80500D8D1706A002806D03B4628
:10BC50002246059901F0A2FC0500CED10298007B96
:10BC6000002807D03B4622463046059902F02EFBBD
:10BC70000500C2D13078002807D03B462246304626
:10BC8000059901F0BFFC0500B7D1284655E7000033
:10BC9000174A0021535C002B01D0012203E0491C0C
:10BCA0000629F7D300221349012806D002280BD019
:10BCB000032810D0042818D112E04878002803D0B7
:10BCC000002A01D0012070478878002803D0002A7C
:10BCD00001D002207047C878002801D003207047A7
:10BCE0000879002801D00420704700207047000028
:10BCF0004D2000208433002010B5012202210020B5
:10BD000000F08EFE002801D0072812D10722022160
:10BD1000012000F085FE002801D0072809D100216C
:10BD20000A22084600F07CFE002801D0072800D136
:10BD3000002010BD10B5022000F028FD10BD00004D
:10BD400070B50024064D06E06968E000085C01213A
:10BD500001F044FD641C28788442F5D3002070BDB6
:10BD600084200020F8B515460C460646052A01D267
:10BD70000720F8BD01F00AFE002803D101F0D8FD2C
:10BD80000028F6D1104900204E600C70C8608D600C
:10BD900008610E4D0DE0E00069688019009181781E
:10BDA0006A46517000780A4A694601F063FD00282E
:10BDB000DFD12046641EE4B20028ECD1054A002100
:10BDC000024800F04BF8F8BD8420002080ED01000F
:10BDD00069D00100F5CE0100BFF34F8F034902483F
:10BDE000C860BFF34F8FFEE70400FA0500ED00E0E6
:10BDF0000EB50021029000916A4601910148FFF7BB
:10BE0000EBFF0EBD0140000010B58268C36893428D
:10BE100003D001F0BFF8002010BD052010BD00299F
:10BE200006D0002A02D0531E134203D009207047C7
:10BE30000E2070470160838000218160C160084648
:10BE4000704710B58268C3689A1A83889A4203D8EB
:10BE500001F0AAF8002010BD042010BD094B5B685A
:10BE6000002B07D0002A07D0002805D00068037CEB
:10BE7000002B03D0082070470720704741744261AF
:10BE800000207047A8200020FFB507469007002536
:10BE900081B01E461446002825D1002C23D002F084
:10BEA00037F93046114EF06030461030057045705D
:10BEB0000299817044607560357001240C4875707A
:10BEC0002405046003211420FFF746FA09480460A2
:10BED000094CA76003211120FFF73EFA6068B060AB
:10BEE000002005B0F0BD0720FBE7000098200020EF
:10BEF00080E200E000E100E000150140FEB51F4BCC
:10BF00005B68002B30D000282ED0052901D20720F5
:10BF1000FEBD4369002B27D0437C012B26D0002790
:10BF2000029104460025694616460D70684600F0E9
:10BF3000D1F801A802F046FE002819D001210170B5
:10BF40000F49446049688160029907614661C16098
:10BF500068460A49007948706846007800F0D8F8C9
:10BF600002F04AFB2846FEBD0820FEBD0F46D7E77B
:10BF700068460425007800F0CBF8F3E7A8200020FD
:10BF80000015014010B50849496800290AD0002869
:10BF900008D04169002905D000210174022102F076
:10BFA00053FB10BD082010BDA820002070B50B4D1C
:10BFB0000146AE780A48FFF727FF0446002E0AD054
:10BFC0000020A870691C0122C81D01F0B1FD0028E5
:10BFD00001D0FFF70DFF204670BD0000B820002003
:10BFE00010360020F0B5274E89B01F460D000446DC
:10BFF00072601CD0A888296882B22348FFF70FFF1F
:10C00000002815D1A889A96882B21F481030FFF70F
:10C0100006FF00280CD120221C496846FFF7A0F833
:10C0200060690690207C002804D0012103E00720ED
:10C0300009B0F0BD0021684601750777607C0028D3
:10C0400000D00E2069464875E0680290A068039011
:10C0500020680190606800900A480D4A083001F09D
:10C0600027FD0028E4D1B0702068401CE0D00548CE
:10C07000083001F08BFD03490122491CC81D01F065
:10C0800057FDD5E7B82000201036002088ED0100CC
:10C0900031E8010010B501460C48FFF7D2FE04005C
:10C0A00012D10B4801F03CFE00280DD10849074889
:10C0B0000839FFF7A9FE002806D1054901220839F1
:10C0C000034801F0CDFD0446204610BD2036002077
:10C0D000C020002030B5EFF3108172B6094A5468D1
:10C0E0000123002C04D00370002900D162B630BDBA
:10C0F0005360054B1D68054C254015601C600022EF
:10C100000270F1E7CC20002080E100E0FC06FFBCDB
:10C1100008494A68002A0CD000280AD1EFF31080A1
:10C1200072B60A68044B1A6000224A60002800D1E7
:10C1300062B67047CC20002000E100E0F8B5074669
:10C1400008680C460526411C01253602002906D048
:10C150002946814019488160206801F092FE60689C
:10C16000411C02D0002101F083FE3968A0698919C1
:10C170004862607D217D3A6808439119C866386835
:10C1800006CC80194261C160207B083C012814D193
:10C19000A068411C02D0002101F06AFEE068411C49
:10C1A00005D0854005488560E06801F06AFE3A6880
:10C1B000E1689219A06891601061F8BD0005005017
:10C1C000F0B50C4693B01F216A4611800726002760
:10C1D0009180002809D0C17849070DD502A9FFF741
:10C1E0008FFC002809D102AD01E000251780002C4A
:10C1F0000ED0E078002802D0304613B0F0BD01AA7E
:10C200000AA92046FFF77CFC0028F6D10AAA02E022
:10C2100068460022878068468088C3B268460088E6
:10C22000C1B2284672DFE8E7FFB581B01E460A9F1B
:10C230001346040047D0002B45D0504D01202870F4
:10C240000020E870202219464D48FEF789FF0020A3
:10C250006F61C0432E612881284607211830FEF700
:10C2600098FF47483C212030FEF793FF444821784F
:10C2700020300170A1788170E178C17061784170DF
:10C280003F4A656923695563114613632031E368AA
:10C29000A268CB608A603A49E369A269CB638A638A
:10C2A000616A00291AD001463C3102464832416297
:10C2B0008A60636A1B880B80616A436A89889980F7
:10C2C0000021436A07E00E2005B0F0BD656AAD6845
:10C2D0006D5C5554491C9D888D42F7D8A16A002990
:10C2E0001CD0274A943211460C398A608162A36AB5
:10C2F0009B888B80A16A836A098819800021836AE0
:10C3000004E0A56AAD686D5C5554491C9D888D425A
:10C31000F7D82C210A5D1A4940310A73216A002995
:10C3200009D016490A310162226A52884A80216A7C
:10C33000026A098811806168002900D04160104AB2
:10C340000E490020B3322031C3001B1A85009B1810
:10C350000C68401C63510828F6DB094A0020EB32C8
:10C36000030185009B188C68401C63510828F7DB8B
:10C37000034802992030FFF723FFA5E7342000206F
:10C380008433002010B50188134C102915D01129D1
:10C3900019D01B2910D1007A00280DD1E078052191
:10C3A000401CFEF7B3FE084600F036F8002803D024
:10C3B0006169002900D0884710BD817D0129FBD12A
:10C3C0008088208110BD0021617180882189884288
:10C3D000F8D10120E8E700003420002010B574DF18
:10C3E0000B4C012060710B490620C87000210948E0
:10C3F000FFF7E6FE002809D1E07800F00DF80028EC
:10C4000003D06169002900D08847002010BD0000DA
:10C4100034200020A4330020F1B53F4C88B02078B0
:10C4200000280AD00898E07006A800F011FE0698CF
:10C430000125002804D065706AE0082009B0F0BD2D
:10C440003548002707211830FEF7A3FE334E7078D9
:10C45000002802D0E078012807D0B07800280CD05E
:10C46000E078012801D0022807D12169002903D0F2
:10C4700025710820884700E027710898FFF708FC1D
:10C48000E0702169002909D0032801D0042805D1D2
:10C490003078002802D06079002811D0A7711821C7
:10C4A0006846FEF776FE684607700772E1781A481C
:10C4B0000B001830FFF7F9FA052E080F191D2000A0
:10C4C000A57107208847EAE7A570019068460570C6
:10C4D0004782078213E00221A1700190684605702F
:10C4E000B18941823189018209E0684601F036FF55
:10C4F00002E0684601F05EFFE078002803D068465D
:10C5000073DF00289AD12169002901D0A0788847DB
:10C51000002093E7A770F6E7342000208433002042
:10C5200070B5054601461C220E48FEF719FE0E4C5A
:10C53000002626702968002906D00822201DFEF753
:10C540000FFE201D7ADF02E00748001D7BDF002878
:10C5500007D1401E60806670044A00210448FFF73E
:10C560007DFC70BD503500206420002061EB01008F
:10C570005CED0100F8B5214C0146028800261E48FA
:10C58000E589102A13D01E4F112A1FD0122A2BD052
:10C59000502A1AD1881DC988A94216D14189022979
:10C5A00013D10C3000F0D4F800280CD112E08A88A6
:10C5B00004464280104808220C301831FEF7D0FDA6
:10C5C0006670002D01D100F061FCF8BD0021C94367
:10C5D000418046703868FFF7D5FC0028F5D0A16986
:10C5E0000029F2D08847F8BD034808220C300831F2
:10C5F000FEF7B6FDE7E7000064200020503500207C
:10C600005CED01007CB5054608880C460930904277
:10C6100001D90C207CBD684671DF0028FAD1218841
:10C620000820685420881B21401C80B22080295497
:10C63000208800A9401C80B22080401906220131C8
:10C64000FEF78EFD20886946801D80B22080097823
:10C65000002900D0012129542088401C208000207E
:10C660007CBD000010B50446FFF784FF2146064854
:10C6700000F040F8204601F0B5FC2046FFF782FEAE
:10C68000204600F00FF910BDFC21002030B5184BFA
:10C690000D4604000FCB85B003936B4607C324D02F
:10C6A000002D22D00020C043A0822868A061002075
:10C6B000A0752146684663DF002814D121786846BA
:10C6C000817401210182A21C04A90120A0DF00289D
:10C6D00009D12946204601F050FD002803D1294602
:10C6E000204602F024F805B030BD0E20FBE7000024
:10C6F00060ED010010B500281BD0002919D00A8870
:10C70000102A17D0112A17D0502A12D104468A1D98
:10C71000C888238A1231984202D15389022B0FD044
:10C72000A388984205D1A369002B02D052892046E4
:10C73000984710BD898801E00021C943818210BD5E
:10C74000084600F005F8002800D00120A07510BDB3
:10C750004178027808021043C007C00F70470000FC
:10C760000149085C704700002AED01000549095C99
:10C7700005480069C840C007C00F00D00120012152
:10C78000484070472AED01000005005005490B5C48
:10C7900005494A6801209840034693438B60104046
:10C7A000C860704728ED01000005005010B503492E
:10C7B000085C012101F09EFB10BD000028ED010086
:10C7C00010B50349085C002101F094FB10BD000086
:10C7D00028ED01000549095C05484068C840C007CC
:10C7E000C00F00D0012001214840704728ED010012
:10C7F000000500507CB50024074E2546305D01221F
:10C80000009500231146019501F0F6FA641C022CF4
:10C81000F4D300F003F87CBD28ED010010B500242E
:10C820002046FFF7C3FF641C022CF9D310BD10B5DE
:10C8300000242046FFF7C4FF641C022CF9D310BD6E
:10C840000246002010B5C043054B00215C5C9442B9
:10C8500001D1084610BD491C0429F7D310BD0000C2
:10C860002AED010070B50E4E00250C4630600029FF
:10C870000DD0012000F0AEF8002801D0022005E024
:10C88000002000F0A7F8002800D00B20207070686E
:10C89000002802D1FFF730FA0546284670BD000097
:10C8A0002820002010B51C4C0188606810290DD08C
:10C8B00011290AD1401E606007D1FFF71DFA002838
:10C8C00003D02168002900D0884710BD00281ED160
:10C8D00000210122084600F0A3F8002801D0072813
:10C8E00011D107220221012000F09AF8002801D07E
:10C8F000072808D104220221002000F091F8002826
:10C9000005D0072803D02168002900D08847606837
:10C91000401C606010BD00002820002010B50020E1
:10C9200000F0BCF9002801D0062807D1012000F052
:10C93000B5F9002801D0062800D1002010BD000064
:10C94000F3B581B00D460198FFF77AFF044604283D
:10C9500013D21D481D4F1E4E002D27D0012D0DD086
:10C96000022D0AD160002018C0194578002D04D08E
:10C97000F168002901D028468847FEBD6100611892
:10C980007D5CCF19797800290BD071680A22514358
:10C990000F4A8068921CFFF7B1FA002801D1019874
:10C9A000B0700B48B97810300155DFE78068FFF7A9
:10C9B000E9FA0748610061181030C919005D8D78E7
:10C9C000A842D3D0FEBD000030ED01005833002056
:10C9D0001420002010B5FFF7C9FE10BD014610B5A8
:10C9E0000D480429008906D007290CD00A2901D155
:10C9F00001F00AFD10BD132176DF09E00028F9D00F
:10CA0000FFF7F6F910BD05498842FBD1FFF7E6FCB8
:10CA10000828F3D110BD0000E81F0020FFFF000030
:10CA200070B50023042811D2440004190D4D012AC9
:10CA300002D101290DD0002246008019094E80192B
:10CA400000290CD0012906D0022906D00723184658
:10CA500070BD0E30C2B22A55F9E74270F7E7827016
:10CA6000F5E700005833002010B5054A0146127A58
:10CA70000020D20702D0084600F050F810BD000098
:10CA800014200020F8B506461F4800248660C260C6
:10CA900041600F46B00720D50025012211462846E7
:10CAA000FFF7BEFF6D1C0446042D02D2002CF4D00B
:10CAB00013E0002C11D17A0804211448FFF752F931
:10CAC00004000AD1FFF73CF9040006D10F48104AD0
:10CAD0000021001FFFF7C2F90446F00701D0FFF75D
:10CAE00089FE002C0ED109480A4A00210C38FFF7B4
:10CAF000B5F9040006D10548074A01210838FFF7B7
:10CB0000ADF904462046F8BD142000203CED01009C
:10CB1000ADCC01009DD1010035BD0100F8B55D4CE3
:10CB2000054660780026002803D000206070FFF7DB
:10CB300075FE0120584F2B00FEF7B7FF18970D0D1B
:10CB40002E3D4A5F64686F686FA97777777777972C
:10CB50009A9DA0A9A9950020FFF73CFE00280AD0C5
:10CB60000020FFF723FE022D02D1E120C0000BE0E0
:10CB70007D20400108E00020FFF722FE022D01D1B8
:10CB8000C82001E0FF20913025706421FEF7BEFA35
:10CB90006168414300222BE00020FFF71BFE0028C4
:10CBA00005D00020FFF702FE19204001ECE700202D
:10CBB000FFF706FEE4E70020FFF70CFE002803D095
:10CBC0000020FFF7F3FDD3E70020FFF7F9FDD9E7D9
:10CBD0000020FFF7FFFD002803D00020FFF7E6FD4F
:10CBE00002E00020FFF7ECFD2570606841000022A4
:10CBF0003868FFF783F9064635E00020FFF7C6FDE9
:10CC0000257007E000203FE025702CE060700120D7
:10CC1000FFF7BCFD00226168EAE760700120FFF7C2
:10CC2000B5FD606881004118E1E77868FFF7AAF96F
:10CC300006461120401B01D0002E03D00220FFF732
:10CC4000B5FD10E001280BD9C82148436421FEF747
:10CC50005DFA6168002241437868FFF74FF90646A4
:10CC60000220FFF7ADFD3046F8BDFFF7D7FDCBE75B
:10CC7000FFF7D4FDC6E7FFF7D1FD04E0FFF7CEFDD7
:10CC80000020FFF79DFD0120FFF79AFDBCE7FFF7AD
:10CC9000CEFDB9E71420002030ED010010B5FFF7FC
:10CCA0005FFD032101F0F7F8002010BD10B50078FA
:10CCB0000221FFF745FE10BD0022D2438300044944
:10CCC0000428CA5002D308182030027770470000A9
:10CCD00080350020F0B50025ED43002A02D0002366
:10CCE000042601E0042308260B4C04E09F00E759CA
:10CCF0007F1C04D05B1CB342F8D32846F0BD261835
:10CD00005DB2203635709E00A151002AF5D1E118A0
:10CD100020310877F1E7000080350020024909182A
:10CD200020200856704700008035002070B5084C60
:10CD3000050009D010342168002907D00868206058
:10CD4000496828468847F6E70834F4E770BD0000D4
:10CD50006C350020F8B52348416800293ED00E68A4
:10CD600021494C6887688078E11B0D022D0AED1C73
:10CD7000002814D101201D4A000450601B4A403A8B
:10CD800050601B49400008601A4908601A49012098
:10CD900008602F2000F096FC124901208870B542EF
:10CDA00000D23546E81900020F4B000A40331860E4
:10CDB0000D4A5168001B091B0902090A0002000AFA
:10CDC000C91C814209D9506818602F2000F07AFCF4
:10CDD00001200749400480390860F8BD01F098F946
:10CDE000F8BD0000982000200015014040130140CC
:10CDF00080E200E000E100E000100140F8B50646E6
:10CE0000108814468446801D0D46984201D90C2096
:10CE1000F8BD32880720062AFAD31927FF01184BDC
:10CE2000BA4201D99A42F3D171880629F0D3B942A6
:10CE300001D99942ECD19A4203D0994201D08A4259
:10CE4000E6D805216046295420881221401C80B272
:10CE5000208029542088401C80B2208041193088CD
:10CE600001F078FE2188401880B220804119708836
:10CE700001F070FE2188401820800020F8BD0000DD
:10CE8000FFFF000010B5FEF7B3FF10BDF8B5164860
:10CE900000F052F9144D00260C3D144C002807D028
:10CEA000616900291CD001206A461070684616E0AE
:10CEB0002878002805D06169002911D068460670DD
:10CEC0000DE0687800280DD0A168094800220068AC
:10CED000FFF714F8002803D0A169002900D0884783
:10CEE0002E70F8BD6168F0E77020002050350020FA
:10CEF0005CED0100F8B500260124154D23E06968BA
:10CF0000F0004718387821462A698140114218D02C
:10CF10008A432A6100F002FD3A782146EB6891408D
:10CF200019400346934099420BD17978012901D0E9
:10CF3000012100E000217B684140002B01D0104618
:10CF40009847761CF6B228788642D8D3F8BD000000
:10CF50008420002010B50E4900230A784C78A242A4
:10CF600012D0521CD2B20A70022A00D10B700A7879
:10CF7000074B920018339A58026088681018000214
:10CF8000000A8860012010BD0360002010BD000071
:10CF900098200020826883881A4003689A5C0A708F
:10CFA0008168491C81607047C26883881A400368A1
:10CFB0009954C168491CC16070470000F0B5002257
:10CFC0000125104613492D0303E0002001E0052848
:10CFD00005D2130300241E188C555C1D10E0052893
:10CFE00009D0861F102E09D20B4E3618203E367FF0
:10CFF0001F18CE5504E06E260E5501E01E18885508
:10D00000401C80B2A842E2D3521C1204120CDCD0A5
:10D01000F0BD00001822002000200020F0B41446CB
:10D020000022094E094D04E01718F75DAF54521C59
:10D0300092B28A42F8D3002C04D0A446F0BC1A461F
:10D0400002486047F0BC70471822002018320020C8
:10D05000002804D00349496E016000207047032076
:10D060007047000030360020F8B50746104E012505
:10D07000BD403068FEF786FF00280DD10D4C2069B9
:10D08000284207D1384600F049FC0028E06804D067
:10D09000284303E0A8432061F8BDA843E06020696D
:10D0A000002228432061A1683068FEF727FFF8BD01
:10D0B00080ED010084200020F8B51E4C2078002867
:10D0C00036D0E068002600280CD0002560780028C3
:10D0D0002ED1684652DF052806D0002806D0FEF77C
:10D0E00087FE0BE00125F1E7012607E0009800F03C
:10D0F0003FFB2169002901D000988847002D13D1FA
:10D100006078002814D1608869460880A06861DFD3
:10D11000052804D0002804D0FEF76AFE04E00125AB
:10D1200002E0E168A0688847002ECFD0002DE5D04E
:10D13000F8BD0000D42000204188054802889142B3
:10D1400004D34088814201D80120704700207047F5
:10D15000682000201048018CC9B2012917D1818CA8
:10D16000090714D1018D09060A0F03D1828D120619
:10D17000120F0ED0090F012903D1828D1206120F52
:10D1800007D0032903D1808D0006000F01D00020B5
:10D190007047012070470000C00F00F010B5044830
:10D1A000017AC90702D00078FFF7B8FC10BD000073
:10D1B00014200020F0B5284C2146103948688B68AF
:10D1C000227886469C46CF78667836E0182353430B
:10D1D0006168521CC918A378D2B2934200D10022D0
:10D1E0000B78022B02D0032B27D123E003464D6896
:10D1F000194603E0A94204D00B46C96900291CD096
:10D20000F8E7002919D08B4208D1C069002805D160
:10D21000124F0125BD600025AC4601270D68C96984
:10D22000D961002909D00B685B190B6005E0017416
:10D23000C06900E000210028F9D19642C6D1064914
:10D24000624610398A604860CF70704501D0012075
:10D25000F0BD0020F0BD0000A8200020001001401B
:10D26000F8B52C4E044670680025009041E0002C73
:10D2700002D02046E46920E02648182310300178C7
:10D2800042684B43491CC9B2D21801708378994255
:10D2900000D105701178506801292CD1017C00293A
:10D2A00029D191684160D16881601169C16051697B
:10D2B0008161F178002900D045604368B268164F5B
:10D2C000991A0902090AB94202D28268891806E04D
:10D2D000D11A09028268090A8A4202D9511A0160E8
:10D2E00000E005604560012185600174C56101F0C1
:10D2F0008BF9002CBBD1074810300178407881426F
:10D30000BAD171680098814201D00120F8BD002097
:10D31000F8BD000098200020FFFF7F000023A8B088
:10D320008E4A05211846FEF7AFFD002801D0FEF712
:10D330005FFD18228A496846FDF712FF874840269C
:10D340004038069087480125089007960323864AAF
:10D3500006A909956846FEF745FE002801D0FEF7AC
:10D3600047FDFEF755F8814A81490320FFF78AFB04
:10D37000002801D0FEF73CFD69460020FFF772FA55
:10D38000002801D0FEF734FD6846007802287DD0E1
:10D39000002069460871724F7049143F3868059043
:10D3A000002348229C3905A801F06EF8002801D01E
:10D3B000FEF71EFD6A460121002001F04DF800280D
:10D3C00001D0FEF715FD684601F03CF8002801D0B9
:10D3D000FEF70EFD674801F02BF8002801D0FEF79C
:10D3E00007FD1120694608720B2263A102A87CDFA9
:10D3F000002801D0FEF7FCFC0024009410216846B0
:10D40000019401803C214180FF2184809131C180C1
:10D410007ADF002801D0FEF7EBFC5A4800904F4815
:10D4200069467830FFF732F9002801D0FEF7E0FCBA
:10D430003C2101A8FDF7ADFE02216846017184710F
:10D440000521C1713C2110A8FDF7A3FE10A805829B
:10D45000444820210C3015901FA8FDF79AFE18A80B
:10D46000C577B42023962490474B1FAA10A9009497
:10D4700001A8FEF7D9FE002801D0FEF7B9FC1C2157
:10D480006846FDF786FE0520C00300E03DE0019000
:10D490000F20000402900094032168460173C481A8
:10D4A00004743A4805903A4806906846FFF738F801
:10D4B000002801D0FEF79CFCFFF780FD01F016F874
:10D4C0002C3707CF6B4607C33249684600F070FC23
:10D4D000002801D0FEF78CFC2248801C00F02CFCB8
:10D4E000002801D0FEF784FC00F052FC0320FEF778
:10D4F00093FF002801D0FEF77BFC1A4E361F70798F
:10D50000012804D002281BD014E0012041E7224F5B
:10D51000002500221146104601F082FA6D1CADB2C2
:10D52000BD42F6D30320FEF777FF002801D0FEF7B7
:10D530005FFC747148DF0028E1D0FEF759FCDEE79C
:10D54000F06869460870020A4A70020C8A70000E80
:10D55000C8700421684601F053FAEAE784210020EC
:10D5600004ED0100EC1F0020C9E70100DDC9010046
:10D57000CD0C000065C601004E6F726469635F5593
:10D580004152540073DF0100A5DF0100C1E001003A
:10D5900085CE0100CFEC0100FF1F000070B51446DE
:10D5A00082880E4605462088111D4118921C99421A
:10D5B00001D8FE2A01D90C2070BD521C325420889B
:10D5C000FF21401C80B2208031542088401C80B252
:10D5D00020808119288801F0BDFA2188401880B286
:10D5E0002080AA88002A09D0A968002908D08019BB
:10D5F000FDF7B6FD2088A98840182080002070BD66
:10D60000072070BDF8B50F4601781446054601297C
:10D6100002D16878002806D02088821C9A422DD832
:10D62000012902D006E00720F8BD69784118891C5D
:10D63000994223D8181A801E86B26846068021882F
:10D64000B81C081869467DDF0028EDD1287802282B
:10D6500005D169460988B14201D809210AE00821AB
:10D66000012805D16878B04202D86A46108001E0EE
:10D670006846068068460088FE2801D90C20F8BD5F
:10D680002288401CB8542088401C80B22080395425
:10D6900020886946401C208009884018208000208E
:10D6A000F8BDC20843075B0F0120895C9840084021
:10D6B00070470121890740180068002800D0012028
:10D6C0007047000000280FD00849094A096800BFC8
:10D6D00000BF00BF00BF00BF00BF00BF00BF91423E
:10D6E00000D000BF0138F2D1704700003020002088
:10D6F0000024F40070B50E4C00252078002801D0DD
:10D70000852513E00021A16061602161E160094885
:10D7100000680126304002D1032100F02FF800F00C
:10D72000DFFE002801D1044886612670284670BDBE
:10D730006C35002000E100E00005004038B5002015
:10D74000694608706846FEF7C5FC084C207800283A
:10D7500001D1FFF7CFFFE068401CE0600120A0701E
:10D7600068460078FEF7D4FC38BD00006C35002018
:10D7700010B5002801D1FFF7D9FA10BD8207D30EEA
:10D78000FF229A408907090E10B5994000280BDA4C
:10D7900003071B0F083B9C080C4BA400E318DC6933
:10D7A00094430C43DC6107E08408094BA400E418AF
:10D7B000236893430B432360C106C90E01208840B0
:10D7C000044908600449086010BD000000ED00E055
:10D7D00000E400E080E200E000E100E0F3B581B0A9
:10D7E000054600F07DFC1F4F0028284617D0FFF7A4
:10D7F00095FAC0192030007F8009032802D0012843
:10D800000BD005E018480069E840C007C00F04D0FD
:10D810000321284600F050FBFEBD0221F9E700F08D
:10D820006BFC0028F8D02846FFF778FA0446800001
:10D83000C11D0E4AF9318018026989B201263243AE
:10D840000261084600F076FB02980028E4D02846E2
:10D85000FFF764FA800038580028DDD00448A6405D
:10D860004660FEBD80350020000500500065004088
:10D8700000630040FEB5044625480E4600192021ED
:10D8800041560027C8171346401C01D008273CE02A
:10D89000F27819462046FFF71DFA0546401C33D0A2
:10D8A000B07800280BD005200007A1000918072038
:10D8B00000020918086802229043086007E000216E
:10D8C0007378204600910A46019100F0A9FAF07899
:10D8D000002810D00F48AA001018317802690E4BAA
:10D8E0001A400261E206D20C8907890B0A430169DA
:10D8F0000A43026109E00648327840192030017F6E
:10D9000092011143017700E004273846FEBD000074
:10D910008035002000650040FFE0FCFF03490969F5
:10D92000C140C807C00F00D001207047000500505B
:10D9300070B5144D2879002801D0082070BD114918
:10D9400000204039421E0B182033401CC0B21A7010
:10D950002028F8D300242046FFF7AEF9641CE4B277
:10D96000082CF8D303210620FFF708FFFF207D30A5
:10D9700000F0E0FA01200449C00748600120287146
:10D98000002070BDC03500200063004002480079CF
:10D99000002800D001207047C035002070B5012458
:10D9A00024048C40032605683602AD19002B01D0F3
:10D9B0006C6000E0AC60006889000818052109026D
:10D9C0004018026470BD0000016801220A600079FD
:10D9D0000C225043024A0221801801727047000055
:10D9E000E4350020F0B5FF25023504688D40FF3492
:10D9F000FF340234059E2768AF4327600468FF3474
:10DA0000FF34023425681D4325603346FFF7C6FF07
:10DA1000F0BD000070B504460D4600790C21484366
:10DA200022494618307A002801D0082070BD002A0B
:10DA300005D03260686870600020034608E0072067
:10DA400070BD8100FF31226841315350401CC0B28B
:10DA500061798142F5D82068E978000B40B2FFF780
:10DA60008DFE05202168000209186A784B68D207EC
:10DA70005B085B00D20F13434B602168AA7809183A
:10DA80008B6892079B089B00920F13438B60226860
:10DA9000297810180269090712091201090F0A43AF
:10DAA000026101203072002070BD0000E4350020CA
:10DAB000F8B506460F4600791C2148431A49154619
:10DAC0004418E07E002801D00820F8BD39463046D1
:10DAD000FEF734FB65603869206028460025002881
:10DAE00013D0FF223068397F1D328550FF22306805
:10DAF00045328550032330681B020C4AC01842602F
:10DB00003068000B40B2FFF739FE0522306804216F
:10DB1000120280180160E5752576A5750121E17670
:10DB20002846A576F8BD0000C83500208000020018
:10DB3000F8B503791C246343134C81251C19032772
:10DB400066680023AD003F02002E02D00668F61979
:10DB5000B560E67D002E0ED0237E002B07D06168D5
:10DB6000002902D00068C01945601120F8BD21616C
:10DB70000123227604E0E2750025E16065762576D2
:10DB800000F01AF8F8BD0000C835002070B5044652
:10DB900000791C21074D48434019807E002808D198
:10DBA000204600F043FB20791C22012150434019FC
:10DBB000817670BDC8350020F8B5044600791C2177
:10DBC000484326494518A87E184302D1204600F054
:10DBD0002DFB6868002808D0812103222068890075
:10DBE0001202801841600020F8BDFF2045302168F6
:10DBF00000220A50FF212531206800F0ADF90646C9
:10DC0000FF210931206800F0A7F90090FF2145317C
:10DC1000206800F0A1F90746009838433043E9D066
:10DC20003046384307D12946206800F093FAE87D52
:10DC3000697E8842DED80020E875002E01D00320DE
:10DC4000F8BD002F01D00F20F8BDA97E01200029CA
:10DC5000216801D00860C6E74860C4E7C8350020E5
:10DC600070B505460C4600791C2148430849431805
:10DC7000284600F055F8002801D0112070BD9A7593
:10DC800000209C609882284600F004F870BD0000D7
:10DC9000C8350020F8B5044600791C2148431F49C7
:10DCA00000264518FF2720681D37C651206801212E
:10DCB00081602946206800F02BFD6968002913D097
:10DCC00027E0FF270137FF211D31206800F044F9CC
:10DCD000002802D1A88AB842F5D1A88AB84203D058
:10DCE0002946206800F014FDA88AA97D8842E8D35F
:10DCF000A98AC81FF9380ED0FF271D37394620687A
:10DD000000F02AF90028F9D020680121C160002024
:10DD1000A8753046F8BD0F26F9E70000C835002089
:10DD200000791C21484303494018807D002800D019
:10DD300001207047C835002038B5044600206946E8
:10DD400008706846FEF7C6F90A48816808290AD2B1
:10DD500021704A1C82600848826801238B401A4364
:10DD60008260002400E0042468460078FEF7D0F9C1
:10DD7000204638BD7820002000050140034A80007D
:10DD800001498018016070473546526E0006014017
:10DD9000044901204860014603480160034902200C
:10DDA0000870704700030140000001407820002007
:10DDB00070B504460D4841600178002901D0082063
:10DDC00070BD01210170002C00D1094C094D207853
:10DDD000E86060687D21C003C900FDF797F96860BD
:10DDE000217A1020FFF7CAFC002070BD78200020A7
:10DDF00074ED01000005014070B552000A4399001E
:10DE0000049D0A432902059E0A43310405240A435E
:10DE1000240780000721001909024018026070BD24
:10DE200070B552000A439900049D0A432902059ED9
:10DE30000A43310405240A432407800007210019FE
:10DE400009024018026070BD70B552000A43990083
:10DE5000049D0A432902059E0A43310405240A430E
:10DE6000240780000721001909024018026070BDD4
:10DE70001CB500220B46009211460192FFF7E4FF09
:10DE80001CBD1CB5002100910B46012201911146D9
:10DE9000FFF7DAFF1CBD0522120780008218072059
:10DEA00000021018026803231B049A4302600268F0
:10DEB00009040A4302607047052212078000821895
:10DEC000072000021018026803231B049A43026013
:10DED000026809040A43026070470000044A53685C
:10DEE000012181400846984390601940D1607047F5
:10DEF00000050050012282400348002901D08260C1
:10DF00007047C260704700000005005038B5084BEC
:10DF100005241B68009324026B46411805E0850028
:10DF20005D592D192D69401C20C28142F7D838BD9A
:10DF300070ED0100024940180021016070470000A7
:10DF400000600040034940180068012800D000200C
:10DF500070470000006000404058002800D00120B9
:10DF600070470322120280184068084000D0012048
:10DF7000704770B516460D46002405E0285DFEF793
:10DF800089F80028FAD1641CB442F7D30D20FEF7BB
:10DF900081F80028FAD10A20FEF77CF80028FAD18F
:10DFA00070BD000010B500280ED003280BD1022050
:10DFB000FEF75AFD044606A10020FDF77FFA200077
:10DFC00001D0FDF715FF10BD00F01EFA10BD0000D6
:10DFD0004164766572746973696E67205374617207
:10DFE00074210A0070B50446344D00882E8988B02B
:10DFF0003A283ED00DDC02283FD0102813D011283B
:10E000001CD0132818D100231A46852130467FDF03
:10E010002CE0512835D0522823D055280CD1A08887
:10E02000132176DF22E00720FEF71EFD002801D035
:10E03000FDF7DEFEA088288108B070BD0020FEF745
:10E0400013FD002801D0FDF7D3FE0020C043288136
:10E050004120FEF71FF80028FAD1EDE7FDF7C8FED2
:10E06000EAE700231A4619463046A9DF0028F5D111
:10E07000E2E7A088132176DFF8E7A088002167DFB8
:10E08000F4E71022A11D04A8FDF76AF86846017C98
:10E090000029D1D0007E042803D0062801D005280D
:10E0A000CAD1022908D0012069460870FF208330B8
:10E0B0008880A088A8DFD9E70220F5E7E81F0020C4
:10E0C00010B50078002807D104483B21008976DF8D
:10E0D000002801D0FDF78CFE10BD0000E81F0020D5
:10E0E0000449081820214156042901DB012070470A
:10E0F000002070478035002004490818202141562F
:10E10000042901D20120704700207047803500208B
:10E1100070B501240B49600408600B494010886009
:10E12000094940398860094D6C602F20FFF7CAFA11
:10E13000AC60074D00242F20AC60FFF7C3FAAC7031
:10E1400070BD000080E100E040130140001001407C
:10E150009820002030B5FF220523CD7D0024093210
:10E160001B02C318002D8450986905D04B7ECA68E5
:10E17000D054487E401C487630BD70B5002405461A
:10E18000601C90B00007000F08A9103008940870B8
:10E19000601C0007000F103048708878F926304066
:10E1A000801C88701C2101A8FCF7F3FF69460879E0
:10E1B0001021084369460871029408A80494059444
:10E1C00007940690287808A98871032069468884F6
:10E1D00011200094087048708878F7213040801C26
:10E1E0000840EF2108400126304369468870142119
:10E1F0000AA8FCF7CEFF09A80A9068460B9069466A
:10E200000E8614204C8688862B4668880C330AAA12
:10E2100001A9A2DF10B070BD1FB501246B461C70B0
:10E220001972019206C8684690471FBDFF23253327
:10E2300002680021D150FF2302680933D1500068E1
:10E24000012101607047000010B50446FDF74AFC4B
:10E2500000280CD0A007C00E002C0ADA2107090FF5
:10E2600008398908144A89008918C96906E01348E1
:10E2700010BDA108124A890089180968C140080622
:10E28000800F042811D200280FD002280DD00D498C
:10E290004B68E206D20E01209040002B08D06209A4
:10E2A00092008B5803438B5004E00448401C10BD7F
:10E2B00005490860002010BD00ED00E001200000CD
:10E2C00000E400E0CC20002000E100E0FFB50746BC
:10E2D000806A81B0144600283DD0002538462030A1
:10E2E000009033E00C20B96A68430E18B088801C97
:10E2F000FE2802D90C2005B0F0BD22880299401CEE
:10E30000885420881622401C80B2208002990A542A
:10E310002088401C80B2208002994118308800F08B
:10E3200019FC2188401880B22080B288002A0AD0C7
:10E33000B16800290FD0029BC018FCF711FF20889C
:10E34000B188401820806D1C0098EDB2007BA84277
:10E35000C8D80020CFE70720CDE7000070B50446FD
:10E360001248134D018A2182818A61820078002837
:10E3700018D06879002815D100F0AEFC002811D023
:10E3800028462030E0600220084920720420203115
:10E39000C870064800212030FDF712FF002804D184
:10E3A000052000E00320A870002070BD8433002009
:10E3B0003420002070B5044611480426018B2182C8
:10E3C000818B618200780F4D002816D06879002873
:10E3D00013D100F081FC00280FD028462030E060E7
:10E3E00002202072064800212030C670FDF7E8FEAA
:10E3F000002804D10620A87000E0AE70002070BD97
:10E40000843300203420002010B50020FEF72CFBC0
:10E41000002801D0FDF7ECFCFEF780FA002801D0BF
:10E42000FDF7E6FC3CDF002801D0FDF7E1FC10BD64
:10E43000002803D00249C860002070470E207047B2
:10E44000D42000201CB5034901910091694660DF8A
:10E450001CBD0000E81F002070B50E46054614469E
:10E4600014211046FCF795FE012000212080216137
:10E47000217326726572002D00D0A072002070BD3D
:10E4800010B5FDF7A9FC10BDF8B5002903D08C0725
:10E490000025002C01D00720F8BD0E4E0E4FB160B4
:10E4A0007280736039680124214003D00A492546EF
:10E4B00080310C60094910DF002803D0002DEBD01B
:10E4C0003C60F8BD3470FFF739F91620FFF7BCFE49
:10E4D000F8BD0000D420002000E100E081E401004C
:10E4E0000148007870470000D42000203EB515494F
:10E4F00003200860012420050D1513498860134985
:10E50000134AC868096901901048029101A9001DC9
:10E51000FFF780FA002801D0FDF76AFC0B48001DC8
:10E520000068401900690B4A0123C24007480021D6
:10E53000001D0094FFF756FA0448001DFFF744FA47
:10E540003EBD00005007005000050050F0EC0100F7
:10E5500059E501000074B70110B5FF38412806D114
:10E560001420FFF7BBFC02488079FFF707FC10BDC1
:10E57000E81F0020FEB51F4C0025A76860680290C8
:10E580006846FEF7E7FC0190FEF714FE0646019888
:10E59000002822D000230098616817E00E680A4620
:10E5A000864202D9301A086012E0801BF318002658
:10E5B0001660D668D169B446002E07D0FE18360220
:10E5C000360A566066469660D56115460029E5D143
:10E5D00028466160FEF744FE06E02846FEF740FE4E
:10E5E000002801D1002E02D00298FEF7B3FB0020D4
:10E5F000E070FEBD9820002001200249000508605F
:10E600007047000000E200E010B50E4B5968002989
:10E6100006D002680C68A24204D8A21A0A60C1613E
:10E62000586010BD0B4604E00B46C969121B002957
:10E6300004D00C689442F7D3A41A0C600260C16144
:10E64000D86110BD982000207CB50D4606460024F8
:10E6500069460C706846FDF73DFD01A800F0B2FA6E
:10E6600000280DD00570466068460849007948705A
:10E6700068460078FDF74CFDFFF7BEFF20467CBDE5
:10E68000684604240078FDF743FDF7E7A820002042
:10E69000F8B51D4D6C68002C34D01C48002740682C
:10E6A000A968401A0602360A2068B04218D8361AFD
:10E6B000C7192246107CE46900280FD0002010748E
:10E6C000EB68002B07D0916950699847002805D066
:10E6D000FDF78EFB02E0516990698847002CE3D179
:10E6E00029786878814206D1401CC0B2687002283F
:10E6F00001D10020687004490006800D18310F50C8
:10E70000FFF77AFFF8BD00009820002000150140B7
:10E71000FF221D32002383508B8A8A68D25C8B8A49
:10E720005B1C8B82052109024018C261704770B5DD
:10E730008EB005461C216846FCF72BFD694608781B
:10E740000C21084369460870002401940394049442
:10E7500005940694287808A98870022069460884E0
:10E76000601C0007000F10300794087711204877CD
:10E77000887FF9210840F721801C0840EF210840DC
:10E780000126304369468877142109A8FCF701FD6A
:10E7900008A8099007A80A9069468E851420CC85A0
:10E7A000088668882B1D09AAA2DF0EB070BD1FB5B0
:10E7B00000226B461A70197281680191827506C831
:10E7C000684690471FBD000070B50178002905D04C
:10E7D000012901D002291AD1406816E0134C124ECB
:10E7E000E0783018FDF7E2FBE078305C0126532832
:10E7F0000ED0472813D045280FD04F2807D103202B
:10E80000FDF70AFE2846002801D0FDF7F1FA70BD99
:10E810005320FDF73FFC0028FAD1667170BD02203D
:10E82000607174DFEFE7000030210020E81F002056
:10E830007CB50178264D002934D001290CD002295D
:10E840002DD16A461170C068691C01900122C81D53
:10E85000FFF76EF9684630E0406801781D48FDF723
:10E86000F0FA01261B4C002803D069460E70019077
:10E8700006E0A068E168814205D000206946087082
:10E88000084669688847A068E168081AA188884234
:10E8900006D80F490122491CC81DFFF749F97CBD64
:10E8A000AE707CBD0B480A491030FDF7ADFA002868
:10E8B00006D00320694608706846696888477CBDB1
:10E8C0000349012208460830FFF7CAF97CBD000061
:10E8D000B820002010360020F0B50C46012185B08C
:10E8E00005464902FFF73DFB032109026F18002688
:10E8F000002826D0FF2125312846FFF72DFB0028D0
:10E900001FD0FF2025302E5081208000B860A07ECF
:10E91000002801D1012068600221684601700920A9
:10E92000C0012918086808600390E17D68460172FB
:10E93000E0680190E675267606CC6846083C90476C
:10E940002DE004212846FFF70CFB002827D0FF21EB
:10E9500009312846FFF700FB002820D02146284631
:10E96000FFF7F8FBE07D617E884218D1207E002809
:10E9700007D0617EE268E0752069E0602676667601
:10E980000AE0A07E002801D101206860812080007B
:10E99000B860E675617EE2682046FFF73DFCFF2720
:10E9A0001D3739462846FFF7D7FA00280FD0A08A2E
:10E9B000A17D884204D221462846FFF7A9FE06E041
:10E9C000EE51A17D002902D02046FFF7F0FEFF277F
:10E9D000453739462846FFF7BFFA00280ED0EE51DA
:10E9E000A07E002801D001202860E07D002805D00D
:10E9F000E675617EE2682046FFF70EFC05B0F0BDCB
:10EA000070B50E460546002406E0285DFDF742FB82
:10EA10000028FAD1641CA4B2B442F6D370BD000041
:10EA2000F0B50D46014629430026454C87B0002924
:10EA300004D10121666161707E2121706769052121
:10EA40003A05120D002A10D0052A21D000281DD029
:10EA50002946FFF7D5FF6089401B0004000C608148
:10EA600060694DD0401960615CE020786E2806D066
:10EA70000F4300233846334A112167613DE032A03D
:10EA80000068009001216846FFF7BAFF07B0F0BDAB
:10EA9000037BC27A1B02134363812C4F02782270DE
:10EAA000BB42ECD87E2A03D0FE2A01D06E2AE6D1E2
:10EAB0006378002B02D0FE2A02D1E0E77E2ADED066
:10EAC000002B00D066706A461170014600A82A46E5
:10EAD0000130FCF745FB6D1CA9B26846FFF790FFBB
:10EAE0006069FF21000B000316306061628901310B
:10EAF0008A4200D811460023124AFEF78FFAC5E772
:10EB0000000B01210003090340181149606188428C
:10EB100008D96661A6700CA00068009001216846C3
:10EB2000FFF76EFFA0780028B0D06189FF20013088
:10EB3000814200D901460023024A6069DDE70000F6
:10EB4000E81F002021EA0100FF000000EA0F00009A
:10EB5000FF1F00000870000A487002207047000084
:10EB600038B51549154A488890420FD04A78144C58
:10EB7000521CD2B24A70237B934208D3091D75DF21
:10EB8000002803D0A169002900D0884738BD00259E
:10EB90004D70217C002907D03B2176DF002803D06F
:10EBA000A169002900D0884761690029EED0684634
:10EBB0000570884738BD000064200020FFFF00007A
:10EBC0005035002010B509494B788C785A1CD2B2C8
:10EBD000944200D100220C78944201D1002010BD53
:10EBE0000270486818214B43C01810BDA8200020AF
:10EBF000FFB583B016460C9D0D9C1F460222009562
:10EC00000194039800F00CF8002807D13B4610222D
:10EC1000314600950194039800F002F807B0F0BD6A
:10EC2000FFB583B0074600200C9C86462688054623
:10EC30003AE07868A90042181188684681805188B6
:10EC4000C1800022694601A865DF002839D16846E5
:10EC500001780598814226D17046002801D0002213
:10EC600000E002222088891842180D998A4227D88C
:10EC7000714600290AD1401C80B22080069A04996E
:10EC800011542088401C2080012086462188069847
:10EC90000A18694601A865DF002812D16946208854
:10ECA0000978401820806D1C3888A842C1DC704665
:10ECB00000280AD02088801B401E80B2FF2802D97D
:10ECC0000C2007B0F0BD069988550020F9E710B573
:10ECD0001320FFF703F910BD04480179002902D180
:10ECE000007B002800D00120704700005420002045
:10ECF000010000070090004000040000080000032D
:10ED0000000000000B000000090000000B000000E4
:10ED10000A0000000000000000D0BE0E000000004D
:10ED2000B80B0000030000001213111213140000AE
:10ED30001833002038330020643300201100030012
:10ED400041C901001200030041C901001300030082
:10ED500041C901001400030041C901003035002001
:10ED60009ECADC240EE5A9E093F3A3B50000406E33
:10ED70000000005000000000B80B0000030000007D
:10ED8000F035002003000000FFFFFFFFFFFFFFFF43
:10ED9000FFFFFFFFFFFFFFFF00000000000000007B
:10EDA00000E0D7010300000030313233343536370C
:10EDB0003839414243444546D8ED0100E81F002060
:10EDC00000010000C4BA0100D8EE0100E8200020D4
:10EDD000781E0000D4BA010000000100000000000D
:10EDE000FFFF0000000043010100020000000000DE
:10EDF000057EB0E3D647650100000201EA0FFFFF80
:10EE0000FFFF000000000000000000000000000004
:10EE100000000000000000000000000000000000F2
:10EE20000024F400000000000000000000000000CA
:10EE300000000000000000000000000000000000D2
:10EE400000000000F0340020000000001035002019
:10EE500000000000000000000000000000000000B2
:10EE600000000000000000000000000000000000A2
:10EE70000000000000000000000000000000000092
:10EE80000000000000000000000000000000000082
:10EE90000000000000000000000000000000000072
:10EEA0000000000000000000000000000000000062
:10EEB00000200040000000000000000000000000F2
:10EEC0000000000000000000000000000000000042
:08EED00000000000000000003A
:040000050001B0C185
:00000001FF
